:0300000002284192
:10284100787FE4F6D8FD9060007F007E07E4F0A376
:0A285100DFFCDEFA758166022896AE
:0C000300000000000000000000000000F1
:0B3C8800EF1FAC0670011E4C70F6220E
:103B3700AB07AA06EB1BAE0270011A4E600C7FAAF8
:0B3B47007E05123C8875D9AA80EA2296
:101F8500907120E04480F07F057E00123C88E4FFDC
:101F9500FE123B3775A75575AC5C9071327450F0E5
:101FA5009071307403F0907136742FF090715C74F9
:101FB50003F090715BE054FCF07F18EF2466FDE4BC
:101FC50034718D82F583E4F00FEFB433EE90401158
:101FD500E4935407FF90711CE054F84FF0904017BC
:101FE500E493547FFF90711DE054804FF0904010B2
:101FF500E493FF5401C43333335480FE907123E0DE
:10200500547F4EF0EFC313543F4440FFA3E0548088
:102015004FF0904012E493FF540FFE907146E05448
:10202500F04EF0EFC4540FFF90714FE054F04FF0B5
:10203500904013E493543FFF907140E054C04FF03B
:10204500904014E493907126F0904015E4939071BC
:0B20550028F0904016E49390712AF0F0
:01206000225D
:103AE000000009C4006400C80101F4004B000A0092
:0E3AF00000010F0405020009000A000A000A86
:103BB700E2FE74282FF582E43465F583E02224FCC5
:083BC70025E0FDF8740308225B
:10171300E4FF123BB9C394085058123BB9C3940475
:10172300502878C2C000123BB7123BC78002C333B4
:10173300D8FCF45ED000F278C2C000123BB7123B73
:10174300C78002C333D8FC02184178C3C000123BE0
:10175300B7123BC58002C333D8FCF45ED000F278E5
:10176300C3C000123BB7123BC58002C333D8FC028F
:101773001841123BB9C394084068123BB9C3941093
:101783005060123BB9C3940C502C78D2C000123B6A
:10179300B724F8123BC78002C333D8FCF45ED000F1
:1017A300F278D2C000123BB724F8123BC78002C3C1
:1017B30033D8FC02184178D3C000123BB724F4128B
:1017C3003BC78002C333D8FCF45ED000F278D3C0A9
:1017D30000123BB724F4123BC78002C333D8FC0288
:1017E3001841123BB9C39414502B78E2C000123B4A
:1017F300B724F0123BC78002C333D8FCF45ED00099
:10180300F278E2C000123BB724F0123BC78002C358
:1018130033D8FC802978E3C000123BB724EC123B99
:10182300C78002C333D8FCF45ED000F278E3C00073
:10183300123BB724EC123BC78002C333D8FC4ED013
:0B18430000F20FEF64026003021715B3
:01184E002277
:03005D00023497D3
:10349700C0E0C0F0C083C082C0D075D000C000C0FB
:1034A70001C002C003C004C005C006C0077881E29E
:1034B70030E607E24440F2122EAAD007D006D00524
:1034C700D004D003D002D001D000D0D0D082D08396
:0534D700D0F0D0E0324E
:1032D800D2AF43AB0843B6C0907132E04440F043EC
:1032E800AB087877743FF208744BF2787A7430F24E
:1032F800788914F27871744FF2187427F27872741E
:10330800A8F2087410F208E4F208F208F2787E7461
:0F331800D0F2087404F208741EF2087402F22254
:10296E00E4FBEB25E025E024F6F582E4343AF5832A
:10297E00740193FF74282BF582E43465F583EFF030
:10298E00EB25E025E024F8F582E4343AF583E49370
:10299E00FE740193FFEB25E0242AF582E43465F5FD
:1029AE0083EEF0A3EFF0EB25E0242EF582E4346500
:1029BE00F583E4F0A37441F0E47F01FEFDFC74287E
:1029CE002B123BBCF9F8120423E53F4FFFE53E4EB8
:1029DE00FEE53D4DFDE53C4C8F3F8E3E8D3DF53C7D
:1029EE000BEB640260030229701217131227A60262
:0229FE0032D8CD
:051EA50042658C000005
:073CA700E475F00102026A5E
:1035E800E5B154CF42B153A8BFD2AF75D102789C90
:1035F800E254E3F2E2441CF2E254FCF2E24401F247
:1036080008E2547FF2E24420F278A17401F21874BF
:1036180076F2789CE2541FF2E244C0F243A84022BA
:03002100021B912E
:101B9100C0E0C0F0C083C082C0D075D000C000C01A
:101BA10001C002C003C004C005C006C007789DE2A1
:101BB10020E703021C83E24480F230110690648125
:101BC100E004F0906406E004F0906504E004F09015
:101BD1006590123CA730181D9063B0123CA7C390CA
:101BE10063B1E094409063B0E0949C4011E4F0A3B1
:0E1BF100F0D21780099063B0E4F0A3F0C217A1
:101BFF0090658C123CA7C390658DE0946490658CC2
:0B1C0F00E094004006E4F0A3F0D216C1
:101C1A00906563E0FEA3E0FFE4FCFD7BFF7AFFF939
:101C2A00F8D31203E94006906563123CA79063AEAD
:101C3A00123CA7906584123CA7C3906585E094D0B6
:101C4A00906584E094074008E4F0A3F0906583F07F
:101C5A00906587123CA7C3906588E0946490658775
:101C6A00E094004008E4F0A3F0906586F090656582
:101C7A00123CA7906581123CA7D007D006D005D0A8
:101C8A0004D003D002D001D000D0D0D082D083D0EB
:041C9A00F0D0E03274
:0D1EAA00C113C1144165890042658A000022
:103BCF00120436EF2401FFE43EFEE43DFDE43CFC2D
:073BDF002275F00102026AE9
:1034DC00E5B254FC42B253A9FED2AF75D10490713F
:1034EC0000E054E3F0E0F0E054FCF0E04401F09034
:1034FC0071057409F0907104745FF0907101E054DF
:10350C007FF0E04420F0907100E0541FF0E044C0E4
:05351C00F043A90122AB
:03002400022201B4
:10220100C0E0C0F0C083C082C0D075D000C000C0A3
:0D22110001C002C003C004C005C006C00724
:0E221E00907101E020E7030222AEE04480F060
:10222C00906589E004F0E0C39414400BE4F09065F1
:07223C006F123BE01235A711
:1022430030821320130C90656B123BCF90656B1299
:08225300045ED2138002C213E5
:10225B0090658AE4123BE0C390658BE09414906523
:10226B008AE094004022E4F0A3F0906540123BE03A
:10227B00C3906541E094E8906540E09403400920E9
:08228B001506E4F0A3F0D215E2
:1022930030951620140F90653C123BCF90653C128D
:0B22A300045E1236E5D2148002C21463
:1022AE00D007D006D005D004D003D002D001D00084
:0B22BE00D0D0D082D083D0F0D0E0322E
:10328500906484120436747A2FF582E43464F583ED
:10329500229064E3E0FF2477F582E43464F5832229
:1032A5007D00EF75F00FA4244AF9746435F0FA7BBC
:1032B5000122E5822EF582E43583F58322E4F09040
:1032C500647DE014F090000F22906483E4F0906434
:0332D50082F02262
:0A3C9300E4906481F0C210D2112207
:0A3C9D00C211E4906481F0C210220D
:1039B80078C2E2543FF2E254FCF2E24440F29071E1
:1039C80081E04404F0907175E04401F043AA20D2EC
:0B39D800AF75D60175D59F75D2112286
:03004B0002184F49
:10184F00C0E0C0F0C083C082C0D075D000C000C05F
:0D185F0001C002C003C004C005C006C007E0
:10186C00906502E4F0E5D420E503021954E5D7F0C5
:10187C00201204E0B4A50990647DE0C394034003F6
:10188C00021951906502E0B4A508D2121232CE12A0
:10189C003C93906483E0B40108906502E09064820C
:1018AC00F0123285E06003021954906502E0FF905B
:1018BC00648412045290644A75F00FEB12049BEA94
:1018CC0075F00FA42583F583C083C082906483E0F8
:1018DC00FE04F0D082D0831232B7EFF0906481E432
:1018EC00F0A3E06063E0FFA3E06F705C906482E0C3
:1018FC00FB90648412043674772F12329DEBF0C285
:10190C00121232CE1232857401F090647DE004F034
:10191C00906484120436EF2401FFE43EFEE43DFDA6
:10192C00E43CFC90648412045EE47F03FEFDFC90B6
:10193C006484120452C31203FF400A90648412049C
:08194C006A00000000123C9D3E
:10195400D007D006D005D004D003D002D001D000E7
:0B196400D0D0D082D083D0F0D0E03291
:0D3C6100E5D430E4FB8FD7E5D430E4FB223E
:10196F00E49064E3F0A3F0C21D906481E0D3940A85
:10197F00400F123C9DE4906483F0906482F0C21299
:10198F0022E49064E3F09064E3E0FFC39403400328
:10199F00021A80747A2F12328EE07003021A779037
:1019AF0064E3E075F00FA4244BF582E43464F5830F
:1019BF00E0FE74772F12329DE06E601A9064E3E0C0
:1019CF00247A12328E1232C2C083C0821232A5D054
:0619DF0007D006020559C5
:1019E500E49064E5F09064E4F0A3F0123296E0141C
:1019F500FE9064E5E0FDC39E5022EF75F00FA42430
:101A05004AF582E43464F583E5822D1232BAE0FFAB
:101A15009064E4E02FF0A3E004F080CF9064E4E06C
:101A2500F0123296E0FEEF75F00FA42449F582E43A
:101A35003464F5831232B7E0FF9064E4E06F60022E
:021A4500D21DB0
:101A4700301D1DC21D9064E3E0FF247A12328E120E
:101A570032C2C083C0821232A5D007D00612055900
:101A67009064E3E0247EF582E43464F5837401F046
:091A77009064E3E004F00219950B
:011A80002243
:103A36001202A39064E912045E9064E902043690CF
:103A46007123E05498F0E0441EF022907123E05474
:073A5600D8F0E0445AF02211
:103A0E0078C3E24403F2E2440CF218E2440CF2787A
:103A1E006AE24478F27591FF123A4590712274076A
:083A2E00F0439E704399402211
:10386A005399E0EF24FE600F1460142402701612BC
:10387A003A51439904800E123A454399058006123B
:10388A003A514399017869E24448F27F017E000285
:02389A003B37BA
:100027007869E24401F2786BE230E1FA7402F2AFE8
:1000370093EF75F010A4FFAEF0E594C4540FFDEFF5
:030047004DFF2248
:10206100E49064E7F0A3F0A312046A00000000E426
:102071009064EDF0A3F074FFA3F0A3F0E4A3F0F0FB
:102081001200279064E7EEF0A3EFF09064F1E0C353
:10209100940240549064EDE0FEA3E0FF9064E7E019
:1020A100FCA3E0FDD39FEC9E40089064EDECF0A30F
:1020B100EDF09064EFE0FEA3E0FFC3ED9FEC9E50D6
:1020C1000F9064E7E0FFA3E09064EFCFF0A3EFF09F
:1020D1009064E91204529064E7E0FEA3E0FFE4FC9F
:1020E100FD120296A312045E9064F1E004F0E0C3D5
:1020F1009414408C123A3FC006C0079064EDE0FE94
:10210100A3E0FBAA06E4F9F8D007D006123A36C0DC
:1021110006C0079064EFE0FEA3E0FBAA06E4F8D056
:1021210007D006123A3678041204109064E7EEF0F4
:03213100A3EFF029
:012134002288
:10393000A3F078E3E254FCF2E24401F2907192E4E5
:10394000F0229064F0E004F0E0C3940822C2A4C224
:0E39500096D2977F04FE22FFE0FEA807082211
:1031D700E4FF78D3E2543FF2E24440F290718DE489
:1031E700F0E254CFF2E24410F290718CE4F012391D
:1031F70032C297C2961230BDEF702A7D0A7F8C12B9
:1032070025BF7D017F881225BF7D017F861225BFDF
:10321700E4FD7F821225BFE4FD7F841225BFE4FD14
:083227007F801225BF02340B69
:103B5200E4FDEE25E0FEEF30E004EE4401FEEFC3AB
:093B620013FF0DEDB408EBAF06F2
:013B6B002237
:022F1F00AC07FD
:102F2100E49064E4F0AF05123B52EC64816019EC6B
:102F310064836014EC6485600FEC6487600AEC6460
:082F4100896005EC648D70430A
:102F4900E49064E5F0A3F0EC64816004ECB48306DA
:102F5900EF547FFF8017EC64856004ECB48706EFBB
:102F6900543FFF8008ECB48904EF541FFFEFC454A9
:102F79000FFE9064E5F0EF540FFFA3F0EE75F00A31
:032F8900A42FFF73
:012F8C002222
:052A00009064E4EFF01A
:102A0500E4A3F012393012394D123C88E49064E6A3
:102A1500F0122A749064E6E09064E412395780025B
:102A2500C313D8FC30E004D2A48002C2A47F047E84
:102A350000123C88122A7E40D878E3E254FCF278F2
:102A4500E0E24410F2E49064E6F09064E5E025E00D
:102A5500F0122A7430A4079064E5E04401F0122ACC
:0E2A65007E40E7C296C297C2A49064E5E0FFEF
:102A730022C2967F047E00123C8822D2967F047E77
:0F2A830000123C889064E6E004F0E0C39408225F
:053BFD009064E3EFF00D
:103C0200E4FE122A00AE079064E3E0FFAD06022F45
:013C12001F92
:082A92009064EEEFF0A3EDF0FB
:102A9A00E412393012394D123C88E49064F0F01295
:102AAA002B189064F0E09064EE1239578002C31339
:102ABA00D8FC30E004D2A48002C2A4122B07123937
:102ACA004240DCE49064F0F0122B189064F0E0FFCE
:102ADA009064EFE0FEA807088002C313D8FC30E038
:102AEA0004D2A48002C2A4122B0712394240D9C2CE
:0C2AFA00967F047E00123C88C297C2A4A4
:102B0600227F047E00123C88D2967F047E00123C0F
:0C2B16008822C2967F047E00123C8822B8
:1030BD0012340BD39064CCE094339064CBE094083D
:1030CD005048C3A3E094D09064CBE09407403B906C
:1030DD0064CDE0D3940C5032E0C39401402CA3E0B6
:1030ED00D3941F5025E0C39401401FA3E0D394183F
:1030FD005018A3E0943C5012A3E0943C500C906403
:10310D00CBE0B40708A3E0B4D0037F00227F0122F7
:0525BF009064EAEFF05A
:1025C400A3EDF0EF6480601D9064EAE0FF64826034
:1025D40014EF6484600FEF6486600AEF648860051A
:0525E400EF648C706C37
:1025E900E49064ECF0A3F09064EBE0FFC3940A403C
:1025F90007EF75F00A84A3F09064EBE075F00A84A4
:10260900AFF09064EDEFF09064ECE0FEC454F04F4D
:102619009064EBF09064EAE0FF64806004EFB482B8
:10262900099064EBE0547FF080229064EAE0FF6453
:10263900846004EFB486099064EBE0543FF0800CA9
:0C2649009064EAE0B48805A3E0541FF0A0
:10265500E4FD7F8E122A929064EAE0FFA3E0FD126A
:092665002A927D807F8E022A92E8
:103668009064E3A3E02430FD7F8C1225BF9064E5CD
:10367800E0FD7F881225BF9064E6E0FD7F86122575
:10368800BF9064E7E0FD7F841225BF9064E8E0FD09
:0F3698007F821225BF9064E9E0FD7F800225BF8D
:10340B007F81123BFD9064D1EFF07F83123BFD90E7
:10341B0064D0EFF07F85123BFD9064CFEFF07F8798
:10342B00123BFD9064CEEFF07F89123BFD9064CD93
:10343B00EFF07F8D123BFDEF24D0FEE43407906458
:06344B00CBF0A3CEF0223D
:103A80009064E3F090600D0204A790000612016FAD
:103A9000FE90000802016F9000091201E190000CF5
:013AA0002203
:10141A00E49064E3F07FFFA374FFF090600D120480
:10142A00C790000112016FFE120156FDEEC39D50D6
:10143A00030215AC123A84900001E41201E1900013
:10144A000E1204D0120526EFF4600890600C742383
:10145A00F0800990600CE06003E014F0123A849086
:10146A00000312016F6F601590000512016F600D85
:10147A00900004E41201E19000030215A89000050F
:10148A0012016FFE90000412016FC39E500B123AB4
:10149A0084900004740102019C123A8490000212A2
:1014AA00016F6F6048EFF4701C123A8AC39E400ABB
:1014BA007405123A809000028061123A8490000A00
:1014CA00740102159F123A849000087401123A9A24
:1014DA0012016F6F90600D600C1204A77401123A2A
:1014EA0097EF02159F1204A7900009803DEFF47050
:1014FA0041123A8490000912016FD39400500302FA
:10150A0015A290000B12016FFE90000A12016FD310
:10151A009E40117401123A8090000C12016F90647F
:10152A00E4F08054123A8490000A740112019C0279
:10153A0015A2123A84123A91C394FF5008900008F7
:10154A00740112019C123A8AB506089064E3740386
:10155A00F08020123A84900007123A8D6E7039900A
:10156A0064E37404123A8390000612016F90000833
:10157A001201E19064E4EFF0123A84E4123A9774AB
:10158A00FF1201E19064E4E09000111201E190641D
:10159A00E3E09000121201E1123A84900002EF1285
:0215AA0001E15D
:0115AC00221C
:1022C900C2B178E0E254BFF278E3E254CFF2E244DB
:1022D90010F2907194E4F022906488F0A374C5F030
:1022E900788A7C647A6479887E007D017B017F022B
:1022F9000201309064EE7B017A647988E4F0A3747A
:1023090002F022E0FF7B019064EEE4F0A37411F087
:102319002290648AE0FF906488E022789D7C647D45
:10232900017B017A64798C22E4F078E3E254CFF2FC
:1023390078E0E24440F22275D9AA7B017A64798A6D
:10234900221204369064E602045ED2B17F047E0054
:1023590022EF75F020A4FFE5F0F0A3EFF0229064DE
:102369008BE064C52212045E9064C3020436120431
:102379005E9064C70204369064E6020436EEF0A368
:06238900EFF0A30204C7FF
:103C13001222FCE4FF1237CC1223409064EE1223ED
:063C2300057F010237CC11
:103B6C009064EE1222FFE4FF12380112234090649D
:093B7C00EE1223057F010238015D
:102BB000123B6C906489E064C5600D122367600865
:102BC00074021222E1022C30906489E0B4C50790AF
:102BD000648BE0B4C50D906489E064C56035122350
:102BE000677030906489E0B4C5101222E912234363
:102BF0009064EE1223057F018016122367703478EB
:102C0000887C647A64798AFE1222F31222FCE4FF43
:102C10000237CC12231AD39F4007E090648AF080D9
:102C20000F12231AC39F500B90648AE0906488F0BF
:042C3000123C13221D
:10127400E49064E5F0123B6C12231AB50702800C6B
:1012840012231AD39F4002800390648AE09064E59D
:10129400F09064E5E020E0099064E3F004A3F080BA
:1012A4000D9064E5E0FE149064E3F0A3EEF0906426
:1012B400E37A64798C12230C1238019064E47A6422
:1012C400799D12230C12380190649CE064C5602E51
:1012D40090649812046A0000000090648C12046AFE
:1012E4000000000090649012046A00000000906402
:1012F4009412046A0000000090649C74C5F0906429
:10130400ADE064C5600A1223247E007F111201300F
:1013140090649D12043690648C120452C31203FF2D
:101324009064BF502912043690649D12236E906419
:10133400A11223779064A512045E9064A912234A33
:10134400788C7C647D017B017A64799D801E120413
:101354003690648C12236E90649012237790649478
:1013640012045E90649812234A1223247E007F1193
:10137400120130122380EF2401FFE43EFEE43DFD20
:10138400E43CFC12234D12238090649812045E12F4
:1013940023809064A912045E7FE07E937D047C0028
:1013A4009064E6120452D31203FF40309064E4E0E8
:1013B400049064E3F0E0FE04A3F0EE947E40099010
:1013C40064E3747EF0A304F090649812046A00004D
:1013D40000009064A912046A000000009064E3E035
:1013E400FF12232A9064EE1223131237CC9064E484
:1013F400E0FF7B017A64799D9064EE122313123727
:10140400CC906488E0FF9064E3E0FE6F6007EE1226
:0514140022E1123C136F
:0114190022B0
:103B85001222CBD2A6D2B17F04FE123C88C2A67FF8
:093B9500047E00123C88C2B1223A
:103B1B001222CBC2B1C2A67F04FE123C88122353E1
:0C3B2B00123C88D2A67F047E00023C8879
:103760009064F9122331D2A67F047E00123C88D2E5
:10377000B1801530A61B9064F9E004F0E0D394FA10
:103780004006123B1B7F01227F047E00123C888092
:05379000E2C2B17F0060
:013795002211
:103C29001222C9C2A67F04FE123C88122353123CF9
:043C390088C2B1226A
:103C3D001222C9D2A67F04FE123C88122353123CD5
:043C4D0088C2B12256
:053451009064F9EFF0AA
:103456001222CBC2B19064FAF09064F9E0FF548076
:10346600C4131313540124FF92A6EF25E0F07F0442
:103476007E00123C88122353123C88C2B17F047E20
:1034860000123C889064FAE004F0E0C3940840C956
:013496002213
:053327009064F9EFF0D5
:10332C009064FB122331E49064FAF0C2B17F047E06
:10333C0000123C88D2B19064FBE025E0F030A6038B
:10334C00E004F07F047E00123C889064FAE004F004
:10335C00E0C3940840D59064F9E07005123C3D80C0
:09336C0003123C299064FBE0FF10
:013375002235
:102B22009064F2122386123B857FA0123451123731
:102B320060EF60037F01229064F2122BA660037F94
:102B420001229064F2A3122BA660037F01227F046C
:102B52007E00123C88123B857FA1123451123760ED
:102B6200EF60207F01229064F7E07002A3E0601F13
:102B72007F011233279064F4E475F0011204B0EF80
:102B82001201CF9064F774FFF5F012026A80D7E465
:102B9200FF1233279064F41204A7EF1201CF123B05
:0E2BA2001B7F0022E0FF123451123760EF2239
:102CB8009064F2122386123B857FA012345112379A
:102CC80060EF60037F01229064F2122D2D60037F74
:102CD80001229064F2A3122D2D60037F01229064DB
:102CE800F774FFF5F012028045F0602C9064F4123E
:102CF80004A7120156FF123451123760EF60037FA8
:102D080001229064F2E475F00112026A9064F5E41D
:102D180075F00112026A80C67F047E00123C881298
:0F2D28003B1B7F0022E0FF123451123760EF2275
:0637CC009064EB1204C73B
:1037D2009064F012235A9064F0E0FEA3E0FF90643C
:1037E200EB1204A79064EEE0FDA3E09064F7CDF045
:0E37F200A3EDF0122CB8EF600575D9AA80D8AF
:0138000022A5
:063801009064EB1204C705
:103807009064F012235A9064F0E0FEA3E0FF906406
:10381700EB1204A79064EEE0FDA3E09064F7CDF00F
:0E382700A3EDF0122B22EF600575D9AA80D810
:013835002270
:103BE600D2A6D2B178F2E254F3F2E24404F2907132
:073BF60097E4F01222D12236
:1038360078E2E2543FF2E24440F2907191E0F012F5
:1038460039B812389C1235E8123C6E123C7B123A9B
:103856000E1231D71234DC123BE612311D7F017E87
:0438660000023B37EA
:102FF900121F8575D95590715EE054FEF075D9BBE5
:10300900123836D2A37FE87E03123B37C2A31229B6
:103019006E75D9AA123AA175D9AA7B017A64790584
:1030290012141A12244B7B017A65790312141A12AD
:10303900270A122E3312238F1239E3122135121C5B
:103049009E121DAA12266E12196F1215AD120D3A93
:0230590080BF36
:103796009064AE1204369064BF12045E9064B21256
:1037A60004369064C312045E9064B61204369064C4
:1037B600C702045EE0FF7B017A6479AE9064EEE4B2
:0637C600F0A37411F022D3
:10311D00122BB0906488E09064E3F01237BA123845
:10312D00019064BEE0B4C50F1237969064BF1204CF
:10313D00369064E412045E9064E3E020E00404F051
:10314D0080069064E3E014F09064E31237BA12380D
:10315D00019064BEE0B4C5159064AE12043690645F
:0D316D00E4120452C31203FF500312379600
:01317A002232
:033CB30002127486
:1036A700FEE02FFFEC3EFEA3E02FFFEC3EFE22FAEA
:1036B7001204367E00EB2FFFEE3AFE3395E0FDFC59
:1036C700221204107E009064E3E022FC9064E8027A
:0E36D700045E9064E80204369064E402043657
:050B34009064E3EFF006
:100B39009064E812046A000000007FA5123C61126B
:100B490036D9EF24A5FFE43EFEE43DFDE43C123630
:100B5900D29064E3E0FF64016032EF6402602DEF3C
:100B690064036028EF64046023EF6405601EEF648A
:100B7900066019EF64096014EF640A600FEF6411ED
:100B8900600AEF64126005EF641370207F05120D8F
:100B990014120D26C0001236DF1236CB2405FDE4EF
:100BA90033CD2FFFEE3D1236C1020CDE9064E3E037
:100BB900FF6407600AEF64086005EF641070337F13
:100BC90006123C619064E3E0FF120CFC120D26C092
:100BD90000C002C0031236DF78081236C82406FDA9
:100BE900E433CD2FFBEE3DA31236B6D003D002027B
:100BF9000CDE9064E3E0FF640B600FEF640C600AA5
:100C0900EF64146005EF640D70467F07120D1478C8
:100C190010120410120CFC120D30C000C002C003E7
:100C29001236DF78101236C82407FDE433CD2FFBC6
:100C3900EE3DFAA312043678081204107E00EB2F59
:100C4900FBEE3A9064E41236B6D003D002020CDE11
:100C59009064E3E0640E6003020CE67F0B123C61D2
:100C69007F0E123C619064CBE0FF123C619064CB33
:100C7900E0A3E0FF123C619064CDE0FF123C61907B
:100C890064CEE0FF123C619064CFE0FF123C6190BA
:100C990064D0E0FF123C619064D1E0FF120D30C0D6
:100CA90000C001C002C0039064CBE02419FFE43303
:100CB900FEE0A3E07C002FFFEC3E9064CD1236A746
:100CC900A3E02FFFEC3EA31236A73395E0FDFCD03D
:100CD90003D002D001D0001202961236D31236D9AF
:100CE900E4FEFD1236D21236D9123C617F017E0034
:030CF900023B3784
:100CFC00123C619064E41204367808120410123C21
:100D0C00619064E412043622123C619064E3E0FFCB
:100D1C00123C619064E412043622123C619064E847
:0E0D2C0012045222123C619064E8120452221A
:10389C0078E3E2543FF278F2E254FCF278D3E2544B
:1038AC00FCF218E2543FF2E254FCF278C3E2543FCB
:1038BC00F2E254CFF278E2E254FCF278E0E2440116
:0238CC00F222E6
:102E3300C3906591E094C8906590E094004067E486
:102E4300F0A3F02086069064DAF08045208708908E
:102E530064DA7401F0803A2090089064DA7402F026
:102E6300802F2093089064DA7403F0802420940860
:102E73009064DA7404F0801920B0089064DA740561
:102E8300F0800E9064DA20A7057406F0800374FFC7
:102E9300F0D20120A0079064E174018004E49064FF
:072EA300E1F0A3F0D20622CA
:10395E00F583EFF09064EDE004F02290654A0204E6
:10396E0052E4FAF9F802033C9DFEE09C9064EBF001
:0E397E00A3CEF022E0FCA3E0FDC39FEC9E224E
:0D3C6E0078D3E254F3F278D0E24420F22241
:1036E500123969906540E0FEA3E0FFE4FCFD12029B
:1036F5009690654A12045EE4906540F0A3F09065EB
:103705004E12043690653C12045212029690654E94
:0E37150012045E90653C12046A00000000225F
:10238F00E49064E3F0A3F09064E512046A000000A7
:10239F0000E47FBC7E02FDFC123969C31203FF50BB
:1023AF000620150302244AE47F6D7E05FDFC90652F
:1023BF004E1204521202B17B0412396F9064E5126F
:1023CF00045EE43015089064E3F0A3F080217F24CD
:1023DF00FEFDFC9064E51204521202B17B0A123921
:1023EF006F12396912033C9064E3EEF0A3EFF090A3
:1023FF00655F1204369064E51204521202969065DE
:10240F005F12045E90654E12046A00000000906532
:10241F004A12046A00000000C215D39064E4E094ED
:10242F00E79064E3E0940340077403F0A374E7F0CC
:0B243F009064E3E0FEA3E0FF121A81AE
:01244A00226F
:081A81009064E9EEF0A3EFF020
:101A8900E4A3F0A3F0C21D90653A123982500FC346
:101A99009064EAE09064E9123976D21D8047906536
:101AA9003AE0FEA3E0FF9064E9123982500FC39037
:101AB900653BE090653A123976C21D8028E490644E
:101AC900EDF09064EDE0FFC3940750169064E9A32C
:101AD900E0FE74422FF582E43465F583EE12396134
:101AE90080E0021B8B301D3AE49064EDF09064EDC8
:101AF900E0FB2401FFE433FE9064EBE0FCA3E0FD8E
:101B09001202037C007D0712021590653AA3E02FAB
:101B1900FF74422BF582E4346512395EE0B407CDD7
:101B29008051E49064EDF09064EBE0FEA3E0FBAA41
:101B390006E4F9F8A3E0FFC374069FFFE49400FEEE
:101B49003395E0FDFC1202B1E47B07123970906510
:101B59003AA3E0C39FFF9064EDE0FDC374069DFDC9
:101B6900E49400FC74422DF58274653C12395EE000
:101B7900B407B49064E9E0FFA3E090653ACFF0A31D
:071B8900EFF0E4906549F064
:011B90002232
:1039E300301627C216906549E0C39407501CE024A3
:1039F30042F582E43465F583E0FF9064D6E4F0A3F6
:0B3A0300EFF0906549E004F0D20422CF
:103C5100E4FDFC120452C30203FF9064E302043644
:0D3C7B0078C2E254CFF278C0E24404F22295
:1035A70090657112043690656B1204521202969060
:1035B700657112045E90656B12046A00000000904A
:1035C700657512045290656FE0FEA3E0FFE4FCFD11
:1035D70012029690657512045EE490656FF0A3F091
:0135E70022C1
:063521009064EB12045E51
:103527009064F312046A000000009064EF120436FE
:103537009064EB123C54400B9064EF120452906479
:10354700EB80099064EB1204529064EF1204361278
:0E35570002A39064F312045E9064F302043643
:10213500E47F64FEFDFC906575123C545003022259
:1021450000E47F607EEAFDFC906571120452120284
:10215500B190657512045212033C9064E312045E5B
:1021650090657112046A0000000090657512046A9A
:10217500000000007FFF7EFF9064E3123C51400A9F
:102185009064E312046A0000FFFF9065671204364D
:102195009064EF12045E123C5B1235219064E712E5
:1021A500045E7FE87E039064E7123C514036123CA2
:1021B5005B906567123C549065674015120436C301
:1021C500EF94E8FFEE9403FEED9400FDEC9400809F
:1021D50010120436EF24E8FFEE3403FEE43DFDE47F
:1021E5003CFC8003123C5B90656712045E9065675A
:0B21F5001204369064D212045ED20384
:0122000022BB
:041EB700416552002F
:10390000120436EF2401FFE43EFEE43DFDE43CFCFE
:10391000221204361202A3E47B64FAF9F8C302030C
:10392000FF7F7F7E967D987C00120452C30203FFC6
:101C9E00C3906564E094E8906563E09403400F3070
:101CAE001B0C123CB3C21BE4906563F0A3F0E47FFF
:101CBE00E87E03FDFC90655F12392940717F187E26
:101CCE00C67D9A7C3B9064BF123929500C9064BF3C
:101CDE001239009064BF12045E9064C31239215011
:101CEE000C9064C31239009064C312045E9064C7F2
:101CFE00123921500C9064C71239009064C7120437
:101D0E005E90655F120436C3EF94E8FFEE9403FE17
:0E1D1E00ED9400FDEC9400FC90655F12045EF5
:101D2C00906552E004F0E0C3940A4004E4F0D21B46
:101D3C009065531204529064BF123911500E906486
:101D4C00BF12043690655312045ED2089065571288
:101D5C0004529064C3123911500E9064C3120436AD
:101D6C0090655712045ED20990655B120452906420
:101D7C00C7123911500E9064C712043690655B126D
:101D8C00045ED20AC3906566E09488906565E09421
:0D1D9C0013400AE4F0A3F0D208D209D20AE5
:011DA9002217
:103628009064C3E47B64FAF9F812043612033C9000
:1036380064E402045E9064DAE0FFE4FCFDFE22909C
:1036480064D6E0FEA3E0FFE4FCFD22E47BE87A0315
:10365800F9F89064BF229064E3E0FF75F00FA422AC
:1015AD00E49064E3F0F09064E3E0FFC39403400340
:1015BD00021712747E2FF582E43464F583E0700314
:1015CD000217099064E3E0FB75F00FA4244CF5823B
:1015DD00E43464F583E012050016028016078B16BD
:1015ED000C8C16168E16119416AA9816AE9916B264
:1015FD009A000016B4D2000216B4D2080216B4D264
:10160D00090216B4D20A0216B4D20BEB75F00FA470
:10161D00244DF582E43464F58312364078081204C3
:10162D0023EB75F00FA4244EF582E43464F583E0CA
:10163D007C002FFFEC3E9064CBF0A3EFF012365EF2
:10164D00244FF582E43464F583E09064CDF0EF75BA
:10165D00F00FA42450F582E43464F583E09064CE59
:10166D00F012365E2451F582E43464F583E0906423
:10167D00CFF0EF75F00FA42452F582E43464F583B6
:10168D00E09064D0F09064E3E075F00FA42453F57E
:10169D0082E43464F583E09064D1F0800AD20D8049
:1016AD0006D20E8002D20F90647DE0D394004003E9
:1016BD00E014F09064E3E0FF247EF582E43464F5F9
:1016CD0083E4F074772FF582E43464F583E4F074E9
:1016DD007A2FF582E43464F583E4F0FE7F0FC006C3
:1016ED00C007FD9064E3E075F00FA4244AF974641B
:1016FD0035F0FA7B01D007D0061205599064E3E06E
:05170D0004F00215B319
:0117120022B4
:100D3A00200003020DCBC200906583E06003020D20
:100D4A00CB04F012363D1236377F01120B34906411
:100D5A00DB1236401236377F02120B349064D212FD
:100D6A0004361236377F07120B34123647123637DB
:100D7A007F08120B349064DD1236401236377F0931
:100D8A00120B341236531236317F0B120B341236D1
:100D9A00287F0C120B3412340B9064E412046A009C
:100DAA000000007F0E120B349064D812364A1236B5
:100DBA00377F10120B349064C712362B7F14120B34
:100DCA003430010DC20112363D1236377F01120B43
:100DDA0034300210C2029064DB1236401236377F7A
:100DEA0002120B34300310C2039064D2120436127A
:100DFA0036377F07120B3430040DC20412364712FD
:100E0A0036377F08120B34300510C2059064DD12A4
:100E1A0036401236377F09120B3430061EC206904E
:100E2A0064E11236401236377F12120B349064E2B4
:100E3A001236401236377F13120B3430080DC208AF
:100E4A001236531236317F0B120B3430090AC2099B
:100E5A001236287F0C120B34300A13C20AE47B6460
:100E6A00FAF9F89064C71236317F14120B34300B3A
:100E7A0023C20B906586E0701B78E37C647D017B5E
:100E8A00017A6479CBFE7F071201301236689065C9
:100E9A00867401F0300C10C20C9064D812364A12D3
:100EAA0036377F10120B34300D19C20D9064BF1201
:100EBA00046A0000000090655F12046A00000000E6
:100ECA00123CB3300E19C20E9064C312046A0000B9
:100EDA00000090655F12046A00000000123CB33003
:100EEA000F19C20F9064C712046A000000009065CF
:0C0EFA005F12046A00000000123CB322EA
:101EBB00546418000101530002047300030753001C
:101ECB0004091D00050CED5E642C010102030405E1
:101EDB0002060708090A030B0C0D0E0F0410111252
:101EEB0013140515161718195364050A0000000082
:0E1EFB00033241000000000001FF38CE00005D
:0F004E00EC75F006A4242CF582E43464F58322CB
:10337600E4FD9064E5F0A374FFF0ED25E025E0247C
:103386001AF582E43464F583E0FAA3E0D39FEA9E5B
:10339600401CED25E025E02418F582E43464F5832D
:1033A600E0FFA3E09064E5CFF0A3EFF080050DED1C
:0B33B600B405C79064E5E0FEA3E0FF53
:0133C10022E9
:103A5D00E4FEFC12004EE0B5071112004EE5822D7A
:103A6D00F582E43583F583E0FE80050CECB405E3C7
:023A7D00AF0692
:013A7F002224
:1038CE00E49064E3F0A3F07F0212386A12002790AE
:1038DE0064E3EEF0A3EFF09064E3E0FEA3E0FF12EA
:1038EE0033769064E3EEF0A3EFF09064E3E0A3E0B0
:0138FE00FFCA
:0138FF0022A6
:10244B00906416E07003022504E0FFA3E0FD123A4E
:10245B005DE4906416F0A3F0EF12050024890124CB
:10246B00950424A10624AD0924B90B24C50E24D14F
:10247B001024DD1324E91524F518000025049064BD
:10248B00E412046A000000CF806A9064E412046ACC
:10249B00000100CF805E9064E412046A000000D259
:1024AB0080529064E412046A000100D2804690646A
:1024BB00E412046A000000D1803A9064E412046ACA
:1024CB00000100D1802E9064E412046A0000007FAA
:1024DB0080229064E412046A0001007F80169064ED
:1024EB00E412046A000000D0800A9064E412046ACB
:0924FB00000100D07F0D120B342A
:0125040022B4
:101F0900602A63B20EDD0BAA000D0BAA0B000E1B93
:101F19000B000A991C290A9909552A3709550800FD
:101F29003845080006554653065500005464416378
:061F3900AD004163AC00A5
:1035650075F006A424B4F582E43463F583E02225DE
:10357500E024DCF582E43463F5832275F006A424A7
:10358500B2F582E43463F583E02275F006A424B72E
:10359500F582E43463F583E0229064E3E09064DD32
:0235A500F02212
:042F8D00AB07AA06DE
:102F9100E49064E7F0A312046A00000000AE02AFFF
:102FA10003906404E0FD04F0ED123574EEF0A3EF3C
:102FB100F0906404E0C394144002E4F0E49064E708
:102FC100F09064E81204529064E7E0123574E0FE78
:102FD100A3E0FFE4FCFD1202969064E812045E9007
:102FE10064E7E004F0E0B414D8E47B14FAF9F89053
:082FF10064E812043602033CFF
:10000F00E4FDED123574EEF0A3EFF00DEDB414F244
:01001F0022BE
:10250500E4FDC3EF9455EE940F40057DFF0225BC15
:10251500E49064E7F0F09064E7E0FCC3940750258D
:10252500EC123580FAA3E0C39FEA9E40109064E761
:10253500E0123565FAA3E0D39FEA9E40089064E770
:10254500E004F080D19064E7E0FD123565FAA3E080
:10255500FBC3EF9BFFEE9AFEED12358FFD7C00125B
:10256500052CC004C005C006C0079064E7E0FF1253
:102575003565FCA3E0FDEF123580FEA3E0C39DFFAA
:10258500EE9CAB07FAE4F9F8D007D006D005D004E5
:1025950012033CAD079064E7E0FF12358FC39DFD44
:1025A500EF75F006A424B6F582E43463F583E0FF05
:0725B500EDC39F5002AD07CA
:0225BC00AF0569
:0125BE0022FA
:10317B00E4FEEF70028052EFC39401400AEFD39448
:10318B001150047E018042EFC39412400AEFD39496
:10319B002150047E028032EFC39422400AEFD39475
:1031AB003250047E038022EFC39433400AEFD39452
:1031BB004350047E048012EFC39444400AEFD3942F
:0B31CB005350047E0580027E06AF0614
:0131D60022D6
:061DAA00E49064E3F0FE8A
:101DB0009063ACE07035C39063AFE094F49063AE91
:101DC000E094014026E4F0A3F0121E8812000F9068
:101DD000658EE0FEA3E0FF121E999063ADEFF01256
:0B1DE000359EE4FED2059063AC04F0D9
:101DEB00121E88122F8DC39063AFE094E89063AE00
:081DFB00E094035003021E876F
:101E0300E49064E4F09063AEF0A3F0121E99A3EFA4
:101E1300F09063ADE0FE6F6004D2188007C2181221
:101E2300359ED20530175DC2179064E4E0FF6E6003
:011E33004E60
:101E34009063ADE0FED39F400BEED394004011E0DD
:101E440014F0800CEEC3940650069063ADE004F0E9
:0F1E5400E49064E5F09064E5E0FFC394FF501F55
:101E630012317BA3EFF09063ADE0B5070A9064E510
:071E7300E09064E3F0800839
:081E7A009064E5E004F080D75C
:051E820012359ED2059F
:101E8700227F0312386A12206190658EEEF0A3EF6D
:0E1E9700F0221225059064E3EFF012317B2259
:021F3F00C19C43
:10322F00E4906581F0A3F09064E5E09064DBF090AA
:10323F0064E3E0FFA3E09064D8CFF0A3EFF0D20CEB
:10324F00D2022290657D12043690657912045212D3
:10325F00033C90657D12045E90657D020436906498
:10326F00E3EEF0A3EFF09064E3A3E0FF123AFEA3C6
:06327F00EFF090657D22D6
:103B9E007C0A7D5012052CE47B0AFAF9F812033CDC
:093BAE00E4FB7A10F9F802033C73
:103AFE00EFC3949640047E6480107E007C007D644B
:0C3B0E001202037D96120215AE07AF06EE
:013B1A002288
:10266E00E49064E3F0A3F0A3F07F0112386A906562
:10267E007D120452C000C001C002C003122061E4EA
:10268E00FCFDD003D002D001D00012029690657DE1
:10269E0012045E906579120436EF2401FFE43EFECB
:1026AE00E43DFDE43CFC90657912045E301C201282
:1026BE003252123B9E12326D12046A0000000090DC
:1026CE00657912046A0000000012322FC21C22C368
:1026DE00906582E094D0906581E09407401D12329F
:1026EE0052123B9E12326D12046A00000000906579
:0B26FE007912046A0000000012322F65
:0127090022AD
:101F41004C651601010203040502060708090A533C
:101F510065030A000000000364AF000000000002F6
:051F6100FF33C2000087
:103AC100E4FFFDFCAB1BAA1AA919A818C30203FF46
:0F3AD100EE75F006A42416F582E43465F5832221
:1033C2009064E312046A000000009064E774FFF066
:1033D200AF1BAE1AAD19AC189064E312045E7E0204
:1033E200123AC170079064E704F0800D7E04123A2D
:1033F200C170069064E77402F09064E312046A00FC
:083402000000009064E7E0FF08
:01340A00229F
:10398C00E49064E3F0FE123AD1E0B50714123AD198
:10399C00E5822DF582E43583F583E09064E3F080D5
:0B39AC00050EEEB402E09064E3E0FFC3
:0139B70022ED
:10270A00906514E070030227A5E0FFA3E0FD1239EB
:10271A008CE4906514F0A3F0EF120500274201271C
:10272A004E03275A04276605277206277E08278A3A
:10273A000927960A000027A59064E412046A00009B
:10274A00004780529064E412046A00010047804600
:10275A009064E412046A00020047803A9064E4122A
:10276A00046A00030047802E9064E412046A0000A1
:10277A00004880229064E412046A0001004880162E
:10278A009064E412046A00020048800A9064E41229
:0B279A00046A000300487F0D120B349E
:0127A5002211
:101F660041601801426019000041601B0041601C7D
:0E1F76000041601D0041601E7F42601FFFFFA2
:10372300E4F561AE3EAD3DAC3C853F178E168D157D
:103733008C14787EE254FCF2E24514F218E515F29B
:1037430018E516F218E517F2787FE254FBF2E2541B
:0D375300FB4404F2E24401F27F01022C3439
:1008E2009064E3EFF0E0FF2424F582E43465F583BD
:1008F200E004F074262FF582E43465F583E4F074A5
:10090200242FF582E43465F583E0C3956350030236
:100912000B339064E3E0FB2424F582E43465F58331
:10092200E4F0903AF19364016003020AE47F01FE6D
:10093200FDFC74282BF582E43465F583E0F9F812A6
:100942000423E51F4FF51FE51E4EF51EE51D4DF56F
:100952001DE51C4CF51CAF1FAE1EAD1DFC7801122F
:100962000410EF5455FBEE5455FAED5455F9EC547E
:1009720055F8C3E51F9BF53BE51E9AF53AE51D992F
:10098200F539E51C98F538AF3BAE3AAD39FC780243
:10099200120410EF5433FBEE5433FAED5433F9ECF6
:1009A2005433F8E53B5433FFE53A5433FEE539540A
:1009B20033FDE5385433FCEB2FF53BEA3EF53AE9DB
:1009C2003DF539E83CF538AF3BAE3AAD39FC780439
:1009D200120410EF253BFFEE353AFEED3539FDEC02
:1009E2003538FCEF540FF53BEE540FF53AED540F4A
:1009F200F539EC540FF538AF3BAE3AAD39FC780817
:100A0200120410EF253BFFEE353AED3539FDEC359A
:100A120038EFF53BE4F53AEDF539E4F538AE3AACAA
:100A2200387810120410EF253BFFEE353AFEEFF551
:100A32003BEEF53AE4F539F5389064E3E025E0243D
:100A420032F582E43465F583E0FEA3E0D39553EEFC
:100A5200955240249064E3E0FF25E02432F582E4DD
:100A62003465F583E0F552A3E0F55374282FF5823F
:100A7200E43465F583E0F564903AF1E493FFE4FC35
:100A8200FDFEAB3BAA3AA939A838D31203FF405264
:100A9200AF650565D3EF9403748094805003020B15
:100AA20033E4F565F51FF51EF51DF51C7F01FEFD0E
:100AB200FCA964A8011204238F1B8E1A8D198C18AD
:100AC200E47F01FEFDFCA8011204238F338E328DD8
:100AD200318C30E4F552F553756420122D374337CB
:100AE2000222E4F5657F01FEFDFC9064E3E0FB2455
:100AF20028F582E43465F583E0F9F8120423E51B56
:100B02004FF51BE51A4EF51AE5194DF519E5184C86
:100B1200F518E47F01FEFDFCA803120423E5334F20
:100B2200F533E5324EF532E5314DF531E5304CF530
:020B320030226F
:1005A300E4F566903AF5E493FFE566C39F400302E2
:1005B30008E1E56625E02400F582E4346085828A5B
:1005C3007F548F8B7E0E8E8C758903758889E566C3
:1005D30025E02400F582E4346085828A8F8B758C54
:1005E30012758904758889E56625E02408F582E497
:1005F3003460F583E0FCA3E0C3950FEC950E502E19
:10060300E56625E02414F582E43460F583E0FCA379
:10061300E0C39513EC95125015AF600560EF94029B
:1006230074809480400BE4F5605337FD8003E4F558
:1006330060E53730E125E56625E02432F582E434D0
:1006430065F583E4F0A3F0E56625E02436F582E45E
:100653003465F583E4F0A3F00206F1E56625E024B2
:1006630008F582E4346085828A8E8B758C0A7589DD
:10067300267588892088FDE5F130E00875F107E4E7
:10068300F50AF50BAE0AE50B7802C333CE33CED8A9
:10069300F9FFE56625E02432F582E43465F583EE5F
:1006A300F0A3EFF0E56625E02414F582E4346085D9
:1006B300828A758B12758C0A7589277588892088BB
:1006C300FDE5F130E00875F107E4F50AF50BAE0A34
:1006D300E50B7802C333CE33CED8F9FFE56625E0C8
:1006E3002436F582E43465F583EEF0A3EFF0E56696
:1006F30025E0242AF582E43465F583E0FEA3E0785F
:1007030002CEC313CE13D8F9F5518E50E56625E01A
:100713002432F582E43465F583E0FEA3E0FF903AEA
:10072300EDE493FC740193FDC3EF9DEE9C4017E54C
:100733006625E02436F582E43465F583E0FEA3E024
:10074300C39DEE9C50028068E56625E02432F58265
:10075300E43465F583E0FEA3E0C39551EE95504084
:100763001CE56625E02436F582E43465F583E0FE76
:10077300A3E0C39551EE955040030207FD74222573
:1007830066F582E43465F583E004F074222566F5AA
:1007930082E43465F583E0FF903AF2E493FEEFD30D
:1007A3009E406474222566F582E43465F583E4F0A3
:1007B300E56625E02404F582E43460F583E0FEA3D6
:1007C300E0FFE56625E02408F582E43460F583EE76
:1007D300F0A3EFF0E56625E02410F582E43460F53C
:1007E30083E0FEA3E0FFE56625E02414F582E4340C
:1007F30060F583EEF0A3EFF0800D74222566F58299
:10080300E43465F583E4F0E56625E02404F582E449
:10081300346085828AE56625E02400F582E434604D
:1008230085828B758C0A7589207588CB2088FDE5B8
:10083300F130E00875F107E4F50AF50BE56625E00C
:100843002404F582E4346085828A758B547F0E8F8D
:100853008C7589237588897E0A8E8A8F8BE5662538
:10086300E02404F582E4346085828CE4F58975889C
:1008730029E56625E02410F582E4346085828AE563
:100883006625E02400F582E4346085828B8E8C75C6
:1008930089207588CB2088FDE5F130E00875F107E4
:1008A300E4F50AF50BE56625E02410F582E43460EF
:1008B30085828A758B547F0E8F8C75892475888900
:1008C300758A0A8F8BE56625E02410F582E434608F
:0F08D30085828CE4F58975882905660205A622C1
:100F0600E4F566903AF5E493FFE566C39F40030275
:100F160010BEE56625E0242AF582E43465F583E013
:100F2600FEA3E07802CEC313CE13D8F9F5518E5046
:100F3600E56625E02432F582E43465F583E0FEA318
:100F4600E0D39551EE9550402EE56625E02436F522
:100F560082E43465F583E0FEA3E0D39551EE955027
:100F6600401574262566F582E43465F583E4F0AF12
:100F7600661208E20210B9903AF4E493FFC3E55111
:100F86009FFFE5509400FED3EF9400EE94004002DC
:100F960080047E007F00E56625E02432F582E43495
:100FA60065F583E0FCA3E0C39FEC9E40030210AC12
:100FB600903AF4E493FFC3E5519FFFE5509400FE99
:100FC600D3EF9400EE9400400280047E007F00E59B
:100FD6006625E02436F582E43465F583E0FCA3E07B
:100FE600C39FEC9E40030210AC74242566F582E490
:100FF6003465F583E4F074262566F582E43465F5F8
:1010060083E004F074262566F582E43465F583E012
:10101600C3956350030210B974262566F582E4343D
:1010260065F583E4F07F01FEFDFC74282566F582F4
:10103600E43465F583E0F9F81204231203CEE51FC4
:101046005FF51FE51E5EF51EE51D5DF51DE51C5CE5
:10105600F51CE47F01FEFDFCA966A801120423121B
:1010660003CEE5335FF533E5325EF532E5315DF506
:1010760031E5305CF530E47F01FEFDFC7428256621
:10108600F582E43465F583E0F9F81204231203CE01
:10109600E51B5FF51BE51A5EF51AE5195DF519E521
:1010A600185CF518800D74262566F582E43465F51E
:0910B60083E4F00566020F092233
:102D3700E4F566903AF5E493FFE566C39F506EE5C8
:102D47006625E02432F582E43465F583E4F0A3F0E8
:102D5700E56625E02436F582E43465F583E4F0A3DF
:102D6700F0E56625E02404F582E43460F583E0FEAF
:102D7700A3E0FFE56625E02408F582E43460F583E7
:102D8700EEF0A3EFF0E56625E02410F582E4346069
:102D9700F583E0FEA3E0FFE56625E02414F582E471
:0E2DA7003460F583EEF0A3EFF005668086221F
:1028DB00E4F566903AF5E493FFE566C39F50679085
:1028EB006018E0FF7E00C39410748094805053EF07
:1028FB009408748094804025E56625E02400F582D9
:10290B00E43460F583E0FEA3E0FFE56625E02404F4
:10291B00F582E43460F583EE8FF012026AE56625EA
:10292B00E02400F582E43460F583E0FEA3E0FFE5EC
:10293B006625E02410F582E43460F583EE8FF01207
:10294B00026A0566808D906018E0C39410748094C1
:10295B008040054337048006906018E004F07F0147
:03296B00022C3407
:102DB500E4FFFEFDFCAB1BAA1AA919A818C3120350
:102DC500FF606390601AE004F07006906019E004FB
:102DD500F0903AE9E493FE740193FF4E602ED39090
:102DE500601AE09F906019E09E4021E4F0A3F0F5A1
:102DF5001FF51EF51DF51CF533F532F531F530F5EA
:102E05001BF51AF519F518C21A022D37903AEBE49D
:102E150093FE740193FFD390601AE09F906019E0D0
:0D2E25009E400AD21A22E4906019F0A3F03A
:012E3200227D
:0510BF009064FDEFF05C
:1010C400A3E0FCA3E0FDA3E0FEA3E0F52B8E2A8DB4
:1010D400298C287884E2F50A08E2F50B758A0875EC
:1010E4008B28758C2475881D2088FDE4FFFEFDFC8B
:1010F400AB27AA26A925A824D31203E94006AC24C9
:10110400A8048013AF27AE26AD25AC241203DBABB5
:1011140007AA06A905A80490601FE0FEA3E0FFE467
:10112400FCFDC31203E95041E4FFFEFDFCAB27AA1A
:1011340026A925A8241203E94006AF27AE26800B72
:10114400AF27AE26AD25AC241203DB90601FEEF072
:10115400A3EFF09064FDE025E0242EF582E43465ED
:10116400F583E0A3E090601EF0903AE6E493FE7409
:101174000193FFD3906020E09F90601FE09E501B7E
:101184009064FDE025E0242EF582E43465F583E0E7
:10119400A3E090601EF090601B8079E4FFFEFDFCEC
:1011A400AB27AA26A925A824D31203E940349064C6
:1011B400FDE0FF25E0242EF582E43465F583E0FCB0
:1011C400A3E0D39400EC9400404DEF25E0242EF5E9
:1011D40082E43465F58374FFF5F012026A90601CB2
:1011E40080329064FDE0FF25E0242EF582E434652E
:1011F400F583E0FCA3E0C3947FEC94005019EF2541
:10120400E0242EF582E43465F583E475F0011202DE
:101214006A90601D7401F090601CE064017011A379
:10122400E06401700B90601CF0A3F090601B04F06C
:1012340090601BE06401703590601EE0FF9064FDD7
:10124400E025E0242EF582E43465F583E4F0A3EF91
:10125400F074FF90601FF0A3F090601E747FF0E4C0
:0F12640090601CF0A3F090601BF07F01227F00D0
:011273002258
:10305B00E49064FCF0903AE01204427801120423ED
:10306B009064FE12045EAF611210BFEF6022056127
:10307B00E53730E4095337EF9064FC7401F0903A74
:10308B00F5E493FFE561C39F4006E4F56143371018
:10309B00C3903AE47401939562E4939400400890D2
:1030AB0064FCE064017005D219023723E4FF122C93
:0130BB0034E0
:0130BC0022F1
:102C3400EF70607F01FEFDFC74282561F582E434A9
:102C440065F583E0F9F81204238F178E168D158C21
:102C540014787EE254FCF2E24514F218E515F218F9
:102C6400E516F218E517F2E56125E0242EF582E475
:102C74003465F583E0A3E0547FFF7878E254804F15
:102C8400F2787FE254FBF2E254FB4404F2E24401A2
:102C9400F2801CE56125E0242EF582E43465F58399
:102CA400E0A3E0547FFF7878E254804FF2787FE22B
:042CB4004402F222C2
:1027A600E49064E3F0A3F09064E3E0FEA3E0FFC3EB
:1027B6009488EE94035031EF24A3FFEE34058F8204
:1027C600F583E493FF9064E4E02421FD9064E3E064
:1027D60034608D82F583EFF09064E4E004F070C716
:0827E6009064E3E004F080BF01
:1027EE009063A97401F0A37460F0A37421F0E4F572
:1027FE0061F537F536F535F534C219C21AF51FF500
:10280E001EF51DF51CF533F532F531F530F51BF5DA
:10281E001AF519F518903AEF93FF903AF3E493FEF8
:10282E00A807088002C333D8FCF563756420E4FF63
:03283E00022C3435
:102EAA007884E2F50A08E2F50BAE0A7803CEC3137A
:102EBA00CE13D8F97802C333CE33CED8F9FFE56101
:102ECA0025E02400F582E43460F583EEF0A3EFF008
:102EDA0020190F903AE8E4937005D21902372302B9
:102EEA00305B0561903AF5E493FFE561C39F401FAB
:102EFA00787FE254FBF2E254FB4404F2E24401F22A
:102F0A00E4F561E53720E2030228DB433701227F3B
:052F1A0001122C34221D
:053CAE000562022DB5C6
:103AA100E53730E01A9063A9A3E0FAA3E0F9120523
:103AB10026120F06E4F5617F01122C345337FE22E2
:10285B00022FF9E493A3F8E493A34003F68001F26B
:10286B0008DFF48029E493A3F85407240CC8C3337E
:10287B00C4540F4420C8834004F456800146F6DF4D
:10288B00E4800B0102040810204080901EA5E47E1A
:10289B00019360BCA3FF543F30E509541FFEE49342
:1028AB00A360010ECF54C025E060A840B8E493A309
:1028BB00FAE493A3F8E493A3C8C582C8CAC583CA34
:1028CB00F0A3C8C582C8CAC583CADFE9DEE780BEEC
:011F8400005C
:10006000E709F608DFFA8046E709F208DFFA803E82
:1000700088828C83E709F0A3DFFA8032E309F6086F
:10008000DFFA8078E309F208DFFA807088828C83D7
:10009000E309F0A3DFFA806489828A83E0A3F6088B
:1000A000DFFA805889828A83E0A3F208DFFA804C65
:1000B00080D280FA80C680D4806980F2803380103C
:1000C00080A680EA809A80A880DA80E280CA8033A5
:1000D00089828A83ECFAE493A3C8C582C8CCC5831D
:1000E000CCF0A3C8C582C8CCC583CCDFE9DEE780ED
:1000F0000D89828A83E493A3F608DFF9ECFAA9F06C
:10010000EDFB2289828A83ECFAE0A3C8C582C8CCC1
:10011000C583CCF0A3C8C582C8CCC583CCDFEADEDA
:10012000E880DB89828A83E493A3F208DFF980CC3C
:1001300088F0EF60010E4E60C388F0ED2402B40435
:100140000050B9F582EB2402B4040050AF232345DC
:0601500082239000B07351
:10015600BB010689828A83E0225002E722BBFE02A7
:09016600E32289828A83E49322DA
:10016F00BB010CE58229F582E5833AF583E0225045
:10017F0006E92582F8E622BBFE06E92582F8E2228F
:0D018F00E58229F582E5833AF583E49322A9
:10019C00BB010FF8E58229F582E5833AF583E02867
:1001AC00F0225009C58229F8E58226F622BBFE0909
:1001BC00C58229F8E22582F222F8EA2583F583E943
:0301CC0093282253
:1001CF00BB010689828A83F0225002F722BBFE010F
:0201DF00F32209
:1001E100F8BB010DE58229F582E5833AF583E8F054
:1001F100225006E92582C8F622BBFE05E92582C800
:02020100F222E7
:10020300EF8DF0A4A8F0CF8CF0A428CE8DF0A42E0F
:02021300FE22C9
:10021500BC000BBE0029EF8DF084FFADF022E4CCCD
:10022500F875F008EF2FFFEE33FEEC33FCEE9DEC96
:10023500984005FCEE9DFE0FD5F0E9E4CEFD22EDDC
:10024500F8F5F0EE8420D21CFEADF075F008EF2F26
:10025500FFED33FD4007985006D5F0F222C398FD17
:050265000FD5F0EA22B4
:10026A00C5F0F8A3E028F0C5F0F8E582158270021F
:06027A001583E038F022BC
:10028000A3F8E0C5F025F0F0E58215827002158331
:06029000E0C838F0E8228E
:0D029600EF2BFFEE3AFEED39FDEC38FC22B7
:0E02A300C3EF9BFFEE9AFEED99FDEC98FC2256
:1002B100E88FF0A4CC8BF0A42CFCE98EF0A42CFCEC
:1002C1008AF0EDA42CFCEA8EF0A4CDA8F08BF0A46A
:1002D1002DCC3825F0FDE98FF0A42CCD35F0FCEBC9
:1002E1008EF0A4FEA9F0EB8FF0A4CFC5F02ECD398E
:0F02F100FEE43CFCEAA42DCE35F0FDE43CFC22FB
:1003000075F008758200EF2FFFEE33FECD33CDCCB4
:1003100033CCC58233C5829BED9AEC99E582984037
:100320000CF582EE9BFEED9AFDEC99FC0FD5F0D614
:10033000E4CEFBE4CDFAE4CCF9A88222B800C1B93E
:100340000059BA002DEC8BF084CFCECDFCE5F0CB7C
:10035000F97818EF2FFFEE33FEED33FDEC33FCEBB5
:1003600033FB10D703994004EB99FB0FD8E5E4F970
:10037000FA227818EF2FFFEE33FEED33FDEC33FC5D
:10038000C933C910D7059BE99A4007EC9BFCE99A51
:10039000F90FD8E0E4C9FAE4CCFB2275F010EF2F96
:1003A000FFEE33FEED33FDCC33CCC833C810D70796
:1003B0009BEC9AE899400AED9BFDEC9AFCE899F8D1
:0E03C0000FD5F0DAE4CDFBE4CCFAE4C8F92264
:0D03CE00CFF4CFCEF4CECDF4CDCCF4CC22C4
:0E03DB00C3E49FFFE49EFEE49DFDE49CFC2233
:1003E900EB9FF5F0EA9E42F0E99D42F0EC6480C88B
:0603F90064809845F0222B
:1003FF00EB9FF5F0EA9E42F0E99D42F0E89C45F054
:01040F0022CA
:10041000E8600FECC313FCED13FDEE13FEEF13FFCA
:03042000D8F122EE
:10042300E8600FEFC333FFEE33FEED33FDEC33FC37
:03043300D8F122DB
:0C043600E0FCA3E0FDA3E0FEA3E0FF2239
:10044200E493FC740193FD740293FE740393FF2200
:0C045200E0F8A3E0F9A3E0FAA3E0FB222D
:0C045E00ECF0A3EDF0A3EEF0A3EFF02211
:10046A00A8828583F0D083D082120481120481127B
:10047A000481120481E473E493A3C583C5F0C583A0
:10048A00C8C582C8F0A3C583C5F0C583C8C582C8DC
:01049A00223F
:0C049B00A42582F582E5F03583F583226C
:0904A700E0FBA3E0FAA3E0F92256
:1004B000F8E0FBA3A3E0F925F0F0E58215827002D5
:0704C0001583E0FA38F02279
:0904C700EBF0A3EAF0A3E9F02236
:1004D000BB010DE58229F582E5833AF5830204A785
:1004E0005007E92582F8020585BBFE07E92582F859
:1004F00002058EE58229F582E5833AF583020597A8
:10050000D083D082F8E4937012740193700DA3A38A
:1005100093F8740193F5828883E47374029368609E
:06052000EFA3A3A380DF9E
:060526008A838982E47360
:10052C00EC8EF0A4CCC5F0CCCDF8EFA4CEC5F02D5C
:10053C00FDE43CFCE8A42EC8C5F03DFDE43CFCEF1A
:0D054C00A4FFE5F028FEE43DFDE43CFC22A8
:10055900EF4E6012EF60010EEDBB010B89828A83B9
:10056900F0A3DFFCDEFA2289F05007F709DFFCA9C6
:0C057900F022BBFEFCF309DFFCA9F0221D
:09058500E6FB08E6FA08E6F9229B
:09058E00E2FB08E2FA08E2F9229E
:0C059700E493FB740193FA740293F922C0
:00000001FF
