:0300000002297161
:10297100787FE4F6D8FD9060007F007E07E4F0A345
:0A298100DFFCDEFA7581660229C64C
:0C000300000000000000000000000000F1
:0B3B4200EF1FAC0670011E4C70F62255
:1039CC00AB07AA06EB1BAE0270011A4E600C7FAA65
:0B39DC007E05123B4275D9AA80EA224A
:10222200907120E04480F07F057E00123B42E4FF83
:10223200FE1239CC75A75575AC5C9071327450F0B2
:102242009071307403F0907136742FF090715C7459
:1022520003F090715BE054FCF07F18EF2466FDE41C
:1022620034718D82F583E4F00FEFB433EE904011B8
:10227200E4935407FF90711CE054F84FF09040171C
:10228200E493547FFF90711DE054804FF090401012
:10229200E493FF5401C43333335480FE907123E03E
:1022A200547F4EF0EFC313543F4440FFA3E05480E9
:1022B2004FF0904012E493FF540FFE907146E054A9
:1022C200F04EF0EFC4540FFF90714FE054F04FF016
:1022D200904013E493543FFF907140E054C04FF09C
:1022E200904014E493907126F0904015E49390711D
:0B22F20028F0904016E49390712AF051
:0122FD0022BE
:10397300000009C4006400C80101F4004B000A0000
:0E39830000010F0405020009000A000A000AF4
:103A3500E2FE74AB2FF582E43464F583E02224FCC6
:083A450025E0FDF874030822DE
:101A8A00E4FF123A37C394085058123A37C3940401
:101A9A00502878C2C000123A35123A458002C33340
:101AAA00D8FCF45ED000F278C2C000123A35123A7D
:101ABA00458002C333D8FC021BB878C3C000123A6F
:101ACA0035123A438002C333D8FCF45ED000F27870
:101ADA00C3C000123A35123A438002C333D8FC021B
:101AEA001BB8123A37C394084068123A37C39410A5
:101AFA005060123A37C3940C502C78D2C000123A74
:101B0A003524F8123A458002C333D8FCF45ED0007B
:101B1A00F278D2C000123A3524F8123A458002C34C
:101B2A0033D8FC021BB878D3C000123A3524F41219
:101B3A003A458002C333D8FCF45ED000F278D3C0B1
:101B4A0000123A3524F4123A458002C333D8FC0213
:101B5A001BB8123A37C39414502B78E2C000123AD9
:101B6A003524F0123A458002C333D8FCF45ED00023
:101B7A00F278E2C000123A3524F0123A458002C3E4
:101B8A0033D8FC802978E3C000123A3524EC123AA3
:101B9A00458002C333D8FCF45ED000F278E3C0007B
:101BAA00123A3524EC123A458002C333D8FC4ED09F
:0B1BBA0000F20FEF64026003021A8CBF
:011BC50022FD
:03005D000234A5C5
:1034A500C0E0C0F0C083C082C0D075D000C000C0ED
:1034B50001C002C003C004C005C006C0077881E290
:1034C50030E607E24440F2122E57D007D006D00569
:1034D500D004D003D002D001D000D0D0D082D08388
:0534E500D0F0D0E03240
:1032E500D2AF43AB0843B6C0907132E04440F043DF
:1032F500AB087877743FF208744BF2787A7430F241
:10330500788914F27871744FF2187427F278727410
:10331500A8F2087410F208E4F208F208F2787E7454
:0F332500D0F2087404F208741EF2087402F22247
:102A9E00E4FBEB25E025E02489F582E43439F58367
:102AAE00740193FF74AB2BF582E43464F583EFF07D
:102ABE00EB25E025E0248BF582E43439F583E493AD
:102ACE00FE740193FFEB25E024ADF582E43464F54A
:102ADE0083EEF0A3EFF0EB25E024B1F582E434644D
:102AEE00F583E4F0A37441F0E47F01FEFDFC74ABCA
:102AFE002B123A3AF9F812040DE53F4FFFE53E4E20
:102B0E00FEE53D4DFDE53C4C8F3F8E3E8D3DF53C4B
:102B1E000BEB64026003022AA0121A8A1228D60254
:022B2E0032E58E
:073B550078C3E254CFF22215
:073B5C0078C3E2543FF2229E
:073B630078D2E254FCF222CB
:073B6A0078D2E2543FF22281
:073B710078D3E254FCF222BC
:0D3ADC0078E2E254F3F278E0E24402F222D4
:0D3AE90078E2E254CFF278E0E24404F222E9
:0D3AF60078E3E254F3F278E0E24420F2229B
:073B780078E3E2543FF22262
:073B7F0078F2E254FCF2228F
:070B1E0044600C0000000020
:083B4D007890E2541FF2E2221D
:10365E00E5B154F342B153A8DFD2AF7892E4F20849
:10366E00F27890E254E3F2E2441CF2E254FCF2E20D
:10367E004401F208E2547FF2E24420F2789574019C
:0C368E00F2187476F2123B4D44A0F222B8
:0C3B2A00123B4D44C0F243A820D2AF2251
:103AAE00123B4D44A0F27892E4F208F253A8DF22C2
:03001E00022F3A74
:102F3A00C0E0C0F0C083C082C0D075D000C000C05D
:102F4A0001C002C003C004C005C006C0077891E2F0
:102F5A0030E72FE24480F274FFFFFEFDFC90600C24
:102F6A0012043CC31203E9501990600C120420EFBA
:102F7A002401FFE43EFEE43DFDE43CFC90600C12BB
:102F8A000448D007D006D005D004D003D002D0011F
:0D2F9A00D000D0D0D082D083D0F0D0E03273
:100B25004464FD000000004464F7000000004264D6
:030B3500FB0000C2
:10338300C374FF9BFF74FF9AFE74FF99FD74FF984B
:10339300FC12043CC30203E9E0FEA3E0FFE4FCFDEE
:1033A3007BFF7AFFF9F8D30203D3120420EF240141
:1033B300FFE43EFEE43DFDE43CFC22120420906465
:0B33C300C102043CE475F00102026A44
:1035A700E5B154CF42B153A8BFD2AF75D102789CD1
:1035B700E254E3F2E2441CF2E254FCF2E24401F288
:1035C70008E2547FF2E24420F278A17401F2187401
:0D35D70076F2789CE2541FF2E244A0F2224A
:103ABE00789CE2541FF2E244C0F243A840D2AF22F7
:102037009064FD1204209064BD1204489064C1129C
:102047000454000000009064FD12045400000000D6
:102057009064F712043C9064BD12042012028D9024
:1020670064C11204489064F712045400000000127F
:1020770033C19064E5123383500F9064E51233BE89
:102087001202809064E51204481233C19063EB1288
:102097003383500F9063EB1233BE1202809063EBD1
:1020A700120448906501E0B401269064C11204202F
:1020B700906502EE8FF012026AC3906503E094C444
:1020C700906502E094094008E4F0A3F0906501F000
:1020D700906504E0B401269064C112042090650560
:1020E700EE8FF012026AC3906506E094649065056E
:1020F700E094004008E4F0A3F0906504F09064E9F0
:1021070012339B40069064E91233C774FFFFFEFD4C
:10211700FC9064F3123394500C9064F31233AD9037
:0521270064F3120448FE
:01212C002290
:030021000224AB0B
:1024AB00C0E0C0F0C083C082C0D075D000C000C0F7
:1024BB0001C002C003C004C005C006C007789DE27E
:1024CB0020E70302255CE24480F274FFFFFEFDFC73
:1024DB009064FD123394500C9064FD1233AD9064F4
:1024EB00FD12044890646EE0C394FF5003E004F0C7
:1024FB00906510E0FEA3E0FF1233A040069065103C
:10250B001233C7301B259063EF12339B4026906329
:10251B00EF1233C7C39063F0E094409063EFE09405
:10252B009C4011E4F0A3F0D21A80099063EFE4F021
:04253B00A3F0C21A2D
:10253F009064FB1233C7C39064FCE094649064FB17
:0D254F00E0648094804006E4F0A3F0D21711
:10255C00D007D006D005D004D003D002D001D000D3
:0B256C00D0D0D082D083D0F0D0E0327D
:0D0B3800C114C11541650B0042650C0000A1
:1039E700120420EF2401FFE43EFEE43DFDE43CFC2D
:0B39F70022E4FDFC12043CC30203E9C3
:1034EA00E5B254FC42B253A9FED2AF75D104907131
:1034FA0000E054E3F0E0F0E054FCF0E04401F09026
:10350A0071057409F0907104745FF0907100E054D1
:10351A001FF0E044A0F0A3E0547FF0E04420F02242
:103A7B00907100E0541FF0E044C0F043A901D2AFB5
:013A8B002218
:0300240002212D89
:10212D00C0E0C0F0C083C082C0D075D000C000C078
:0D213D0001C002C003C004C005C006C007F9
:0E214A00907101E020E703022207E04480F0DC
:1021580090650BE004F0E0C394144029E4F0906427
:10216800221239E79064221204487F587E02906454
:10217800221239F8400F20180C90642212045400DF
:05218800000000D21868
:10218D0030821620140F90641E1239E790641E12CF
:0B219D0004481236D3D2148002C21492
:1021A80090650CE475F00112026AC390650DE09425
:1021B8001490650CE09400402BE4F0A3F090649137
:1021C8001239E79064911204487FE87E0390649185
:1021D8001239F8400F20160C906491120454000034
:0421E8000000D2160B
:1021EC0030951620150F90648D1239E790648D127E
:0B21FC00044812369AD2158002C2156A
:10220700D007D006D005D004D003D002D001D0002B
:0B221700D0D0D082D083D0F0D0E032D5
:100B4500602D63AC00000000000000000000000004
:100B55000000000000000000000000000000000090
:100B65000000000000000000000000000000000080
:100B7500004363D90000004363DC0000004363E0E9
:100B8500000000C11E4163E3004163E4004163DFEF
:080B9500004463E500000000CC
:1031E5009063E512042074DC2FF582E43463F583E3
:1031F500229064BDE0FF24D9F582E43463F583228F
:103205007D00EF75F00FA424ACF9746335F0FA7BFB
:103215000122E5822EF582E43583F58322E4F090E0
:1032250063DFE014F090000F229063E4E4F0906314
:09323500E3F0229063E502043C81
:0E004E00906512EFF0123B03906512E0FF2266
:1038BD0078C2E2543FF2E254FCF2E24440F29071DD
:1038CD0081E04404F0907175E04401F043AA20D2E8
:0B38DD00AF75D60175D59F75D2112282
:03004B00021BC6CF
:101BC600C0E0C0F0C083C082C0D075D000C000C0E5
:0D1BD60001C002C003C004C005C006C00766
:101BE3009064D4E4F0E5D420E503021CE3E5D7F0E8
:101BF300201E04E0B4A5099063DFE0C3940340030F
:101C0300021CD69064D4E0B4A515D21E12322E1253
:101C13003AAE90600C12045400000000123B2A906C
:101C230063E4E0B401089064D4E09063E3F012311C
:101C3300E5E06003021CE39064D4E0FF12323890C5
:101C430063AC75F00FEB120485EA75F00FA42583DE
:101C5300F583C083C0829063E4E0FE04F0D082D0B9
:101C630083123217EFF090600C120454000000004E
:101C73009063E3E0606AE0FFA3E06F70639063E367
:101C8300E0FB9063E512042074D92F1231FDEBF0D1
:101C9300C21E12322E1231E57401F09063DFE004AC
:101CA300F09063E5120420EF2401FFE43EFEE43DDF
:101CB300FDE43CFC9063E5120448E47F03FEFDFC75
:101CC300123238C31203E9400A9063E51204540048
:101CD300000000123AAE90600C12045400000000A1
:101CE300D007D006D005D004D003D002D001D00055
:0B1CF300D0D0D082D083D0F0D0E032FF
:0D3B0300E5D430E4FB8FD7E5D430E4FB229D
:101CFE00E49064BDF0A3F0C2217F0AFEFDFC90606B
:101D0E000C12043CD31203E94019123AAE90600C47
:101D1E0012045400000000E49063E4F09063E3F0DA
:101D2E00C21E22E49064BDF09064BDE0FFC3940334
:101D3E004003021E2174DC2F1231EEE07003021EEE
:101D4E00189064BDE075F00FA424ADF582E4346301
:101D5E00F583E0FE74D92F1231FDE06E601A9064A7
:101D6E00BDE024DC1231EE123222C083C082123268
:081D7E0005D007D00602054361
:101D8600E49064BFF09064BEF0A3F01231F6E01464
:101D9600FE9064BFE0FDC39E5022EF75F00FA424B1
:101DA600ACF582E43463F583E5822D12321AE0FF46
:101DB6009064BEE02FF0A3E004F080CF9064BEE014
:101DC600F01231F6E0FEEF75F00FA424ABF582E4D5
:101DD6003463F583123217E0FF9064BEE06F600251
:021DE600D22108
:101DE80030211DC2219064BDE0FF24DC1231EE12C7
:101DF8003222C083C082123205D007D006120543B2
:101E08009064BDE024E0F582E43463F5837401F066
:091E18009064BDE004F0021D36E7
:011E2100229E
:050B9D0042650E00009E
:0F000F0012028D9064C51204489064C50204204B
:1038650078C3E24403F218E2440CF2786AE2447841
:10387500F27591FF907123E05498F0E0441EF090AA
:0C38850071227407F0439E7043994022AA
:10370C005399E0EF24FD60142402701E907123E0A5
:10371C0054D8F0E0445AF0439904800E907123E0A1
:10372C0054D8F0E04459F04399017869E24448F2E6
:07373C007F017E000239CC81
:100027007869E24401F2786BE230E1FA7402F2AFE8
:1000370093EF75F010A4FFAEF0E594C4540FFDEFF5
:030047004DFF2248
:1023D700E49064C3F0A3F0A312045400000000E4E7
:1023E7009064C9F0A3F074FFA3F0A3F0E4A3F0F0A6
:1023F7001200279064C3EEF0A3EFF09064CDE0C322
:10240700940240549064C9E0FEA3E0FF9064C3E0E7
:10241700FCA3E0FDD39FEC9E40089064C9ECF0A3B9
:10242700EDF09064CBE0FEA3E0FFC3ED9FEC9E5080
:102437000F9064C3E0FFA3E09064CBCFF0A3EFF06D
:102447009064C512043C9064C3E0FEA3E0FFE4FC83
:10245700FD120280A31204489064CDE004F0E0C3AB
:102467009414408C120018C006C0079064C9E0FE9F
:10247700A3E0FBAA06E4F9F8D007D00612000FC0C4
:1024870006C0079064CBE0FEA3E0FBAA06E4F8D001
:1024970007D00612000F78041203FA9064C3EEF017
:0324A700A3EFF0B0
:0124AA00220F
:103A8C0075AF3F8FAF75AEB975A402E5A530E1FBFC
:013A9C002207
:103743009064BE1204B175AF3F8FAF9064C1E0C304
:1037530094014022E5A530E0FB9064BEE475F001DE
:1037630012049A120156F5A675AEB975A4019064B8
:07377300C1E014F080D52233
:10377A009064BE1204B19064C1E06027AE070FEEF8
:10378A002400FDE4343F8D82F583E493FE9064BE09
:10379A00E475F00112049AEE1201CF9064C1E014AC
:0437AA00F080D322B6
:1037AE00A3F078E3E254FCF2E24401F2907192E469
:1037BE00F0229064CAE004F0E0C3940822C2A4C2CE
:0E37CE0096D2977F04FE22FFE0FEA807082295
:10307500E4FF78D3E2543FF2E24440F290718DE4EC
:10308500F0E254CFF2E24410F290718CE4F0123782
:10309500B0C297C29612323EEF7030FD7F8C122679
:1030A500E37D017F881226E37D017F861226E37D7D
:1030B500017F8A1226E3E4FD7F821226E3E4FD7F89
:0B30C500841226E3E4FD7F801226E366
:0130D00022DD
:103A0200E4FDEE25E0FEEF30E004EE4401FEEFC3FC
:093A120013FF0DEDB408EBAF0643
:013A1B002288
:022ECC00AC0751
:102ECE00E49064BEF0AF05123A02EC64816019EC36
:102EDE0064836014EC6485600FEC6487600AEC64B4
:082EEE00896005EC648D70435E
:102EF600E49064BFF0A3F0EC64816004ECB4830654
:102F0600EF547FFF8017EC64856004ECB48706EF0E
:102F1600543FFF8008ECB48904EF541FFFEFC454FC
:102F26000FFE9064BFF0EF540FFFA3F0EE75F00AAA
:032F3600A42FFFC6
:012F39002275
:052B30009064BEEFF00F
:102B3500E4A3F01237AE1237CB123B42E49064C0E7
:102B4500F0122BA49064C0E09064BE1237D58002C9
:102B5500C313D8FC30E004D2A48002C2A47F047E53
:102B650000123B42122BAE40D878E3E254FCF278D7
:102B7500E0E24410F2E49064C0F09064BFE025E028
:102B8500F0122BA430A4079064BFE04401F0122B8F
:0E2B9500AE40E7C296C297C2A49064BFE0FFB4
:102BA30022C2967F047E00123B4222D2967F047E8D
:0F2BB30000123B429064C0E004F0E0C39408229B
:053A65009064BDEFF0CC
:103A6A00E4FE122B30AE079064BDE0FFAD06022ED5
:013A7A00CC7F
:082BC2009064C8EFF0A3EDF0F0
:102BCA00E41237AE1237CB123B42E49064CAF012D9
:102BDA002C489064CAE09064C81237D58002C313A7
:102BEA00D8FC30E004D2A48002C2A4122C371237D7
:102BFA00C040DCE49064CAF0122C489064CAE0FF3A
:102C0A009064C9E0FEA807088002C313D8FC30E02C
:102C1A0004D2A48002C2A4122C371237C040D9C2EF
:0C2C2A00967F047E00123B42C297C2A4B9
:102C3600227F047E00123B42D2967F047E00123B26
:0C2C46004222C2967F047E00123B422214
:10323E0012345FD3906454E09433906453E0940856
:10324E00503CC3A3E094D0906453E09407402F9079
:10325E006455E0D3940C5026E0C394014020A3E0C3
:10326E00D3941F5019E0C394014013A3E0D39418D4
:10327E00500CA3E0943C5006A3E0943C40037F0026
:04328E00227F012278
:0526E3009064C4EFF05B
:1026E800A3EDF0EF6480601D9064C4E0FF64826035
:1026F80014EF6484600FEF6486600AEF64886005F5
:05270800EF648C706C11
:10270D00E49064C6F0A3F09064C5E0FFC3940A4062
:10271D0007EF75F00A84A3F09064C5E075F00A84A4
:10272D00AFF09064C7EFF09064C6E0FEC454F04F74
:10273D009064C5F09064C4E0FF64806004EFB482DF
:10274D00099064C5E0547FF080229064C4E0FF647A
:10275D00846004EFB486099064C5E0543FF0800CAA
:0C276D009064C4E0B48805A3E0541FF0A1
:10277900E4FD7F8E122BC29064C4E0FFA3E0FD123A
:092789002BC27D807F8E022BC261
:10352A009064BDA3E02430FD7F8C1226E39064BF33
:10353A00E0FD7F881226E39064C0E0FD7F861226B4
:10354A00E39064C1E0FD7F841226E39064C2E0FD4B
:0F355A007F821226E39064C3E0FD7F800226E3A8
:10345F007F81123A65906459EFF07F83123A65903D
:10346F006458EFF07F85123A65906457EFF07F87CD
:10347F00123A65906456EFF07F89123A6590645561
:10348F00EFF07F8D123A65EF24D0FEE4340790649D
:06349F0053F0A3CEF02261
:040BA20041650700A2
:103913009064BDF090650802049190000612016F57
:10392300FE90000802016F9000091201E190000C63
:013933002271
:1014E600E49064BDF07FFFA374FFF09065081204DA
:1014F600B190000112016FFE120156FDEEC39D5020
:1015060003021678123917900001E41201E19000E7
:101516000E1204BA120510EFF460089065077423E2
:10152600F08009906507E06003E014F01239179027
:10153600000312016F6F601590000512016F600DB8
:10154600900004E41201E190000302167490000575
:1015560012016FFE90000412016FC39E500B1239E8
:1015660017900004740102019C12391790000212B0
:10157600016F6F6048EFF4701C12391DC39E400A5C
:101586007405123913900002806112391790000A0F
:10159600740102166B123917900008740112392D66
:1015A60012016F6F906508600C1204917401123974
:1015B6002AEF02166B120491900009803DEFF47039
:1015C6004112391790000912016FD394005003029B
:1015D600166E90000B12016FFE90000A12016FD377
:1015E6009E4011740112391390000C12016F906421
:1015F600BEF0805412391790000A740112019C0241
:10160600166E123917123924C394FF500890000839
:10161600740112019C12391DB506089064BD74034D
:10162600F080201239179000071239206E70399019
:1016360064BD740412391690000612016F900008FA
:101646001201E19064BEEFF0123917E412392A74E0
:10165600FF1201E19064BEE09000111201E1906476
:10166600BDE09000121201E1123917900002EF124C
:0216760001E190
:01167800224F
:1035E40078E2E2543FF2E24440F2907191E0F0124A
:1035F4003A4D12365E1238BD1238E81235A7123B26
:1036040010123B1D123865122A9E1230751234EACC
:0D361400123ABE123A7B7F017E000239CCD3
:1030D10012222275D95590715EE054FEF075D9BB6C
:1030E1001235E4D2A37FE87E031239CCC2A375D98D
:1030F100AA12393475D9AA7B017A64796D1214E662
:1031010012283A122792122577123838122C5212AD
:1031110037DC121947121E2212262F121CFE12171B
:0C312100F9120D5012203775D9AA80C297
:100BA600602664470000000000000000000000000E
:100BB600000000000000000000000000000000002F
:0A0BC6000000000000000000000025
:0C3B36007B017A647947740CF0E4FF22F4
:103A4D007E007F267D007B017A64794712054390C5
:083A5D0064C1123B3602377A06
:0E3ACE00E4FF123A8C9064C1123B360237437B
:10356900FEE02FFFEC3EFEA3E02FFFEC3EFE22FA29
:103579001204207E00EB2FFFEE3AFE3395E0FDFCAE
:10358900221203FA7E009064BDE022FC9064C2021C
:0E35990004489064C20204209064BE02042024
:050F72009064BDEFF0EA
:100F77009064C2120454000000007FA5123B0312C4
:100F8700359BEF24A5FFE43EFEE43DFDE43C12352E
:100F9700949064BDE0FF64016032EF6402602DEF5E
:100FA70064036028EF64046023EF6405601EEF6448
:100FB700066019EF64096014EF640A600FEF6411AB
:100FC700600AEF64126005EF641370207F05121149
:100FD70052121164C0001235A112358D2405FDE4AB
:100FE70033CD2FFFEE3D12358302111C9064BDE017
:100FF700FF6407600AEF64086005EF641070337FD1
:1010070006123B039064BDE0FF12113A121164C04F
:1010170000C002C0031235A1780812358A2406FDE4
:10102700E433CD2FFBEE3DA3123578D003D0020277
:10103700111C9064BDE0FF640B600FEF640C600A45
:10104700EF64146005EF640D70467F071211527844
:10105700101203FA12113A12116EC000C002C00337
:101067001235A1781012358A2407FDE433CD2FFB02
:10107700EE3DFAA312042078081203FA7E00EB2F44
:10108700FBEE3A9064BE123578D003D00202111CF1
:101097009064BDE0640E60030211247F0B123B03D2
:1010A7007F0E123B03906453E0FF123B039064539F
:1010B700E0A3E0FF123B03906455E0FF123B03906F
:1010C7006456E0FF123B03906457E0FF123B039026
:1010D7006458E0FF123B03906459E0FF12116EC0A1
:1010E70000C001C002C003906453E02419FFE43339
:1010F700FEE0A3E07C002FFFEC3E906455123569BB
:10110700A3E02FFFEC3EA31235693395E0FDFCD039
:1011170003D002D001D00012028012359512359B00
:10112700E4FEFD12359412359B123B037F017E00CE
:031137000239CCAE
:10113A00123B039064BE12042078081203FA123B91
:10114A00039064BE12042022123B039064BDE0FFA8
:10115A00123B039064BE12042022123B039064C225
:0E116A0012043C22123B039064C212043C2289
:050BD000426510000069
:1038E800123ADC123AE9123AF6123B78123B7F128E
:1038F8003B71123B6A123B63123B5C123B5578E208
:0B390800E254FCF278E0E24401F222FD
:10279200C3906511E094C8906510E0940050030264
:1027A2002839E4F0A3F090646830A503F080037444
:1027B20001F0D20430A207E4906469F080069064CC
:1027C200697401F0D20530A107E490646AF08006D2
:1027D20090646A7401F0D206208607E4906464F083
:1027E20080402087089064647401F080352090084E
:1027F2009064647402F0802A2093089064647403E5
:10280200F0801F2094089064647404F0801420B057
:10281200089064647405F0800920A70690646474CB
:1028220006F0D20120A00790646B74018004E4904A
:08283200646BF0A3F0D20A224E
:100BD5004764950000000000000041649C00C117B7
:100BE500C11644648D0000000044649100000000BB
:100BF50044649D000000004464A1000000004164BD
:020C05008C0061
:10399100F583EFF09064C5E004F022E4FAF9F8024F
:0E39A100032612043C020280E4FDFC02043CFA
:0D3B100078D3E254F3F278D0E24420F222A0
:10369A0090649D1204209064911239A390649D1243
:1036AA000448906491120454000000009064A1122E
:1036BA00042090648D1239A39064A1120448906486
:0936CA008D1204540000000022DE
:10257700E49064BDF0A3F09064BF1204540000001F
:10258700007FBC7E0290649D1239A9C31203E950F3
:102597000620160302262E7F6D7E059064A1123950
:1025A700A912029B7B0412399C9064BF120448E471
:1025B7003016089064BDF0A3F080247F24FEFDFC54
:1025C7009064BF12043C12029B7B0A12399C9064F0
:1025D7009D12043C1203269064BDEEF0A3EFF09029
:1025E70064E11204209064BF1239A39064E11204DD
:1025F700489064A11204540000000090649D1204E6
:102607005400000000C216D39064BEE094E79064C3
:10261700BDE0940340077403F0A374E7F09064BD32
:07262700E0A3E0FF121F3EDB
:01262E002289
:051F3E009064C3EFF008
:101F4300E4A3F0C221A3F090648CE0FEEFD39E40A3
:101F53000B9064C3E09EA3F0D221803E90648CE09A
:101F6300FF9064C3E0FEC39F5009C3EF9EA3F0C27A
:101F7300218027E49064C5F09064C5E0FFC3940713
:101F830040030220369064C3E0FE74952FF582E48B
:101F93003464F583EE12399480DE302136E49064A4
:101FA300C5F09064C5E0FB2401FFE433FE9064C4F4
:101FB300E0FD7C001202037D0712021590648CE0A1
:101FC3002FFF74952BF582E43464123991E0B40742
:101FD300D18053E49064C5F09064C5E0FFC39407D7
:101FE3005044C374069FFFE49400AB07FA3395E0B3
:101FF300F9F89064C4E0FFE4FCFDFE12029BE47B6D
:102003000712399D90648CE0C39FFF9064C5E0FD87
:10201300C374069DFDE49400FC74952DF5827464ED
:102023003C12399180B29064C3E090648CF0E490E8
:03203300649CF0BA
:012036002287
:10383800301729C21790649CE0C39407501EE024F7
:1038480095F582E43464F583E0FFE4FCFDFE9064C2
:0D3858005E12044890649CE004F0D2082247
:100C070058642600000000000000000000000000FB
:100C1700000000000000000000000041643E00C129
:100C27001944641E000000004464220000000044D0
:100C3700643F0000000044644300000000C1184402
:060C4700641A0000000029
:1032920025E025E02426F582E43464F5831204480F
:1032A2009064C9E004F022FE3395E0FDFC9064C511
:1032B20012043C12029BE47B06FAF9F80203269000
:1032C200641A1204209064C102043CE4FDFC02046E
:1032D2003C12042012028D9064C502044812043C80
:0332E20002028065
:0D3B1D0078C2E254CFF278C0E24404F222F4
:1036D30090643F12042090641E1232DF90643F1204
:1036E300044890641E1204540000000090644312C6
:1036F30004209064221232DF9064431204489064E1
:093703002212045400000000220F
:102C52009064BD120454000000007FF47E01906471
:102C6200431232CDC31203E9500330186730180CF7
:102C72009064BD12045400000000801C7F607EEA54
:102C820090643F1232CD12029B90644312043C12B4
:102C920003269064BD12044890643F12045400005D
:102CA200000090644312045400000000C218E47F44
:102CB200FF7EFFFDFC9064BD12043CC31203E94099
:102CC2000A9064BD1204540000FFFF9064BD120418
:042CD200201222FEAC
:012CD60022DB
:0622FE009064C1120448C7
:102304009064C512045400000000C221E49064C922
:10231400F01232C1D31203E9401090641A12043C43
:102324009064C11232D3D22180341232C1C3120359
:10233400E9500D1232C790641A1232D3C221801EA2
:10234400E49064C9F09064C9E0FBC39406400302BE
:1023540023D69064C1120420EB12329280E730211C
:1023640027E49064C9F09064C9E0FFC39406505117
:10237400EF2401FFE4331232A990641A1232DF9081
:1023840064C9E012329280DEE49064C9F09064C9BA
:10239400E0FFC39406502AC374059FFFE49400121F
:1023A40032A9A804A905AA06AB0790641A1204204E
:1023B40012028D9064C9E0FBC374059B12329280B3
:1023C400CC9064C112042090641A120448E490640E
:0223D4003EF0D9
:0123D60022E4
:1037DC0030192AC21990643EE0C39406501FE025AC
:1037EC00E025E02426F582E43464F583120420906D
:0E37FC00645A12044890643EE004F0D20722A2
:100C4D004464E5000000004464E1000000004264DB
:100C5D00E900004464D5000000004464D9000000A0
:0A0C6D00004464DD00000000C11F18
:10380A007FE87E03FDFC12043CC30203E912042094
:10381A00EF2401FFE43EFEE43DFDE43CFC221204F9
:0E382A002012028DE47B64FAF9F8C30203E970
:10194700E47F307E75FDFC9064E5123810402390EB
:1019570064E512045400000000E4FFFEFDFC9064FF
:101967005E12043CD31203E94008301F05123ACE39
:10197700C21FE4FFFEFDFC90645E123810701A90DF
:1019870064E512380A4012301F0F123ACEC21F9078
:1019970064E512045400000000E49064E112380A80
:1019A70040737F187EC67D9A7C3B9064471238103F
:1019B700500C9064471238179064471204487F7F91
:1019C7007E967D987C0090644B123810500C906482
:1019D7004B12381790644B1204487F7F7E967D9890
:1019E7007C0090644F123810500C90644F123817D7
:1019F70090644F120448D21F9064E1120420C3EF91
:101A070094E8FFEE9403FEED9400FDEC9400FC9047
:101A170064E11204489064D512043C90644712387C
:101A270028500E9064471204209064D5120448D2BF
:101A37000C9064D912043C90644B123828500E90D5
:101A4700644B1204209064D9120448D20D9064DDCF
:101A570012043C90644F123828500E90644F1204C1
:101A6700209064DD120448D20EC39064EAE09488A3
:101A77009064E9E09413400AE4F0A3F0D20CD20D8D
:021A8700D20E7D
:011A8900223A
:100C7700C100C101C102C103C104C105C106C10749
:100C8700C108C109C10CC10DC10EC10FC110C111ED
:100C9700C112C113416501004265020000416504AC
:060CA7000042650500009B
:10341700906464E0FFE4FCFDFE9064BE0204489003
:10342700644BE47B64FAF9F81204200203269064E3
:10343700BDE075F00FA422906462E0FEA3E0FFE414
:10344700FCFD22E47BE87A03F9F890644722906454
:08345700BDE0FF75F00FA42297
:1017F900E49064BDF0F09064BDE0FFC3940340033E
:1018090002194674E02FF582E43463F583E070032E
:1018190002193D12343524AEF582E43463F583E0D0
:101829001204EA184880184D8B18528C185C8E18CF
:10183900579418E39818E79918EB9A000018EDD215
:10184900000218EDD20C0218EDD20D0218EDD20EDD
:101859000218EDD20FEF75F00FA424B0F582E4342D
:1018690063F583E0FDEF75F00FA424AFF582E4344E
:1018790063F583E02DFEE433906453F0A3CEF012B8
:10188900345524B1F582E43463F583E0906455F06E
:10189900EF75F00FA424B2F582E43463F583E09088
:1018A9006456F012345524B3F582E43463F583E0C9
:1018B900906457F0EF75F00FA424B4F582E4346313
:1018C900F583E0906458F012343524B5F582E43498
:1018D90063F583E0906459F0800AD2118006D21230
:1018E9008002D2139063DFE0D394004003E014F048
:1018F9009064BDE0FF24E0F582E43463F583E4F00D
:1019090074D92FF582E43463F583E4F074DC2FF5A0
:1019190082E43463F583E4F0FE7F0FC006C007FD5F
:1019290012343524ACF9746335F0FA7B01D007D051
:0D193900061205439064BDE004F00217FFA4
:01194600227E
:100D5000200003020E0DC200906501E06003020E48
:100D60000D04F01234177F01120F72906465123473
:100D70001A7F02120F7290646612341A7F03120FE8
:100D80007290646812341A7F04120F7290646912B0
:100D9000341A7F05120F7290646A12341A7F061299
:100DA0000F7290645A1204201234207F07120F72BF
:100DB00090645E1204201234207F08120F72906437
:100DC0006712341A7F09120F7212344A12342F122A
:100DD00034207F0B120F721234261234207F0C1233
:100DE0000F7212345F9064BE120454000000007F42
:100DF0000E120F7212343E1234207F10120F7290B6
:100E0000644F1234291234207F14120F7230010AF9
:100E1000C2011234177F01120F7230020DC202900C
:100E2000646512341A7F02120F7230040DC20490EE
:100E3000646812341A7F04120F7230050DC20590D7
:100E4000646912341A7F05120F7230060DC20690C3
:100E5000646A12341A7F06120F72300710C20790AC
:100E6000645A1204201234207F07120F72300810C7
:100E7000C20890645E1204201234207F08120F72A0
:100E800030090DC20990646712341A7F09120F727B
:100E9000300A18C20A90646B12341A7F12120F7251
:100EA00090646C12341A7F13120F72300C10C20C43
:100EB00012344A12342F1234207F0B120F72300D6D
:100EC0000DC20D1234261234207F0C120F72300E18
:100ED00016C20EE47B64FAF9F890644F12342F12B4
:100EE00034207F14120F72300F23C20F906504E07C
:100EF000701B78BD7C647D017B017A647953FE7F31
:100F00000712013012352A9065047401F030100D7B
:100F1000C21012343E1234207F10120F7230111999
:100F2000C211906447120454000000009064E11262
:100F3000045400000000123ACE301219C21290641C
:100F40004B120454000000009064E11204540000AD
:100F50000000123ACE301319C21390644F12045499
:100F6000000000009064E112045400000000123AF6
:020F7000CE228F
:100CAD004463EB00000000C11AC11B4263EF00005A
:100CBD00602863F10000000000000000000000004B
:100CCD000000000000000000000000000000000017
:100CDD000000000000000000000000004164190049
:080CED004163EA004163E900E4
:10318900FEE434FFFDE434FFFCE4FAF9F812029B93
:10319900E4229064C3E0FEA3E0FF227A01F9F81269
:1031A9000326AD07C322FEE434FFFDE434FFFCE44B
:1031B9002225E024F1F582E43463F583229064BD8D
:1031C900E0906467F022FDFC9063EB12043CC302BB
:0C31D90003E99064C3A3EF2467FFEE221B
:042FA700AB07AA06C4
:102FAB00E49064C3F0A312045400000000AE02AF1F
:102FBB0003906419E0FD04F0ED1231BAEEF0A3EFCB
:102FCB00F0906419E0C394144002E4F0E49064C3FD
:102FDB00F09064C412043C9064C3E01231BAE0FE7A
:102FEB00A3E0FFE4FCFD1202809064C4120448903D
:102FFB0064C3E004F0E0B414D8E47B14FAF9F8905D
:08300B0064C412042002032634
:103A9D00E4FDED1231BAEEF0A3EFF00DEDB414F23A
:013AAD0022F6
:081679009064C3EEF0A3EFF052
:10168100E4FDC3EF940BEE940E500A12319B94F4D7
:10169100EE940150057DFF0217F6D3EF9400EE940E
:1016A1000E4005E4FD0217F6D3EF9466EE94065062
:1016B100057D640217F6D3EF9400EE940E5024EFEB
:1016C1009433EE940D401C12319BEF24CDFFEE3488
:1016D100F27B121231897BCDFA1231A674129DFD73
:1016E1000217F612319BD39433EE940D502FEF94E1
:1016F100B8EE940C40279064C3A3EF2448FFEE3466
:10170100F37B221231897B7BFA1231A674229DFD73
:10171100C3941240030217F67D120217F612319B91
:10172100D394B8EE940C5031EF9433EE940B4029DE
:101731009064C3A3EF24CDFFEE34F41231AF7B33B9
:101741001231937B851231A474339DFDC3942240E1
:10175100030217F67D220217F612319BD39433EE62
:10176100940B5028EF9499EE940940201231DB3408
:10177100F61231AF7B441231937B9A1231A4744437
:101781009DFDC39433506E7D330217F612319BD306
:101791009499EE94095028EF9499EE940740201201
:1017A10031DB34F81231AF7B54123193FB7A0212E0
:1017B10031A674549DFDC39444503A7D4480361241
:1017C100319BD39499EE9407502BEF9466EE9406D7
:1017D10040239064C3A3EF249AFFEE34F91231AF92
:1017E1007B641231937B331231A474649DFDC394E5
:0717F1005450027D54AF05C6
:0117F80022CE
:10312D00E4FEEF70028052EFC39401400AEFD39496
:10313D001150047E018042EFC39412400AEFD394E4
:10314D002150047E028032EFC39422400AEFD394C3
:10315D003250047E038022EFC39433400AEFD394A0
:10316D004350047E048012EFC39444400AEFD3947D
:0B317D005350047E0580027E06AF0662
:013188002224
:091E2200E49064BDF0A3F0A3F00C
:101E2B009063E9E070427FF47E011231CF4039902C
:101E3B0063EB12045400000000121F21123A9D9014
:101E4B00650EE0FEA3E0FF9064BEEEF0A3EFF01290
:101E5B001F329063EAEFF01231C6E49064BEF0A338
:081E6B00F0D2099063E904F0D4
:101E7300121F21122FA79064BEEEF0A3EFF0E47FB0
:0B1E8300E87E031231CF5003021F2045
:101E8E00E49064C0F09063EB1204540000000090E4
:101E9E0064BEE0FEA3E0FF121F329064C0EFF0902C
:101EAE0063EAE0FE6F6004D21B8007C21B1231C6CC
:0F1EBE00D209301A5DC21A9064C0E0FF6E604E08
:101ECD009063EAE0FED39F400BEED394004011E007
:101EDD0014F0800CEEC3940650069063EAE004F013
:0F1EED00E49064C1F09064C1E0FFC394FF501F04
:101EFC0012312DA3EFF09063EAE0B5070A9064C1AC
:071F0C00E09064BDF08008C5
:081F13009064C1E004F080D7E6
:051F1B001231C6D209DD
:101F2000227F0312370C1223D790650EEEF0A3EF39
:0E1F3000F0221216799064BDEFF012312D22CE
:100CF5004464F3000000004464EB00000000446419
:070D0500EF00000000C1A097
:103334009064EF1204209064EB12043C1203269074
:1033440064EF1204489064EF0204209064BFE0909C
:103354006465F09064BDE0FFA3E0906462CFF0A3E5
:10336400EFF0D210D202229064BDEEF0A3EFF09001
:0F33740064BDA3E0FF1239AFA3EFF09064EF2226
:103A1C007C0A7D50120516E47B0AFAF9F81203268B
:093A2C00E4FB7A10F9F80203260C
:1039AF00EFC3949640047E6480107E007C007D649B
:0C39BF001202037D96120215AE07AF063F
:0139CB0022D9
:10262F00E49064BDF0A3F0A3F07F0112370C906427
:10263F00EF12043CC000C001C002C0031223D7E454
:10264F00FCFDD003D002D001D0001202809064EFC5
:10265F001204489064EB120420EF2401FFE43EFEC5
:10266F00E43DFDE43CFC9064EB12044830202A1258
:10267F003334123A1C12336B1204540000000090D2
:10268F0064EB120454000000009064F31204540031
:10269F0000000012334FC22022E47FD07E07FDFCE2
:1026AF009064F312043CC31203E94027123334122F
:1026BF003A1C12336B120454000000009064EB12AA
:1026CF000454000000009064F31204540000000052
:0326DF0012334F64
:0126E20022D5
:100D0C004C648001010203040502060708090A531A
:100D1C00646D0A000000000364AF000000000002D4
:050D2C00FF33CE0000C2
:10395400E4FFFDFCAB1BAA1AA919A818C30203E9CA
:0F396400EE75F006A42480F582E43464F5832226
:1033CE009064BD120454000000009064C174FFF0BC
:1033DE00AF1BAE1AAD19AC189064BD1204487E0234
:1033EE0012395470079064C104F0800D7E041239B6
:1033FE005470069064C17402F09064BD12045400BF
:08340E000000009064C1E0FF22
:013416002293
:10389100E49064BDF0FE123964E0B5071412396496
:1038A100E5822DF582E43583F583E09064BDF080F7
:0B38B100050EEEB402E09064BDE0FFE5
:0138BC0022E9
:10283A0090647EE070030228D5E0FFA3E0FD123821
:10284A0091E490647EF0A3F0EF1204EA2872012862
:10285A007E03288A0428960528A20628AE0828BAE4
:10286A000928C60A000028D59064BE120454000044
:10287A00004780529064BE1204540001004780460B
:10288A009064BE12045400020047803A9064BE125B
:10289A00045400030047802E9064BE1204540000C2
:1028AA00004880229064BE12045400010048801639
:1028BA009064BE12045400020048800A9064BE125A
:0B28CA000454000300487F0D120F7241
:0128D50022E0
:100D310041601801426019000041601B0041601CC4
:0E0D41000041601D0041601E7F42601FFFFFE9
:10362100E4F561AE3EAD3DAC3C853F178E168D1580
:103631008C14787EE254FCF2E24514F218E515F29E
:1036410018E516F218E517F2787FE254FBF2E2541E
:0D365100FB4404F2E24401F27F01022CD799
:1008CC009064BDEFF0E0FF24A7F582E43464F58377
:1008DC00E004F074A92FF582E43464F583E4F07439
:1008EC00A72FF582E43464F583E0C39563500302CB
:1008FC000B1D9064BDE0FB24A7F582E43464F58302
:10090C00E4F09039849364016003020ACE7F01FE07
:10091C00FDFC74AB2BF582E43464F583E0F9F8123A
:10092C00040DE51F4FF51FE51E4EF51EE51D4DF59B
:10093C001DE51C4CF51CAF1FAE1EAD1DFC78011245
:10094C0003FAEF5455FBEE5455FAED5455F9EC54AB
:10095C0055F8C3E51F9BF53BE51E9AF53AE51D9945
:10096C00F539E51C98F538AF3BAE3AAD39FC780259
:10097C001203FAEF5433FBEE5433FAED5433F9EC23
:10098C005433F8E53B5433FFE53A5433FEE5395420
:10099C0033FDE5385433FCEB2FF53BEA3EF53AE9F1
:1009AC003DF539E83CF538AF3BAE3AAD39FC78044F
:1009BC001203FAEF253BFFEE353AFEED3539FDEC2F
:1009CC003538FCEF540FF53BEE540FF53AED540F60
:1009DC00F539EC540FF538AF3BAE3AAD39FC78082D
:1009EC001203FAEF253BFFEE353AED3539FDEC35C8
:1009FC0038EFF53BE4F53AEDF539E4F538AE3AACC1
:100A0C003878101203FAEF253BFFEE353AFEEFF57E
:100A1C003BEEF53AE4F539F5389064BDE025E02479
:100A2C00B5F582E43464F583E0FEA3E0D39553EE90
:100A3C00955240249064BDE0FF25E024B5F582E496
:100A4C003464F583E0F552A3E0F55374AB2FF582D3
:100A5C00E43464F583E0F564903984E493FFE4FCBA
:100A6C00FDFEAB3BAA3AA939A838D31203E9405290
:100A7C00AF650565D3EF9403748094805003020B2B
:100A8C001DE4F565F51FF51EF51DF51C7F01FEFD3A
:100A9C00FCA964A80112040D8F1B8E1A8D198C18D9
:100AAC00E47F01FEFDFCA80112040D8F338E328D04
:100ABC00318C30E4F552F553756420122D5B4337BD
:100ACC000222E4F5657F01FEFDFC9064BDE0FB2491
:100ADC00ABF582E43464F583E0F9F812040DE51B00
:100AEC004FF51BE51A4EF51AE5194DF519E5184C9D
:100AFC00F518E47F01FEFDFCA80312040DE5334F4D
:100B0C00F533E5324EF532E5314DF531E5304CF546
:020B1C00302285
:10058D00E4F566903988E493FFE566C39F40030266
:10059D0008CBE56625E02400F582E4346085828A87
:1005AD007F548F8B7E0E8E8C758903758889E566D9
:1005BD0025E02400F582E4346085828A8F8B758C6A
:1005CD0012758904758889E56625E02408F582E4AD
:1005DD003460F583E0FCA3E0C3950FEC950E502E2F
:1005ED00E56625E02414F582E43460F583E0FCA390
:1005FD00E0C39513EC95125015AF600560EF9402B2
:10060D0074809480400BE4F5605337FD8003E4F56E
:10061D0060E53730E125E56625E024B5F582E43463
:10062D0064F583E4F0A3F0E56625E024B9F582E4F2
:10063D003464F583E4F0A3F00206DBE56625E024DF
:10064D0008F582E4346085828A8E8B758C0A7589F3
:10065D00267588892088FDE5F130E00875F107E4FD
:10066D00F50AF50BAE0AE50B7802C333CE33CED8BF
:10067D00F9FFE56625E024B5F582E43464F583EEF3
:10068D00F0A3EFF0E56625E02414F582E4346085EF
:10069D00828A758B12758C0A7589277588892088D1
:1006AD00FDE5F130E00875F107E4F50AF50BAE0A4A
:1006BD00E50B7802C333CE33CED8F9FFE56625E0DE
:1006CD0024B9F582E43464F583EEF0A3EFF0E5662A
:1006DD0025E024ADF582E43464F583E0FEA3E078F3
:1006ED0002CEC313CE13D8F9F5518E50E56625E031
:1006FD0024B5F582E43464F583E0FEA3E0FF903980
:10070D0080E493FC740193FDC3EF9DEE9C4017E5CF
:10071D006625E024B9F582E43464F583E0FEA3E0B8
:10072D00C39DEE9C50028068E56625E024B5F582F8
:10073D00E43464F583E0FEA3E0C39551EE9550409B
:10074D001CE56625E024B9F582E43464F583E0FE0A
:10075D00A3E0C39551EE955040030207E774A5251C
:10076D0066F582E43464F583E004F074A52566F53E
:10077D0082E43464F583E0FF903985E493FEEFD392
:10078D009E406474A52566F582E43464F583E4F037
:10079D00E56625E02404F582E43460F583E0FEA3EC
:1007AD00E0FFE56625E02408F582E43460F583EE8C
:1007BD00F0A3EFF0E56625E02410F582E43460F552
:1007CD0083E0FEA3E0FFE56625E02414F582E43422
:1007DD0060F583EEF0A3EFF0800D74A52566F5822C
:1007ED00E43464F583E4F0E56625E02404F582E461
:1007FD00346085828AE56625E02400F582E4346064
:10080D0085828B758C0A7589207588CB2088FDE5CE
:10081D00F130E00875F107E4F50AF50BE56625E022
:10082D002404F582E4346085828A758B547F0E8FA3
:10083D008C7589237588897E0A8E8A8F8BE566254E
:10084D00E02404F582E4346085828CE4F5897588B2
:10085D0029E56625E02410F582E4346085828AE579
:10086D006625E02400F582E4346085828B8E8C75DC
:10087D0089207588CB2088FDE5F130E00875F107FA
:10088D00E4F50AF50BE56625E02410F582E4346005
:10089D0085828A758B547F0E8F8C75892475888916
:1008AD00758A0A8F8BE56625E02410F582E43460A5
:0F08BD0085828CE4F589758829056602059022ED
:10117800E4F566903988E493FFE566C39F4003026F
:101188001330E56625E024ADF582E43464F583E0A8
:10119800FEA3E07802CEC313CE13D8F9F5518E50D2
:1011A800E56625E024B5F582E43464F583E0FEA322
:1011B800E0D39551EE9550402EE56625E024B9F52B
:1011C80082E43464F583E0FEA3E0D39551EE9550B4
:1011D800401574A92566F582E43464F583E4F0AF1C
:1011E800661208CC02132B903987E493FFC3E551AC
:1011F8009FFFE5509400FED3EF9400EE9400400268
:1012080080047E007F00E56625E024B5F582E4349D
:1012180064F583E0FCA3E0C39FEC9E400302131E29
:10122800903987E493FFC3E5519FFFE5509400FE92
:10123800D3EF9400EE9400400280047E007F00E526
:101248006625E024B9F582E43464F583E0FCA3E084
:10125800C39FEC9E400302131E74A72566F582E423
:101268003464F583E4F074A92566F582E43464F502
:1012780083E004F074A92566F582E43464F583E01C
:10128800C39563500302132B74A92566F582E434D1
:1012980064F583E4F07F01FEFDFC74AB2566F582FE
:1012A800E43464F583E0F9F812040D1203B8E51F7D
:1012B8005FF51FE51E5EF51EE51D5DF51DE51C5C71
:1012C800F51CE47F01FEFDFCA966A80112040D12BD
:1012D80003B8E5335FF533E5325EF532E5315DF5A8
:1012E80031E5305CF530E47F01FEFDFC74AB25662A
:1012F800F582E43464F583E0F9F812040D1203B8BA
:10130800E51B5FF51BE51A5EF51AE5195DF519E5AC
:10131800185CF518800D74A92566F582E43464F527
:0913280083E4F0056602117B224A
:102D5B00E4F566903988E493FFE566C39F506EE512
:102D6B006625E024B5F582E43464F583E4F0A3F042
:102D7B00E56625E024B9F582E43464F583E4F0A339
:102D8B00F0E56625E02404F582E43460F583E0FE8B
:102D9B00A3E0FFE56625E02408F582E43460F583C3
:102DAB00EEF0A3EFF0E56625E02410F582E4346045
:102DBB00F583E0FEA3E0FFE56625E02414F582E44D
:0E2DCB003460F583EEF0A3EFF00566808622FB
:102A0B00E4F566903988E493FFE566C39F506790C1
:102A1B006018E0FF7E00C39410748094805053EFD5
:102A2B009408748094804025E56625E02400F582A7
:102A3B00E43460F583E0FEA3E0FFE56625E02404C3
:102A4B00F582E43460F583EE8FF012026AE56625B9
:102A5B00E02400F582E43460F583E0FEA3E0FFE5BB
:102A6B006625E02410F582E43460F583EE8FF012D6
:102A7B00026A0566808D906018E0C3941074809490
:102A8B008040054337048006906018E004F07F0116
:032A9B00022CD733
:102DD900E4FFFEFDFCAB1BAA1AA919A818C312032C
:102DE900E9606390601AE004F07006906019E004ED
:102DF900F090397CE493FE740193FF4E602ED390DA
:102E0900601AE09F906019E09E4021E4F0A3F0F57C
:102E19001FF51EF51DF51CF533F532F531F530F5C5
:102E29001BF51AF519F518C21D022D5B90397EE4C0
:102E390093FE740193FFD390601AE09F906019E0AC
:0D2E49009E400AD21D22E4906019F0A3F013
:012E56002259
:051331009064CFEFF015
:10133600A3E0FCA3E0FDA3E0FEA3E0F52C8E2B8D3D
:101346002A8C297884E2F50A08E2F50B758A087575
:101356008B29758C2575881D2088FDE4FFFEFDFC14
:10136600AB28AA27A926A825D31203D34006AC2565
:10137600A8048013AF28AE27AD26AC251203C5AB53
:1013860007AA06A905A80490601FE0FEA3E0FFE4F3
:10139600FCFDC31203D35041E4FFFEFDFCAB28AABB
:1013A60027A926A8251203D34006AF28AE27800B0F
:1013B600AF28AE27AD26AC251203C590601FEEF010
:1013C600A3EFF09064CFE025E024B1F582E4346425
:1013D600F583E0A3E090601EF0903979E493FE7403
:1013E6000193FFD3906020E09F90601FE09E501B0A
:1013F6009064CFE025E024B1F582E43464F583E01F
:10140600A3E090601EF090601B8079E4FFFEFDFC77
:10141600AB28AA27A926A825D31203D34034906463
:10142600CFE0FF25E024B1F582E43464F583E0FCE7
:10143600A3E0D39400EC9400404DEF25E024B1F5F1
:1014460082E43464F58374FFF5F012026A90601C3E
:1014560080329064CFE0FF25E024B1F582E4346465
:10146600F583E0FCA3E0C3947FEC94005019EF25CC
:10147600E024B1F582E43464F583E475F0011202E8
:101486006A90601D7401F090601CE064017011A305
:10149600E06401700B90601CF0A3F090601B04F0F8
:1014A60090601BE06401703590601EE0FF9064CF91
:1014B600E025E024B1F582E43464F583E4F0A3EF9B
:1014C600F074FF90601FF0A3F090601E747FF0E44C
:0F14D60090601CF0A3F090601BF07F01227F005C
:0114E50022E4
:10301300E49064CEF090397312042C780112040DFD
:103023009064D0120448AF61121331EF602205613E
:10303300E53730E4095337EF9064CE7401F09039EB
:1030430088E493FFE561C39F4006E4F561433710CD
:10305300C39039777401939562E493940040089088
:1030630064CEE064017005D21C023621E4FF122C09
:01307300D785
:013074002239
:102CD700EF70607F01FEFDFC74AB2561F582E43483
:102CE70064F583E0F9F812040D8F178E168D158C95
:102CF70014787EE254FCF2E24514F218E515F21856
:102D0700E516F218E517F2E56125E024B1F582E44E
:102D17003464F583E0A3E0547FFF7878E254804F72
:102D2700F2787FE254FBF2E254FB4404F2E24401FE
:102D3700F2801CE56125E024B1F582E43464F58373
:102D4700E0A3E0547FFF7878E254804FF2787FE287
:042D57004402F2221E
:1028D600E49064BDF0A3F09064BDE0FEA3E0FFC306
:1028E6009488EE94035031EF248DFFEE34058F82E9
:1028F600F583E493FF9064BEE02421FD9064BDE07F
:1029060034608D82F583EFF09064BEE004F070C70A
:082916009064BDE004F080BFF5
:10291E009063A97401F0A37460F0A37421F0E4F540
:10292E0061F537F536F535F534C21CC21DF51FF5C8
:10293E001EF51DF51CF533F532F531F530F51BF5A9
:10294E001AF519F51890398293FF903986E493FEA3
:10295E00A807088002C333D8FCF563756420E4FF32
:03296E00022CD761
:102E57007884E2F50A08E2F50BAE0A7803CEC313CD
:102E6700CE13D8F97802C333CE33CED8F9FFE56154
:102E770025E02400F582E43460F583EEF0A3EFF05B
:102E8700201C0F90397BE4937005D21C0236210277
:102E970030130561903988E493FFE561C39F401FB4
:102EA700787FE254FBF2E254FB4404F2E24401F27D
:102EB700E4F561E53720E203022A0B433701227F5D
:052EC70001122CD722CE
:053B86000562022DD9CB
:10393400E53730E01A9063A9A3E0FAA3E0F9120591
:1039440010121178E4F5617F01122CD75337FE224F
:10298B000230D1E493A3F8E493A34003F68001F261
:10299B0008DFF48029E493A3F85407240CC8C3334D
:1029AB00C4540F4420C8834004F456800146F6DF1C
:1029BB00E4800B0102040810204080900B1EE47E83
:1029CB00019360BCA3FF543F30E509541FFEE49311
:1029DB00A360010ECF54C025E060A840B8E493A3D8
:1029EB00FAE493A3F8E493A3C8C582C8CAC583CA03
:1029FB00F0A3C8C582C8CAC583CADFE9DEE780BEBB
:010D4F0000A3
:10006000E709F608DFFA8046E709F208DFFA803E82
:1000700088828C83E709F0A3DFFA8032E309F6086F
:10008000DFFA8078E309F208DFFA807088828C83D7
:10009000E309F0A3DFFA806489828A83E0A3F6088B
:1000A000DFFA805889828A83E0A3F208DFFA804C65
:1000B00080D280FA80C680D4806980F2803380103C
:1000C00080A680EA809A80A880DA80E280CA8033A5
:1000D00089828A83ECFAE493A3C8C582C8CCC5831D
:1000E000CCF0A3C8C582C8CCC583CCDFE9DEE780ED
:1000F0000D89828A83E493A3F608DFF9ECFAA9F06C
:10010000EDFB2289828A83ECFAE0A3C8C582C8CCC1
:10011000C583CCF0A3C8C582C8CCC583CCDFEADEDA
:10012000E880DB89828A83E493A3F208DFF980CC3C
:1001300088F0EF60010E4E60C388F0ED2402B40435
:100140000050B9F582EB2402B4040050AF232345DC
:0601500082239000B07351
:10015600BB010689828A83E0225002E722BBFE02A7
:09016600E32289828A83E49322DA
:10016F00BB010CE58229F582E5833AF583E0225045
:10017F0006E92582F8E622BBFE06E92582F8E2228F
:0D018F00E58229F582E5833AF583E49322A9
:10019C00BB010FF8E58229F582E5833AF583E02867
:1001AC00F0225009C58229F8E58226F622BBFE0909
:1001BC00C58229F8E22582F222F8EA2583F583E943
:0301CC0093282253
:1001CF00BB010689828A83F0225002F722BBFE010F
:0201DF00F32209
:1001E100F8BB010DE58229F582E5833AF583E8F054
:1001F100225006E92582C8F622BBFE05E92582C800
:02020100F222E7
:10020300EF8DF0A4A8F0CF8CF0A428CE8DF0A42E0F
:02021300FE22C9
:10021500BC000BBE0029EF8DF084FFADF022E4CCCD
:10022500F875F008EF2FFFEE33FEEC33FCEE9DEC96
:10023500984005FCEE9DFE0FD5F0E9E4CEFD22EDDC
:10024500F8F5F0EE8420D21CFEADF075F008EF2F26
:10025500FFED33FD4007985006D5F0F222C398FD17
:050265000FD5F0EA22B4
:10026A00C5F0F8A3E028F0C5F0F8E582158270021F
:06027A001583E038F022BC
:0D028000EF2BFFEE3AFEED39FDEC38FC22CD
:0E028D00C3EF9BFFEE9AFEED99FDEC98FC226C
:10029B00E88FF0A4CC8BF0A42CFCE98EF0A42CFC02
:1002AB008AF0EDA42CFCEA8EF0A4CDA8F08BF0A480
:1002BB002DCC3825F0FDE98FF0A42CCD35F0FCEBDF
:1002CB008EF0A4FEA9F0EB8FF0A4CFC5F02ECD39A4
:0F02DB00FEE43CFCEAA42DCE35F0FDE43CFC2211
:1002EA0075F008758200EF2FFFEE33FECD33CDCCCB
:1002FA0033CCC58233C5829BED9AEC99E58298404E
:10030A000CF582EE9BFEED9AFDEC99FC0FD5F0D62A
:10031A00E4CEFBE4CDFAE4CCF9A88222B800C1B954
:10032A000059BA002DEC8BF084CFCECDFCE5F0CB92
:10033A00F97818EF2FFFEE33FEED33FDEC33FCEBCB
:10034A0033FB10D703994004EB99FB0FD8E5E4F986
:10035A00FA227818EF2FFFEE33FEED33FDEC33FC73
:10036A00C933C910D7059BE99A4007EC9BFCE99A67
:10037A00F90FD8E0E4C9FAE4CCFB2275F010EF2FAC
:10038A00FFEE33FEED33FDCC33CCC833C810D707AC
:10039A009BEC9AE899400AED9BFDEC9AFCE899F8E7
:0E03AA000FD5F0DAE4CDFBE4CCFAE4C8F9227A
:0D03B800CFF4CFCEF4CECDF4CDCCF4CC22DA
:0E03C500C3E49FFFE49EFEE49DFDE49CFC2249
:1003D300EB9FF5F0EA9E42F0E99D42F0EC6480C8A1
:0603E30064809845F02241
:1003E900EB9FF5F0EA9E42F0E99D42F0E89C45F06A
:0103F90022E1
:1003FA00E8600FECC313FCED13FDEE13FEEF13FFE1
:03040A00D8F12204
:10040D00E8600FEFC333FFEE33FEED33FDEC33FC4D
:03041D00D8F122F1
:0C042000E0FCA3E0FDA3E0FEA3E0FF224F
:10042C00E493FC740193FD740293FE740393FF2216
:0C043C00E0F8A3E0F9A3E0FAA3E0FB2243
:0C044800ECF0A3EDF0A3EEF0A3EFF02227
:10045400A8828583F0D083D08212046B12046B12BD
:10046400046B12046BE473E493A3C583C5F0C583E2
:10047400C8C582C8F0A3C583C5F0C583C8C582C8F2
:010484002255
:0C048500A42582F582E5F03583F5832282
:09049100E0FBA3E0FAA3E0F9226C
:10049A00F8E0FBA3A3E0F925F0F0E58215827002EB
:0704AA001583E0FA38F0228F
:0904B100EBF0A3EAF0A3E9F0224C
:1004BA00BB010DE58229F582E5833AF583020491B1
:1004CA005007E92582F802056FBBFE07E92582F885
:1004DA00020578E58229F582E5833AF583020581EA
:1004EA00D083D082F8E4937012740193700DA3A3A1
:1004FA0093F8740193F5828883E4737402936860B5
:06050A00EFA3A3A380DFB4
:060510008A838982E47376
:10051600EC8EF0A4CCC5F0CCCDF8EFA4CEC5F02D72
:10052600FDE43CFCE8A42EC8C5F03DFDE43CFCEF30
:0D053600A4FFE5F028FEE43DFDE43CFC22BE
:10054300EF4E6012EF60010EEDBB010B89828A83CF
:10055300F0A3DFFCDEFA2289F05007F709DFFCA9DC
:0C056300F022BBFEFCF309DFFCA9F02233
:09056F00E6FB08E6FA08E6F922B1
:09057800E2FB08E2FA08E2F922B4
:0C058100E493FB740193FA740293F922D6
:00000001FF
