:0300000002257D59
:10257D00787FE4F6D8FD9060007F007E07E4F0A33D
:0A258D00DFFCDEFA7581660225D23C
:0C000300000000000000000000000000F1
:0B323C00EF1FAC0670011E4C70F62264
:10315900AB07AA06EB1BAE0270011A4E600C7FAAE0
:0B3169007E0512323C75D9AA80EA22D4
:1022A100907120E04480F07F057E0012323CE4FF13
:1022B100FE12315975A75575AC5C9071327450F0AE
:1022C1009071307403F0907136742FF090715C74DA
:1022D10003F090715BE054FCF07F18EF2466FDE49D
:1022E10034718D82F583E4F00FEFB433EE90401139
:1022F100E4935407FF90711CE054F84FF09040179D
:10230100E493547FFF90711DE054804FF090401092
:10231100E493FF5401C43333335480FE907123E0BE
:10232100547F4EF0EFC313543F4440FFA3E0548069
:102331004FF0904012E493FF540FFE907146E05429
:10234100F04EF0EFC4540FFF90714FE054F04FF096
:10235100904013E493543FFF907140E054C04FF01C
:10236100904014E493907126F0904015E49390719D
:0B23710028F0904016E49390712AF0D1
:01237C00223E
:10310000000009C4006400C80101F4004B000A007B
:0E31100000010F0405020009000A000A000A6F
:10318E00E2FE747F2FF582E43464F583E02224FCA2
:08319E0025E0FDF8740308228E
:101B7400E4FF123190C394085058123190C3940476
:101B8400502878C2C00012318E12319E8002C333B5
:101B9400D8FCF45ED000F278C2C00012318E12314B
:101BA4009E8002C333D8FC021CA278C3C000123149
:101BB4008E12319C8002C333D8FCF45ED000F278DC
:101BC400C3C00012318E12319C8002C333D8FC0290
:101BD4001CA2123190C394084068123190C394102F
:101BE4005060123190C3940C502C78D2C000123142
:101BF4008E24F812319E8002C333D8FCF45ED000E8
:101C0400F278D2C00012318E24F812319E8002C3C1
:101C140033D8FC021CA278D3C00012318E24F412F3
:101C2400319E8002C333D8FCF45ED000F278D3C076
:101C34000012318E24F412319E8002C333D8FC0288
:101C44001CA2123190C39414502B78E2C0001231BC
:101C54008E24F012319E8002C333D8FCF45ED0008F
:101C6400F278E2C00012318E24F012319E8002C359
:101C740033D8FC802978E3C00012318E24EC123171
:101C84009E8002C333D8FCF45ED000F278E3C00037
:101C940012318E24EC12319E8002C333D8FC4ED014
:0B1CA40000F20FEF64026003021B76E9
:011CAF002212
:03005D00022CBEB4
:102CBE00C0E0C0F0C083C082C0D075D000C000C0DC
:102CCE0001C002C003C004C005C006C0077881E27F
:102CDE0030E607E24440F2122B45D007D006D0056D
:102CEE00D004D003D002D001D000D0D0D082D08377
:052CFE00D0F0D0E0322F
:102C6F00D2AF43AB0843B6C0907132E04440F0435B
:102C7F00AB087877743FF208744BF2787A7430F2BD
:102C8F00788914F27871744FF2187427F27872748D
:102C9F00A8F2087410F208E4F208F208F2787E74D1
:0F2CAF00D0F2087404F208741EF2087402F222C4
:1026AA00E4FBEB25E025E02416F582E43431F583DA
:1026BA00740193FF747F2BF582E43464F583EFF0A1
:1026CA00EB25E025E02418F582E43431F583E49320
:1026DA00FE740193FFEB25E02481F582E43464F56E
:1026EA0083EEF0A3EFF0EB25E02485F582E4346471
:1026FA00F583E4F0A37441F0E47F01FEFDFC747FEE
:10270A002B123193F9F81203A1E53F4FFFE53E4E34
:10271A00FEE53D4DFDE53C4C8F3F8E3E8D3DF53C43
:10272A000BEB640260030226AC121B741224E20251
:02273A002C6F02
:0527C90042600C00005D
:07325B00E475F0010201E837
:102D8B00E5B154CF42B153A8BFD2AF75D102789CF5
:102D9B00E254E3F2E2441CF2E254FCF2E24401F2AC
:102DAB0008E2547FF2E24420F278A17401F2187425
:102DBB0076F2789CE2541FF2E244C0F243A8402220
:030021000220DFDB
:1020DF00C0E0C0F0C083C082C0D075D000C000C0C7
:1020EF0001C002C003C004C005C006C007789DE24E
:1020FF0020E7030221A5E24480F2301E069063E33D
:03210F00E004F0F9
:1021120090600C12325BC390600DE0946490600C8E
:0B212200E094004006E4F0A3F0D2219E
:10212D009064BBE0FEA3E0FFE4FCFD7BFF7AFFF9CA
:10213D00F8D312036740069064BB12325B9064C9FA
:10214D0012325BC39064CAE094D09064C9E09407E6
:10215D004008E4F0A3F09064C8F09064CC12325BB8
:10216D00C39064CDE094649064CCE094004008E4A6
:0D217D00F0A3F09064CBF09064BD12325BD3
:10218A0090600E12325BC390600FE094A090600ED4
:0B219A00E0940F4006E4F0A3F0D22711
:1021A500D007D006D005D004D003D002D001D0008E
:0B21B500D0D0D082D083D0F0D0E03238
:0727CE00C1244264D10000A8
:102D0300E5B254FC42B253A9FED2AF75D10490711F
:102D130000E054E3F0E0F0E054FCF0E04401F09014
:102D230071057409F0907104745FF0907101E054BF
:102D33007FF0E04420F0907100E0541FF0E044C0C5
:052D4300F043A901228C
:030024000224397A
:10243900C0E0C0F0C083C082C0D075D000C000C069
:0D24490001C002C003C004C005C006C007EA
:0B245600907101E030E76AE04480F084
:102461009064D1E475F0011201E8C39064D2E09464
:10247100149064D1E094004025E4F0A3F0906497B7
:1024810075F0011201E8C3906498E094E8906497B4
:0E249100E094034009202006E4F0A3F0D220DE
:10249F0030952320241C9064931203B4EF2401FF82
:1024AF00E43EFEE43DFDE43CFC9064931204111203
:0824BF002E48D2248002C22441
:1024C700D007D006D005D004D003D002D001D00069
:0B24D700D0D0D082D083D0F0D0E03213
:102C1C009063E61203B474DC2FF582E43463F5831D
:102C2C00229064CEE0FF24D9F582E43463F583224C
:102C3C007D00EF75F00FA424ACF9746335F0FA7BCA
:102C4C000122E5822EF582E43583F58322E4F090AF
:102C5C0063DFE014F090000F229063E5E4F09063E2
:032C6C00E4F0226F
:0E004E0090644DEFF012320990644DE0FF22F5
:0A324700E49063E3F0C21DD21E22E2
:0A325100C21EE49063E3F0C21D22E8
:1030840078C2E2543FF2E254FCF2E24440F290711E
:1030940081E04404F0907175E04401F043AA20D229
:0B30A400AF75D60175D59F75D21122C3
:03004B00021CB0E4
:101CB000C0E0C0F0C083C082C0D075D000C000C0FA
:0D1CC00001C002C003C004C005C006C0077B
:101CCD00906454E4F0E5D420E503021DB5E5D7F0AA
:101CDD00201F04E0B4A5099063DFE0C39403400323
:101CED00021DB2906454E0B4A508D21F122C6512E7
:101CFD0032479063E5E0B40108906454E09063E4EA
:101D0D00F0122C1CE06003021DB5906454E0FF90AE
:101D1D0063E61203D09063AC75F00FEB12044EEA3C
:101D2D0075F00FA42583F583C083C0829063E5E031
:101D3D00FE04F0D082D083122C4EEFF09063E3E4DA
:101D4D00F0A3E06063E0FFA3E06F705C9063E4E0FC
:101D5D00FB9063E61203B474D92F122C34EBF0C24E
:101D6D001F122C65122C1C7401F09063DFE004F03F
:101D7D009063E61203B4EF2401FFE43EFEE43DFD63
:101D8D00E43CFC9063E6120411E47F03FEFDFC903D
:101D9D0063E61203D0C312037D400A9063E612047A
:081DAD001D000000001232517C
:101DB500D007D006D005D004D003D002D001D00082
:0B1DC500D0D0D082D083D0F0D0E0322C
:0D320900E5D430E4FB8FD7E5D430E4FB22A0
:101DD000E49064CEF0A3F0C2259063E3E0D3940ACC
:101DE000400F123251E49063E5F09063E4F0C21FBB
:101DF00022E49064CEF09064CEE0FFC394034003ED
:101E0000021EE174DC2F122C25E07003021ED89014
:101E100064CEE075F00FA424ADF582E43463F5835D
:101E2000E0FE74D92F122C34E06E601A9064CEE07C
:101E300024DC122C25122C59C083C082122C3CD0D9
:061E400007D0060204AF0A
:101E4600E49064D0F09064CFF0A3F0122C2DE0144F
:101E5600FE9064D0E0FDC39E5022EF75F00FA424DF
:101E6600ACF582E43463F583E5822D122C51E0FF54
:101E76009064CFE02FF0A3E004F080CF9064CFE031
:101E8600F0122C2DE0FEEF75F00FA424ABF582E4E2
:101E96003463F583122C4EE0FF9064CFE06F60024E
:021EA600D22543
:101EA80030251DC2259064CEE0FF24DC122C2512BB
:101EB8002C59C083C082122C3CD007D0061204AF24
:101EC8009064CEE024E0F582E43463F5837401F095
:091ED8009064CEE004F0021DF656
:011EE10022DE
:1011EE00616C6C206D656E75732061726520696E21
:1011FE0076616C69640A006F6E65206F66206D659E
:10120E006E75732069732076616C69640A006D6572
:10121E006E7573206172652076616C69640A006573
:10122E006570726F6D5F6D656E755F707265762E2F
:10123E006375725F77726974655F706167655F6908
:10124E0064203D202562750A00656570726F6D5FC2
:10125E006D656E755F707265762E69735F6461740D
:10126E00615F76616C6964203D2030782025780AB4
:10127E0000656570726F6D5F6D656E755F6E65781A
:10128E00742E6375725F77726974655F70616765DE
:10129E005F6964203D202562750A00656570726F76
:1012AE006D5F6D656E755F6E6578742E69735F64C4
:1012BE006174615F76616C6964203D203078202511
:1012CE00780A003D3D3D3D3D3D3D3D3D3D3D3D3D75
:1012DE003D3D3D3D3D3D3D3D3D3D3D3D3D3D3D3D30
:1012EE003D3D3D3D3D3D3D3D3D3D3D3D3D3D3D3D20
:1012FE003D3D3D3D3D3D3D0A006375725F7061674A
:10130E00655F69642025750A00656570726F6D5F93
:10131E0073617665696E666F2E65726173655F6364
:10132E006E74203D20256C750A00656570726F6DB8
:10133E005F73617665696E666F2E746F616C5F6D3B
:10134E00696C65616765203D20256C750A006565D1
:10135E0070726F6D5F73617665696E666F2E7375F1
:10136E0062746F74616C5F6D696C65616765203D59
:10137E0020256C750A00656570726F6D5F736176FE
:10138E0065696E666F2E737562746F74616C5F6DD6
:10139E00696C656167655F32203D20256C750A00BA
:1021C000C29678E0E254EFF278E3E254FCF2E244A3
:1021D00001F2907192E4F022D2967F017E007D00A0
:1021E0007C00229063EAF0A374C5F078EC7C637AFB
:1021F0006379EA7D017B017E007F020201309064F9
:102200002E7A6379EAE47B01F0A37402F022E0FF06
:102210007B0190642EE4F0A37411F02290642E7A76
:102220006379ECE47B01F0A37402F07F012278FF74
:102230007C637D017B017A6379EE22E4906421F076
:10224000A3F07A64792190642E22E475F0010201F2
:10225000E8E4FB78E3E254FCF278E0E24410F22296
:102260001203B4906426020411EF75F020A4FFE578
:10227000F0F0A3EFF0229063ECE0FF9063EAE0223D
:102280001204119064590203B412041190645D02A7
:1022900003B49064260203B4EEF0A3EFF0A30204AB
:0122A0007AC3
:0E31FB001221FEE4FF122F9A12221C022F9ABC
:1031E70090642E122201E4FF122FCA90642E12223D
:0431F7001F022FCABA
:102A52001231E79063EBE064C560199063EDE064C6
:102A6200C5601174021221E31231FB7BFF7A1179E6
:102A7200EE022ACB9063EBE0B4C5079063EDE0B4BD
:102A8200C5109063EBE064C560399063EDE064C506
:102A920070319063EBE0B4C5081221EB12221C8066
:102AA200179063EDE0B4C51378EA7C637A6379EC3E
:102AB2001221F31221FEE4FF122F9A7BFF7A127980
:0D2AC2000580067BFF7A12791C1205732235
:101FF40012223B122206E4FF122FCA7A12792D1202
:1020040020B77A1279571220A412223B12222412EA
:102014002FCA7A12797F1220B77A1279A91220A4D2
:102024001220C5E4F0A37402F0906423E0FEA3E060
:10203400FFC3940AEE940050557B017A6479101220
:102044002212122FCA7BFF7A137907906423E0FFD0
:10205400A3E0906428CFF0A3EFF01205737A13790C
:102064001790641C1220937A13793890641012200C
:10207400D27A13795C9064141220937A1379849041
:0E20840064181220D21220C512224A02202D0A
:10209200227BFF1203B49064281204111205737B91
:1020A200FF227BFF906422E0FF906428E4F0A3EF1C
:1020B200F0120573227BFF906421E0906428F012F5
:1020C2000573227BFF7A1279D11205739064232261
:0D20D2001203B49064281204111205732249
:102EFE00E4906425F0906423F0A3F0906423E0FE48
:102F0E00A3E0FF7B017A647925906437E4F0A30493
:102F1E00F0122ACFEF70E490642312224BC3906418
:062F2E0023E0941040D5E1
:012F3400227A
:10171C00E4906425F01231E7122276B50702800CB2
:10172C00122276D39F400280039063ECE0906425F4
:10173C00F0906425E020E009906423F004A3F0808D
:10174C000D906425E0FE14906423F0A3EEF09064F9
:10175C00237A6379EE12220E122FCA9064247A63D4
:10176C0079FF12220E122FCA9063FEE064C5602E20
:10177C009063FA12041D000000009063EE12041D29
:10178C00000000009063F212041D00000000906342
:10179C00F612041D000000009063FE74C5F0906406
:1017AC000FE064C5600A12222E7E007F11120130F8
:1017BC009063FF1203B49063EE1203D0C312037D47
:1017CC0090645550291203B49063FF1222809064E8
:1017DC000312228990640712041190640B12226088
:1017EC0078EE7C637D017B017A6379FF801E1203A6
:1017FC00B49063EE1222809063F21222899063F609
:10180C001204119063FA12226012222E7E007F11B4
:10181C00120130122292EF2401FFE43EFEE43DFD62
:10182C00E43CFC1222631222929063FA120411120D
:10183C00229290640B120411E47F64FEFDFC906410
:10184C00261203D0C312037D4020906424E0049040
:10185C006423F004A3F09063FA12041D000000004E
:10186C0090640B12041D00000000906423E0FF1232
:10187C00223490642E122215122F9A906424E0FFC9
:10188C007B017A6379FF90642E122215122F9A90A5
:10189C0063EAE0FF906423E0FE6F6007EE1221E341
:0318AC001231FBFB
:0118AF002216
:1031D20090643912041190643974FF1203DEEC4DCD
:0431E2004E4F70F2EA
:0131E60022C6
:103174001221C2D2A4D2967F01FEFDFC1231D2C22A
:0A318400A41221DA1231D2C2962201
:10313C001221C2C296C2A47F01FEFDFC1231D21232
:0D314C0021D81231D2D2A41221DA0231D2E0
:10305800122251D2A41221DA1231D2D29680103023
:10306800A4150BEBD394FA400612313C7F012212CF
:0B30780021DA1231D280E8C2967F00FE
:01308300222A
:1031A6001221C0C2A47F01FEFDFC1231D21221D829
:0631B6001231D2C2962284
:1031BC001221C0D2A47F01FEFDFC1231D21221D803
:0631CC001231D2C296226E
:022F3500AB07E8
:102F37001221C2C296FAEB5480C41313135401240E
:102F4700FF92A4EB25E0FB1221DA1231D21221D82D
:102F57001231D2C2961221DA1231D20AEAB408D655
:012F67002247
:022F6800A907B7
:102F6A00122251E4FAC2961221DA1231D2D296EB27
:102F7A0025E0FB30A4010B1221DA1231D20AEAB49D
:0F2F8A0008E3E970051231BC80031231A6AF03D2
:012F99002215
:10273C009064321222981231747FA0122F3512300D
:10274C0058EF60037F01229064321227BF60037F31
:10275C000122906432A31227BF60037F0122122151
:10276C00DA1231D21231747FA1122F35123058EF98
:10277C0060207F0122906437E07002A3E0601F7F2D
:10278C0001122F68906434E475F001120463EF12A7
:10279C00016F90643774FFF5F01201E880D7E4FF05
:1027AC00122F6890643412045AEF12016F12313CEC
:0D27BC007F0022E0FF122F35123058EF226F
:102ACF009064321222981231747FA0122F35123077
:102ADF0058EF60037F0122906432122B3B60037F1B
:102AEF000122906432A3122B3B60037F012290647A
:102AFF003774FFF5F01201FE45F060249064341234
:102B0F00045A120156FF122F35123058EF60037F0F
:102B1F00012290643212224A90643512224A80CEEA
:102B2F001221DA1231D212313C7F0022E0FF122F34
:062B3F0035123058EF22B0
:062F9A0090642B12047A82
:102FA000906430122269906430E0FEA3E0FF9064E8
:102FB0002B12045A90642EE0FDA3E0906437CDF00C
:092FC000A3EDF0122ACFEF70DD41
:012FC90022E5
:062FCA0090642B12047A52
:102FD000906430122269906430E0FEA3E0FF9064B8
:102FE0002B12045A90642EE0FDA3E0906437CDF0DC
:092FF000A3EDF012273CEF70DDA7
:012FF90022B5
:1030DA00D2A4D29678D3E2543FF2E24440F29071FD
:1030EA008DE4F0C297E254CFF2E24410F290718C70
:0630FA00E4F01221C822DF
:10311E00626567696E207265616420656570726FA5
:0E312E006D0A007379732072657365740A0070
:0227D500C1271A
:102EC30078E2E2543FF2E24440F2907191E0F01272
:102ED3003084122D8B123223122D031230DA7F012C
:102EE3007E00123159122EFE7BFF7A31791E1205B4
:0B2EF300731228D87F017E00023159C5
:102D48001222A175D9DD75D95590715EE054FEF057
:102D580075D9BB122EC3D2A37FE87E03123159C2A4
:102D6800A37BFF7A31793112057375D9AA12237DB5
:102D78001230AF121A19302705121FF4C22775D95D
:032D8800AA80E737
:0D321600656570726F6D20736176650A004A
:10000F00E0FF7B017A64791090642EE4F0A3741101
:02001F00F022CD
:1028D800122A529063EAE0906423F012000F122F3C
:1028E800CA906420E0B4C5028021906423E020E00F
:1028F8000404F08006906423E014F090642312002E
:102908000F122FCA906420E0B4C5249064101203FB
:10291800B49064551204119064141203B49064596D
:102928001204119064181203B490645D02041190AB
:10293800645512041D0000000090645912041D0023
:0D29480000000090645D12041D00000000FE
:01295500225F
:0C32300012171C7BFF7A3279160205731E
:102E0A00FEE02FFFEC3EFEA3E02FFFEC3EFE22FA8F
:102E1A001203B47E00EB2FFFEE3AFE3395E0FDFC81
:102E2A002212038E7E009064BFE022FC9064C402EA
:0E2E3A0004119064C40203B49064C00203B497
:050DFE009064BFEFF05E
:100E03009064C412041D000000007FA51232091271
:100E13002E3CEF24A5FFE43EFEE43DFDE43C122E10
:100E2300359064BFE0FF64016032EF6402602DEF30
:100E330064036028EF64046023EF6405601EEF64BD
:100E4300066019EF64096014EF640A600FEF641120
:100E5300600AEF64126005EF641370207F05120FC0
:100E6300DE120FF0C000122E42122E2E2405FDE4D6
:100E730033CD2FFFEE3D122E24020FA89064BFE066
:100E8300FF6407600AEF64086005EF641070337F46
:100E9300061232099064BFE0FF120FC6120FF0C0B2
:100EA30000C002C003122E427808122E2B2406FD26
:100EB300E433CD2FFBEE3DA3122E19D003D0020253
:100EC3000FA89064BFE0FF640B600FEF640C600A2F
:100ED300EF64146005EF640D70467F07120FDE7830
:100EE3001012038E120FC6120FFAC000C002C00305
:100EF300122E427810122E2B2407FDE433CD2FFB44
:100F0300EE3DFAA31203B4780812038E7E00EB2F92
:100F1300FBEE3A9064C0122E19D003D002020FA840
:100F23009064BFE0640E6003020FB07F0B123209BE
:100F33007F0E123209906461E0FF123209906461FE
:100F4300E0A3E0FF123209906463E0FF12320990DC
:100F53006464E0FF123209906465E0FF1232099085
:100F63006466E0FF123209906467E0FF120FFAC073
:100F730000C001C002C003906461E02419FFE433A0
:100F8300FEE0A3E07C002FFFEC3E906463122E0A88
:100F9300A3E02FFFEC3EA3122E0A3395E0FDFCD015
:100FA30003D002D001D000120214122E36122E3CAE
:100FB300E4FEFD122E35122E3C1232097F017E0013
:030FC3000231599F
:100FC6001232099064C01203B4780812038E1232EA
:100FD600099064C01203B4221232099064BFE0FF84
:100FE6001232099064C01203B4221232099064C40A
:0E0FF6001203D0221232099064C41203D022DA
:1027D700476499000000000000004164A000C12187
:1027E700C1204464930000000042649700004464E1
:1027F700A1000000004464A50000000042649100AD
:0128070000D0
:10302A00F583EFF090642DE004F0229064A102038E
:10303A00D0E4FAF9F80202BA9DFEE09C90642BF003
:0E304A00A3CEF022E0FCA3E0FDC39FEC9E228B
:0D32230078D3E254F3F278D0E24420F22296
:102E4800123035906497E0FEA3E0FFE4FCFD120227
:102E5800149064A1120411E4906497F0A3F09064B4
:102E6800A51203B49064931203D01202149064A5BF
:0E2E780012041190649312041D000000002249
:10237D00E4906423F0A3F090642512041D00000086
:10238D0000E47FBC7E02FDFC123035C312037D508C
:10239D0006202003022438E47F6D7E05FDFC906449
:1023AD00A51203D012022F7B0412303B906425122C
:1023BD000411E4302008906423F0A3F080217F24E1
:1023CD00FEFDFC9064251203D012022F7B0A123001
:1023DD003B1230351202BA906423EEF0A3EFF09069
:1023ED0064B71203B49064251203D01202149064E2
:1023FD00B71204119064A512041D00000000906432
:10240D00A112041D00000000C220D3906424E094AA
:10241D00E7906423E0940340077403F0A374E7F09E
:0B242D00906423E0FEA3E0FF121EE21B
:012438002281
:081EE200906429EEF0A3EFF07B
:101EEA00E4A3F0A3F0C214A3F090649112304E5010
:101EFA000FC390642AE0906429123042D2148047BA
:101F0A00906491E0FEA3E0FF90642912304E500FD6
:101F1A00C3906492E0906491123042C2148028E423
:101F2A0090642DF090642DE0FFC3940750169064DE
:101F3A0029A3E0FE74992FF582E43464F583EE1246
:101F4A00302D80E0021FEE30143AE490642DF090B8
:101F5A00642DE0FB2401FFE433FE90642BE0FCA334
:101F6A00E0FD1201817C007D07120193906491A328
:101F7A00E02FFF74992BF582E4346412302AE0B41E
:101F8A0007CD8051E490642DF090642BE0FEA3E02D
:101F9A00FBAA06E4F9F8A3E0FFC374069FFFE494E2
:101FAA0000FE3395E0FDFC12022FE47B0712303C61
:101FBA00906491A3E0C39FFF90642DE0FDC3740673
:101FCA009DFDE49400FC74992DF58274643C1230F2
:101FDA002AE0B407B4906429E0FFA3E0906491CFAB
:091FEA00F0A3EFF0E49064A0F014
:011FF30022CB
:1030AF00302127C2219064A0E0C39407501CE02474
:1030BF0099F582E43464F583E0FF90646CE4F0A347
:0B30CF00EFF09064A0E004F0D20822B3
:102808004264BB00004464B7000000004264BD009D
:10281800004464AB000000004464AF0000000044C2
:0D28280064B300000000C1284264A9000054
:102FFA001203B4EF2401FFE43EFEE43DFDE43CFC91
:10300A00221203B4120221E47B64FAF9F8C3020320
:10301A007D7F7F7E967D987C001203D0C302037D5C
:101A1900C39064BCE094309064BBE09475401BE4CF
:101A2900F0A3F0D390646DE0940090646CE09400AE
:101A39004008302805123230C22890646CE07002E8
:101A4900A3E07015C39064BCE094E89064BBE09493
:101A5900034006302803121B67E47FE87E03FDFC80
:101A69009064B71230235003021AF97F187EC67D9D
:101A79009A7C3B906455123023500C906455122F78
:101A8900FA90645512041190645912301B500C904D
:101A99006459122FFA90645912041190645D12303E
:101AA9001B500C90645D122FFA90645D120411D2E0
:101AB900289064B71203B4C3EF94E8FFEE9403FED1
:0E1AC900ED9400FDEC9400FC9064B712041143
:101AD7009064A9E475F0011201E8C39064AAE09448
:101AE700649064A9E0648094804007E4F0A3F01256
:021AF7001B676B
:101AF9009064AB1203D090645512300B500E906471
:101B0900551203B49064AB120411D20C9064AF1255
:101B190003D090645912300B500E9064591203B4DB
:101B29009064AF120411D20D9064B31203D0906483
:101B39005D12300B500E90645D1203B49064B312C1
:101B49000411D20EC39064BEE094889064BDE09401
:0D1B590013400AE4F0A3F0D20CD20DD20E1E
:0E1B660022123230C228E49064BBF0A3F022B9
:102DCB00906470E0FFE4FCFDFE9064C0020411907F
:102DDB006459E47B64FAF9F81203B40202BA906402
:102DEB006CE0FEA3E0FFE4FCFD22E47BE87A03F950
:0F2DFB00F8906455229064D5E0FF75F00FA42284
:1018B000E49064D5F0F09064D5E0FFC39403400356
:1018C000021A1874E02FF582E43463F583E07003A4
:1018D000021A0F9064D5E0FB75F00FA424AEF582D8
:1018E000E43463F583E0120483190580190A8B1927
:1018F0000F8C19198E19149419B09819B49919B834
:101900009A000019BAD2000219BAD20C0219BAD23E
:101910000D0219BAD20E0219BAD20FEB75F00FA44C
:1019200024AFF582E43463F583E0FFE4FCFDFE7848
:10193000081203A1EB75F00FA424B0F582E4346320
:10194000F583E07C002FFFEC3E906461F0A3EFF0A4
:10195000122E0024B1F582E43463F583E0906463D1
:10196000F0EF75F00FA424B2F582E43463F583E060
:10197000906464F0122E0024B3F582E43463F5839E
:10198000E0906465F0EF75F00FA424B4F582E434C0
:1019900063F583E0906466F09064D5E075F00FA481
:1019A00024B5F582E43463F583E0906467F0800A3F
:1019B000D2118006D2128002D2139063DFE0D3945A
:1019C000004003E014F09064D5E0FF24E0F582E4E9
:1019D0003463F583E4F074D92FF582E43463F5833E
:1019E000E4F074DC2FF582E43463F583E4F0FE7FE9
:1019F0000FC006C007FD9064D5E075F00FA424ACBD
:101A0000F9746335F0FA7B01D007D0061204AF9069
:081A100064D5E004F00218B6F1
:011A180022AB
:101004002000030210AFC2009064C8E06003021025
:10101400AF04F0122DCB7F01120DFE906471122DDE
:10102400CE7F02120DFE906472122DCE7F03120D3C
:10103400FE906474122DCE7F04120DFE906475121E
:101044002DCE7F05120DFE906476122DCE7F0612F2
:101054000DFE9064681203B4122DD47F07120DFEA6
:10106400122DE9122DD47F08120DFE906473122DF7
:10107400CE7F09120DFE122DF5122DE3122DD47F11
:101084000B120DFE122DDA122DD47F0C120DFE90D0
:10109400646E122DEC122DD47F10120DFE90645D3F
:1010A400122DDD122DD47F14120DFE30010AC2015F
:1010B400122DCB7F01120DFE30020DC2029064711D
:1010C400122DCE7F02120DFE30040DC20490647402
:1010D400122DCE7F04120DFE30050DC205906475ED
:1010E400122DCE7F05120DFE30060DC206906476D9
:1010F400122DCE7F06120DFE300710C207906468D1
:101104001203B4122DD47F07120DFE30080DC2084D
:10111400122DE9122DD47F08120DFE30090DC209DB
:10112400906473122DCE7F09120DFE300A18C20A84
:10113400906477122DCE7F12120DFE906478122DDA
:10114400CE7F13120DFE300C10C20C122DF5122D91
:10115400E3122DD47F0B120DFE300D0DC20D122D96
:10116400DA122DD47F0C120DFE300E16C20EE47B63
:1011740064FAF9F890645D122DE3122DD47F1412F1
:101184000DFE301010C21090646E122DEC122DD48E
:101194007F10120DFE301119C21190645512041DF6
:1011A400000000009064B712041D00000000123219
:1011B40030301219C21290645912041D000000004C
:1011C4009064B712041D000000001232303013196D
:1011D400C21390645D12041D000000009064B712F5
:0A11E400041D00000000123230224A
:1028350041601801426019000041601B0041601CA5
:0E2845000041601D0041601E7F42601FFFFFCA
:102E8600E4F561AE3EAD3DAC3C853F178E168D1523
:102E96008C14787EE254FCF2E24514F218E515F241
:102EA60018E516F218E517F2787FE254FBF2E254C1
:0D2EB600FB4404F2E24401F27F01022854C3
:100BAC009064D6EFF0E0FF247BF582E43464F583A7
:100BBC00E004F0747D2FF582E43464F583E4F07482
:100BCC007B2FF582E43464F583E0C3956350030214
:100BDC000DFD9064D6E0FB247BF582E43464F58350
:100BEC00E4F09031119364016003020DAE7F01FEBD
:100BFC00FDFC747F2BF582E43464F583E0F9F81284
:100C0C0003A1E51F4FF51FE51E4EF51EE51D4DF525
:100C1C001DE51C4CF51CAF1FAE1EAD1DFC78011262
:100C2C00038EEF5455FBEE5455FAED5455F9EC5434
:100C3C0055F8C3E51F9BF53BE51E9AF53AE51D9962
:100C4C00F539E51C98F538AF3BAE3AAD39FC780276
:100C5C0012038EEF5433FBEE5433FAED5433F9ECAC
:100C6C005433F8E53B5433FFE53A5433FEE539543D
:100C7C0033FDE5385433FCEB2FF53BEA3EF53AE90E
:100C8C003DF539E83CF538AF3BAE3AAD39FC78046C
:100C9C0012038EEF253BFFEE353AFEED3539FDECB8
:100CAC003538FCEF540FF53BEE540FF53AED540F7D
:100CBC00F539EC540FF538AF3BAE3AAD39FC78084A
:100CCC0012038EEF253BFFEE353AED3539FDEC3551
:100CDC0038EFF53BE4F53AEDF539E4F538AE3AACDE
:100CEC0038781012038EEF253BFFEE353AFEEFF508
:100CFC003BEEF53AE4F539F5389064D6E025E0247E
:100D0C0089F582E43464F583E0FEA3E0D39553EED9
:100D1C00955240249064D6E0FF25E02489F582E4C6
:100D2C003464F583E0F552A3E0F553747F2FF5821C
:100D3C00E43464F583E0F564903111E493FFE4FC52
:100D4C00FDFEAB3BAA3AA939A838D312037D405219
:100D5C00AF650565D3EF9403748094805003020D46
:100D6C00FDE4F565F51FF51EF51DF51C7F01FEFD77
:100D7C00FCA964A8011203A18F1B8E1A8D198C1863
:100D8C00E47F01FEFDFCA8011203A18F338E328D8E
:100D9C00318C30E4F552F5537564201229564337E3
:100DAC000222E4F5657F01FEFDFC9064D6E0FB2495
:100DBC007FF582E43464F583E0F9F81203A1E51BB6
:100DCC004FF51BE51A4EF51AE5194DF519E5184CBA
:100DDC00F518E47F01FEFDFCA8031203A1E5334FD7
:100DEC00F533E5324EF532E5314DF531E5304CF564
:020DFC003022A3
:10086D00E4F566903115E493FFE566C39F400302FE
:10087D000BABE56625E02400F582E4346085828AC1
:10088D007F548F8B7E0E8E8C758903758889E566F6
:10089D0025E02400F582E4346085828A8F8B758C87
:1008AD0012758904758889E56625E02408F582E4CA
:1008BD003460F583E0FCA3E0C3950FEC950E502E4C
:1008CD00E56625E02414F582E43460F583E0FCA3AD
:1008DD00E0C39513EC95125015AF600560EF9402CF
:1008ED0074809480400BE4F5605337FD8003E4F58C
:1008FD0060E53730E125E56625E02489F582E434AD
:10090D0064F583E4F0A3F0E56625E0248DF582E43B
:10091D003464F583E4F0A3F00209BBE56625E02419
:10092D0008F582E4346085828A8E8B758C0A758910
:10093D00267588892088FDE5F130E00875F107E41A
:10094D00F50AF50BAE0AE50B7802C333CE33CED8DC
:10095D00F9FFE56625E02489F582E43464F583EE3C
:10096D00F0A3EFF0E56625E02414F582E43460850C
:10097D00828A758B12758C0A7589277588892088EE
:10098D00FDE5F130E00875F107E4F50AF50BAE0A67
:10099D00E50B7802C333CE33CED8F9FFE56625E0FB
:1009AD00248DF582E43464F583EEF0A3EFF0E56673
:1009BD0025E02481F582E43464F583E0FEA3E0783C
:1009CD0002CEC313CE13D8F9F5518E50E56625E04E
:1009DD002489F582E43464F583E0FEA3E0FF9031D1
:1009ED000DE493FC740193FDC3EF9DEE9C4017E560
:1009FD006625E0248DF582E43464F583E0FEA3E002
:100A0D00C39DEE9C50028068E56625E02489F58241
:100A1D00E43464F583E0FEA3E0C39551EE955040B8
:100A2D001CE56625E0248DF582E43464F583E0FE53
:100A3D00A3E0C39551EE95504003020AC774792582
:100A4D0066F582E43464F583E004F074792566F587
:100A5D0082E43464F583E0FF903112E493FEEFD32A
:100A6D009E406474792566F582E43464F583E4F080
:100A7D00E56625E02404F582E43460F583E0FEA309
:100A8D00E0FFE56625E02408F582E43460F583EEA9
:100A9D00F0A3EFF0E56625E02410F582E43460F56F
:100AAD0083E0FEA3E0FFE56625E02414F582E4343F
:100ABD0060F583EEF0A3EFF0800D74792566F58275
:100ACD00E43464F583E4F0E56625E02404F582E47E
:100ADD00346085828AE56625E02400F582E4346081
:100AED0085828B758C0A7589207588CB2088FDE5EC
:100AFD00F130E00875F107E4F50AF50BE56625E040
:100B0D002404F582E4346085828A758B547F0E8FC0
:100B1D008C7589237588897E0A8E8A8F8BE566256B
:100B2D00E02404F582E4346085828CE4F5897588CF
:100B3D0029E56625E02410F582E4346085828AE596
:100B4D006625E02400F582E4346085828B8E8C75F9
:100B5D0089207588CB2088FDE5F130E00875F10717
:100B6D00E4F50AF50BE56625E02410F582E4346022
:100B7D0085828A758B547F0E8F8C75892475888933
:100B8D00758A0A8F8BE56625E02410F582E43460C2
:0F0B9D0085828CE4F58975882905660208702227
:1013AE00E4F566903115E493FFE566C39F400302B2
:1013BE001566E56625E02481F582E43464F583E064
:1013CE00FEA3E07802CEC313CE13D8F9F5518E509A
:1013DE00E56625E02489F582E43464F583E0FEA316
:1013EE00E0D39551EE9550402EE56625E0248DF51F
:1013FE0082E43464F583E0FEA3E0D39551EE95507C
:10140E004015747D2566F582E43464F583E4F0AF0F
:10141E0066120BAC021561903114E493FFC3E551D3
:10142E009FFFE5509400FED3EF9400EE940040022F
:10143E0080047E007F00E56625E02489F582E43491
:10144E0064F583E0FCA3E0C39FEC9E4003021554B9
:10145E00903114E493FFC3E5519FFFE5509400FED5
:10146E00D3EF9400EE9400400280047E007F00E5EE
:10147E006625E0248DF582E43464F583E0FCA3E078
:10148E00C39FEC9E4003021554747B2566F582E4DF
:10149E003464F583E4F0747D2566F582E43464F5F6
:1014AE0083E004F0747D2566F582E43464F583E010
:1014BE00C395635003021561747D2566F582E4348D
:1014CE0064F583E4F07F01FEFDFC747F2566F582F2
:1014DE00E43464F583E0F9F81203A112034CE51F1E
:1014EE005FF51FE51E5EF51EE51D5DF51DE51C5C39
:1014FE00F51CE47F01FEFDFCA966A8011203A112F2
:10150E00034CE5335FF533E5325EF532E5315DF5DB
:10151E0031E5305CF530E47F01FEFDFC747F25661D
:10152E00F582E43464F583E0F9F81203A112034C5A
:10153E00E51B5FF51BE51A5EF51AE5195DF519E574
:10154E00185CF518800D747D2566F582E43464F51B
:09155E0083E4F005660213B122DA
:10295600E4F566903115E493FFE566C39F506EE596
:102966006625E02489F582E43464F583E4F0A3F077
:10297600E56625E0248DF582E43464F583E4F0A36E
:10298600F0E56625E02404F582E43460F583E0FE94
:10299600A3E0FFE56625E02408F582E43460F583CC
:1029A600EEF0A3EFF0E56625E02410F582E434604E
:1029B600F583E0FEA3E0FFE56625E02414F582E456
:0E29C6003460F583EEF0A3EFF0056680862204
:10261700E4F566903115E493FFE566C39F50679034
:102627006018E0FF7E00C39410748094805053EFCD
:102637009408748094804025E56625E02400F5829F
:10264700E43460F583E0FEA3E0FFE56625E02404BB
:10265700F582E43460F583EE8FF01201E8E5662534
:10266700E02400F582E43460F583E0FEA3E0FFE5B3
:102677006625E02410F582E43460F583EE8FF012CE
:1026870001E80566808D906018E0C394107480940B
:102697008040054337048006906018E004F07F010E
:0326A700022854B2
:1029D400E4FFFEFDFCAB1BAA1AA919A818C3120335
:1029E4007D606390601AE004F07006906019E00462
:1029F400F0903109E493FE740193FF4E602ED3905E
:102A0400601AE09F906019E09E4021E4F0A3F0F585
:102A14001FF51EF51DF51CF533F532F531F530F5CE
:102A24001BF51AF519F518C22302295690310BE447
:102A340093FE740193FFD390601AE09F906019E0B5
:0D2A44009E400AD22322E4906019F0A3F016
:012A51002262
:0515670090644FEFF05D
:10156C00A3E0FCA3E0FDA3E0FEA3E0F54C8E4B8DC5
:10157C004A8C497884E2F50A08E2F50B758A0875FD
:10158C008B49758C4575881D2088FDE4FFFEFDFC9C
:10159C00AB48AA47A946A845D31203674006AC45F9
:1015AC00A8048013AF48AE47AD46AC45120359AB07
:1015BC0007AA06A905A80490601FE0FEA3E0FFE4BB
:1015CC00FCFDC31203675041E4FFFEFDFCAB48AACF
:1015DC0047A946A8451203674006AF48AE47800BA3
:1015EC00AF48AE47AD46AC4512035990601FEEF0C4
:1015FC00A3EFF090644FE025E02485F582E4346499
:10160C00F583E0A3E090601EF0903106E493FE7445
:10161C000193FFD3906020E09F90601FE09E501BD1
:10162C0090644FE025E02485F582E43464F583E092
:10163C00A3E090601EF090601B8079E4FFFEFDFC3F
:10164C00AB48AA47A946A845D31203674034906417
:10165C004FE0FF25E02485F582E43464F583E0FC5B
:10166C00A3E0D39400EC9400404DEF25E02485F5E5
:10167C0082E43464F58374FFF5F01201E890601C89
:10168C00803290644FE0FF25E02485F582E43464D9
:10169C00F583E0FCA3E0C3947FEC94005019EF2594
:1016AC00E02485F582E43464F583E475F0011201DD
:1016BC00E890601D7401F090601CE064017011A34F
:1016CC00E06401700B90601CF0A3F090601B04F0C0
:1016DC0090601BE06401703590601EE0FF90644FD9
:1016EC00E025E02485F582E43464F583E4F0A3EF8F
:1016FC00F074FF90601FF0A3F090601E747FF0E414
:0F170C0090601CF0A3F090601BF07F01227F0023
:01171B0022AB
:102BBA00E490644EF09031001203C078011203A130
:102BCA00906450120411AF61121567EF602205611B
:102BDA00E53730E4095337EF90644E7401F09031D1
:102BEA0015E493FFE561C39F4006E4F5614337109E
:102BFA00C39031047401939562E493940040089061
:102C0A00644EE064017005D222022E86E4FF122887
:012C1A005465
:012C1B002296
:10285400EF70607F01FEFDFC747F2561F582E43436
:1028640064F583E0F9F81203A18F178E168D158C89
:1028740014787EE254FCF2E24514F218E515F218DD
:10288400E516F218E517F2E56125E02485F582E402
:102894003464F583E0A3E0547FFF7878E254804FFA
:1028A400F2787FE254FBF2E254FB4404F2E2440186
:1028B400F2801CE56125E02485F582E43464F58327
:1028C400E0A3E0547FFF7878E254804FF2787FE20F
:0428D4004402F222A6
:1024E200E49064D3F0A3F09064D3E0FEA3E0FFC3D2
:1024F2009488EE94035031EF246DFFEE34088F82FE
:10250200F583E493FF9064D4E02421FD9064D3E04A
:1025120034608D82F583EFF09064D4E004F070C7EC
:082522009064D3E004F080BFD7
:10252A009063A97401F0A37460F0A37421F0E4F538
:10253A0061F537F536F535F534C222C223F51FF5B4
:10254A001EF51DF51CF533F532F531F530F51BF5A1
:10255A001AF519F51890310F93FF903113E493FE91
:10256A00A807088002C333D8FCF563756420E4FF2A
:03257A00022854E0
:102B45007884E2F50A08E2F50BAE0A7803CEC313E2
:102B5500CE13D8F97802C333CE33CED8F9FFE56169
:102B650025E02400F582E43460F583EEF0A3EFF070
:102B750020220F903108E4937005D222022E86029E
:102B85002BBA0561903115E493FFE561C39F401FA2
:102B9500787FE254FBF2E254FB4404F2E24401F292
:102BA500E4F561E53720E203022617433701227F6A
:052BB50001122854226A
:0532620005620229D401
:10002700E53730E01A9063A9A3E0FAA3E0F91204D8
:10003700A91213AEE4F5617F011228545337FE224B
:10259700022D48E493A3F8E493A34003F68001F2E5
:1025A70008DFF48029E493A3F85407240CC8C33345
:1025B700C4540F4420C8834004F456800146F6DF14
:1025C700E4800B01020408102040809027C9E47EB4
:1025D700019360BCA3FF543F30E509541FFEE49309
:1025E700A360010ECF54C025E060A840B8E493A3D0
:1025F700FAE493A3F8E493A3C8C582C8CAC583CAFB
:10260700F0A3C8C582C8CAC583CADFE9DEE780BEB2
:012853000084
:10006000E709F608DFFA8046E709F208DFFA803E82
:1000700088828C83E709F0A3DFFA8032E309F6086F
:10008000DFFA8078E309F208DFFA807088828C83D7
:10009000E309F0A3DFFA806489828A83E0A3F6088B
:1000A000DFFA805889828A83E0A3F208DFFA804C65
:1000B00080D280FA80C680D4806980F2803380103C
:1000C00080A680EA809A80A880DA80E280CA8033A5
:1000D00089828A83ECFAE493A3C8C582C8CCC5831D
:1000E000CCF0A3C8C582C8CCC583CCDFE9DEE780ED
:1000F0000D89828A83E493A3F608DFF9ECFAA9F06C
:10010000EDFB2289828A83ECFAE0A3C8C582C8CCC1
:10011000C583CCF0A3C8C582C8CCC583CCDFEADEDA
:10012000E880DB89828A83E493A3F208DFF980CC3C
:1001300088F0EF60010E4E60C388F0ED2402B40435
:100140000050B9F582EB2402B4040050AF232345DC
:0601500082239000B07351
:10015600BB010689828A83E0225002E722BBFE02A7
:09016600E32289828A83E49322DA
:10016F00BB010689828A83F0225002F722BBFE016F
:02017F00F32269
:10018100EF8DF0A4A8F0CF8CF0A428CE8DF0A42E92
:02019100FE224C
:10019300BC000BBE0029EF8DF084FFADF022E4CC50
:1001A300F875F008EF2FFFEE33FEEC33FCEE9DEC19
:1001B300984005FCEE9DFE0FD5F0E9E4CEFD22ED5F
:1001C300F8F5F0EE8420D21CFEADF075F008EF2FA9
:1001D300FFED33FD4007985006D5F0F222C398FD9A
:0501E3000FD5F0EA2237
:1001E800C5F0F8A3E028F0C5F0F8E58215827002A2
:0601F8001583E038F0223F
:1001FE00A3F8E0C5F025F0F0E582158270021583B4
:06020E00E0C838F0E82210
:0D021400EF2BFFEE3AFEED39FDEC38FC2239
:0E022100C3EF9BFFEE9AFEED99FDEC98FC22D8
:10022F00E88FF0A4CC8BF0A42CFCE98EF0A42CFC6E
:10023F008AF0EDA42CFCEA8EF0A4CDA8F08BF0A4EC
:10024F002DCC3825F0FDE98FF0A42CCD35F0FCEB4B
:10025F008EF0A4FEA9F0EB8FF0A4CFC5F02ECD3910
:0F026F00FEE43CFCEAA42DCE35F0FDE43CFC227D
:10027E0075F008758200EF2FFFEE33FECD33CDCC37
:10028E0033CCC58233C5829BED9AEC99E5829840BA
:10029E000CF582EE9BFEED9AFDEC99FC0FD5F0D697
:1002AE00E4CEFBE4CDFAE4CCF9A88222B800C1B9C1
:1002BE000059BA002DEC8BF084CFCECDFCE5F0CBFF
:1002CE00F97818EF2FFFEE33FEED33FDEC33FCEB38
:1002DE0033FB10D703994004EB99FB0FD8E5E4F9F3
:1002EE00FA227818EF2FFFEE33FEED33FDEC33FCE0
:1002FE00C933C910D7059BE99A4007EC9BFCE99AD4
:10030E00F90FD8E0E4C9FAE4CCFB2275F010EF2F18
:10031E00FFEE33FEED33FDCC33CCC833C810D70718
:10032E009BEC9AE899400AED9BFDEC9AFCE899F853
:0E033E000FD5F0DAE4CDFBE4CCFAE4C8F922E6
:0D034C00CFF4CFCEF4CECDF4CDCCF4CC2246
:0E035900C3E49FFFE49EFEE49DFDE49CFC22B5
:10036700EB9FF5F0EA9E42F0E99D42F0EC6480C80D
:0603770064809845F022AD
:10037D00EB9FF5F0EA9E42F0E99D42F0E89C45F0D6
:01038D00224D
:10038E00E8600FECC313FCED13FDEE13FEEF13FF4D
:03039E00D8F12271
:1003A100E8600FEFC333FFEE33FEED33FDEC33FCBA
:0303B100D8F1225E
:0C03B400E0FCA3E0FDA3E0FEA3E0FF22BC
:1003C000E493FC740193FD740293FE740393FF2283
:0C03D000E0F8A3E0F9A3E0FAA3E0FB22B0
:1003DC007401FF3395E0FEFDFCA3A3A3E0CF2FF047
:1003EC00E582158270021583E0CE3EF0E58215821F
:1003FC0070021583E0CD3DF0E58215827002158305
:05040C00E0CC3CF022F1
:0C041100ECF0A3EDF0A3EEF0A3EFF0225E
:10041D00A8828583F0D083D0821204341204341262
:10042D000434120434E473E493A3C583C5F0C58387
:10043D00C8C582C8F0A3C583C5F0C583C8C582C829
:01044D00228C
:0C044E00A42582F582E5F03583F58322B9
:09045A00E0FBA3E0FAA3E0F922A3
:10046300F8E0FBA3A3E0F925F0F0E5821582700222
:070473001583E0FA38F022C6
:09047A00EBF0A3EAF0A3E9F02283
:10048300D083D082F8E4937012740193700DA3A308
:1004930093F8740193F5828883E47374029368601C
:0604A300EFA3A3A380DF1C
:0604A9008A838982E473DE
:10050800E5402428F582E43464F583E00540229030
:100518006425301B03906428E475F001120463021B
:1005280001562014E97F2ED2148018EF540F24901E
:10053800D43440D4FF30180BEF24BFB41A00500352
:100548002461FFE541600215410544E54470020558
:1005580043301B0E906425E475F001120463EF022A
:10056800016F02004E7403D21B8003E4C21BF540E6
:1005780090642512047AE4F541F543F544E54160B9
:10058800077F2012054B80F57542FFC215C214C2C1
:1005980016C217C219C21AC21C120517FF700D30F5
:1005A8001B057F0012055CAF44AE4322B4255FC231
:1005B800D5C218120517FF24D0B40A00501A75F0D6
:1005C8000A784130D50508B6FF0106C6A426F620EC
:1005D800D5047002D21780D924CFB41A00EF500482
:1005E800C2E5D21802075DD21580C6D21480C0D2E7
:1005F8001680BCD2D580BAD21980B47F2012054BA0
:100608002016077401B5410040F1120508FF1205D4
:100618004B020585D21CD21A8095120508FB1205DB
:1006280008FA120508F94A4B7006792E7A087BFFFA
:1006380020162EE541602A7E008E82758300120402
:10064800DB60060EEE654270F0C2D5EBC0E0EAC092
:10065800E0E9C0E0EE1207A4D0E0F9D0E0FAD0E07B
:10066800FB120156FF60AAEBC0E0EAC0E0E9C0E077
:1006780012054BD0E02401F9D0E03400FAD0E0FBB9
:10068800E5420460DCD542D980877BFF7A0779A0F0
:10069800D216809C791080027908C21AC21C800880
:1006A800D2D5790A8004790AC2D5E542047002F5E8
:1006B80042E4FAFDFEFF120508FC7B082015131220
:1006C8000508FD7B1030140A120508FE120508FF04
:1006D8007B20EC3382D592D55013C3E43014069FA7
:1006E800FFE49EFEE42015039DFDE49CFCE4CBF8AA
:1006F800C215EC700CCFCECDCCE824F8F870F3809E
:1007080017C3EF33FFEE33FEED33FDEC33FCEB3371
:10071800FB994002FB0FD8E9EB301505F8D0E0C48F
:1007280048B215C0E00AEC4D4E4F78207B0070C2ED
:10073800EAB5420040BCC0E01207A6D0F0D0E020E5
:100748001504C4C0E0C4B215C0F0120534D0F0D509
:10075800F0EB020585120483062253069C5805F324
:100768004C05EF4206A04F06A84406A849060843D0
:0807780006AE550692460692FA
:1007800045069247084E5005F72D05FB2E061E2BF9
:1007900005FF23061C2008372A05B7480000061667
:1007A0003F3F3F00790AA2D5201714301909B9102C
:1007B000020404B9080104A2D5201A025001042041
:1007C00016689216B541005034C0E07F20301719EA
:1007D0007F30A216721A7219500F1207FDC216C28C
:1007E0001AC219C21C7F30800F301903E9C0E01211
:1007F000054B301903D0E0F9D0E0B541CC301917E2
:100800007F30B9100C12054B7F583018077F788065
:1008100003B9080312054B3016057F2D02054B7FE7
:1008200020201CF87F2B201AF322921680CF286EEE
:10083000756C6C2900D2151205083015F8C21578B0
:100840004130D50108F60205B72D5043495812052D
:10085000082403B405004001E49008499312053CC4
:0D086000743A12053CD21775410402069C43
:1004AF00EF4E6012EF60010EEDBB010B89828A8364
:1004BF00F0A3DFFCDEFA2289F05007F709DFFCA971
:0C04CF00F022BBFEFCF309DFFCA9F022C8
:1004DB00BB010CE58229F582E5833AF583E02250D6
:1004EB0006E92582F8E622BBFE06E92582F8E22220
:0D04FB00E58229F582E5833AF583E493223A
:00000001FF
