:030000000227963E
:10279600787FE4F6D8FD9060007F007E07E4F0A322
:0A27A600DFFCDEFA7581660227EB06
:0C000300000000000000000000000000F1
:0B3AAE00EF1FAC0670011E4C70F622EA
:10388B00AB07AA06EB1BAE0270011A4E600C7FAAA7
:0B389B007E05123AAE75D9AA80EA2221
:10203300907120E04480F07F057E00123AAEE4FF09
:10204300FE12388B75A75575AC5C9071327450F0E5
:102053009071307403F0907136742FF090715C744A
:1020630003F090715BE054FCF07F18EF2466FDE40D
:1020730034718D82F583E4F00FEFB433EE904011A9
:10208300E4935407FF90711CE054F84FF09040170D
:10209300E493547FFF90711DE054804FF090401003
:1020A300E493FF5401C43333335480FE907123E02F
:1020B300547F4EF0EFC313543F4440FFA3E05480DA
:1020C3004FF0904012E493FF540FFE907146E0549A
:1020D300F04EF0EFC4540FFF90714FE054F04FF007
:1020E300904013E493543FFF907140E054C04FF08D
:1020F300904014E493907126F0904015E49390710E
:0B21030028F0904016E49390712AF041
:01210E0022AE
:10384F00000009C4006400C80101F4004B000A0025
:0E385F0000010F0405020009000A000A000A19
:10390F00E2FE74C12FF582E43464F583E02224FCD7
:08391F0025E0FDF87403082205
:10199800E4FF123911C394085058123911C3940442
:1019A800502878C2C00012390F12391F8002C33381
:1019B800D8FCF45ED000F278C2C00012390F123998
:1019C8001F8002C333D8FC021AC678C3C00012397C
:1019D8000F12391D8002C333D8FCF45ED000F278B0
:1019E800C3C00012390F12391D8002C333D8FC025C
:1019F8001AC6123911C394084068123911C39410D9
:101A08005060123911C3940C502C78D2C00012398E
:101A18000F24F812391F8002C333D8FCF45ED000BB
:101A2800F278D2C00012390F24F812391F8002C38D
:101A380033D8FC021AC678D3C00012390F24F41226
:101A4800391F8002C333D8FCF45ED000F278D3C0CB
:101A58000012390F24F412391F8002C333D8FC0254
:101A68001AC6123911C39414502B78E2C0001239E7
:101A78000F24F012391F8002C333D8FCF45ED00063
:101A8800F278E2C00012390F24F012391F8002C325
:101A980033D8FC802978E3C00012390F24EC1239BE
:101AA8001F8002C333D8FCF45ED000F278E3C00094
:101AB80012390F24EC12391F8002C333D8FC4ED0E0
:0B1AC80000F20FEF6402600302199AA5
:011AD30022F0
:03005D000232D19B
:1032D100C0E0C0F0C083C082C0D075D000C000C0C3
:1032E10001C002C003C004C005C006C0077881E266
:1032F10030E607E24440F2122D1AD007D006D0057D
:10330100D004D003D002D001D000D0D0D082D0835D
:05331100D0F0D0E03215
:10311400D2AF43AB0843B6C0907132E04440F043B1
:10312400AB087877743FF208744BF2787A7430F213
:10313400788914F27871744FF2187427F2787274E3
:10314400A8F2087410F208E4F208F208F2787E7427
:0F315400D0F2087404F208741EF2087402F2221A
:10295C00E4FBEB25E025E02465F582E43438F583CF
:10296C00740193FF74C12BF582E43464F583EFF0AA
:10297C00EB25E025E02467F582E43438F583E49315
:10298C00FE740193FFEB25E024C3F582E43464F577
:10299C0083EEF0A3EFF0EB25E024C7F582E434647A
:1029AC00F583E4F0A37441F0E47F01FEFDFC74C1F7
:1029BC002B123914F9F812040DE53F4FFFE53E4E8A
:1029CC00FEE53D4DFDE53C4C8F3F8E3E8D3DF53C8F
:1029DC000BEB6402600302295E1219981226FB02AB
:0229EC003114A4
:1039880078C2E254BFF2E24440F2907181E4F0223E
:0D39D40078C3E254CFF278C0E24440F22202
:0D39E10078C3E2543FF278C0E24480F22245
:0D39EE0078D2E254FCF278D0E24401F222DB
:0D39FB0078D2E2543FF278D0E24408F22284
:0D3A080078D3E254FCF278D0E24410F222B0
:0D3A150078E2E254F3F278E0E24402F2229B
:0D3A220078E2E254CFF278E0E24404F222B0
:0D3A2F0078E2E2543FF278E0E24408F2222F
:0D3A3C0078E3E254F3F278E0E24420F22255
:0D3A490078E3E2543FF278E0E24480F2229C
:0D3A560078F2E254FCF278F0E24401F22232
:070B1E0044600C0000000020
:083AB9007890E2541FF2E222B2
:10358F00E5B154F342B153A8DFD2AF7892E4F20819
:10359F00F27890E254E3F2E2441CF2E254FCF2E2DD
:1035AF004401F208E2547FF2E24420F2789574016C
:0C35BF00F2187476F2123AB944A0F2221D
:0C3A8A00123AB944C0F243A820D2AF2287
:10399800123AB944A0F27892E4F208F253A8DF226E
:03001E00022E713E
:102E7100C0E0C0F0C083C082C0D075D000C000C027
:102E810001C002C003C004C005C006C0077891E2BA
:102E910030E72FE24480F274FFFFFEFDFC90600CEE
:102EA10012043CC31203E9501990600C120420EF84
:102EB1002401FFE43EFEE43DFDE43CFC90600C1285
:102EC1000448D007D006D005D004D003D002D001E9
:0D2ED100D000D0D0D082D083D0F0D0E0323D
:0E0B250044652A000000004465260000000020
:1031AF00C374FF9BFF74FF9AFE74FF99FD74FF9821
:1031BF00FC12043CC30203E9120420EF2401FFE4D4
:1031CF003EFEE43DFDE43CFC221204209064A60286
:1031DF00043CE4FCFD7BFF7AFFF9F8D30203D390A4
:0B31EF0064A6020420EE8FF002026ACA
:1034D800E5B154CF42B153A8BFD2AF75D102789CA1
:1034E800E254E3F2E2441CF2E254FCF2E24401F258
:1034F80008E2547FF2E24420F278A17401F21874D1
:0D35080076F2789CE2541FF2E244A0F22219
:1039A800789CE2541FF2E244C0F243A840D2AF220E
:101C0C0090652A1204209064A21204489064A612D3
:101C1C0004540000000090652A12045400000000D7
:101C2C0090652612043C9064A212042012028D903E
:101C3C0064A612044890652612045400000000901B
:101C4C006541E0FEA3E0FF1231E140091231EE9054
:101C5C0065411231F41231DB9064DF1231AF500F59
:101C6C009064DF1231D81202809064DF12044812A3
:101C7C0031DB90642F1231AF500F90642F1231D89A
:101C8C0012028090642F12044890651DE0B401206C
:101C9C001231EE90651E1231F4C390651FE094C4AE
:101CAC0090651EE094094008E4F0A3F090651DF0E7
:101CBC00906521E0B401201231EE9065241231F4CC
:101CCC00C3906525E09464906524E094004008E49A
:101CDC00F0A3F0906521F0906520E0B40120123162
:101CEC00EE9065221231F4C3906523E09464906504
:101CFC0022E094004008E4F0A3F0906520F090649A
:101D0C00E3E0FEA3E0FF1231E1400A9064E3E475E6
:101D1C00F00112026A74FFFFFEFDFC90651912318E
:0F1D2C00C0500C9065191231C790651912044808
:011D3B002285
:03002100022D8F1E
:102D8F00C0E0C0F0C083C082C0D075D000C000C00A
:102D9F0001C002C003C004C005C006C007789DE291
:102DAF0030E736E24480F274FFFFFEFDFC90652AA7
:102DBF001231C0500C90652A1231C790652A120447
:102DCF00489063ADE0C394FF5003E004F090648437
:102DDF00E0C394FF5003E004F0D007D006D005D035
:102DEF0004D003D002D001D000D0D0D082D083D075
:042DFF00F0D0E032FE
:0D0B3300C115C1164165390042653A000048
:1038A600120420EF2401FFE43EFEE43DFDE43CFC6F
:0B38B60022E4FDFC12043CC30203E905
:10339D00E5B254FC42B253A9FED2AF75D10490717F
:1033AD0000E054E3F0E0F0E054FCF0E04401F09074
:1033BD0071057409F0907104745FF0907100E05420
:1033CD001FF0E044A0F0A3E0547FF0E04420F02291
:10395500907100E0541FF0E044C0F043A901D2AFDC
:01396500223F
:03002400021E6059
:101E6000C0E0C0F0C083C082C0D075D000C000C048
:0D1E700001C002C003C004C005C006C007C9
:0E1E7D00907101E020E703021F3AE04480F07C
:101E8B00906539E004F0E0C394144029E4F09064C9
:101E9B00F91238A69064F91204487F587E029064B8
:101EAB00F91238B7400F201B0C9064F91204540040
:051EBB00000000D21B35
:101EC00030821620150F9064F51238A69064F51232
:0B1ED000044812345BD2158002C215DA
:101EDB0090653AE475F00112026AC390653BE09499
:101EEB001490653AE09400402BE4F0A3F09064E981
:101EFB001238A69064E91204487FE87E039064E9E7
:101F0B001238B7400F201A0C9064E91204540000E9
:041F1B000000D21AD6
:101F1F0030951620160F9064E51238A69064E512DE
:0B1F2F0004481235CBD2168002C21607
:101F3A00D007D006D005D004D003D002D001D000FB
:0B1F4A00D0D0D082D083D0F0D0E032A5
:100B4000602D63F1000000000000000000000000C4
:100B50000000000000000000000000000000000095
:100B60000000000000000000000000000000000085
:100B70000043641E0000004364210000004364251C
:100B8000000000C119416428004164290041642427
:080B90000044642A000000008B
:1030670090642A12042074212FF582E43464F583D6
:10307700229064A2E0FF241EF582E43464F58322E3
:103087007D00EF75F00FA424F1F9746335F0FA7B36
:103097000122E5822EF582E43583F58322E4F09060
:1030A7006424E014F090000F22906429E4F0906407
:0930B70028F02290642A02043C76
:0E004E00906543EFF0123A63906543E0FF22A5
:10372B0078C2E2543FF2E254FCF2E24440F2907170
:10373B0081E04404F0907175E04401F043AA20D27B
:0B374B00AF75D60175D59F75D2112215
:03004B00021AD4C2
:101AD400C0E0C0F0C083C082C0D075D000C000C0D8
:0D1AE40001C002C003C004C005C006C00759
:101AF1009064BAE4F0E5D420E503021BF1E5D7F0E8
:101B0100201904E0B4A509906424E0C394034003C0
:101B1100021BE49064BAE0B4A515D2191230B012D8
:101B2100399890600C12045400000000123A8A9017
:101B31006429E0B401089064BAE0906428F012309E
:101B410067E06003021BF19064BAE0FF1230BA90C3
:101B510063F175F00FEB120485EA75F00FA425838C
:101B6100F583C083C082906429E0FE04F0D082D066
:101B710083123099EFF090600C12045400000000C1
:101B8100906428E0606AE0FFA3E06F7063906428CE
:101B9100E0FB90642A120420741E2F12307FEBF0B8
:101BA100C2191230B01230677401F0906424E0045D
:101BB100F090642A120420EF2401FFE43EFEE43D8C
:101BC100FDE43CFC90642A120448E47F03FEFDFC22
:101BD1001230BAC31203E9400A90642A1204540075
:101BE10000000012399890600C12045400000000AB
:101BF100D007D006D005D004D003D002D001D00048
:0B1C0100D0D0D082D083D0F0D0E032F1
:0D3A6300E5D430E4FB8FD7E5D430E4FB223E
:0600270090653C1204B1DB
:10002D00E4FEEEC39D501590653C1204918E8275D1
:0C003D00830012016FFF123A630E80E690
:010049002294
:101D3C00E49064A2F0A3F0C21C7F0AFEFDFC90604C
:101D4C000C12043CD31203E9401912399890600C20
:101D5C0012045400000000E4906429F0906428F010
:101D6C00C21922E49064A2F09064A2E0FFC3940331
:101D7C004003021E5F74212F123070E07003021EAC
:101D8C00569064A2E075F00FA424F2F582E434635B
:101D9C00F583E0FE741E2F12307FE06E601A9064A3
:101DAC00A2E024211230701230A4C083C082123001
:081DBC0087D007D006020543A1
:101DC400E49064A4F09064A3F0A3F0123078E014DB
:101DD400FE9064A4E0FDC39E5022EF75F00FA4248E
:101DE400F1F582E43463F583E5822D12309CE0FF43
:101DF4009064A3E02FF0A3E004F080CF9064A3E00C
:101E0400F0123078E0FEEF75F00FA424F0F582E4D0
:101E14003463F583123099E0FF9064A3E06F6002AD
:021E2400D21CCE
:101E2600301C1DC21C9064A2E0FF242112307012E7
:101E360030A4C083C082123087D007D00612054373
:101E46009064A2E02425F582E43464F5837401F0FD
:091E56009064A2E004F0021D7486
:011E5F002260
:050B980042653F000072
:1038C10012028D9064A71204489064A7020420900C
:0B38D1007123E05498F0E0441EF02248
:1037810078C3E24403F2E2440CF218E2440CF2780A
:103791006AE24478F27591FF1238D0907122740771
:0837A100F0439E7043994022A1
:10335B005399E0EF24FE601714601C240270269032
:10336B007123E054D8F0E0445AF0439904801612CC
:10337B0038D0439905800E907123E054D8F0E04487
:10338B0059F04399017869E24448F27F017E0002CB
:02339B00388B6D
:1037A9007869E24401F2786BE230E1FA7402F2AF2F
:1037B90093EF75F010A4FFAEF0E594C4540FFDEF3C
:0337C9004DFF228F
:10210F00E49064A5F0A3F0A312045400000000E4CF
:10211F009064ABF0A3F074FFA3F0A3F0E4A3F0F08E
:10212F001237A99064A5EEF0A3EFF09064AFE0C36F
:10213F00940240549064ABE0FEA3E0FF9064A5E0EE
:10214F00FCA3E0FDD39FEC9E40089064ABECF0A3A2
:10215F00EDF09064ADE0FEA3E0FFC3ED9FEC9E5069
:10216F000F9064A5E0FFA3E09064ADCFF0A3EFF074
:10217F009064A712043C9064A5E0FEA3E0FFE4FC8A
:10218F00FD120280A31204489064AFE004F0E0C394
:10219F009414408C1238CAC006C0079064ABE0FE9E
:1021AF00A3E0FBAA06E4F9F8D007D0061238C1C0A5
:1021BF0006C0079064ADE0FEA3E0FBAA06E4F8D0EA
:1021CF0007D0061238C178041203FA9064A5EEF016
:0321DF00A3EFF07B
:0121E20022DA
:1039660075AF3F8FAF75AEB975A402E5A530E1FB23
:01397600222E
:103604009064A71204B175AF3F8FAF9064AAE0C372
:1036140094014022E5A530E0FB9064A7E475F00135
:1036240012049A120156F5A675AEB975A4019064F8
:07363400AAE014F080D5228A
:10363B009064A31204B19064A6E06027AE070FEE6E
:10364B002400FDE4343F8D82F583E493FE9064A364
:10365B00E475F00112049AEE1201CF9064A6E01407
:04366B00F080D322F6
:1036D100A3F078E3E254FCF2E24401F2907192E447
:1036E100F0229064B3E004F0E0C3940822C2A4C2C3
:0E36F10096D2977F04FE22FFE0FEA807082273
:10300B00E4FF78D3E2543FF2E24440F290718DE456
:10301B00F0E254CFF2E24410F290718CE4F01236ED
:10302B00D3C297C2961230C0EF7030FD7F8C122541
:10303B00087D017F881225087D017F861225087D7A
:10304B00017F8A122508E4FD7F82122508E4FD7FAB
:0B305B0084122508E4FD7F8012250888
:013066002247
:1038DC00E4FDEE25E0FEEF30E004EE4401FEEFC324
:0938EC0013FF0DEDB408EBAF066B
:0138F50022B0
:022E0300AC071A
:102E0500E49064A7F0AF051238DCEC64816019EC3E
:102E150064836014EC6485600FEC6487600AEC647D
:082E2500896005EC648D704327
:102E2D00E49064A8F0A3F0EC64816004ECB4830634
:102E3D00EF547FFF8017EC64856004ECB48706EFD8
:102E4D00543FFF8008ECB48904EF541FFFEFC454C6
:102E5D000FFE9064A8F0EF540FFFA3F0EE75F00A8B
:032E6D00A42FFF90
:012E7000223F
:0529EE009064A7EFF06A
:1029F300E4A3F01236D11236EE123AAEE49064A993
:102A0300F0122A629064A9E09064A71236F880025B
:102A1300C313D8FC30E004D2A48002C2A47F047E96
:102A230000123AAE122A6C40D878E3E254FCF278F2
:102A3300E0E24410F2E49064A9F09064A8E025E099
:102A4300F0122A6230A4079064A8E04401F0122A2D
:0E2A53006C40E7C296C297C2A49064A8E0FF50
:102A610022C2967F047E00123AAE22D2967F047E65
:0F2A710000123AAE9064A9E004F0E0C39408228A
:05393F009064A6EFF00A
:10394400E4FE1229EEAE079064A6E0FFAD06022E57
:01395400036F
:082A80009064B1EFF0A3EDF04A
:102A8800E41236D11236EE123AAEE49064B3F01284
:102A98002B069064B3E09064B11236F88002C31339
:102AA800D8FC30E004D2A48002C2A4122AF512365F
:102AB800E340DCE49064B3F0122B069064B3E0FFCB
:102AC8009064B2E0FEA807088002C313D8FC30E087
:102AD80004D2A48002C2A4122AF51236E340D9C255
:0C2AE800967F047E00123AAEC297C2A492
:102AF400227F047E00123AAED2967F047E00123A00
:0C2B0400AE22C2967F047E00123AAE2280
:1030C00012328BD3906469E09433906468E0940882
:1030D000503CC3A3E094D0906468E09407402F90E4
:1030E000646AE0D3940C5026E0C394014020A3E02E
:1030F000D3941F5019E0C394014013A3E0D3941854
:10310000500CA3E0943C5006A3E0943C40037F00A5
:04311000227F0122F7
:052508009064ADEFF04E
:10250D00A3EDF0EF6480601D9064ADE0FF64826028
:10251D0014EF6484600FEF6486600AEF64886005D1
:05252D00EF648C706CEE
:10253200E49064AFF0A3F09064AEE0FFC3940A406D
:1025420007EF75F00A84A3F09064AEE075F00A8498
:10255200AFF09064B0EFF09064AFE0FEC454F04F7F
:102562009064AEF09064ADE0FF64806004EFB482EA
:10257200099064AEE0547FF080229064ADE0FF6485
:10258200846004EFB486099064AEE0543FF0800C9E
:0C2592009064ADE0B48805A3E0541FF095
:10259E00E4FD7F8E122A809064ADE0FFA3E0FD1271
:0925AE002A807D807F8E022A80C4
:1033DD00906534E0FD7F80122508906533E0FD7F18
:1033ED0082122508906532E0FD7F841225089065D4
:1033FD0031E0FD7F86122508906530E0FD7F881253
:0F340D00250890652EA3E02430FD7F8C02250852
:10341C009064A6A3E02430FD7F8C1225089064A84C
:10342C00E0FD7F881225089064A9E0FD7F861225B7
:10343C00089064AAE0FD7F841225089064ABE0FD3F
:0F344C007F821225089064ACE0FD7F8002250886
:10328B007F8112393F90646EEFF07F8312393F904C
:10329B00646DEFF07F8512393F90646CEFF07F87A0
:1032AB0012393F90646BEFF07F8912393F90646A5B
:1032BB00EFF07F8D12393FEF24D0FEE4340790649A
:0632CB0068F0A3CEF02222
:040B9D004165350079
:1037EF009064A2F090653602049190000612016F6A
:1037FF00FE90000802016F9000091201E190000C89
:01380F002296
:1016B700E49064A2F07FFFA374FFF09065361204F4
:1016C700B190000112016FFE120156FDEEC39D504D
:1016D700030218491237F3900001E41201E1900068
:1016E7000E1204BA120510EFF460089065357423E2
:1016F700F08009906535E06003E014F01237F3904D
:10170700000312016F6F601590000512016F600DE5
:10171700900004E41201E1900003021845900005CF
:1017270012016FFE90000412016FC39E500B123717
:10173700F3900004740102019C1237F39000021227
:10174700016F6F6048EFF4701C1237F9C39E400AAF
:1017570074051237EF90000280611237F390000A88
:10176700740102183C1237F390000874011238090B
:1017770012016F6F906536600C1204917401123874
:1017870006EF02183C120491900009803DEFF470B7
:10179700411237F390000912016FD39400500302EE
:1017A700183F90000B12016FFE90000A12016FD3D1
:1017B7009E401174011237EF90000C12016F906474
:1017C700A3F080541237F390000A740112019C02AF
:1017D700183F1237F3123800C394FF5008900008DF
:1017E700740112019C1237F9B506089064A27403BC
:1017F700F080201237F39000071237FC6E70399093
:1018070064A274041237F290000612016F90000868
:101817001201E19064A3EFF01237F3E41238067473
:10182700FF1201E19064A3E09000111201E19064BE
:10183700A2E09000121201E11237F3900002EF12BA
:0218470001E1BD
:01184900227C
:1035150078E2E2543FF2E24440F2907191E0F01219
:10352500392712358F12372B1237561234D8123AE3
:1035350070123A7D12378112295C12300B12339DBD
:0D3545001239A81239557F017E0002388B23
:102FAC0012203375D95590715EE054FEF075D9BB83
:102FBC00123515D2A37FE87E0312388BC2A375D9C4
:102FCC00AA12381075D9AA7B017A6379AC1216B79C
:102FDC0012244E7B017A6479831216B712265F1283
:102FEC0021E3121F55122B10122830122383121DAD
:0F2FFC003C12184A120D66121C0C75D9AA80BF20
:100BA1006027645C000000000000000000000000FD
:100BB1000000000000000000000000000000000034
:0B0BC100000000000000000000000029
:0C3A96007B017A64795C740CF0E4FF2280
:103927007E007F277D007B017A64795C12054390D6
:0839370064A6123A9602363B29
:0E39B800E4FF1239669064AA123A96023604B1
:10349A00FEE02FFFEC3EFEA3E02FFFEC3EFE22FAF9
:1034AA001204207E00EB2FFFEE3AFE3395E0FDFC7E
:1034BA00221203FA7E009064A6E022FC9064AB021A
:0E34CA0004489064AB0204209064A702042022
:050FAD009064A6EFF0C6
:100FB2009064AB120454000000007FA5123A631241
:100FC20034CCEF24A5FFE43EFEE43DFDE43C1234C4
:100FD200C59064A6E0FF64016032EF6402602DEF09
:100FE20064036028EF64046023EF6405601EEF640D
:100FF200066019EF64096014EF640A600FEF641170
:10100200600AEF64126005EF641370207F0512110D
:101012008D12119FC0001234D21234BE2405FDE499
:1010220033CD2FFFEE3D1234B40211579064A6E087
:10103200FF6407600AEF64086005EF641070337F95
:1010420006123A639064A6E0FF12117512119FC056
:1010520000C002C0031234D278081234BB2406FD49
:10106200E433CD2FFBEE3DA31234A9D003D002020C
:1010720011579064A6E0FF640B600FEF640C600AE6
:10108200EF64146005EF640D70467F0712118D78CE
:10109200101203FA1211751211A9C000C002C00386
:1010A2001234D278101234BB2407FDE433CD2FFB67
:1010B200EE3DFAA312042078081203FA7E00EB2F09
:1010C200FBEE3A9064A71234A9D003D00202115762
:1010D2009064A6E0640E600302115F7F0B123A6314
:1010E2007F0E123A63906468E0FF123A639064687C
:1010F200E0A3E0FF123A6390646AE0FF123A639061
:10110200646BE0FF123A6390646CE0FF123A639002
:10111200646DE0FF123A6390646EE0FF1211A9C0A1
:1011220000C001C002C003906468E02419FFE433E8
:10113200FEE0A3E07C002FFFEC3E90646A12349A3A
:10114200A3E02FFFEC3EA312349A3395E0FDFCD0CE
:1011520003D002D001D0001202801234C61234CC65
:10116200E4FEFD1234C51234CC123A637F017E00D4
:0311720002388BB5
:10117500123A639064A712042078081203FA123A0F
:10118500639064A712042022123A639064A6E0FFDC
:10119500123A639064A712042022123A639064AB5A
:0E11A50012043C22123A639064AB12043C2206
:050BCC0042654100003C
:10375600123A15123A22123A3C123A49123A5612C3
:103766003A081239FB1239EE1239E11239D478E2ED
:0B377600E254FCF278E0E24401F22291
:1025B700C3906542E094C8906541E09400500302DF
:1025C700265EE4F0A3F090647D30A503F0800374E9
:1025D70001F0D20430A207E490647EF08006906494
:1025E7007E7401F0D20530A107E490647FF0800685
:1025F70090647F7401F0D206208607E4906479F036
:1026070080402087089064797401F0803520900815
:102617009064797402F0802A209308906479740397
:10262700F0801F2094089064797404F0801420B01F
:10263700089064797405F0800920A706906479747E
:1026470006F0D20120A00790648174018004E49011
:082657006481F0A3F0D20A2215
:100BD100C11A4464E5000000004464E9000000001B
:0E0BE1004464ED000000004464F100000000D8
:0C3AA200E4FDFC02043C12043C02028023
:0D3A700078D3E254F3F278D0E24420F22241
:1035CB009064ED1204209064E9123AA89064ED1215
:1035DB0004489064E9120454000000009064F11256
:1035EB0004209064E5123AA89064F11204489064A8
:0935FB00E5120454000000002256
:1021E3009064A2120454000000009064A6120454E8
:1021F300000000007FBC7E029064ED123AA2C3127D
:1022030003E95006201A030222B27F6D7E05906413
:10221300F1123AA212029BE47B04FAF9F8120326A4
:102223009064A6120448301A0C9064A2120454005D
:102233000000008027E47F24FEFDFC9064A61204C6
:102243003C12029BE47B0AFAF9F81203269064ED30
:1022530012043C1203269064A21204489064DB1219
:1022630004209064A6123AA89064DB120448906498
:10227300F1120454000000009064ED1204540000B5
:102283000000C21A9064A2120420906473120448DE
:10229300E47FE77E03FDFC90647312043CD31203D6
:0F22A300E9400A906473120454000003E7D20864
:0122B2002209
:100BEF004464F5000000004464F900000000446410
:0E0BFF00FD0000000044650100000000C11B65
:063AC100E4FDFC02043CE0
:0D3A7D0078C2E254CFF278C0E24404F22295
:10345B009064FD1204209064F512043C12028090DB
:10346B0064FD1204489064F51204540000000090AF
:10347B0065011204209064F912043C1202809065DD
:0F348B00011204489064F912045400000000225A
:102B10009064A2120454000000007FF47E019065CE
:102B200001123AC1C31203E95003301B6C301B0C75
:102B30009064A212045400000000801C7F607EEAB2
:102B40009064FD123AC112029B90650112043C127E
:102B500003269064A21204489064FD1204540000FD
:102B6000000090650112045400000000C21BE47FC5
:102B7000FF7EFFFDFC9064A212043CC31203E940F7
:102B80000A9064A21204540000FFFF9064A2120491
:092B90002090646F120448D20782
:012B99002219
:100C0D004464DF000000004464DB00000000426427
:100C1D00E300004464D3000000004464D7000000EA
:010C2D0000C6
:1036A100120420EF2401FFE43EFEE43DFDE43CFC76
:1036B100227F7F7E967D987C0012043CC30203E941
:1036C10012042012028DE47B64FAF9F8C30203E9C3
:101F5500E47F307E75FDFC9064DF1236BA400D904B
:101F650064DF120454000000001239B8E47FE87EF3
:101F750003FDFC9064DB1236BA40617F187EC67D96
:101F85009A7C3B90645C1236BA500C90645C1236B5
:101F9500A190645C1204489064601236B2500C90B3
:101FA50064601236A190646012044890646412362D
:101FB500B2500C9064641236A19064641204489087
:101FC50064DB120420C3EF94E8FFEE9403FEED9466
:101FD50000FDEC9400FC9064DB1204489064D3127D
:101FE500043C90645C1236C1500E90645C1204206F
:101FF5009064D3120448D20C9064D712043C9064C8
:10200500601236C1500E9064601204209064D7129D
:102015000448D20DC39064E4E094889064E3E094AE
:0D20250013400AE4F0A3F0D20CD20DD20E4D
:01203200228B
:100C2E00C100C101C102C103C104C105C106C10792
:100C3E00C108C109C10CC10DC10EC10FC110C11136
:100C4E00C112C113C11441651D0042651E00004151
:100C5E0065200041652100426522000042652400A6
:010C6E000085
:10324300906479E0FFE4FCFDFE9064A702044890DB
:103253006460E47B64FAF9F81204200203269064A4
:10326300A2E075F00FA422906477E0FEA3E0FFE4F0
:10327300FCFD22E47BE87A03F9F890645C22906415
:08328300A2E0FF75F00FA42288
:10184A00E49064A2F0F09064A2E0FFC39403400322
:10185A0002199774252FF582E43464F583E0700346
:10186A0002198E12326124F3F582E43463F583E0BF
:10187A001204EA189980189E8B18A38C18AD8E183A
:10188A00A894193498193899193C9A0000193ED22B
:10189A000002193ED20C02193ED20D02193ED20E96
:1018AA0002193ED20FEF75F00FA424F5F582E43445
:1018BA0063F583E0FDEF75F00FA424F4F582E434B8
:1018CA0063F583E02DFEE433906468F0A3CEF01252
:1018DA00328124F6F582E43463F583E090646AF099
:1018EA00EF75F00FA424F7F582E43463F583E090F2
:1018FA00646BF012328124F8F582E43463F583E0F4
:10190A0090646CF0EF75F00FA424F9F582E4346367
:10191A00F583E090646DF012326124FAF582E434C2
:10192A0063F583E090646EF0800AD2128006D213C7
:10193A008002D214906424E0D394004003E014F0AF
:10194A009064A2E0FF2425F582E43464F583E4F090
:10195A00741E2FF582E43464F583E4F074212FF5C4
:10196A0082E43464F583E4F0FE7F0FC006C007FD0D
:10197A0012326124F1F9746335F0FA7B01D007D091
:0D198A00061205439064A2E004F00218501C
:01199700222D
:060D6600200003020E381C
:100D6C009064A212045400000000C20090651DE0C3
:100D7C006003020E3804F01232437F01120FAD9063
:100D8C00647A1232467F02120FAD90647B123246A7
:100D9C007F03120FAD90647D1232467F04120FADAB
:100DAC0090647E1232467F05120FAD90647F123232
:100DBC00467F06120FAD90646F12042012324C7FE6
:100DCC0007120FAD90647312042012324C7F08127C
:100DDC000FAD90647C1232467F09120FAD12327641
:100DEC0012325B12324C7F0B120FAD123252123296
:100DFC004C7F0C120FAD12328B9064A7120454006E
:100E0C000000007F0E120FAD12326A12324C7F10AE
:100E1C00120FAD9064801232467F11120FAD9064A8
:0C0E2C006412325512324C7F14120FADCC
:100E380030010AC2011232437F01120FAD30020D98
:100E4800C20290647A1232467F02120FAD30040D4E
:100E5800C20490647D1232467F04120FAD30050D36
:100E6800C20590647E1232467F05120FAD30060D22
:100E7800C20690647F1232467F06120FAD3007100B
:100E8800C20790646F12042012324C7F07120FAD14
:100E9800300810C20890647312042012324C7F0884
:100EA800120FAD30090DC20990647C1232467F09D9
:100EB800120FAD300A18C20A9064811232467F12AE
:100EC800120FAD9064821232467F13120FAD300CB0
:100ED80010C20C12327612325B12324C7F0B120F98
:100EE800AD300D0DC20D12325212324C7F0C120F62
:100EF800AD300E16C20EE47B64FAF9F89064641201
:100F0800325B12324C7F14120FAD300F23C20F9098
:100F18006520E0701B78A67C647D017B017A64798A
:100F280068FE7F0712013012341C9065207401F0AE
:100F380030100DC21012326A12324C7F10120FADEF
:100F480030110DC2119064801232467F11120FAD1C
:100F5800301219C21290645C120454000000009010
:100F680064DB120454000000001239B8301319C2AF
:100F780013906460120454000000009064DB1204B3
:100F880054000000001239B8301419C21490646477
:100F9800120454000000009064DB120454000000A6
:050FA800001239B8221F
:100C6F005463BF00010153000204730003075300D4
:100C7F0004091D00050CED5E63D301010203040599
:100C8F0002060708090A030B0C0D0E0F04101112B0
:100C9F0013140515161718195363AC0A000000003A
:0E0CAF00033241000000000001FF366F00001C
:0F000F00EC75F006A424D3F582E43463F5832264
:10316300E4FD9064A4F0A374FFF0ED25E025E024D2
:10317300C1F582E43463F583E0FAA3E0D39FEA9ECA
:10318300401CED25E025E024BFF582E43463F5839C
:10319300E0FFA3E09064A4CFF0A3EFF080050DED72
:0B31A300B405C79064A4E0FEA3E0FFA9
:0131AE0022FE
:1037CC00E4FEFC12000FE0B5071112000FE5822D8C
:1037DC00F582E43583F583E0FE80050CECB405E35B
:0237EC00AF0626
:0137EE0022B8
:10366F00E49064A2F0A3F07F0212335B1237A990AB
:10367F0064A2EEF0A3EFF09064A2E0FEA3E0FF12CD
:10368F0031639064A2EEF0A3EFF09064A2E0A3E0A8
:01369F00FF2B
:0136A0002207
:10244E009063BDE07003022507E0FFA3E0FD1237A5
:10245E00CCE49063BDF0A3F0EF1204EA248C0124C7
:10246E00980424A40624B00924BC0B24C80E24D43A
:10247E001024E01324EC1524F818000025079064AE
:10248E00A7120454000000CF806A9064A71204546F
:10249E00000100CF805E9064A7120454000000D2A9
:1024AE0080529064A7120454000100D280469064BA
:1024BE00A7120454000000D1803A9064A71204546D
:1024CE00000100D1802E9064A71204540000007FFA
:1024DE0080229064A71204540001007F801690643D
:1024EE00A7120454000000D0800A9064A71204546E
:0924FE00000100D07F0D120FADAA
:0125070022B1
:100CBD0044642F0000000060286433000000000031
:100CCD000000000000000000000000000000000017
:100CDD000000000000000000000000000000000007
:0B0CED0000000041645B0041642E0029
:10331600FEE434FFFDE434FFFCE4FAF9F802029B14
:103326009064A5E0FEA3E0FF22E47A01F9F8120317
:1033360026AD07C322FEE434FFFDE434FFFCE4229D
:1033460025E02433F582E43464F58322FDFC12047F
:053356003CC30203E985
:042EDE00AB07AA068E
:102EE200E49064A5F0A312045400000000AE02AF07
:102EF2000390645BE0FD04F0ED123346EEF0A3EFC5
:102F0200F090645BE0C394144002E4F0E49064A5A2
:102F1200F09064A612043C9064A5E0123346E0FEF1
:102F2200A3E0FFE4FCFD1202809064A61204489024
:102F320064A5E004F0E0B414D8E47B14FAF9F89044
:082F420064A61204200203261C
:10397700E4FDED123346EEF0A3EFF00DEDB414F2D3
:01398700221D
:081521009064A5EEF0A3EFF0C9
:10152900E4FDC3EF940BEE940E500A12332694F4A3
:10153900EE940150057DFF0216B4D3EF9400EE94AA
:101549000E4005E4FD0216B4D3EF9466EE940650FE
:10155900057D640216B4D3EF9400EE940E5025EF86
:101569009433EE940D401D123326EF24CDFFEE3453
:10157900F27B12123316E47BCDFA12333274129DC8
:10158900FD0216B4123326D39433EE940D5030EF86
:1015990094B8EE940C40289064A5A3EF2448FFEE7C
:1015A90034F37B22123316E47B7BFA123332742232
:1015B9009DFDC3941240030216B47D120216B412A3
:1015C9003326D394B8EE940C5031EF9433EE940B48
:1015D90040299064A5A3EF24CDFFEE34F412333BE8
:1015E9007B331233207B8512332F74339DFDC394D3
:1015F9002240030216B47D220216B4123326D39474
:1016090033EE940B5031EF94F5EE94004029906439
:10161900A5A3EF240BFFEE34FF12333B7B441233B7
:1016290020E47B3E7A0A12333274449DFDC394331D
:1016390050797D330216B4123326D394F5EE940013
:101649005033EF9499EE9407402B9064A5A3EF24AF
:1016590067FFEE34F812333B7B541233207B5C7AFC
:10166900F979FF78FF12333474549DFDC3944450C3
:101679003A7D448036123326D39499EE9407502B41
:10168900EF9466EE940640239064A5A3EF249AFF95
:10169900EE34F912333B7B641233207B3312332F40
:0D16A90074649DFDC3945450027D54AF0540
:0116B6002211
:10283000E49064A2F0A3F0A3F07F0312335B1228AC
:0C284000BD122EDE9064A3EEF0A3EFF0BA
:10284C0090642EE070327FF47E01A3123352402844
:10285C0090642F120454000000001228BD12397726
:10286C0090653FE0FEA3E0FF9064A3EEF0A3EFF0D1
:08287C001228A790642E04F05D
:10288400E47FE87E0390642F123352401590642F46
:10289400120454000000009064A3E0FEA3E0FF12C1
:0228A40028A763
:1028A600221215219064A2EFF090647CF0E490640B
:1028B600A3F0A3F0D2092212210F90653FEEF0A3F8
:0328C600EFF0220E
:100CF80044650500000000446509000000004465E3
:050D08000D00000000D9
:10386D00EF2401FFE43EFEE43DFDE43CFC02044890
:0E387D00E47FE27E04FDFC12043CC30203E97A
:1022B3007F0412335B12210F90653FEEF0FAA3EF18
:1022C300F0FB90650D120420EF2408FFE43EFEE4CA
:1022D3003DFDE43CFC90650D120448D3EB9400EA09
:1022E3009408906509501512042090650912386D01
:1022F3009065051204540000000080071204540086
:1023030000000090650912387D40119065091204A0
:102313005400000000E4906480F0D211C390654043
:10232300E094C790653FE0940B9065054015120457
:102333002090650512386D90650912045400000061
:102343000080071204540000000090650512387DD8
:1023530040129065051204540000000090648074DC
:1023630001F0D211E47FE87E03FDFC90650D123885
:0F23730084400C90650D12045400000000D2113C
:012382002238
:100D0D0044651900000000446511000000004465B1
:050D1D001500000000BC
:1038F6007C0A7D50120516E47B0AFAF9F8120326B3
:09390600E4FB7A10F9F802032633
:0E39C6007E007C007D641202037D96020215D5
:10238300E49064A2F0A3F0A3F07F0112335B9065A5
:102393001512043CC000C001C002C00312210FE4A7
:1023A300FCFDD003D002D001D0001202809065154D
:1023B300120448906511120420EF2401FFE43EFE4D
:1023C300E43DFDE43CFC906511120448E47FB87ED3
:1023D3000BFDFC90651912043CC31203E9406B909A
:1023E300651512042090651112043C1203269065B2
:1023F300151204489065151204201238F69064A251
:10240300EEF0A3EFF09064A2A3E0FF1239C6A3EFAE
:10241300F090651512045400000000906511120439
:10242300540000000090651912045400000000904D
:1024330064A4E090647AF09064A2E0FFA3E0906467
:0A24430077CFF0A3EFF0D210D20221
:01244D00226C
:100D22004C649601010203040502060708090A53EE
:100D320064830A000000000364AF000000000002A8
:050D4200FF31FA000082
:10383000E4FFFDFCAB1BAA1AA919A818C30203E9EF
:0F384000EE75F006A42496F582E43464F5832235
:1031FA009064A2120454000000009064A674FFF0C8
:10320A00AF1BAE1AAD19AC189064A21204487E0224
:10321A0012383070079064A604F0800D7E041238CC
:10322A003070069064A67402F09064A212045400EE
:08323A000000009064A6E0FF13
:013242002269
:1036FF00E49064A2F0FE123840E0B507141238408F
:10370F00E5822DF582E43583F583E09064A2F080A5
:0B371F00050EEEB402E09064A2E0FF93
:01372A00227C
:10265F00906494E070030226FAE0FFA3E0FD1236C7
:10266F00FFE4906494F0A3F0EF1204EA269701269A
:10267F00A30326AF0426BB0526C70626D30826DFED
:10268F000926EB0A000026FA9064A71204540000F2
:10269F00004780529064A7120454000100478046FF
:1026AF009064A712045400020047803A9064A71266
:1026BF00045400030047802E9064A71204540000B6
:1026CF00004880229064A71204540001004880162D
:1026DF009064A712045400020048800A9064A71265
:0B26EF000454000300487F0D120FADE3
:0126FA0022BD
:100D470041601801426019000041601B0041601CAE
:0E0D57000041601D0041601E7F42601FFFFFD3
:10355200E4F561AE3EAD3DAC3C853F178E168D1550
:103562008C14787EE254FCF2E24514F218E515F26E
:1035720018E516F218E517F2787FE254FBF2E254EE
:0D358200FB4404F2E24401F27F01022B9AA7
:1008CC009064A2EFF0E0FF24BDF582E43464F5837C
:1008DC00E004F074BF2FF582E43464F583E4F07423
:1008EC00BD2FF582E43464F583E0C39563500302B5
:1008FC000B1D9064A2E0FB24BDF582E43464F58307
:10090C00E4F09038609364016003020ACE7F01FE2C
:10091C00FDFC74C12BF582E43464F583E0F9F81224
:10092C00040DE51F4FF51FE51E4EF51EE51D4DF59B
:10093C001DE51C4CF51CAF1FAE1EAD1DFC78011245
:10094C0003FAEF5455FBEE5455FAED5455F9EC54AB
:10095C0055F8C3E51F9BF53BE51E9AF53AE51D9945
:10096C00F539E51C98F538AF3BAE3AAD39FC780259
:10097C001203FAEF5433FBEE5433FAED5433F9EC23
:10098C005433F8E53B5433FFE53A5433FEE5395420
:10099C0033FDE5385433FCEB2FF53BEA3EF53AE9F1
:1009AC003DF539E83CF538AF3BAE3AAD39FC78044F
:1009BC001203FAEF253BFFEE353AFEED3539FDEC2F
:1009CC003538FCEF540FF53BEE540FF53AED540F60
:1009DC00F539EC540FF538AF3BAE3AAD39FC78082D
:1009EC001203FAEF253BFFEE353AED3539FDEC35C8
:1009FC0038EFF53BE4F53AEDF539E4F538AE3AACC1
:100A0C003878101203FAEF253BFFEE353AFEEFF57E
:100A1C003BEEF53AE4F539F5389064A2E025E02494
:100A2C00CBF582E43464F583E0FEA3E0D39553EE7A
:100A3C00955240249064A2E0FF25E024CBF582E49B
:100A4C003464F583E0F552A3E0F55374C12FF582BD
:100A5C00E43464F583E0F564903860E493FFE4FCDF
:100A6C00FDFEAB3BAA3AA939A838D31203E9405290
:100A7C00AF650565D3EF9403748094805003020B2B
:100A8C001DE4F565F51FF51EF51DF51C7F01FEFD3A
:100A9C00FCA964A80112040D8F1B8E1A8D198C18D9
:100AAC00E47F01FEFDFCA80112040D8F338E328D04
:100ABC00318C30E4F552F553756420122C1E4337FB
:100ACC000222E4F5657F01FEFDFC9064A2E0FB24AC
:100ADC00C1F582E43464F583E0F9F812040DE51BEA
:100AEC004FF51BE51A4EF51AE5194DF519E5184C9D
:100AFC00F518E47F01FEFDFCA80312040DE5334F4D
:100B0C00F533E5324EF532E5314DF531E5304CF546
:020B1C00302285
:10058D00E4F566903864E493FFE566C39F4003028B
:10059D0008CBE56625E02400F582E4346085828A87
:1005AD007F548F8B7E0E8E8C758903758889E566D9
:1005BD0025E02400F582E4346085828A8F8B758C6A
:1005CD0012758904758889E56625E02408F582E4AD
:1005DD003460F583E0FCA3E0C3950FEC950E502E2F
:1005ED00E56625E02414F582E43460F583E0FCA390
:1005FD00E0C39513EC95125015AF600560EF9402B2
:10060D0074809480400BE4F5605337FD8003E4F56E
:10061D0060E53730E125E56625E024CBF582E4344D
:10062D0064F583E4F0A3F0E56625E024CFF582E4DC
:10063D003464F583E4F0A3F00206DBE56625E024DF
:10064D0008F582E4346085828A8E8B758C0A7589F3
:10065D00267588892088FDE5F130E00875F107E4FD
:10066D00F50AF50BAE0AE50B7802C333CE33CED8BF
:10067D00F9FFE56625E024CBF582E43464F583EEDD
:10068D00F0A3EFF0E56625E02414F582E4346085EF
:10069D00828A758B12758C0A7589277588892088D1
:1006AD00FDE5F130E00875F107E4F50AF50BAE0A4A
:1006BD00E50B7802C333CE33CED8F9FFE56625E0DE
:1006CD0024CFF582E43464F583EEF0A3EFF0E56614
:1006DD0025E024C3F582E43464F583E0FEA3E078DD
:1006ED0002CEC313CE13D8F9F5518E50E56625E031
:1006FD0024CBF582E43464F583E0FEA3E0FF90386B
:10070D005CE493FC740193FDC3EF9DEE9C4017E5F3
:10071D006625E024CFF582E43464F583E0FEA3E0A2
:10072D00C39DEE9C50028068E56625E024CBF582E2
:10073D00E43464F583E0FEA3E0C39551EE9550409B
:10074D001CE56625E024CFF582E43464F583E0FEF4
:10075D00A3E0C39551EE955040030207E774BB2506
:10076D0066F582E43464F583E004F074BB2566F528
:10077D0082E43464F583E0FF903861E493FEEFD3B7
:10078D009E406474BB2566F582E43464F583E4F021
:10079D00E56625E02404F582E43460F583E0FEA3EC
:1007AD00E0FFE56625E02408F582E43460F583EE8C
:1007BD00F0A3EFF0E56625E02410F582E43460F552
:1007CD0083E0FEA3E0FFE56625E02414F582E43422
:1007DD0060F583EEF0A3EFF0800D74BB2566F58216
:1007ED00E43464F583E4F0E56625E02404F582E461
:1007FD00346085828AE56625E02400F582E4346064
:10080D0085828B758C0A7589207588CB2088FDE5CE
:10081D00F130E00875F107E4F50AF50BE56625E022
:10082D002404F582E4346085828A758B547F0E8FA3
:10083D008C7589237588897E0A8E8A8F8BE566254E
:10084D00E02404F582E4346085828CE4F5897588B2
:10085D0029E56625E02410F582E4346085828AE579
:10086D006625E02400F582E4346085828B8E8C75DC
:10087D0089207588CB2088FDE5F130E00875F107FA
:10088D00E4F50AF50BE56625E02410F582E4346005
:10089D0085828A758B547F0E8F8C75892475888916
:1008AD00758A0A8F8BE56625E02410F582E43460A5
:0F08BD0085828CE4F589758829056602059022ED
:1011B300E4F566903864E493FFE566C39F40030259
:1011C300136BE56625E024C3F582E43464F583E01C
:1011D300FEA3E07802CEC313CE13D8F9F5518E5097
:1011E300E56625E024CBF582E43464F583E0FEA3D1
:1011F300E0D39551EE9550402EE56625E024CFF5DA
:1012030082E43464F583E0FEA3E0D39551EE955078
:10121300401574BF2566F582E43464F583E4F0AFCA
:10122300661208CC021366903863E493FFC3E5515A
:101233009FFFE5509400FED3EF9400EE940040022C
:1012430080047E007F00E56625E024CBF582E4344C
:1012530064F583E0FCA3E0C39FEC9E4003021359B3
:10126300903863E493FFC3E5519FFFE5509400FE7C
:10127300D3EF9400EE9400400280047E007F00E5EB
:101283006625E024CFF582E43464F583E0FCA3E033
:10129300C39FEC9E400302135974BD2566F582E497
:1012A3003464F583E4F074BF2566F582E43464F5B1
:1012B30083E004F074BF2566F582E43464F583E0CB
:1012C300C39563500302136674BF2566F582E43445
:1012D30064F583E4F07F01FEFDFC74C12566F582AD
:1012E300E43464F583E0F9F812040D1203B8E51F42
:1012F3005FF51FE51E5EF51EE51D5DF51DE51C5C36
:10130300F51CE47F01FEFDFCA966A80112040D1281
:1013130003B8E5335FF533E5325EF532E5315DF56C
:1013230031E5305CF530E47F01FEFDFC74C12566D8
:10133300F582E43464F583E0F9F812040D1203B87E
:10134300E51B5FF51BE51A5EF51AE5195DF519E571
:10135300185CF518800D74BF2566F582E43464F5D6
:0913630083E4F005660211B622D4
:102C1E00E4F566903864E493FFE566C39F506EE575
:102C2E006625E024CBF582E43464F583E4F0A3F06A
:102C3E00E56625E024CFF582E43464F583E4F0A361
:102C4E00F0E56625E02404F582E43460F583E0FEC9
:102C5E00A3E0FFE56625E02408F582E43460F58301
:102C6E00EEF0A3EFF0E56625E02410F582E4346083
:102C7E00F583E0FEA3E0FFE56625E02414F582E48B
:0E2C8E003460F583EEF0A3EFF0056680862239
:1028C900E4F566903864E493FFE566C39F5067902A
:1028D9006018E0FF7E00C39410748094805053EF19
:1028E9009408748094804025E56625E02400F582EB
:1028F900E43460F583E0FEA3E0FFE56625E0240407
:10290900F582E43460F583EE8FF012026AE56625FC
:10291900E02400F582E43460F583E0FEA3E0FFE5FE
:102929006625E02410F582E43460F583EE8FF01219
:10293900026A0566808D906018E0C39410748094D3
:102949008040054337048006906018E004F07F0159
:03295900022B9AB4
:102C9C00E4FFFEFDFCAB1BAA1AA919A818C312036A
:102CAC00E9606390601AE004F07006906019E0042B
:102CBC00F0903858E493FE740193FF4E602ED3903D
:102CCC00601AE09F906019E09E4021E4F0A3F0F5BB
:102CDC001FF51EF51DF51CF533F532F531F530F504
:102CEC001BF51AF519F518C218022C1E90385AE467
:102CFC0093FE740193FFD390601AE09F906019E0EB
:0D2D0C009E400AD21822E4906019F0A3F056
:012D19002297
:05136C009064B5EFF0F4
:10137100A3E0FCA3E0FDA3E0FEA3E0F52B8E2A8D04
:10138100298C287884E2F50A08E2F50B758A08753C
:101391008B28758C2475881D2088FDE4FFFEFDFCDB
:1013A100AB27AA26A925A824D31203D34006AC242F
:1013B100A8048013AF27AE26AD25AC241203C5AB1C
:1013C10007AA06A905A80490601FE0FEA3E0FFE4B8
:1013D100FCFDC31203D35041E4FFFEFDFCAB27AA81
:1013E10026A925A8241203D34006AF27AE26800BD9
:1013F100AF27AE26AD25AC241203C590601FEEF0D9
:10140100A3EFF09064B5E025E024C7F582E43464ED
:10141100F583E0A3E090601EF0903855E493FE74EC
:101421000193FFD3906020E09F90601FE09E501BCE
:101431009064B5E025E024C7F582E43464F583E0E7
:10144100A3E090601EF090601B8079E4FFFEFDFC3C
:10145100AB27AA26A925A824D31203D3403490642C
:10146100B5E0FF25E024C7F582E43464F583E0FCB0
:10147100A3E0D39400EC9400404DEF25E024C7F5A0
:1014810082E43464F58374FFF5F012026A90601C03
:1014910080329064B5E0FF25E024C7F582E434642E
:1014A100F583E0FCA3E0C3947FEC94005019EF2591
:1014B100E024C7F582E43464F583E475F001120297
:1014C1006A90601D7401F090601CE064017011A3CA
:1014D100E06401700B90601CF0A3F090601B04F0BD
:1014E10090601BE06401703590601EE0FF9064B570
:1014F100E025E024C7F582E43464F583E4F0A3EF4A
:10150100F074FF90601FF0A3F090601E747FF0E410
:0F15110090601CF0A3F090601BF07F01227F0020
:0115200022A8
:102F4A00E49064B4F090384F12042C780112040D06
:102F5A009064B6120448AF6112136CEF60220561E7
:102F6A00E53730E4095337EF9064B47401F09038D0
:102F7A0064E493FFE561C39F4006E4F561433710BB
:102F8A00C39038537401939562E493940040089077
:102F9A0064B4E064017005D217023552E4FF122BC3
:012FAA009A8C
:012FAB002203
:102B9A00EF70607F01FEFDFC74C12561F582E434AB
:102BAA0064F583E0F9F812040D8F178E168D158CD3
:102BBA0014787EE254FCF2E24514F218E515F21894
:102BCA00E516F218E517F2E56125E024C7F582E477
:102BDA003464F583E0A3E0547FFF7878E254804FB1
:102BEA00F2787FE254FBF2E254FB4404F2E244013D
:102BFA00F2801CE56125E024C7F582E43464F5839C
:102C0A00E0A3E0547FFF7878E254804FF2787FE2C5
:042C1A004402F2225C
:1026FB00E49064A2F0A3F09064A2E0FEA3E0FFC319
:10270B009488EE94035031EF248DFFEE34058F82C5
:10271B00F583E493FF9064A3E02421FD9064A2E091
:10272B0034608D82F583EFF09064A3E004F070C702
:08273B009064A2E004F080BFED
:102743009063A97401F0A37460F0A37421F0E4F51D
:1027530061F537F536F535F534C217C218F51FF5AF
:102763001EF51DF51CF533F532F531F530F51BF586
:102773001AF519F51890385E93FF903862E493FECA
:10278300A807088002C333D8FCF563756420E4FF0F
:03279300022B9A7C
:102D1A007884E2F50A08E2F50BAE0A7803CEC3130B
:102D2A00CE13D8F97802C333CE33CED8F9FFE56192
:102D3A0025E02400F582E43460F583EEF0A3EFF099
:102D4A0020170F903857E4937005D21702355202B4
:102D5A002F4A0561903864E493FFE561C39F401FE1
:102D6A00787FE254FBF2E254FB4404F2E24401F2BB
:102D7A00E4F561E53720E2030228C9433701227FDF
:052D8A0001122B9A224A
:053AC7000562022C9CC9
:10381000E53730E01A9063A9A3E0FAA3E0F91205B6
:10382000101211B3E4F5617F01122B9A5337FE2277
:1027B000022FACE493A3F8E493A34003F68001F264
:1027C00008DFF48029E493A3F85407240CC8C3332A
:1027D000C4540F4420C8834004F456800146F6DFF9
:1027E000E4800B0102040810204080900B1EE47E60
:1027F000019360BCA3FF543F30E509541FFEE493EE
:10280000A360010ECF54C025E060A840B8E493A3B4
:10281000FAE493A3F8E493A3C8C582C8CAC583CADF
:10282000F0A3C8C582C8CAC583CADFE9DEE780BE97
:010D6500008D
:10006000E709F608DFFA8046E709F208DFFA803E82
:1000700088828C83E709F0A3DFFA8032E309F6086F
:10008000DFFA8078E309F208DFFA807088828C83D7
:10009000E309F0A3DFFA806489828A83E0A3F6088B
:1000A000DFFA805889828A83E0A3F208DFFA804C65
:1000B00080D280FA80C680D4806980F2803380103C
:1000C00080A680EA809A80A880DA80E280CA8033A5
:1000D00089828A83ECFAE493A3C8C582C8CCC5831D
:1000E000CCF0A3C8C582C8CCC583CCDFE9DEE780ED
:1000F0000D89828A83E493A3F608DFF9ECFAA9F06C
:10010000EDFB2289828A83ECFAE0A3C8C582C8CCC1
:10011000C583CCF0A3C8C582C8CCC583CCDFEADEDA
:10012000E880DB89828A83E493A3F208DFF980CC3C
:1001300088F0EF60010E4E60C388F0ED2402B40435
:100140000050B9F582EB2402B4040050AF232345DC
:0601500082239000B07351
:10015600BB010689828A83E0225002E722BBFE02A7
:09016600E32289828A83E49322DA
:10016F00BB010CE58229F582E5833AF583E0225045
:10017F0006E92582F8E622BBFE06E92582F8E2228F
:0D018F00E58229F582E5833AF583E49322A9
:10019C00BB010FF8E58229F582E5833AF583E02867
:1001AC00F0225009C58229F8E58226F622BBFE0909
:1001BC00C58229F8E22582F222F8EA2583F583E943
:0301CC0093282253
:1001CF00BB010689828A83F0225002F722BBFE010F
:0201DF00F32209
:1001E100F8BB010DE58229F582E5833AF583E8F054
:1001F100225006E92582C8F622BBFE05E92582C800
:02020100F222E7
:10020300EF8DF0A4A8F0CF8CF0A428CE8DF0A42E0F
:02021300FE22C9
:10021500BC000BBE0029EF8DF084FFADF022E4CCCD
:10022500F875F008EF2FFFEE33FEEC33FCEE9DEC96
:10023500984005FCEE9DFE0FD5F0E9E4CEFD22EDDC
:10024500F8F5F0EE8420D21CFEADF075F008EF2F26
:10025500FFED33FD4007985006D5F0F222C398FD17
:050265000FD5F0EA22B4
:10026A00C5F0F8A3E028F0C5F0F8E582158270021F
:06027A001583E038F022BC
:0D028000EF2BFFEE3AFEED39FDEC38FC22CD
:0E028D00C3EF9BFFEE9AFEED99FDEC98FC226C
:10029B00E88FF0A4CC8BF0A42CFCE98EF0A42CFC02
:1002AB008AF0EDA42CFCEA8EF0A4CDA8F08BF0A480
:1002BB002DCC3825F0FDE98FF0A42CCD35F0FCEBDF
:1002CB008EF0A4FEA9F0EB8FF0A4CFC5F02ECD39A4
:0F02DB00FEE43CFCEAA42DCE35F0FDE43CFC2211
:1002EA0075F008758200EF2FFFEE33FECD33CDCCCB
:1002FA0033CCC58233C5829BED9AEC99E58298404E
:10030A000CF582EE9BFEED9AFDEC99FC0FD5F0D62A
:10031A00E4CEFBE4CDFAE4CCF9A88222B800C1B954
:10032A000059BA002DEC8BF084CFCECDFCE5F0CB92
:10033A00F97818EF2FFFEE33FEED33FDEC33FCEBCB
:10034A0033FB10D703994004EB99FB0FD8E5E4F986
:10035A00FA227818EF2FFFEE33FEED33FDEC33FC73
:10036A00C933C910D7059BE99A4007EC9BFCE99A67
:10037A00F90FD8E0E4C9FAE4CCFB2275F010EF2FAC
:10038A00FFEE33FEED33FDCC33CCC833C810D707AC
:10039A009BEC9AE899400AED9BFDEC9AFCE899F8E7
:0E03AA000FD5F0DAE4CDFBE4CCFAE4C8F9227A
:0D03B800CFF4CFCEF4CECDF4CDCCF4CC22DA
:0E03C500C3E49FFFE49EFEE49DFDE49CFC2249
:1003D300EB9FF5F0EA9E42F0E99D42F0EC6480C8A1
:0603E30064809845F02241
:1003E900EB9FF5F0EA9E42F0E99D42F0E89C45F06A
:0103F90022E1
:1003FA00E8600FECC313FCED13FDEE13FEEF13FFE1
:03040A00D8F12204
:10040D00E8600FEFC333FFEE33FEED33FDEC33FC4D
:03041D00D8F122F1
:0C042000E0FCA3E0FDA3E0FEA3E0FF224F
:10042C00E493FC740193FD740293FE740393FF2216
:0C043C00E0F8A3E0F9A3E0FAA3E0FB2243
:0C044800ECF0A3EDF0A3EEF0A3EFF02227
:10045400A8828583F0D083D08212046B12046B12BD
:10046400046B12046BE473E493A3C583C5F0C583E2
:10047400C8C582C8F0A3C583C5F0C583C8C582C8F2
:010484002255
:0C048500A42582F582E5F03583F5832282
:09049100E0FBA3E0FAA3E0F9226C
:10049A00F8E0FBA3A3E0F925F0F0E58215827002EB
:0704AA001583E0FA38F0228F
:0904B100EBF0A3EAF0A3E9F0224C
:1004BA00BB010DE58229F582E5833AF583020491B1
:1004CA005007E92582F802056FBBFE07E92582F885
:1004DA00020578E58229F582E5833AF583020581EA
:1004EA00D083D082F8E4937012740193700DA3A3A1
:1004FA0093F8740193F5828883E4737402936860B5
:06050A00EFA3A3A380DFB4
:060510008A838982E47376
:10051600EC8EF0A4CCC5F0CCCDF8EFA4CEC5F02D72
:10052600FDE43CFCE8A42EC8C5F03DFDE43CFCEF30
:0D053600A4FFE5F028FEE43DFDE43CFC22BE
:10054300EF4E6012EF60010EEDBB010B89828A83CF
:10055300F0A3DFFCDEFA2289F05007F709DFFCA9DC
:0C056300F022BBFEFCF309DFFCA9F02233
:09056F00E6FB08E6FA08E6F922B1
:09057800E2FB08E2FA08E2F922B4
:0C058100E493FB740193FA740293F922D6
:00000001FF
