:03000000022822B1
:10282200787FE4F6D8FD9060007F007E07E4F0A395
:0A283200DFFCDEFA758166022877EC
:0C000300000000000000000000000000F1
:0B3CA500EF1FAC0670011E4C70F622F1
:103B4700AB07AA06EB1BAE0270011A4E600C7FAAE8
:0B3B57007E05123CA575D9AA80EA2269
:10210200907120E04480F07F057E00123CA5E4FF40
:10211200FE123B4775A75575AC5C9071327450F056
:102122009071307403F0907136742FF090715C747A
:1021320003F090715BE054FCF07F18EF2466FDE43D
:1021420034718D82F583E4F00FEFB433EE904011D9
:10215200E4935407FF90711CE054F84FF09040173D
:10216200E493547FFF90711DE054804FF090401033
:10217200E493FF5401C43333335480FE907123E05F
:10218200547F4EF0EFC313543F4440FFA3E054800A
:102192004FF0904012E493FF540FFE907146E054CA
:1021A200F04EF0EFC4540FFF90714FE054F04FF037
:1021B200904013E493543FFF907140E054C04FF0BD
:1021C200904014E493907126F0904015E49390713E
:0B21D20028F0904016E49390712AF072
:0121DD0022DF
:103AF000000009C4006400C80101F4004B000A0082
:0E3B000000010F0405020009000A000A000A75
:103BFB00E2FE74FE2FF582E43464F583E02224FCAC
:083C0B0025E0FDF87403082216
:10189300E4FF123BFDC394085058123BFDC394046C
:1018A300502878C2C000123BFB123C0B8002C333AA
:1018B300D8FCF45ED000F278C2C000123BFB123CAD
:1018C3000B8002C333D8FC0219C178C3C000123B9A
:1018D300FB123C098002C333D8FCF45ED000F278DB
:1018E300C3C000123BFB123C098002C333D8FC0285
:1018F30019C1123BFDC394084068123BFDC3941009
:101903005060123BFDC3940C502C78D2C000123BA4
:10191300FB24F8123C0B8002C333D8FCF45ED000E6
:10192300F278D2C000123BFB24F8123C0B8002C3B6
:1019330033D8FC0219C178D3C000123BFB24F41244
:101943003C0B8002C333D8FCF45ED000F278D3C0E2
:1019530000123BFB24F4123C0B8002C333D8FC027D
:1019630019C1123BFDC39414502B78E2C000123B03
:10197300FB24F0123C0B8002C333D8FCF45ED0008E
:10198300F278E2C000123BFB24F0123C0B8002C34E
:1019930033D8FC802978E3C000123BFB24EC123CD3
:1019A3000B8002C333D8FCF45ED000F278E3C000AE
:1019B300123BFB24EC123C0B8002C333D8FC4ED009
:0B19C30000F20FEF64026003021895B1
:0119CE0022F6
:03005D0002354425
:10354400C0E0C0F0C083C082C0D075D000C000C04D
:1035540001C002C003C004C005C006C0077881E2F0
:1035640030E607E24440F2122F0AD007D006D00515
:10357400D004D003D002D001D000D0D0D082D083E8
:05358400D0F0D0E032A0
:10338500D2AF43AB0843B6C0907132E04440F0433E
:10339500AB087877743FF208744BF2787A7430F2A0
:1033A500788914F27871744FF2187427F278727470
:1033B500A8F2087410F208E4F208F208F2787E74B4
:0F33C500D0F2087404F208741EF2087402F222A7
:10294F00E4FBEB25E025E02406F582E4343BF58338
:10295F00740193FF74FE2BF582E43464F583EFF07A
:10296F00EB25E025E02408F582E4343BF583E4937E
:10297F00FE740193FFEB25E02400F582E43465F546
:10298F0083EEF0A3EFF0EB25E02404F582E4346549
:10299F00F583E4F0A37441F0E47F01FEFDFC74FEC7
:1029AF002B123C00F9F8120423E53F4FFFE53E4E92
:1029BF00FEE53D4DFDE53C4C8F3F8E3E8D3DF53C9C
:1029CF000BEB64026003022951121893122787023E
:0229DF0033853E
:0524EE0042655E0000E4
:073CC400E475F00102026A41
:10361000E5B154CF42B153A8BFD2AF75D102789C67
:10362000E254E3F2E2441CF2E254FCF2E24401F21E
:1036300008E2547FF2E24420F278A17401F2187497
:1036400076F2789CE2541FF2E244C0F243A8402292
:03002100021D11AC
:101D1100C0E0C0F0C083C082C0D075D000C000C098
:101D210001C002C003C004C005C006C007789DE21F
:101D310020E703021E03E24480F23011069064287A
:101D4100E004F09063ADE004F09064DAE004F09018
:101D51006562123CC430181D90646A123CC4C39081
:101D6100646BE0944090646AE0949C4011E4F0A3B9
:0E1D7100F0D217800990646AE4F0A3F0C21764
:101D7F0090655E123CC4C390655FE0946490655EAD
:0B1D8F00E094004006E4F0A3F0D21640
:101D9A00906539E0FEA3E0FFE4FCFD7BFF7AFFF9E2
:101DAA00F8D31203E94006906539123CC49064687E
:101DBA00123CC4906556123CC4C3906557E094D057
:101DCA00906556E094074008E4F0A3F0906555F05A
:101DDA00906559123CC4C390655AE0946490655961
:101DEA00E094004008E4F0A3F0906558F090653B59
:101DFA00123CC4906553123CC4D007D006D005D01B
:101E0A0004D003D002D001D000D0D0D082D083D069
:041E1A00F0D0E032F2
:0D24F300C113C11441655B0042655C00002F
:103B9700120436EF2401FFE43EFEE43DFDE43CFC65
:093BA7002275F00112026AC3222A
:10358900E5B254FC42B253A9FED2AF75D104907191
:1035990000E054E3F0E0F0E054FCF0E04401F09086
:1035A90071057409F0907104745FF0907101E05431
:1035B9007FF0E04420F0907100E0541FF0E044C037
:0535C900F043A90122FE
:0300240002202592
:10202500C0E0C0F0C083C082C0D075D000C000C081
:0D20350001C002C003C004C005C006C00702
:0E204200907101E020E7030220E7E04480F007
:1020500090655BE004F0E0C39414401FE4F09065E9
:1020600041123BA8906542E09458906541E094028B
:0B2070004009201B06E4F0A3F0D21B87
:10207B0030821620130F90653D123B9790653D12F1
:0B208B00045E12374BD2138002C21318
:1020960090655CE4123BA890655DE0941490655CE5
:1020A600E094004021E4F0A3F0906516123BA8905E
:1020B6006517E094E8906516E0940340092015063C
:0620C600E4F0A3F0D215C6
:1020CC0030951620140F906512123B9790651212E2
:0B20DC00045E12370DD2148002C21403
:1020E700D007D006D005D004D003D002D001D0004D
:0B20F700D0D0D082D083D0F0D0E032F7
:1032E20090642B12043674212FF582E43464F58342
:1032F200229064B9E0FF241EF582E43464F583224F
:103302007D00EF75F00FA424F1F9746335F0FA7BB8
:103312000122E5822EF582E43583F58322E4F090E2
:103322006424E014F090000F2290642AE4F0906488
:0333320029F0225D
:0A3CB000E4906428F0C210D2112243
:0A3CBA00C211E4906428F0C2102249
:1039EF0078C2E2543FF2E254FCF2E24440F29071AA
:1039FF0081E04404F0907175E04401F043AA20D2B5
:0B3A0F00AF75D60175D59F75D211224E
:03004B000219CFC8
:1019CF00C0E0C0F0C083C082C0D075D000C000C0DE
:0D19DF0001C002C003C004C005C006C0075F
:1019EC009064D8E4F0E5D420E503021AD4E5D7F0EE
:1019FC00201204E0B4A509906424E0C394034003CE
:101A0C00021AD19064D8E0B4A508D21212332B126A
:101A1C003CB090642AE0B401089064D8E09064294A
:101A2C00F01232E2E06003021AD49064D8E0FF9026
:101A3C00642B1204529063F175F00FEB12049BEAC5
:101A4C0075F00FA42583F583C083C08290642AE0CF
:101A5C00FE04F0D082D083123314EFF0906428E4AB
:101A6C00F0A3E06063E0FFA3E06F705C906429E09A
:101A7C00FB90642B120436741E2F1232FAEBF0C258
:101A8C001212332B1232E27401F0906424E004F051
:101A9C0090642B120436EF2401FFE43EFEE43DFD7E
:101AAC00E43CFC90642B12045EE47F03FEFDFC908E
:101ABC00642B120452C31203FF400A90642B1204CD
:081ACC006A00000000123CBAA0
:101AD400D007D006D005D004D003D002D001D00066
:0B1AE400D0D0D082D083D0F0D0E03210
:0D3C7E00E5D430E4FB8FD7E5D430E4FB2221
:101AEF00E49064B9F0A3F0C21E906428E0D3940A86
:101AFF00400F123CBAE490642AF0906429F0C212AD
:101B0F0022E49064B9F09064B9E0FFC394034003FA
:101B1F00021C0074212F1232EBE07003021BF790AE
:101B2F0064B9E075F00FA424F2F582E43463F58311
:101B3F00E0FE741E2F1232FAE06E601A9064B9E064
:101B4F0024211232EB12331FC083C082123302D012
:061B5F0007D00602055943
:101B6500E49064BBF09064BAF0A3F01232F3E01491
:101B7500FE9064BBE0FDC39E5022EF75F00FA424D8
:101B8500F1F582E43463F583E5822D123317E0FF26
:101B95009064BAE02FF0A3E004F080CF9064BAE03F
:101BA500F01232F3E0FEEF75F00FA424F0F582E4B5
:101BB5003463F583123314E0FF9064BAE06F60027A
:021BC500D21E2E
:101BC700301E1DC21E9064B9E0FF24211232EB12B1
:101BD700331FC083C082123302D007D006120559C3
:101BE7009064B9E02425F582E43464F5837401F048
:091BF7009064B9E004F0021B1532
:011C000022C1
:103B62001202A39064BF12045E9064BF02043690F6
:0B3B72007123E05498F0E0441EF022A4
:103A450078C3E24403F2E2440CF218E2440CF27843
:103A55006AE24478F27591FF123B71907122740706
:083A6500F0439E7043994022DA
:1035CE005399E0EF24FE601714601C2402702690BD
:1035DE007123E054D8F0E0445AF043990480161257
:1035EE003B71439905800E907123E054D8F0E0446E
:1035FE0059F04399017869E24448F27F017E000256
:02360E003B4738
:100027007869E24401F2786BE230E1FA7402F2AFE8
:1000370093EF75F010A4FFAEF0E594C4540FFDEFF5
:030047004DFF2248
:1021DE00E49064BDF0A3F0A312046A00000000E4D2
:1021EE009064C3F0A3F074FFA3F0A3F0E4A3F0F0A7
:1021FE001200279064BDEEF0A3EFF09064C7E0C329
:10220E00940240549064C3E0FEA3E0FF9064BDE0EE
:10221E00FCA3E0FDD39FEC9E40089064C3ECF0A3BA
:10222E00EDF09064C5E0FEA3E0FFC3ED9FEC9E5081
:10223E000F9064BDE0FFA3E09064C5CFF0A3EFF074
:10224E009064BF1204529064BDE0FEA3E0FFE4FC74
:10225E00FD120296A312045E9064C7E004F0E0C380
:10226E009414408C123B6BC006C0079064C3E0FE12
:10227E00A3E0FBAA06E4F9F8D007D006123B62C031
:10228E0006C0079064C5E0FEA3E0FBAA06E4F8D002
:10229E0007D006123B6278041204109064BDEEF073
:0322AE00A3EFF0AB
:0122B100220A
:10396700A3F078E3E254FCF2E24401F2907192E4AE
:10397700F0229064C6E004F0E0C3940822C2A4C217
:0E39870096D2977F04FE22FFE0FEA8070822DA
:10323400E4FF78D3E2543FF2E24440F290718DE42B
:10324400F0E254CFF2E24410F290718CE4F01239BF
:1032540069C297C2961230BBEF702A7D0A7F8C1226
:1032640025A07D017F881225A07D017F861225A0DF
:10327400E4FD7F821225A0E4FD7F841225A0E4FDF5
:083284007F801225A00234B87E
:103B7D00E4FDEE25E0FEEF30E004EE4401FEEFC380
:093B8D0013FF0DEDB408EBAF06C7
:013B9600220C
:022F7F00AC079D
:102F8100E49064BAF0AF05123B7DEC64816019EC0A
:102F910064836014EC6485600FEC6487600AEC6400
:082FA100896005EC648D7043AA
:102FA900E49064BBF0A3F0EC64816004ECB48306A4
:102FB900EF547FFF8017EC64856004ECB48706EF5B
:102FC900543FFF8008ECB48904EF541FFFEFC45449
:102FD9000FFE9064BBF0EF540FFFA3F0EE75F00AFB
:032FE900A42FFF13
:012FEC0022C2
:0529E1009064BAEFF064
:1029E600E4A3F0123967123984123CA5E49064BC62
:1029F600F0122A559064BCE09064BA12398E8002B7
:102A0600C313D8FC30E004D2A48002C2A47F047EA3
:102A160000123CA5122A5F40D878E3E254FCF27813
:102A2600E0E24410F2E49064BCF09064BBE025E080
:102A3600F0122A5530A4079064BBE04401F0122A34
:0E2A46005F40E7C296C297C2A49064BBE0FF57
:102A540022C2967F047E00123CA522D2967F047E79
:0F2A640000123CA59064BCE004F0E0C39408228B
:053C2A009064B9EFF009
:103C2F00E4FE1229E1AE079064B9E0FFAD06022F62
:013C3F007F05
:082A73009064C4EFF0A3EDF044
:102A7B00E4123967123984123CA5E49064C6F01253
:102A8B002AF99064C6E09064C412398E8002C31395
:102A9B00D8FC30E004D2A48002C2A4122AE8123976
:102AAB007940DCE49064C6F0122AF99064C6E0FF2A
:102ABB009064C5E0FEA807088002C313D8FC30E081
:102ACB0004D2A48002C2A4122AE812397940D9C2D6
:0C2ADB00967F047E00123CA5C297C2A4A6
:102AE700227F047E00123CA5D2967F047E00123C12
:0C2AF700A522C2967F047E00123CA5229E
:1030BB001234B8D39064A2E094339064A1E09408E6
:1030CB005048C3A3E094D09064A1E09407403B9098
:1030DB0064A3E0D3940C5032E0C39401402CA3E0E2
:1030EB00D3941F5025E0C39401401FA3E0D3941841
:1030FB005018A3E0943C5012A3E0943C500C906405
:10310B00A1E0B40708A3E0B4D0037F00227F012223
:0525A0009064C0EFF0A3
:1025A500A3EDF0EF6480601D9064C0E0FF6482607D
:1025B50014EF6484600FEF6486600AEF6488600539
:0525C500EF648C706C56
:1025CA00E49064C2F0A3F09064C1E0FFC3940A40AF
:1025DA0007EF75F00A84A3F09064C1E075F00A84ED
:1025EA00AFF09064C3EFF09064C2E0FEC454F04FC1
:1025FA009064C1F09064C0E0FF64806004EFB4822C
:10260A00099064C1E0547FF080229064C0E0FF64C6
:10261A00846004EFB486099064C1E0543FF0800CF2
:0C262A009064C0E0B48805A3E0541FF0E9
:10263600E4FD7F8E122A739064C0E0FFA3E0FD12D2
:092646002A737D807F8E022A7345
:103690009064B9A3E02430FD7F8C1225A09064BB18
:1036A000E0FD7F881225A09064BCE0FD7F86122596
:1036B000A09064BDE0FD7F841225A09064BEE0FD73
:0F36C0007F821225A09064BFE0FD7F800225A0CD
:1034B8007F81123C2A9064A7EFF07F83123C2A9008
:1034C80064A6EFF07F85123C2A9064A5EFF07F8711
:1034D800123C2A9064A4EFF07F89123C2A9064A3DE
:1034E800EFF07F8D123C2AEF24D0FEE4340790647D
:0634F800A1F0A3CEF022BA
:103A90009064B9F090600D0204A790000612016FC7
:103AA000FE90000802016F9000091201E190000CE5
:013AB00022F3
:10141A00E49064B9F07FFFA374FFF090600D1204AA
:10142A00C790000112016FFE120156FDEEC39D50D6
:10143A00030215AC123A94900001E41201E1900003
:10144A000E1204D0120526EFF4600890600C742383
:10145A00F0800990600CE06003E014F0123A949076
:10146A00000312016F6F601590000512016F600D85
:10147A00900004E41201E19000030215A89000050F
:10148A0012016FFE90000412016FC39E500B123AB4
:10149A0094900004740102019C123A949000021282
:1014AA00016F6F6048EFF4701C123A9AC39E400AAB
:1014BA007405123A909000028061123A9490000AE0
:1014CA00740102159F123A949000087401123AAA04
:1014DA0012016F6F90600D600C1204A77401123A2A
:1014EA00A7EF02159F1204A7900009803DEFF47040
:1014FA0041123A9490000912016FD39400500302EA
:10150A0015A290000B12016FFE90000A12016FD310
:10151A009E40117401123A9090000C12016F90646F
:10152A00BAF08054123A9490000A740112019C0293
:10153A0015A2123A94123AA1C394FF5008900008D7
:10154A00740112019C123A9AB506089064B97403A0
:10155A00F08020123A94900007123A9D6E703990EA
:10156A0064B97404123A9390000612016F9000084D
:10157A001201E19064BAEFF0123A94E4123AA774B5
:10158A00FF1201E19064BAE09000111201E1906447
:10159A00B9E09000121201E1123A94900002EF129F
:0215AA0001E15D
:0115AC00221C
:1022B200C2B178E0E254BFF278E3E254CFF2E244F2
:1022C20010F2907194E4F02290642FF0A374C5F0A0
:1022D20078317C647A64792F7E007D017B017F02F4
:1022E2000201309064C47B017A64792FE4F0A37414
:1022F20002F022E0FF7B019064C4E4F0A37411F0C9
:1023020022906431E0FF90642FE02278447C647D67
:10231200017B017A64793322E4F078E3E254CFF26C
:1023220078E0E24440F22275D9AA7B017A647931DD
:10233200221204369064BC02045ED2B17F047E0095
:1023420022EF75F020A4FFE5F0F0A3EFF0229064F5
:1023520032E064C52212045E9064990204361204CB
:102362005E90649D0204369064BC020436EEF0A3D3
:06237200EFF0A30204C716
:103C40001222E5E4FF1238691223299064C412227B
:063C5000EE7F010238695D
:103BB0009064C41222E8E4FF12389E122329906414
:093BC000C41222EE7F0102389EBE
:102B9100123BB0906430E064C5600D1223506008B0
:102BA10074021222CA022C11906430E0B4C507905D
:102BB1006432E0B4C50D906430E064C56035122321
:102BC100507030906430E0B4C5101222D212232C20
:102BD1009064C41222EE7F01801612235070347863
:102BE1002F7C647A647931FE1222DC1222E5E4FF43
:102BF100023869122303D39F4007E0906431F080CB
:102C01000F122303C39F500B906431E090642FF0A7
:042C1100123C40220F
:10127400E49064BBF0123BB0122303B50702800C68
:10128400122303D39F40028003906431E09064BB37
:10129400F09064BBE020E0099064B9F004A3F0800E
:1012A4000D9064BBE0FE149064B9F0A3EEF090647A
:1012B400B97A6479331222F512389E9064BA7A644A
:1012C40079441222F512389E906443E064C5602E7E
:1012D40090643F12046A0000000090643312046AB0
:1012E4000000000090643712046A0000000090645B
:1012F4003B12046A0000000090644374C5F09064DB
:1013040054E064C5600A12230D7E007F111201307F
:10131400906444120436906433120452C31203FFDF
:1013240090649550291204369064441223579064B3
:101334004812236090644C12045E9064501223336C
:1013440078337C647D017B017A647944801E1204C5
:101354003690643312235790643712236090643BB1
:1013640012045E90643F12233312230D7E007F111A
:10137400120130122369EF2401FFE43EFEE43DFD37
:10138400E43CFC12233612236990643F12045E127B
:10139400236990645012045E7FE07E937D047C0098
:1013A4009064BC120452D31203FF40309064BAE03C
:1013B400049064B9F0E0FE04A3F0EE947E4009903A
:1013C40064B9747EF0A304F090643F12046A0000D0
:1013D400000090645012046A000000009064B9E0B8
:1013E400FF1223139064C41222FC1238699064BA69
:1013F400E0FF7B017A6479449064C41222FC1238C1
:101404006990642FE0FF9064B9E0FE6F6007EE120C
:0514140022CA123C4059
:0114190022B0
:103BC9001222B4D2A6D2B17F04FE123CA5C2A67FAE
:093BD900047E00123CA5C2B122D9
:103B2B001222B4C2B1C2A67F04FE123CA512233CE2
:0C3B3B00123CA5D2A67F047E00023CA52F
:1037FD009064CF12231AD2A67F047E00123CA5D26C
:10380D00B1801530A61B9064CFE004F0E0D394FA9C
:10381D004006123B2B7F01227F047E00123CA580C7
:05382D00E2C2B17F00C2
:013832002273
:103C56001222B2C2A67F04FE123CA512233C123CDD
:043C6600A5C2B12220
:103C6A001222B2D2A67F04FE123CA512233C123CB9
:043C7A00A5C2B1220C
:0534FE009064CFEFF027
:103503001222B4C2B19064D0F09064CFE0FF548033
:10351300C4131313540124FF92A6EF25E0F07F0494
:103523007E00123CA512233C123CA5C2B17F047E4F
:1035330000123CA59064D0E004F0E0C3940840C9B5
:013543002265
:0533D4009064CFEFF052
:1033D9009064D112231AE49064D0F0C2B17F047EC4
:1033E90000123CA5D2B19064D1E025E0F030A603EB
:1033F900E004F07F047E00123CA59064D0E004F064
:10340900E0C3940840D59064CFE07005123C6A800F
:0934190003123C569064D1E0FF5F
:013422002287
:102B03009064C812236F123BC97FA01234FE1237A0
:102B1300FDEF60037F01229064C8122B8760037F5F
:102B230001229064C8A3122B8760037F01227F04D4
:102B33007E00123CA5123BC97FA11234FE1237FD61
:102B4300EF60207F01229064CDE07002A3E0601F5C
:102B53007F011233D49064CAE475F0011204B0EF1C
:102B63001201CF9064CD74FFF5F012026A80D7E4AE
:102B7300FF1233D49064CA1204A7EF1201CF123BA1
:0E2B83002B7F0022E0FF1234FE1237FDEF22FE
:102C99009064C812236F123BC97FA01234FE123709
:102CA900FDEF60037F01229064C8122D0E60037F3F
:102CB90001229064C8A3122D0E60037F0122906443
:102CC900CD74FFF5F012028045F0602C9064CA12B1
:102CD90004A7120156FF1234FE1237FDEF60037F7D
:102CE90001229064C8E475F00112026A9064CBE491
:102CF90075F00112026A80C67F047E00123CA5129B
:0F2D09003B2B7F0022E0FF1234FE1237FDEF223A
:063869009064C11204C7C7
:10386F009064C61223439064C6E0FEA3E0FF906409
:10387F00C11204A79064C4E0FDA3E09064CDCDF025
:0E388F00A3EDF0122C99EF600575D9AA80D830
:01389D002208
:06389E009064C11204C792
:1038A4009064C61223439064C6E0FEA3E0FF9064D4
:1038B400C11204A79064C4E0FDA3E09064CDCDF0F0
:0E38C400A3EDF0122B03EF600575D9AA80D892
:0138D20022D3
:103C1300D2A6D2B178F2E254F3F2E24404F2907104
:073C230097E4F01222BA221F
:1037C60078E2E2543FF2E24440F2907191E0F01266
:1037D60039EF1238D3123610123C8B123C98123A3B
:1037E6004512294F123234123589123C1312317A9E
:0737F6007F017E00023B474A
:10311B0012210275D95590715EE054FEF075D9BB42
:10312B001237C6D2A37FE87E03123B47C2A375D9E1
:10313B00AA123AB175D9AA7B017A6379AC12141A27
:10314B001224347B017A6479D912141A1226EB12E9
:10315B002E93122378123A1A122D18121E1E121FBA
:0F316B002A12264F121AEF12172D120D3A80BF9B
:1038330090645512043690649512045E9064591294
:10384300043690649912045E90645D1204369064A9
:103853009D02045EE0FF7B017A6479559064C4E4C1
:06386300F0A37411F02235
:10317A00122B9190642FE09064B9F01238571238EC
:10318A009E906465E0B4C50F1238339064951204BA
:10319A00369064BA12045E9064B9E020E00404F048
:1031AA0080069064B9E014F09064B9123857123866
:1031BA009E906465E0B4C515906455120436906417
:0D31CA00BA120452C31203FF50031238332F
:0131D70022D5
:033CD60002127463
:1036CF00FEE02FFFEC3EFEA3E02FFFEC3EFE22FAC2
:1036DF001204367E00EB2FFFEE3AFE3395E0FDFC31
:1036EF00221204107E009064B9E022FC9064BE02A6
:0E36FF00045E9064BE0204369064BA02043683
:050B34009064B9EFF030
:100B39009064BE12046A000000007FA5123C7E1278
:100B49003701EF24A5FFE43EFEE43DFDE43C123607
:100B5900FA9064B9E0FF64016032EF6402602DEF3E
:100B690064036028EF64046023EF6405601EEF648A
:100B7900066019EF64096014EF640A600FEF6411ED
:100B8900600AEF64126005EF641370207F05120D8F
:100B990014120D26C0001237071236F32405FDE49E
:100BA90033CD2FFFEE3D1236E9020CDE9064B9E039
:100BB900FF6407600AEF64086005EF641070337F13
:100BC90006123C7E9064B9E0FF120CFC120D26C09F
:100BD90000C002C00312370778081236F02406FD58
:100BE900E433CD2FFBEE3DA31236DED003D0020253
:100BF9000CDE9064B9E0FF640B600FEF640C600ACF
:100C0900EF64146005EF640D70467F07120D1478C8
:100C190010120410120CFC120D30C000C002C003E7
:100C290012370778101236F02407FDE433CD2FFB75
:100C3900EE3DFAA312043678081204107E00EB2F59
:100C4900FBEE3A9064BA1236DED003D002020CDE13
:100C59009064B9E0640E6003020CE67F0B123C7EDF
:100C69007F0E123C7E9064A1E0FF123C7E9064A14D
:100C7900E0A3E0FF123C7E9064A3E0FF123C7E906B
:100C890064A4E0FF123C7E9064A5E0FF123C7E90D4
:100C990064A6E0FF123C7E9064A7E0FF120D30C00D
:100CA90000C001C002C0039064A1E02419FFE4332D
:100CB900FEE0A3E07C002FFFEC3E9064A31236CF48
:100CC900A3E02FFFEC3EA31236CF3395E0FDFCD015
:100CD90003D002D001D0001202961236FB1237015E
:100CE900E4FEFD1236FA123701123C7E7F017E00C6
:030CF900023B4774
:100CFC00123C7E9064BA1204367808120410123C2E
:100D0C007E9064BA12043622123C7E9064B9E0FFE5
:100D1C00123C7E9064BA12043622123C7E9064BE61
:0E0D2C0012045222123C7E9064BE1204522227
:1038D30078E3E2543FF278F2E254FCF278D3E25414
:1038E300FCF218E2543FF2E254FCF278C3E2543F94
:1038F300F2E254CFF278E2E254FCF278E0E24401DF
:02390300F222AE
:102E9300C3906563E094C8906562E094004067E482
:102EA300F0A3F02086069064B0F080452087089058
:102EB30064B07401F0803A2090089064B07402F01A
:102EC300802F2093089064B07403F080242094082A
:102ED3009064B07404F0801920B0089064B0740555
:102EE300F0800E9064B020A7057406F0800374FF91
:102EF300F0D20120A0079064B774018004E49064C9
:072F0300B7F0A3F0D2062293
:10399500F583EFF09064C3E004F022906520020403
:1039A50052E4FAF9F802033C9DFEE09C9064C1F0F4
:0E39B500A3CEF022E0FCA3E0FDC39FEC9E2217
:0D3C8B0078D3E254F3F278D0E24420F22224
:10370D001239A0906516E0FEA3E0FFE4FCFD120265
:10371D009690652012045EE4906516F0A3F0906516
:10372D0024120436906512120452120296906524EA
:0E373D0012045E90651212046A000000002261
:10237800E49064B9F0A3F09064BB12046A00000012
:1023880000E47FBC7E02FDFC1239A0C31203FF509B
:1023980006201503022433E47F6D7E05FDFC90655D
:1023A800241204521202B17B041239A69064BB12A3
:1023B800045EE43015089064B9F0A3F080217F240E
:1023C800FEFDFC9064BB1204521202B17B0A123962
:1023D800A61239A012033C9064B9EEF0A3EFF09076
:1023E80065351204369064BB120452120296906549
:1023F8003512045E90652412046A0000000090659E
:102408002012046A00000000C215D39064BAE09458
:10241800E79064B9E0940340077403F0A374E7F00D
:0B2428009064B9E0FEA3E0FF121C016D
:012433002286
:081C01009064BFEEF0A3EFF0C8
:101C0900E4A3F0A3F0C21E9065101239B9500FC3B6
:101C19009064C0E09064BF1239ADD21E80479065D0
:101C290010E0FEA3E0FF9064BF1239B9500FC390D2
:101C39006511E09065101239ADC21E8028E49064E8
:101C4900C3F09064C3E0FFC3940750169064BFA328
:101C5900E0FE74182FF582E43465F583EE123998A5
:101C690080E0021D0B301E3AE49064C3F09064C317
:101C7900E0FB2401FFE433FE9064C1E0FCA3E0FD36
:101C89001202037C007D07120215906510A3E02F54
:101C9900FF74182BF582E43465123995E0B407CD49
:101CA9008051E49064C3F09064C1E0FEA3E0FBAA14
:101CB90006E4F9F8A3E0FFC374069FFFE49400FE6D
:101CC9003395E0FDFC1202B1E47B071239A7906558
:101CD90010A3E0C39FFF9064C3E0FDC374069DFD9C
:101CE900E49400FC74182DF58274653C123995E072
:101CF900B407B49064BFE0FFA3E0906510CFF0A3F0
:071D0900EFF0E490651FF00C
:011D100022B0
:103A1A00301627C21690651FE0C39407501CE02495
:103A2A0018F582E43465F583E0FF9064ACE4F0A312
:0B3A3A00EFF090651FE004F0D20422C2
:063CCB009065470204525F
:0D3C980078C2E254CFF278C0E24404F22278
:10374B0090654312043690653D1204521202969016
:10375B00654312045E90653D12046A00000000127E
:10376B003CCB906541E0FEA3E0FFE4FCFD1202962A
:0E377B0090654712045EE4906541F0A3F022D1
:102D1800E47F64FEFDFC123CCBC31203FF5003307A
:102D28001B6C301B0C9064B912046A000000008010
:102D38001CE47F607EEAFDFC906543120452120297
:102D4800B1123CCB12033C9064B912045E90654307
:102D580012046A0000000090654712046A0000002F
:102D680000C21BE47FFF7EFFFDFC9064B912045291
:102D7800C31203FF400A9064B912046A0000FFFFFF
:0E2D88009064B91204369064A812045ED2035F
:012D9600221A
:042500004165280009
:10393700120436EF2401FFE43EFEE43DFDE43CFCC7
:10394700221204361202A3E47B64FAF9F8C30203D5
:10395700FF7F7F7E967D987C00120452C30203FF8F
:101E1E00C390653AE094E8906539E09403400F3042
:101E2E001C0C123CD6C21CE4906539F0A3F0E47F82
:101E3E00E87E03FDFC90653512396040717F187E97
:101E4E00C67D9A7C3B906495123960500C906495D7
:101E5E0012393790649512045E9064991239585075
:101E6E000C90649912393790649912045E90649DB7
:101E7E00123958500C90649D12393790649D12049B
:101E8E005E906535120436C3EF94E8FFEE9403FEC0
:0E1E9E00ED9400FDEC9400FC90653512045E9E
:101EAC00906528E004F0E0C3940A4004E4F0D21CEE
:101EBC00906529120452906495123948500E906422
:101ECC009512043690652912045ED20890652D1285
:101EDC000452906499123948500E90649912043649
:101EEC0090652D12045ED2099065311204529064F3
:101EFC009D123948500E90649D1204369065311233
:101F0C00045ED20AC390653CE0948890653BE094F3
:0D1F1C0013400AE4F0A3F0D208D209D20A63
:011F29002295
:10365000906499E47B64FAF9F812043612033C9002
:1036600064BA02045E9064B0E0FFE4FCFDFE2290C8
:1036700064ACE0FEA3E0FFE4FCFD22E47BE87A0317
:10368000F9F8906495229064B9E0FF75F00FA422D8
:10172D00E49064B9F0F09064B9E0FFC39403400312
:10173D0002189274252FF582E43464F583E070036A
:10174D000218899064B9E0FB75F00FA424F3F582BB
:10175D00E43463F583E012050017828017878B1739
:10176D008C8C17968E179194182A98182E991832DA
:10177D009A00001834D200021834D208021834D25C
:10178D0009021834D20A021834D20BEB75F00FA4EB
:10179D0024F4F582E43463F5831236687808120474
:1017AD0023EB75F00FA424F5F582E43463F583E0A3
:1017BD007C002FFFEC3E9064A1F0A3EFF012368673
:1017CD0024F6F582E43463F583E09064A3F0EF75BD
:1017DD00F00FA424F7F582E43463F583E09064A45C
:1017ED00F012368624F8F582E43463F583E09064D4
:1017FD00A5F0EF75F00FA424F9F582E43463F583B9
:10180D00E09064A6F09064B9E075F00FA424FAF5A9
:10181D0082E43463F583E09064A7F0800AD20D80F2
:10182D0006D20E8002D20F906424E0D394004003C0
:10183D00E014F09064B9E0FF2425F582E43464F5FA
:10184D0083E4F0741E2FF582E43464F583E4F074C0
:10185D00212FF582E43464F583E4F0FE7F0FC0069A
:10186D00C007FD9064B9E075F00FA424F1F974631D
:10187D0035F0FA7B01D007D0061205599064B9E016
:05188D0004F002173316
:011892002233
:100D3A00200003020DCBC200906555E06003020D4E
:100D4A00CB04F012366512365F7F01120B349064C1
:100D5A00B112366812365F7F02120B349064A81201
:100D6A00043612365F7F07120B3412366F12365F63
:100D7A007F08120B349064B312366812365F7F090B
:100D8A00120B3412367B1236597F0B120B34123681
:100D9A00507F0C120B341234B89064BA12046A00F1
:100DAA000000007F0E120B349064AE1236721236B7
:100DBA005F7F10120B3490649D1236537F14120B0E
:100DCA003430010DC20112366512365F7F01120BF3
:100DDA0034300210C2029064B112366812365F7F54
:100DEA0002120B34300310C2039064A812043612A4
:100DFA00365F7F07120B3430040DC20412366F12AD
:100E0A00365F7F08120B34300510C2059064B312A6
:100E1A00366812365F7F09120B3430061EC20690FE
:100E2A0064B712366812365F7F12120B349064B8B8
:100E3A0012366812365F7F13120B3430080DC2085F
:100E4A0012367B1236597F0B120B3430090AC2094B
:100E5A001236507F0C120B34300A13C20AE47B6438
:100E6A00FAF9F890649D1236597F14120B34300B3C
:100E7A0023C20B906558E0701B78B97C647D017BB6
:100E8A00017A6479A1FE7F071201301236909065CB
:100E9A00587401F0300C10C20C9064AE1236721203
:100EAA00365F7F10120B34300D19C20D9064951203
:100EBA00046A0000000090653512046A0000000010
:100ECA00123CD6300E19C20E90649912046A0000C0
:100EDA00000090653512046A00000000123CD6300A
:100EEA000F19C20F90649D12046A000000009065F9
:0C0EFA003512046A00000000123CD622F1
:102504005463BF0001015300020473000307530026
:1025140004091D00050CED5E63D3010102030405EB
:1025240002060708090A030B0C0D0E0F0410111202
:1025340013140515161718195363AC0A000000008C
:0E254400033241000000000001FF39050000D5
:0F004E00EC75F006A424D3F582E43463F5832225
:10342300E4FD9064BBF0A374FFF0ED25E025E024F8
:10343300C1F582E43463F583E0FAA3E0D39FEA9E07
:10344300401CED25E025E024BFF582E43463F583D9
:10345300E0FFA3E09064BBCFF0A3EFF080050DED98
:0B346300B405C79064BBE0FEA3E0FFCF
:01346E00223B
:103A6D00E4FEFC12004EE0B5071112004EE5822D6A
:103A7D00F582E43583F583E0FE80050CECB405E3B7
:023A8D00AF0682
:013A8F002214
:10390500E49064B9F0A3F07F021235CE120027903F
:1039150064B9EEF0A3EFF09064B9E0FEA3E0FF1206
:1039250034239064B9EEF0A3EFF09064B9E0A3E01E
:01393500FF92
:01393600226E
:102434009063BDE070030224EDE0FFA3E0FD123AD7
:102444006DE49063BDF0A3F0EF1205002472012443
:102454007E04248A0624960924A20B24AE0E24BAF0
:102464001024C61324D21524DE18000024ED906431
:10247400BA12046A000000CF806A9064BA12046A37
:10248400000100CF805E9064BA12046A000000D29A
:1024940080529064BA12046A000100D280469064AB
:1024A400BA12046A000000D1803A9064BA12046A35
:1024B400000100D1802E9064BA12046A0000007FEB
:1024C40080229064BA12046A0001007F801690642E
:1024D400BA12046A000000D0800A9064BA12046A36
:0924E400000100D07F0D120B3441
:0124ED0022CC
:0825520041646700416466006A
:10333500FEE434FFFDE434FFFCE4FAF9F81202B1CF
:10334500E4229064BDE0FEA3E0FF227A01F9F812C1
:10335500033CAD07C322FEE434FFFDE434FFFCE487
:103365002225E0246CF582E43464F583229064B967
:10337500E09064B3F0229064BDA3EF2467FFEE22D2
:042FED00AB07AA067E
:102FF100E49064BDF0A312046A00000000AE02AFC9
:1030010003906494E0FD04F0ED123366EEF0A3EF5B
:10301100F0906494E0C394144002E4F0E49064BD41
:10302100F09064BE1204529064BDE0123366E0FE7B
:10303100A3E0FFE4FCFD1202969064BE12045E90D0
:1030410064BDE004F0E0B414D8E47B14FAF9F8901C
:0830510064BE12043602033CC8
:10000F00E4FDED123366EEF0A3EFF00DEDB414F254
:01001F0022BE
:0815AD009064BDEEF0A3EFF025
:1015B500E4FDC3EF940BEE940E500A12334794F4F6
:1015C500EE940150057DFF02172AD3EF9400EE94A7
:1015D5000E4005E4FD02172AD3EF9466EE940650FB
:1015E500057D6402172AD3EF9400EE940E5024EF84
:1015F5009433EE940D401C123347EF24CDFFEE34A7
:10160500F27B121233357BCDFA12335274129DFDE3
:1016150002172A123347D39433EE940D502FEF94CB
:10162500B8EE940C40279064BDA3EF2448FFEE3438
:10163500F37B221233357B7BFA12335274229DFDE4
:10164500C39412400302172A7D1202172A12334748
:10165500D394B8EE940C5031EF9433EE940B4029AB
:101665009064BDA3EF24CDFFEE34F412335B7B33DE
:1016750012333F7B8512335074339DFDC394224052
:101685000302172A7D2202172A123347D39433EE19
:10169500940B5028EF9499EE9409402012337B3433
:1016A500F612335B7B4412333F7B9A1233507444FA
:1016B5009DFDC39433506E7D3302172A123347D3F1
:1016C5009499EE94095028EF9499EE9407402012CE
:1016D500337B34F812335B7B5412333FFB7A0212AF
:1016E500335274549DFDC39444503A7D4480361260
:1016F5003347D39499EE9407502BEF9466EE9406F6
:1017050040239064BDA3EF249AFFEE34F912335BB6
:101715007B6412333F7B3312335074649DFDC39455
:071725005450027D54AF0592
:01172C00229A
:1031D800E4FEEF70028052EFC39401400AEFD394EB
:1031E8001150047E018042EFC39412400AEFD39439
:1031F8002150047E028032EFC39422400AEFD39418
:103208003250047E038022EFC39433400AEFD394F4
:103218004350047E048012EFC39444400AEFD394D1
:0B3228005350047E0580027E06AF06B6
:013233002278
:061F2A00E49064B9F0FE32
:101F3000906466E07035C3906469E094F4906468DE
:101F4000E094014026E4F0A3F012200812000F9064
:101F50006560E0FEA3E0FF122019906467EFF012C5
:0B1F60003372E4FED20590646604F0CA
:101F6B00122008122FEDC3906469E094E890646826
:081F7B00E0940350030220076B
:101F8300E49064BAF0906468F0A3F0122019A3EF10
:101F9300F0906467E0FE6F6004D2188007C21812E5
:101FA3003372D20530175DC2179064BAE0FF6E60DA
:011FB3004EDF
:101FB400906467E0FED39F400BEED394004011E0A1
:101FC40014F0800CEEC394065006906467E004F0AD
:0F1FD400E49064BBF09064BBE0FFC394FF501F28
:101FE3001231D8A3EFF0906467E0B5070A9064BBA1
:071FF300E09064B9F08008E2
:081FFA009064BBE004F080D705
:05200200123372D2054B
:10200700227F031235CE1221DE906560EEF0A3EF3A
:0E201700F0221215AD9064B9EFF01231D8220C
:02255A00C19D21
:10328C00E4906553F0A3F09064BBE09064B1F090CF
:10329C0064B9E0FFA3E09064AECFF0A3EFF0D20CE2
:1032AC00D2022290654F12043690654B12045212D2
:1032BC00033C90654F12045E90654F020436906497
:1032CC00B9EEF0A3EFF09064B9A3E0FF123B0EA3AC
:0632DC00EFF090654F22A7
:103BE2007C0A7D5012052CE47B0AFAF9F812033C98
:093BF200E4FB7A10F9F802033C2F
:103B0E00EFC3949640047E6480107E007C007D643A
:0C3B1E001202037D96120215AE07AF06DE
:013B2A002278
:10264F00E49064B9F0A3F0A3F07F011235CE90654A
:10265F004F120452C000C001C002C0031221DEE4B9
:10266F00FCFDD003D002D001D00012029690654F2E
:10267F0012045E90654B120436EF2401FFE43EFE18
:10268F00E43DFDE43CFC90654B12045E301D2012CE
:10269F0032AF123BE21232CA12046A0000000090FD
:1026AF00654B12046A0000000012328CC21D22C357
:1026BF00906554E094D0906553E09407401D12321A
:1026CF00AF123BE21232CA12046A0000000090659A
:0B26DF004B12046A0000000012328C55
:0126EA0022CD
:10255C004C64EC01010203040502060708090A5346
:10256C0064D90A000000000364AF00000000000200
:05257C00FF346F0000B8
:103AD100E4FFFDFCAB1BAA1AA919A818C30203FF36
:0F3AE100EE75F006A424ECF582E43464F583223C
:10346F009064B912046A000000009064BD74FFF00C
:10347F00AF1BAE1AAD19AC189064B912045E7E0280
:10348F00123AD170079064BD04F0800D7E04123A99
:10349F00D170069064BD7402F09064B912046A0092
:0834AF000000009064BDE0FF85
:0134B70022F2
:1039C300E49064B9F0FE123AE1E0B50714123AE16B
:1039D300E5822DF582E43583F583E09064B9F080C8
:0B39E300050EEEB402E09064B9E0FFB6
:0139EE0022B6
:1026EB009064EAE07003022786E0FFA3E0FD123955
:1026FB00C3E49064EAF0A3F0EF120500272301274F
:10270B002F03273B04274705275306275F08276B13
:10271B000927770A000027869064BA12046A000022
:10272B00004780529064BA12046A00010047804649
:10273B009064BA12046A00020047803A9064BA129D
:10274B00046A00030047802E9064BA12046A0000EA
:10275B00004880229064BA12046A00010048801677
:10276B009064BA12046A00020048800A9064BA129C
:0B277B00046A000300487F0D120B34BD
:012786002230
:1025810041601801426019000041601B0041601C5C
:0E2591000041601D0041601E7F42601FFFFF81
:10378900E4F561AE3EAD3DAC3C853F178E168D1517
:103799008C14787EE254FCF2E24514F218E515F235
:1037A90018E516F218E517F2787FE254FBF2E254B5
:0D37B900FB4404F2E24401F27F01022C15F2
:1008E2009064B9EFF0E0FF24FAF582E43464F58312
:1008F200E004F074FC2FF582E43464F583E4F074D0
:10090200FA2FF582E43464F583E0C3956350030261
:100912000B339064B9E0FB24FAF582E43464F58386
:10092200E4F0903B019364016003020AE47F01FE5C
:10093200FDFC74FE2BF582E43464F583E0F9F812D1
:100942000423E51F4FF51FE51E4EF51EE51D4DF56F
:100952001DE51C4CF51CAF1FAE1EAD1DFC7801122F
:100962000410EF5455FBEE5455FAED5455F9EC547E
:1009720055F8C3E51F9BF53BE51E9AF53AE51D992F
:10098200F539E51C98F538AF3BAE3AAD39FC780243
:10099200120410EF5433FBEE5433FAED5433F9ECF6
:1009A2005433F8E53B5433FFE53A5433FEE539540A
:1009B20033FDE5385433FCEB2FF53BEA3EF53AE9DB
:1009C2003DF539E83CF538AF3BAE3AAD39FC780439
:1009D200120410EF253BFFEE353AFEED3539FDEC02
:1009E2003538FCEF540FF53BEE540FF53AED540F4A
:1009F200F539EC540FF538AF3BAE3AAD39FC780817
:100A0200120410EF253BFFEE353AED3539FDEC359A
:100A120038EFF53BE4F53AEDF539E4F538AE3AACAA
:100A2200387810120410EF253BFFEE353AFEEFF551
:100A32003BEEF53AE4F539F5389064B9E025E02467
:100A420008F582E43465F583E0FEA3E0D39553EE26
:100A5200955240249064B9E0FF25E02408F582E431
:100A62003465F583E0F552A3E0F55374FE2FF58269
:100A7200E43464F583E0F564903B01E493FFE4FC25
:100A8200FDFEAB3BAA3AA939A838D31203FF405264
:100A9200AF650565D3EF9403748094805003020B15
:100AA20033E4F565F51FF51EF51DF51C7F01FEFD0E
:100AB200FCA964A8011204238F1B8E1A8D198C18AD
:100AC200E47F01FEFDFCA8011204238F338E328DD8
:100AD200318C30E4F552F553756420122D9743376B
:100AE2000222E4F5657F01FEFDFC9064B9E0FB247F
:100AF200FEF582E43464F583E0F9F8120423E51B81
:100B02004FF51BE51A4EF51AE5194DF519E5184C86
:100B1200F518E47F01FEFDFCA803120423E5334F20
:100B2200F533E5324EF532E5314DF531E5304CF530
:020B320030226F
:1005A300E4F566903B05E493FFE566C39F400302D1
:1005B30008E1E56625E02400F582E4346085828A5B
:1005C3007F548F8B7E0E8E8C758903758889E566C3
:1005D30025E02400F582E4346085828A8F8B758C54
:1005E30012758904758889E56625E02408F582E497
:1005F3003460F583E0FCA3E0C3950FEC950E502E19
:10060300E56625E02414F582E43460F583E0FCA379
:10061300E0C39513EC95125015AF600560EF94029B
:1006230074809480400BE4F5605337FD8003E4F558
:1006330060E53730E125E56625E02408F582E434FA
:1006430065F583E4F0A3F0E56625E0240CF582E488
:100653003465F583E4F0A3F00206F1E56625E024B2
:1006630008F582E4346085828A8E8B758C0A7589DD
:10067300267588892088FDE5F130E00875F107E4E7
:10068300F50AF50BAE0AE50B7802C333CE33CED8A9
:10069300F9FFE56625E02408F582E43465F583EE89
:1006A300F0A3EFF0E56625E02414F582E4346085D9
:1006B300828A758B12758C0A7589277588892088BB
:1006C300FDE5F130E00875F107E4F50AF50BAE0A34
:1006D300E50B7802C333CE33CED8F9FFE56625E0C8
:1006E300240CF582E43465F583EEF0A3EFF0E566C0
:1006F30025E02400F582E43465F583E0FEA3E07889
:1007030002CEC313CE13D8F9F5518E50E56625E01A
:100713002408F582E43465F583E0FEA3E0FF903A14
:10072300FDE493FC740193FDC3EF9DEE9C4017E53C
:100733006625E0240CF582E43465F583E0FEA3E04E
:10074300C39DEE9C50028068E56625E02408F5828F
:10075300E43465F583E0FEA3E0C39551EE95504084
:100763001CE56625E0240CF582E43465F583E0FEA0
:10077300A3E0C39551EE955040030207FD74F8259D
:1007830066F582E43464F583E004F074F82566F5D5
:1007930082E43464F583E0FF903B02E493FEEFD3FD
:1007A3009E406474F82566F582E43464F583E4F0CE
:1007B300E56625E02404F582E43460F583E0FEA3D6
:1007C300E0FFE56625E02408F582E43460F583EE76
:1007D300F0A3EFF0E56625E02410F582E43460F53C
:1007E30083E0FEA3E0FFE56625E02414F582E4340C
:1007F30060F583EEF0A3EFF0800D74F82566F582C3
:10080300E43464F583E4F0E56625E02404F582E44A
:10081300346085828AE56625E02400F582E434604D
:1008230085828B758C0A7589207588CB2088FDE5B8
:10083300F130E00875F107E4F50AF50BE56625E00C
:100843002404F582E4346085828A758B547F0E8F8D
:100853008C7589237588897E0A8E8A8F8BE5662538
:10086300E02404F582E4346085828CE4F58975889C
:1008730029E56625E02410F582E4346085828AE563
:100883006625E02400F582E4346085828B8E8C75C6
:1008930089207588CB2088FDE5F130E00875F107E4
:1008A300E4F50AF50BE56625E02410F582E43460EF
:1008B30085828A758B547F0E8F8C75892475888900
:1008C300758A0A8F8BE56625E02410F582E434608F
:0F08D30085828CE4F58975882905660205A622C1
:100F0600E4F566903B05E493FFE566C39F40030264
:100F160010BEE56625E02400F582E43465F583E03D
:100F2600FEA3E07802CEC313CE13D8F9F5518E5046
:100F3600E56625E02408F582E43465F583E0FEA342
:100F4600E0D39551EE9550402EE56625E0240CF54C
:100F560082E43465F583E0FEA3E0D39551EE955027
:100F6600401574FC2566F582E43464F583E4F0AF3D
:100F7600661208E20210B9903B04E493FFC3E55100
:100F86009FFFE5509400FED3EF9400EE94004002DC
:100F960080047E007F00E56625E02408F582E434BF
:100FA60065F583E0FCA3E0C39FEC9E40030210AC12
:100FB600903B04E493FFC3E5519FFFE5509400FE88
:100FC600D3EF9400EE9400400280047E007F00E59B
:100FD6006625E0240CF582E43465F583E0FCA3E0A5
:100FE600C39FEC9E40030210AC74FA2566F582E4BA
:100FF6003464F583E4F074FC2566F582E43464F524
:1010060083E004F074FC2566F582E43464F583E03D
:10101600C3956350030210B974FC2566F582E43467
:1010260064F583E4F07F01FEFDFC74FE2566F5821F
:10103600E43464F583E0F9F81204231203CEE51FC5
:101046005FF51FE51E5EF51EE51D5DF51DE51C5CE5
:10105600F51CE47F01FEFDFCA966A801120423121B
:1010660003CEE5335FF533E5325EF532E5315DF506
:1010760031E5305CF530E47F01FEFDFC74FE25664B
:10108600F582E43464F583E0F9F81204231203CE02
:10109600E51B5FF51BE51A5EF51AE5195DF519E521
:1010A600185CF518800D74FC2566F582E43464F549
:0910B60083E4F00566020F092233
:102D9700E4F566903B05E493FFE566C39F506EE557
:102DA7006625E02408F582E43465F583E4F0A3F0B2
:102DB700E56625E0240CF582E43465F583E4F0A3A9
:102DC700F0E56625E02404F582E43460F583E0FE4F
:102DD700A3E0FFE56625E02408F582E43460F58387
:102DE700EEF0A3EFF0E56625E02410F582E4346009
:102DF700F583E0FEA3E0FFE56625E02414F582E411
:0E2E07003460F583EEF0A3EFF00566808622BE
:1028BC00E4F566903B05E493FFE566C39F50679093
:1028CC006018E0FF7E00C39410748094805053EF26
:1028DC009408748094804025E56625E02400F582F8
:1028EC00E43460F583E0FEA3E0FFE56625E0240414
:1028FC00F582E43460F583EE8FF012026AE566250A
:10290C00E02400F582E43460F583E0FEA3E0FFE50B
:10291C006625E02410F582E43460F583EE8FF01226
:10292C00026A0566808D906018E0C39410748094E0
:10293C008040054337048006906018E004F07F0166
:03294C00022C1545
:102E1500E4FFFEFDFCAB1BAA1AA919A818C31203EF
:102E2500FF606390601AE004F07006906019E0049A
:102E3500F0903AF9E493FE740193FF4E602ED3901F
:102E4500601AE09F906019E09E4021E4F0A3F0F540
:102E55001FF51EF51DF51CF533F532F531F530F589
:102E65001BF51AF519F518C21A022D97903AFBE4CD
:102E750093FE740193FFD390601AE09F906019E070
:0D2E85009E400AD21A22E4906019F0A3F0DA
:012E9200221D
:0510BF009064D3EFF086
:1010C400A3E0FCA3E0FDA3E0FEA3E0F52B8E2A8DB4
:1010D400298C287884E2F50A08E2F50B758A0875EC
:1010E4008B28758C2475881D2088FDE4FFFEFDFC8B
:1010F400AB27AA26A925A824D31203E94006AC24C9
:10110400A8048013AF27AE26AD25AC241203DBABB5
:1011140007AA06A905A80490601FE0FEA3E0FFE467
:10112400FCFDC31203E95041E4FFFEFDFCAB27AA1A
:1011340026A925A8241203E94006AF27AE26800B72
:10114400AF27AE26AD25AC241203DB90601FEEF072
:10115400A3EFF09064D3E025E02404F582E4346541
:10116400F583E0A3E090601EF0903AF6E493FE74F9
:101174000193FFD3906020E09F90601FE09E501B7E
:101184009064D3E025E02404F582E43465F583E03B
:10119400A3E090601EF090601B8079E4FFFEFDFCEC
:1011A400AB27AA26A925A824D31203E940349064C6
:1011B400D3E0FF25E02404F582E43465F583E0FC04
:1011C400A3E0D39400EC9400404DEF25E02404F513
:1011D40082E43465F58374FFF5F012026A90601CB2
:1011E40080329064D3E0FF25E02404F582E4346582
:1011F400F583E0FCA3E0C3947FEC94005019EF2541
:10120400E02404F582E43465F583E475F001120208
:101214006A90601D7401F090601CE064017011A379
:10122400E06401700B90601CF0A3F090601B04F06C
:1012340090601BE06401703590601EE0FF9064D301
:10124400E025E02404F582E43465F583E4F0A3EFBB
:10125400F074FF90601FF0A3F090601E747FF0E4C0
:0F12640090601CF0A3F090601BF07F01227F00D0
:011273002258
:10305900E49064D2F0903AF0120442780112042309
:103069009064D412045EAF611210BFEF6022056153
:10307900E53730E4095337EF9064D27401F0903B9F
:1030890005E493FFE561C39F4006E4F5614337100A
:10309900C3903AF47401939562E4939400400890C4
:1030A90064D2E064017005D219023789E4FF122C59
:0130B9001501
:0130BA0022F3
:102C1500EF70607F01FEFDFC74FE2561F582E434F2
:102C250064F583E0F9F81204238F178E168D158C41
:102C350014787EE254FCF2E24514F218E515F21818
:102C4500E516F218E517F2E56125E02404F582E4BE
:102C55003465F583E0A3E0547FFF7878E254804F34
:102C6500F2787FE254FBF2E254FB4404F2E24401C1
:102C7500F2801CE56125E02404F582E43465F583E2
:102C8500E0A3E0547FFF7878E254804FF2787FE24A
:042C95004402F222E1
:10278700E49064B9F0A3F09064B9E0FEA3E0FFC35E
:102797009488EE94035031EF24A3FFEE34058F8223
:1027A700F583E493FF9064BAE02421FD9064B9E0D7
:1027B70034608D82F583EFF09064BAE004F070C75F
:0827C7009064B9E004F080BF4A
:1027CF009063A97401F0A37460F0A37421F0E4F591
:1027DF0061F537F536F535F534C219C21AF51FF51F
:1027EF001EF51DF51CF533F532F531F530F51BF5FA
:1027FF001AF519F518903AFF93FF903B03E493FEF7
:10280F00A807088002C333D8FCF563756420E4FF82
:03281F00022C1573
:102F0A007884E2F50A08E2F50BAE0A7803CEC31319
:102F1A00CE13D8F97802C333CE33CED8F9FFE561A0
:102F2A0025E02400F582E43460F583EEF0A3EFF0A7
:102F3A0020190F903AF8E4937005D21902378902E2
:102F4A0030590561903B05E493FFE561C39F401F3B
:102F5A00787FE254FBF2E254FB4404F2E24401F2C9
:102F6A00E4F561E53720E2030228BC433701227FFA
:052F7A0001122C1522DC
:053CD1000562022E1542
:103AB100E53730E01A9063A9A3E0FAA3E0F9120513
:103AC10026120F06E4F5617F01122C155337FE22F1
:10283C0002311BE493A3F8E493A34003F68001F266
:10284C0008DFF48029E493A3F85407240CC8C3339D
:10285C00C4540F4420C8834004F456800146F6DF6C
:10286C00E4800B01020408102040809024EEE47EEA
:10287C00019360BCA3FF543F30E509541FFEE49361
:10288C00A360010ECF54C025E060A840B8E493A328
:10289C00FAE493A3F8E493A3C8C582C8CAC583CA53
:1028AC00F0A3C8C582C8CAC583CADFE9DEE780BE0B
:01259F00003B
:10006000E709F608DFFA8046E709F208DFFA803E82
:1000700088828C83E709F0A3DFFA8032E309F6086F
:10008000DFFA8078E309F208DFFA807088828C83D7
:10009000E309F0A3DFFA806489828A83E0A3F6088B
:1000A000DFFA805889828A83E0A3F208DFFA804C65
:1000B00080D280FA80C680D4806980F2803380103C
:1000C00080A680EA809A80A880DA80E280CA8033A5
:1000D00089828A83ECFAE493A3C8C582C8CCC5831D
:1000E000CCF0A3C8C582C8CCC583CCDFE9DEE780ED
:1000F0000D89828A83E493A3F608DFF9ECFAA9F06C
:10010000EDFB2289828A83ECFAE0A3C8C582C8CCC1
:10011000C583CCF0A3C8C582C8CCC583CCDFEADEDA
:10012000E880DB89828A83E493A3F208DFF980CC3C
:1001300088F0EF60010E4E60C388F0ED2402B40435
:100140000050B9F582EB2402B4040050AF232345DC
:0601500082239000B07351
:10015600BB010689828A83E0225002E722BBFE02A7
:09016600E32289828A83E49322DA
:10016F00BB010CE58229F582E5833AF583E0225045
:10017F0006E92582F8E622BBFE06E92582F8E2228F
:0D018F00E58229F582E5833AF583E49322A9
:10019C00BB010FF8E58229F582E5833AF583E02867
:1001AC00F0225009C58229F8E58226F622BBFE0909
:1001BC00C58229F8E22582F222F8EA2583F583E943
:0301CC0093282253
:1001CF00BB010689828A83F0225002F722BBFE010F
:0201DF00F32209
:1001E100F8BB010DE58229F582E5833AF583E8F054
:1001F100225006E92582C8F622BBFE05E92582C800
:02020100F222E7
:10020300EF8DF0A4A8F0CF8CF0A428CE8DF0A42E0F
:02021300FE22C9
:10021500BC000BBE0029EF8DF084FFADF022E4CCCD
:10022500F875F008EF2FFFEE33FEEC33FCEE9DEC96
:10023500984005FCEE9DFE0FD5F0E9E4CEFD22EDDC
:10024500F8F5F0EE8420D21CFEADF075F008EF2F26
:10025500FFED33FD4007985006D5F0F222C398FD17
:050265000FD5F0EA22B4
:10026A00C5F0F8A3E028F0C5F0F8E582158270021F
:06027A001583E038F022BC
:10028000A3F8E0C5F025F0F0E58215827002158331
:06029000E0C838F0E8228E
:0D029600EF2BFFEE3AFEED39FDEC38FC22B7
:0E02A300C3EF9BFFEE9AFEED99FDEC98FC2256
:1002B100E88FF0A4CC8BF0A42CFCE98EF0A42CFCEC
:1002C1008AF0EDA42CFCEA8EF0A4CDA8F08BF0A46A
:1002D1002DCC3825F0FDE98FF0A42CCD35F0FCEBC9
:1002E1008EF0A4FEA9F0EB8FF0A4CFC5F02ECD398E
:0F02F100FEE43CFCEAA42DCE35F0FDE43CFC22FB
:1003000075F008758200EF2FFFEE33FECD33CDCCB4
:1003100033CCC58233C5829BED9AEC99E582984037
:100320000CF582EE9BFEED9AFDEC99FC0FD5F0D614
:10033000E4CEFBE4CDFAE4CCF9A88222B800C1B93E
:100340000059BA002DEC8BF084CFCECDFCE5F0CB7C
:10035000F97818EF2FFFEE33FEED33FDEC33FCEBB5
:1003600033FB10D703994004EB99FB0FD8E5E4F970
:10037000FA227818EF2FFFEE33FEED33FDEC33FC5D
:10038000C933C910D7059BE99A4007EC9BFCE99A51
:10039000F90FD8E0E4C9FAE4CCFB2275F010EF2F96
:1003A000FFEE33FEED33FDCC33CCC833C810D70796
:1003B0009BEC9AE899400AED9BFDEC9AFCE899F8D1
:0E03C0000FD5F0DAE4CDFBE4CCFAE4C8F92264
:0D03CE00CFF4CFCEF4CECDF4CDCCF4CC22C4
:0E03DB00C3E49FFFE49EFEE49DFDE49CFC2233
:1003E900EB9FF5F0EA9E42F0E99D42F0EC6480C88B
:0603F90064809845F0222B
:1003FF00EB9FF5F0EA9E42F0E99D42F0E89C45F054
:01040F0022CA
:10041000E8600FECC313FCED13FDEE13FEEF13FFCA
:03042000D8F122EE
:10042300E8600FEFC333FFEE33FEED33FDEC33FC37
:03043300D8F122DB
:0C043600E0FCA3E0FDA3E0FEA3E0FF2239
:10044200E493FC740193FD740293FE740393FF2200
:0C045200E0F8A3E0F9A3E0FAA3E0FB222D
:0C045E00ECF0A3EDF0A3EEF0A3EFF02211
:10046A00A8828583F0D083D082120481120481127B
:10047A000481120481E473E493A3C583C5F0C583A0
:10048A00C8C582C8F0A3C583C5F0C583C8C582C8DC
:01049A00223F
:0C049B00A42582F582E5F03583F583226C
:0904A700E0FBA3E0FAA3E0F92256
:1004B000F8E0FBA3A3E0F925F0F0E58215827002D5
:0704C0001583E0FA38F02279
:0904C700EBF0A3EAF0A3E9F02236
:1004D000BB010DE58229F582E5833AF5830204A785
:1004E0005007E92582F8020585BBFE07E92582F859
:1004F00002058EE58229F582E5833AF583020597A8
:10050000D083D082F8E4937012740193700DA3A38A
:1005100093F8740193F5828883E47374029368609E
:06052000EFA3A3A380DF9E
:060526008A838982E47360
:10052C00EC8EF0A4CCC5F0CCCDF8EFA4CEC5F02D5C
:10053C00FDE43CFCE8A42EC8C5F03DFDE43CFCEF1A
:0D054C00A4FFE5F028FEE43DFDE43CFC22A8
:10055900EF4E6012EF60010EEDBB010B89828A83B9
:10056900F0A3DFFCDEFA2289F05007F709DFFCA9C6
:0C057900F022BBFEFCF309DFFCA9F0221D
:09058500E6FB08E6FA08E6F9229B
:09058E00E2FB08E2FA08E2F9229E
:0C059700E493FB740193FA740293F922C0
:00000001FF
