:03000000022921B1
:10292100787FE4F6D8FD9060007F007E07E4F0A395
:0A293100DFFCDEFA758166022976EC
:0C000300000000000000000000000000F1
:0B3BB300EF1FAC0670011E4C70F622E4
:1039AD00AB07AA06EB1BAE0270011A4E600C7FAA84
:0B39BD007E05123BB375D9AA80EA22F8
:10212C00907120E04480F07F057E00123BB3E4FF09
:10213C00FE1239AD75A75575AC5C9071327450F0C8
:10214C009071307403F0907136742FF090715C7450
:10215C0003F090715BE054FCF07F18EF2466FDE413
:10216C0034718D82F583E4F00FEFB433EE904011AF
:10217C00E4935407FF90711CE054F84FF090401713
:10218C00E493547FFF90711DE054804FF090401009
:10219C00E493FF5401C43333335480FE907123E035
:1021AC00547F4EF0EFC313543F4440FFA3E05480E0
:1021BC004FF0904012E493FF540FFE907146E054A0
:1021CC00F04EF0EFC4540FFF90714FE054F04FF00D
:1021DC00904013E493543FFF907140E054C04FF093
:1021EC00904014E493907126F0904015E493907114
:0B21FC0028F0904016E49390712AF048
:0122070022B4
:10397100000009C4006400C80101F4004B000A0002
:0E39810000010F0405020009000A000A000AF6
:103A3100E2FE74C42FF582E43464F583E02224FCB1
:083A410025E0FDF874030822E2
:10199100E4FF123A33C394085058123A33C3940403
:1019A100502878C2C000123A31123A418002C33342
:1019B100D8FCF45ED000F278C2C000123A31123A7B
:1019C100418002C333D8FC021ABF78C3C000123A67
:1019D10031123A3F8002C333D8FCF45ED000F27872
:1019E100C3C000123A31123A3F8002C333D8FC021D
:1019F1001ABF123A33C394084068123A33C39410A1
:101A01005060123A33C3940C502C78D2C000123A71
:101A11003124F8123A418002C333D8FCF45ED0007D
:101A2100F278D2C000123A3124F8123A418002C34E
:101A310033D8FC021ABF78D3C000123A3124F41211
:101A41003A418002C333D8FCF45ED000F278D3C0AF
:101A510000123A3124F4123A418002C333D8FC0215
:101A61001ABF123A33C39414502B78E2C000123AD1
:101A71003124F0123A418002C333D8FCF45ED00025
:101A8100F278E2C000123A3124F0123A418002C3E6
:101A910033D8FC802978E3C000123A3124EC123AA1
:101AA100418002C333D8FCF45ED000F278E3C00079
:101AB100123A3124EC123A418002C333D8FC4ED0A1
:0B1AC10000F20FEF64026003021993B3
:011ACC0022F7
:03005D0002345B0F
:10345B00C0E0C0F0C083C082C0D075D000C000C037
:10346B0001C002C003C004C005C006C0077881E2DA
:10347B0030E607E24440F2122E0CD007D006D005FE
:10348B00D004D003D002D001D000D0D0D082D083D2
:05349B00D0F0D0E0328A
:10329A00D2AF43AB0843B6C0907132E04440F0432A
:1032AA00AB087877743FF208744BF2787A7430F28C
:1032BA00788914F27871744FF2187427F27872745C
:1032CA00A8F2087410F208E4F208F208F2787E74A0
:0F32DA00D0F2087404F208741EF2087402F22293
:102A4E00E4FBEB25E025E02487F582E43439F583B9
:102A5E00740193FF74C42BF582E43464F583EFF0B4
:102A6E00EB25E025E02489F582E43439F583E493FF
:102A7E00FE740193FFEB25E024C6F582E43464F581
:102A8E0083EEF0A3EFF0EB25E024CAF582E4346484
:102A9E00F583E4F0A37441F0E47F01FEFDFC74C401
:102AAE002B123A36F9F812040DE53F4FFFE53E4E74
:102ABE00FEE53D4DFDE53C4C8F3F8E3E8D3DF53C9C
:102ACE000BEB64026003022A50121991122886023F
:022ADE00329A2A
:0D3AE60078C3E254CFF278C0E24440F222EF
:0D3AF30078C3E2543FF278C0E24480F22232
:0D3B000078D2E254FCF278D0E24401F222C7
:0D3B0D0078D2E2543FF278D0E24408F22270
:0D3B1A0078D3E254FCF278D0E24410F2229D
:0D3B270078E2E254F3F278E0E24402F22288
:0D3B340078E2E254CFF278E0E24404F2229D
:0D3B410078E3E254F3F278E0E24420F2224F
:0D3B4E0078E3E2543FF278E0E24480F22296
:0D3B5B0078F2E254FCF278F0E24401F2222C
:0708CC0044600C0000000075
:083BBE007890E2541FF2E222AC
:1036D400E5B154F342B153A8DFD2AF7892E4F208D3
:1036E400F27890E254E3F2E2441CF2E254FCF2E297
:1036F4004401F208E2547FF2E24420F27895740126
:0C370400F2187476F2123BBE44A0F222D0
:0C3B8F00123BBE44C0F243A820D2AF227B
:103AAA00123BBE44A0F27892E4F208F253A8DF2255
:03001E00022EEFC0
:102EEF00C0E0C0F0C083C082C0D075D000C000C0A9
:102EFF0001C002C003C004C005C006C0077891E23C
:102F0F0030E72FE24480F274FFFFFEFDFC90600C6F
:102F1F0012043CC31203E9501990600C120420EF05
:102F2F002401FFE43EFEE43DFDE43CFC90600C1206
:102F3F000448D007D006D005D004D003D002D0016A
:0D2F4F00D000D0D0D082D083D0F0D0E032BE
:0E08D30044652D00000000446529000000006F
:10324A00C374FF9BFF74FF9AFE74FF99FD74FF9885
:10325A00FC12043CC30203E9E0FEA3E0FFE4FCFD28
:10326A007BFF7AFFF9F8D30203D3120420EF24017B
:10327A00FFE43EFEE43DFDE43CFC2212042090649F
:10328A00A902043C9064A9020420EE8FF002026AAB
:10361D00E5B154CF42B153A8BFD2AF75D102789C5A
:10362D00E254E3F2E2441CF2E254FCF2E24401F211
:10363D0008E2547FF2E24420F278A17401F218748A
:0D364D0076F2789CE2541FF2E244A0F222D3
:103ABA00789CE2541FF2E244C0F243A840D2AF22FB
:101C050090652D1204209064A51204489064A912D1
:101C150004540000000090652D12045400000000DB
:101C250090652912043C9064A512042012028D903F
:101C350064A912044890652912045400000000901C
:101C45006546E0FEA3E0FF123267400912328E902E
:101C550065461232941232889064E212324A500F6D
:101C65009064E21232851202809064E212044812F6
:101C7500328890643012324A500F906430123285A7
:101C8500120280906430120448906520E0B401206F
:101C950012328E906521123294C3906522E094C46D
:101CA500906521E094094008E4F0A3F0906520F0E8
:101CB500906524E0B4012012328E9065271232948B
:101CC500C3906528E09464906527E094004008E49B
:101CD500F0A3F0906524F0906523E0B40120123262
:101CE5008E906525123294C3906526E094649065C4
:101CF50025E094004008E4F0A3F0906523F090649B
:101D0500E6123262400A9064E6E475F00112026A56
:101D150074FFFFFEFDFC90651C12325B500C906554
:0A1D25001C12327490651C12044871
:011D2F002291
:030021000226991B
:10269900C0E0C0F0C083C082C0D075D000C000C007
:1026A90001C002C003C004C005C006C007789DE28E
:1026B90030E76BE24480F274FFFFFEFDFC90652D6C
:1026C90012325B500C90652D12327490652D1204F4
:1026D900489063ADE0C394FF5003E004F090648731
:1026E900E0C394FF5003E004F030182990643412D9
:1026F9003262402A906434E475F00112026AC39090
:102709006435E09440906434E0949C4011E4F0A373
:10271900F0D2178009906434E4F0A3F0C217D0070F
:10272900D006D005D004D003D002D001D000D0D03B
:09273900D082D083D0F0D0E03250
:0D08E100C115C1164165410042654200008D
:1039C800120420EF2401FFE43EFEE43DFDE43CFC4C
:0B39D80022E4FDFC12043CC30203E9E2
:1034E200E5B254FC42B253A9FED2AF75D104907139
:1034F20000E054E3F0E0F0E054FCF0E04401F0902E
:1035020071057409F0907104745FF0907100E054D9
:103512001FF0E044A0F0A3E0547FF0E04420F0224A
:103A7700907100E0541FF0E044C0F043A901D2AFB9
:013A8700221C
:03002400021F595F
:101F5900C0E0C0F0C083C082C0D075D000C000C04E
:0D1F690001C002C003C004C005C006C007CF
:0E1F7600907101E020E703022033E04480F088
:101F8400906541E004F0E0C394144029E4F09064C7
:101F9400FC1239C89064FC1204487F587E02906495
:101FA400FC1239D9400F201D0C9064FC120454001B
:051FB400000000D21D39
:101FB90030821620150F9064F81239C89064F8120F
:0B1FC90004481235A0D2158002C2159A
:101FD400906542E475F00112026AC3906543E0948F
:101FE40014906542E09400402BE4F0A3F09064EC7C
:101FF4001239C89064EC1204487FE87E039064ECC4
:102004001239D9400F201C0C9064EC1204540000C7
:042014000000D21CDA
:1020180030951620160F9064E81239C89064E812BB
:0B2028000448123710D2168002C216C6
:10203300D007D006D005D004D003D002D001D00001
:0B204300D0D0D082D083D0F0D0E032AB
:1008EE00602D63F100000000000000000000000019
:1008FE0000000000000000000000000000000000EA
:10090E0000000000000000000000000000000000D9
:10091E000043641E00000043642100000043642570
:10092E00000000C11B416428004164290041642479
:08093E000044642A00000000DF
:10319D0090642A12042074212FF582E43464F5839F
:1031AD00229064A5E0FF241EF582E43464F58322A9
:1031BD007D00EF75F00FA424F1F9746335F0FA7BFF
:1031CD000122E5822EF582E43583F58322E4F09029
:1031DD006424E014F090000F22906429E4F09064D0
:0931ED0028F02290642A02043C3F
:0E004E00906548EFF0123B68906548E0FF2295
:1038700078C2E2543FF2E254FCF2E24440F290712A
:1038800081E04404F0907175E04401F043AA20D235
:0B389000AF75D60175D59F75D21122CF
:03004B00021ACDC9
:101ACD00C0E0C0F0C083C082C0D075D000C000C0DF
:0D1ADD0001C002C003C004C005C006C00760
:101AEA009064BDE4F0E5D420E503021BEAE5D7F0F3
:101AFA00201B04E0B4A509906424E0C394034003C6
:101B0A00021BDD9064BDE0B4A515D21B1231E612AA
:101B1A003AAA90600C12045400000000123B8F9005
:101B2A006429E0B401089064BDE0906428F01231A1
:101B3A009DE06003021BEA9064BDE0FF1231F09061
:101B4A0063F175F00FEB120485EA75F00FA4258393
:101B5A00F583C083C082906429E0FE04F0D082D06D
:101B6A00831231CFEFF090600C1204540000000091
:101B7A00906428E0606AE0FFA3E06F7063906428D5
:101B8A00E0FB90642A120420741E2F1231B5EBF088
:101B9A00C21B1231E612319D7401F0906424E004F4
:101BAA00F090642A120420EF2401FFE43EFEE43D93
:101BBA00FDE43CFC90642A120448E47F03FEFDFC29
:101BCA001231F0C31203E9400A90642A1204540045
:101BDA00000000123AAA90600C120454000000009F
:101BEA00D007D006D005D004D003D002D001D0004F
:0B1BFA00D0D0D082D083D0F0D0E032F9
:0D3B6800E5D430E4FB8FD7E5D430E4FB2238
:101D3000E49064A5F0A3F0C21F7F0AFEFDFC906052
:101D40000C12043CD31203E94019123AAA90600C19
:101D500012045400000000E4906429F0906428F01C
:101D6000C21B22E49064A5F09064A5E0FFC3940335
:101D70004003021E5374212F1231A6E07003021E8D
:101D80004A9064A5E075F00FA424F2F582E4346370
:101D9000F583E0FE741E2F1231B5E06E601A906478
:101DA000A5E024211231A61231DAC083C08212319B
:081DB000BDD007D00602054377
:101DB800E49064A7F09064A6F0A3F01231AEE014AA
:101DC800FE9064A7E0FDC39E5022EF75F00FA42497
:101DD800F1F582E43463F583E5822D1231D2E0FF18
:101DE8009064A6E02FF0A3E004F080CF9064A6E012
:101DF800F01231AEE0FEEF75F00FA424F0F582E4A6
:101E08003463F5831231CFE0FF9064A6E06F60027F
:021E1800D21FD7
:101E1A00301F1DC21F9064A5E0FF24211231A612B3
:101E2A0031DAC083C0821231BDD007D00612054311
:101E3A009064A5E02425F582E43464F5837401F006
:091E4A009064A5E004F0021D689B
:011E5300226C
:050946004265440000C1
:1039E30012028D9064AD1204489064AD02042090DD
:0B39F3007123E05498F0E0441EF02225
:1038C60078C3E24403F2E2440CF218E2440CF278C4
:1038D6006AE24478F27591FF1239F2907122740708
:0838E600F0439E70439940225B
:1034A0005399E0EF24FE601714601C2402702690EC
:1034B0007123E054D8F0E0445AF043990480161286
:1034C00039F2439905800E907123E054D8F0E0441E
:1034D00059F04399017869E24448F27F017E000285
:0234E00039AD04
:100027007869E24401F2786BE230E1FA7402F2AFE8
:1000370093EF75F010A4FFAEF0E594C4540FFDEFF5
:030047004DFF2248
:10220800E49064ABF0A3F0A312045400000000E4CF
:102218009064B1F0A3F074FFA3F0A3F0E4A3F0F08E
:102228001200279064ABEEF0A3EFF09064B5E0C322
:10223800940240549064B1E0FEA3E0FF9064ABE0E8
:10224800FCA3E0FDD39FEC9E40089064B1ECF0A3A2
:10225800EDF09064B3E0FEA3E0FFC3ED9FEC9E5069
:102268000F9064ABE0FFA3E09064B3CFF0A3EFF06E
:102278009064AD12043C9064ABE0FEA3E0FFE4FC84
:10228800FD120280A31204489064B5E004F0E0C394
:102298009414408C1239ECC006C0079064B1E0FE7B
:1022A800A3E0FBAA06E4F9F8D007D0061239E3C088
:1022B80006C0079064B3E0FEA3E0FBAA06E4F8D0EA
:1022C80007D0061239E378041203FA9064ABEEF0F3
:0322D800A3EFF081
:0122DB0022E0
:103A880075AF3F8FAF75AEB975A402E5A530E1FB00
:013A9800220B
:103749009064AA1204B175AF3F8FAF9064ADE0C326
:1037590094014022E5A530E0FB9064AAE475F001EC
:1037690012049A120156F5A675AEB975A4019064B2
:07377900ADE014F080D52241
:103780009064A61204B19064A9E06027AE070FEE22
:103790002400FDE4343F8D82F583E493FE9064A61B
:1037A000E475F00112049AEE1201CF9064A9E014BE
:0437B000F080D322B0
:10381600A3F078E3E254FCF2E24401F2907192E400
:10382600F0229064B6E004F0E0C3940822C2A4C279
:0E38360096D2977F04FE22FFE0FEA80708222C
:10308900E4FF78D3E2543FF2E24440F290718DE4D8
:10309900F0E254CFF2E24410F290718CE4F012386D
:1030A90018C297C2961231F6EF7030FD7F8C122547
:1030B900EA7D017F881225EA7D017F861225EA7D56
:1030C900017F8A1225EAE4FD7F821225EAE4FD7F69
:0B30D900841225EAE4FD7F801225EA46
:0130E40022C9
:1039FE00E4FDEE25E0FEEF30E004EE4401FEEFC301
:093A0E0013FF0DEDB408EBAF0647
:013A1700228C
:022E8100AC079C
:102E8300E49064AAF0AF051239FEEC64816019EC9A
:102E930064836014EC6485600FEC6487600AEC64FF
:082EA300896005EC648D7043A9
:102EAB00E49064ABF0A3F0EC64816004ECB48306B3
:102EBB00EF547FFF8017EC64856004ECB48706EF5A
:102ECB00543FFF8008ECB48904EF541FFFEFC45448
:102EDB000FFE9064ABF0EF540FFFA3F0EE75F00A0A
:032EEB00A42FFF12
:012EEE0022C1
:052AE0009064AAEFF074
:102AE500E4A3F0123816123833123BB3E49064AC09
:102AF500F0122B549064ACE09064AA12383D800229
:102B0500C313D8FC30E004D2A48002C2A47F047EA3
:102B150000123BB3122B5E40D878E3E254FCF27806
:102B2500E0E24410F2E49064ACF09064ABE025E0A0
:102B3500F0122B5430A4079064ABE04401F0122B43
:0E2B45005E40E7C296C297C2A49064ABE0FF68
:102B530022C2967F047E00123BB322D2967F047E6C
:0F2B630000123BB39064ACE004F0E0C39408228E
:053A61009064A9EFF0E4
:103A6600E4FE122AE0AE079064A9E0FFAD06022E3E
:013A760081CE
:082B72009064B4EFF0A3EDF054
:102B7A00E4123816123833123BB3E49064B6F012FA
:102B8A002BF89064B6E09064B412383D8002C31307
:102B9A00D8FC30E004D2A48002C2A4122BE7123877
:102BAA002840DCE49064B6F0122BF89064B6E0FF9B
:102BBA009064B5E0FEA807088002C313D8FC30E091
:102BCA0004D2A48002C2A4122BE712382840D9C228
:0C2BDA00967F047E00123BB3C297C2A499
:102BE600227F047E00123BB3D2967F047E00123B06
:0C2BF600B322C2967F047E00123BB32283
:1031F600123415D390646CE0943390646BE09408B9
:10320600503CC3A3E094D090646BE09407402F90A9
:10321600646DE0D3940C5026E0C394014020A3E0F3
:10322600D3941F5019E0C394014013A3E0D394181C
:10323600500CA3E0943C5006A3E0943C40037F006E
:04324600227F0122C0
:0525EA009064B0EFF069
:1025EF00A3EDF0EF6480601D9064B0E0FF64826043
:1025FF0014EF6484600FEF6486600AEF64886005EF
:05260F00EF648C706C0B
:10261400E49064B2F0A3F09064B1E0FFC3940A4084
:1026240007EF75F00A84A3F09064B1E075F00A84B2
:10263400AFF09064B3EFF09064B2E0FEC454F04F96
:102644009064B1F09064B0E0FF64806004EFB48201
:10265400099064B1E0547FF080229064B0E0FF649C
:10266400846004EFB486099064B1E0543FF0800CB8
:0C2674009064B0E0B48805A3E0541FF0AF
:10268000E4FD7F8E122B729064B0E0FFA3E0FD1298
:092690002B727D807F8E022B72FB
:10352200906537E0FD7F801225EA906536E0FD7FE9
:10353200821225EA906535E0FD7F841225EA9065C6
:1035420034E0FD7F861225EA906533E0FD7F881224
:0F35520025EA906531A3E02430FD7F8C0225EA45
:103561009064A9A3E02430FD7F8C1225EA9064AB1E
:10357100E0FD7F881225EA9064ACE0FD7F8612258C
:10358100EA9064ADE0FD7F841225EA9064AEE0FD2F
:0F3591007F821225EA9064AFE0FD7F800225EA79
:103415007F81123A61906471EFF07F83123A619077
:103425006470EFF07F85123A6190646FEFF07F87EB
:10343500123A6190646EEFF07F89123A6190646D83
:10344500EFF07F8D123A61EF24D0FEE434079064EB
:063455006BF0A3CEF02293
:04094B0041653D00C5
:103911009064A5F090653E02049190000612016F3B
:10392100FE90000802016F9000091201E190000C65
:013931002273
:10153000E49064A5F07FFFA374FFF090653E120471
:10154000B190000112016FFE120156FDEEC39D50D5
:10155000030216C2123915900001E41201E1900055
:101560000E1204BA120510EFF4600890653D742362
:10157000F0800990653DE06003E014F012391590A9
:10158000000312016F6F601590000512016F600D6E
:10159000900004E41201E19000030216BE900005E1
:1015A00012016FFE90000412016FC39E500B12399E
:1015B00015900004740102019C123915900002126A
:1015C000016F6F6048EFF4701C12391BC39E400A14
:1015D0007405123911900002806112391590000AC9
:1015E00074010216B5123915900008740112392BD6
:1015F00012016F6F90653E600C12049174011239F4
:1016000028EF0216B5120491900009803DEFF470A6
:101610004112391590000912016FD3940050030252
:1016200016B890000B12016FFE90000A12016FD3E2
:101630009E4011740112391190000C12016F9064D8
:10164000A6F0805412391590000A740112019C0210
:1016500016B8123915123922C394FF5008900008A9
:10166000740112019C12391BB506089064A574031D
:10167000F0802012391590000712391E6E703990D3
:1016800064A5740412391490000612016F900008CA
:101690001201E19064A6EFF0123915E412392874B2
:1016A000FF1201E19064A6E09000111201E1906444
:1016B000A5E09000121201E1123915900002EF121C
:0216C00001E146
:0116C2002205
:10365A0078E2E2543FF2E24440F2907191E0F012D3
:10366A003A491236D412387012389B12361D123B60
:10367A0075123B821238C6122A4E1230891234E26F
:0D368A00123ABA123A777F017E000239AD84
:10302A0012212C75D95590715EE054FEF075D9BB0A
:10303A0012365AD2A37FE87E031239ADC2A375D9DC
:10304A00AA12393275D9AA7B017A6379AC12153082
:10305A0012247C7B017A6479861215301227EA12CF
:10306A0022DC12204E122C02121E54122536121D78
:0F307A0030121843120D75121C0575D9AA80BFAC
:10094F006027645F0000000000000000000000004E
:10095F000000000000000000000000000000000088
:0B096F0000000000000000000000007D
:0C3B9B007B017A64795F740CF0E4FF2277
:103A49007E007F277D007B017A64795F12054390B0
:083A590064A9123B9B023780B7
:0E3ACA00E4FF123A889064AD123B9B0237492C
:1035DF00FEE02FFFEC3EFEA3E02FFFEC3EFE22FAB3
:1035EF001204207E00EB2FFFEE3AFE3395E0FDFC38
:1035FF00221203FA7E009064A9E022FC9064AE02CE
:0E360F0004489064AE0204209064AA020420D5
:050FBC009064A9EFF0B4
:100FC1009064AE120454000000007FA5123B681229
:100FD1003611EF24A5FFE43EFEE43DFDE43C12366C
:100FE1000A9064A9E0FF64016032EF6402602DEFB2
:100FF10064036028EF64046023EF6405601EEF64FE
:10100100066019EF64096014EF640A600FEF641160
:10101100600AEF64126005EF641370207F051211FE
:101021009C1211AEC0001236171236032405FDE4DE
:1010310033CD2FFFEE3D1235F90211669064A9E020
:10104100FF6407600AEF64086005EF641070337F86
:1010510006123B689064A9E0FF1211841211AEC020
:1010610000C002C00312361778081236002406FDAC
:10107100E433CD2FFBEE3DA31235EED003D00202B7
:1010810011669064A9E0FF640B600FEF640C600AC5
:10109100EF64146005EF640D70467F0712119C78B0
:1010A100101203FA1211841211B8C000C002C00359
:1010B10012361778101236002407FDE433CD2FFBCA
:1010C100EE3DFAA312042078081203FA7E00EB2FFA
:1010D100FBEE3A9064AA1235EED003D002021166FB
:1010E1009064A9E0640E600302116E7F0B123B68ED
:1010F1007F0E123B6890646BE0FF123B6890646B5B
:10110100E0A3E0FF123B6890646DE0FF123B689042
:10111100646EE0FF123B6890646FE0FF123B6890E1
:101121006470E0FF123B68906471E0FF1211B8C077
:1011310000C001C002C00390646BE02419FFE433D6
:10114100FEE0A3E07C002FFFEC3E90646D1235DFE2
:10115100A3E02FFFEC3EA31235DF3395E0FDFCD079
:1011610003D002D001D00012028012360B123611C8
:10117100E4FEFD12360A123611123B687F017E0031
:031181000239AD83
:10118400123B689064AA12042078081203FA123BF6
:10119400689064AA12042022123B689064A9E0FFBC
:1011A400123B689064AA12042022123B689064AE39
:0E11B40012043C22123B689064AE12043C22EE
:05097A0042654600008B
:10389B00123B27123B34123B41123B4E123B5B1245
:1038AB003B1A123B0D123B00123AF3123AE678E246
:0B38BB00E254FCF278E0E24401F2224B
:10274200C3906547E094C8906546E0940050030248
:1027520027E9E4F0A3F090648030A503F0800374CD
:1027620001F0D20430A207E4906481F08006906404
:10277200817401F0D20530A107E4906482F08006F2
:102782009064827401F0D206208607E490647CF0A3
:10279200804020870890647C7401F0803520900886
:1027A20090647C7402F0802A20930890647C740305
:1027B200F0801F20940890647C7404F0801420B090
:1027C2000890647C7405F0800920A70690647C74EC
:1027D20006F0D20120A00790648474018004E49082
:0827E2006484F0A3F0D20A2286
:10097F00C11C4464E8000000004464EC0000000067
:0E098F004464F0000000004464F40000000026
:0C3BA700E4FDFC02043C12043C0202801D
:0D3B750078D3E254F3F278D0E24420F2223B
:103710009064F01204209064EC123BAD9064F012BF
:1037200004489064EC120454000000009064F41209
:1037300004209064E8123BAD9064F4120448906455
:09374000E812045400000000220C
:1022DC009064A5120454000000009064A9120454E8
:1022EC00000000007FBC7E029064F0123BA7C3127A
:1022FC0003E95006201C030223AB7F6D7E0590641E
:10230C00F4123BA712029BE47B04FAF9F8120326A1
:10231C009064A9120448301C0C9064A5120454005B
:10232C000000008027E47F24FEFDFC9064A91204C9
:10233C003C12029BE47B0AFAF9F81203269064F033
:10234C0012043C1203269064A51204489064DE1219
:10235C0004209064A9123BAD9064DE120448906492
:10236C00F4120454000000009064F01204540000B5
:10237C000000C21C9064A5120420906476120448DC
:10238C00E47FE77E03FDFC90647612043CD31203D9
:0F239C00E9400A906476120454000003E7D20867
:0123AB00220F
:10099D004464F8000000004464FC0000000044655D
:0E09AD00000000000044650400000000C11DB1
:063BC600E4FDFC02043CDA
:0D3B820078C2E254CFF278C0E24404F2228F
:1035A0009065001204209064F812043C120280908E
:1035B00065001204489064F8120454000000009062
:1035C00065041204209064FC12043C120280906591
:0F35D000041204489064FC12045400000000220E
:102C02009064A5120454000000007FF47E019065D8
:102C120004123BC6C31203E95003301D6C301D0C75
:102C22009064A512045400000000801C7F607EEABC
:102C3200906500123BC612029B90650412043C127E
:102C420003269064A5120448906500120454000003
:102C5200000090650412045400000000C21DE47FCD
:102C6200FF7EFFFDFC9064A512043CC31203E94001
:102C72000A9064A51204540000FFFF9064A5120498
:092C820020906472120448D2078C
:012C8B002226
:1009BB004464E2000000004464DE00000000426476
:1009CB00E600004464D6000000004464DA00000036
:0109DB00001B
:1037E600120420EF2401FFE43EFEE43DFDE43CFC30
:1037F600227F7F7E967D987C0012043CC30203E9FB
:1038060012042012028DE47B64FAF9F8C30203E97C
:10204E00E47F307E75FDFC9064E21237FF400D9008
:10205E0064E212045400000000123ACAE47FE87EE3
:10206E0003FDFC9064DE1237FF40617F187EC67D53
:10207E009A7C3B90645F1237FF500C90645F12376E
:10208E00E690645F1204489064631237F7500C9028
:10209E0064631237E69064631204489064671237E3
:1020AE00F7500C9064671237E690646712044890FC
:1020BE0064DE120420C3EF94E8FFEE9403FEED9469
:1020CE0000FDEC9400FC9064DE1204489064D6127D
:1020DE00043C90645F123806500E90645F12042028
:1020EE009064D6120448D20C9064DA12043C9064C8
:1020FE0063123806500E9064631204209064DA1254
:10210E000448D20DC39064E7E094889064E6E094AE
:0D211E0013400AE4F0A3F0D20CD20DD20E53
:01212B002291
:1009DC00C100C101C102C103C104C105C106C107E7
:1009EC00C108C109C10CC10DC10EC10FC110C1118B
:1009FC00C112C113C11441652000426521000041A0
:100A0C0065230041652400426525000042652700EE
:010A1C0000D9
:1033CD0090647CE0FFE4FCFDFE9064AA020448904A
:1033DD006463E47B64FAF9F8120420020326906416
:1033ED00A5E075F00FA42290647AE0FEA3E0FFE45F
:1033FD00FCFD22E47BE87A03F9F890645F22906487
:08340D00A5E0FF75F00FA422F9
:10184300E49064A5F0F09064A5E0FFC39403400323
:1018530002199074252FF582E43464F583E0700354
:101863000219871233EB24F3F582E43463F583E042
:101873001204EA18928018978B189C8C18A68E185D
:10188300A194192D9819319919359A00001937D255
:1018930000021937D20C021937D20D021937D20EB2
:1018A300021937D20FEF75F00FA424F5F582E43453
:1018B30063F583E0FDEF75F00FA424F4F582E434BF
:1018C30063F583E02DFEE43390646BF0A3CEF01256
:1018D300340B24F6F582E43463F583E090646DF011
:1018E300EF75F00FA424F7F582E43463F583E090F9
:1018F300646EF012340B24F8F582E43463F583E06C
:1019030090646FF0EF75F00FA424F9F582E434636B
:10191300F583E0906470F01233EB24FAF582E4343B
:1019230063F583E0906471F0800AD2128006D213CB
:101933008002D214906424E0D394004003E014F0B6
:101943009064A5E0FF2425F582E43464F583E4F094
:10195300741E2FF582E43464F583E4F074212FF5CB
:1019630082E43464F583E4F0FE7F0FC006C007FD14
:101973001233EB24F1F9746335F0FA7B01D007D00D
:0D198300061205439064A5E004F002184927
:011990002234
:060D7500200003020E47FE
:100D7B009064A512045400000000C200906520E0AE
:100D8B006003020E4704F01233CD7F01120FBC90AB
:100D9B00647D1233D07F02120FBC90647E1233D06D
:100DAB007F03120FBC9064801233D07F04120FBCF0
:100DBB009064811233D07F05120FBC906482123382
:100DCB00D07F06120FBC9064721204201233D67FB0
:100DDB0007120FBC9064761204201233D67F0812D0
:100DEB000FBC90647F1233D07F09120FBC123400FA
:100DFB001233E51233D67F0B120FBC1233DC1233D6
:100E0B00D67F0C120FBC1234159064AA1204540036
:100E1B000000007F0E120FBC1233F41233D67F107A
:100E2B00120FBC9064831233D07F11120FBC9064ED
:0C0E3B00671233DF1233D67F14120FBC95
:100E470030010AC2011233CD7F01120FBC30020DEF
:100E5700C20290647D1233D07F02120FBC30040DA2
:100E6700C2049064801233D07F04120FBC30050D8A
:100E7700C2059064811233D07F05120FBC30060D76
:100E8700C2069064821233D07F06120FBC3007105F
:100E9700C2079064721204201233D67F07120FBC68
:100EA700300810C2089064761204201233D67F08E7
:100EB700120FBC30090DC20990647F1233D07F092D
:100EC700120FBC300A18C20A9064841233D07F1202
:100ED700120FBC9064851233D07F13120FBC300CF5
:100EE70010C20C1234001233E51233D67F0B120FE7
:100EF700BC300D0DC20D1233DC1233D67F0C120F2E
:100F0700BC300E16C20EE47B64FAF9F890646712DF
:100F170033E51233D67F14120FBC300F23C20F9064
:100F27006523E0701B78A97C647D017B017A647975
:100F37006BFE7F071201301235619065237401F053
:100F470030100DC2101233F41233D67F10120FBCBB
:100F570030110DC2119064831233D07F11120FBC70
:100F6700301219C21290645F1204540000000090FE
:100F770064DE12045400000000123ACA301319C28A
:100F870013906463120454000000009064DE12049E
:100F97005400000000123ACA301419C21490646752
:100FA700120454000000009064DE12045400000094
:050FB70000123ACA22FD
:100A1D005463BF0001015300020473000307530028
:100A2D0004091D00050CED5E63D3010102030405ED
:100A3D0002060708090A030B0C0D0E0F0410111204
:100A4D0013140515161718195363AC0A000000008E
:0E0A5D00033241000000000001FF37B400002A
:0F000F00EC75F006A424D3F582E43463F5832264
:10333800E4FD9064A7F0A374FFF0ED25E025E024F8
:10334800C1F582E43463F583E0FAA3E0D39FEA9EF3
:10335800401CED25E025E024BFF582E43463F583C5
:10336800E0FFA3E09064A7CFF0A3EFF080050DED98
:0B337800B405C79064A7E0FEA3E0FFCF
:013383002227
:1038EE00E4FEFC12000FE0B5071112000FE5822D69
:1038FE00F582E43583F583E0FE80050CECB405E338
:02390E00AF0602
:013910002294
:1037B400E49064A5F0A3F07F021234A012002790D5
:1037C40064A5EEF0A3EFF09064A5E0FEA3E0FF1281
:1037D40033389064A5EEF0A3EFF09064A5E0A3E085
:0137E400FFE5
:0137E50022C1
:10247C009063BDE07003022535E0FFA3E0FD123848
:10248C00EEE49063BDF0A3F0EF1204EA24BA012449
:10249C00C60424D20624DE0924EA0B24F60E2502F7
:1024AC0010250E13251A15252618000025359064C5
:1024BC00AA120454000000CF806A9064AA1204543B
:1024CC00000100CF805E9064AA120454000000D278
:1024DC0080529064AA120454000100D28046906489
:1024EC00AA120454000000D1803A9064AA12045439
:1024FC00000100D1802E9064AA1204540000007FC9
:10250C0080229064AA1204540001007F801690640B
:10251C00AA120454000000D0800A9064AA12045439
:09252C00000100D07F0D120FBC6C
:012535002283
:100A6B0044643000000000C117C118426434000018
:100A7B006028643600000000000000000000000049
:100A8B00000000000000000000000000000000005B
:100A9B0000000000000000000000000041645E0048
:080AAB0041642F0041642E009C
:10314100FEE434FFFDE434FFFCE4FAF9F812029BDB
:10315100E4229064ABE0FEA3E0FF227A01F9F812C9
:103161000326AD07C322FEE434FFFDE434FFFCE493
:103171002225E02436F582E43464F583229064A5A7
:10318100E090647FF022FDFC90643012043CC302A5
:0C31910003E99064ABA3EF2467FFEE227B
:042F5C00AB07AA060F
:102F6000E4906538F0A312045400000000AE02AFF4
:102F70000390645EE0FD04F0ED123172EEF0A3EF19
:102F8000F090645EE0C394144002E4F0E49065388D
:102F9000F090653912043C906538E0123172E0FE21
:102FA000A3E0FFE4FCFD1202809065391204489012
:102FB0006538E004F0E0B414D8E47B14FAF9F89032
:082FC00065391204200203260A
:103A9900E4FDED123172EEF0A3EFF00DEDB414F286
:013AA90022FA
:0816C3009064ABEEF0A3EFF020
:1016CB00E4FDC3EF940BEE940E500A12315394F4D5
:1016DB00EE940150057DFF021840D3EF9400EE9479
:1016EB000E4005E4FD021840D3EF9466EE940650CD
:1016FB00057D64021840D3EF9400EE940E5024EF56
:10170B009433EE940D401C123153EF24CDFFEE3485
:10171B00F27B121231417BCDFA12315E74129DFDB8
:10172B00021840123153D39433EE940D502FEF9493
:10173B00B8EE940C40279064ABA3EF2448FFEE3433
:10174B00F37B221231417B7BFA12315E74229DFDB9
:10175B00C3941240030218407D12021840123153F9
:10176B00D394B8EE940C5031EF9433EE940B402994
:10177B009064ABA3EF24CDFFEE34F41231677B33CF
:10178B0012314B7B8512315C74339DFDC394224027
:10179B00030218407D22021840123153D39433EECA
:1017AB00940B5028EF9499EE940940201231933406
:1017BB00F61231677B4412314B7B9A12315C7444C5
:1017CB009DFDC39433506E7D33021840123153D3B9
:1017DB009499EE94095028EF9499EE9407402012B7
:1017EB00319334F81231677B5412314BFB7A02126E
:1017FB00315E74549DFDC39444503A7D448036123F
:10180B003153D39499EE9407502BEF9466EE9406D4
:10181B0040239064ABA3EF249AFFEE34F9123167A7
:10182B007B6412314B7B3312315C74649DFDC3942A
:07183B005450027D54AF057B
:011842002283
:1030E500E4FEEF70028052EFC39401400AEFD394DF
:1030F5001150047E018042EFC39412400AEFD3942D
:103105002150047E028032EFC39422400AEFD3940B
:103115003250047E038022EFC39433400AEFD394E8
:103125004350047E048012EFC39444400AEFD394C5
:0B3135005350047E0580027E06AF06AA
:01314000226C
:091E5400E49064A5F0A3F0A3F0F2
:101E5D0090642EE0704A7FF47E01123187404190EC
:101E6D00643012045400000000122208906544EE04
:101E7D00F0A3EFF0123A99906544E0FEA3E0FF90D5
:101E8D0064A6EEF0A3EFF0121F4D90642FEFF01249
:101E9D00317EE49064A6F0A3F0D20990642E04F094
:0D1EAD00E47FE87E031231875003021F4CD2
:101EBA00E49064A8F090643012045400000000908A
:101ECA0064A6E0FEA3E0FF121F4D9064A8EFF09015
:101EDA00642FE0FE6F6004D2188007C21812317EA8
:0F1EEA00D20930175DC2179064A8E0FF6E604EFA
:101EF90090642FE0FED39F400BEED394004011E095
:101F090014F0800CEEC39406500690642FE004F0A0
:0F1F1900E49064A9F09064A9E0FFC394FF501F07
:101F28001230E5A3EFF090642FE0B5070A9064A99A
:071F3800E09064A5F08008B1
:081F3F009064A9E004F080D7D2
:051F470012317ED209F9
:0D1F4C00221216C39064A5EFF01230E522BA
:100AB3004465080000000044650C00000000446524
:050AC30010000000001E
:10398F00EF2401FFE43EFEE43DFDE43CFC0204486D
:0E399F00E47FE27E04FDFC12043CC30203E957
:1023AC007F041234A0122208906544EEF0FAA3EFD9
:1023BC00F0FB906510120420EF2408FFE43EFEE4CD
:1023CC003DFDE43CFC906510120448D3EB9400EA0C
:1023DC00940890650C501512042090650C12398FDE
:1023EC009065081204540000000080071204540089
:1023FC0000000090650C12399F401190650C12047E
:10240C005400000000E4906483F0D211C390654541
:10241C00E094C7906544E0940B9065084015120455
:10242C002090650812398F90650C1204540000003E
:10243C000080071204540000000090650812399FB8
:10244C0040129065081204540000000090648374DC
:10245C0001F0D211E47FE87E03FDFC906510123987
:0F246C00A6400C90651012045400000000D2111D
:01247B00223E
:100AC80044651C00000000446514000000004465F3
:070AD8001800000000C19EA0
:1032E90090651812042090651412043C120326906C
:1032F90065181204489065180204209064A7E090AC
:10330900647DF09064A5E0FFA3E090647ACFF0A318
:10331900EFF0D210D202229064A5EEF0A3EFF09064
:0F33290064A5A3E0FF123AD8A3EFF09065182235
:103A18007C0A7D50120516E47B0AFAF9F81203268F
:093A2800E4FB7A10F9F802032610
:0E3AD8007E007C007D641202037D96020215C2
:10253600E49064A5F0A3F0A3F07F011234A09065A7
:102546001812043CC000C001C002C003122208E4F5
:10255600FCFDD003D002D001D00012028090651895
:10256600120448906514120420EF2401FFE43EFE95
:10257600E43DFDE43CFC906514120448301E2A122A
:1025860032E9123A18123320120454000000009067
:1025960065141204540000000090651C12045400D7
:1025A600000000123304C21E22E47FB87E0BFDFC3D
:1025B60090651C12043CC31203E940271232E9124B
:1025C6003A181233201204540000000090651412C9
:1025D60004540000000090651C1204540000000022
:0325E600123304A9
:0125E90022CF
:100ADF004C649901010203040502060708090A5331
:100AEF0064860A000000000364AF000000000002EB
:050AFF00FF338400003C
:10395200E4FFFDFCAB1BAA1AA919A818C30203E9CC
:0F396200EE75F006A42499F582E43464F583220F
:103384009064A5120454000000009064A974FFF036
:10339400AF1BAE1AAD19AC189064A51204487E0296
:1033A40012395270079064A904F0800D7E0412391A
:1033B4005270069064A97402F09064A5120454003B
:0833C4000000009064A9E0FF85
:0133CC0022DE
:10384400E49064A5F0FE123962E0B50714123962FF
:10385400E5822DF582E43583F583E09064A5F0805C
:0B386400050EEEB402E09064A5E0FF4A
:01386F002236
:1027EA00906497E07003022885E0FFA3E0FD1238A9
:1027FA0044E4906497F0A3F0EF1204EA2822012837
:10280A002E03283A04284605285206285E08286A14
:10281A000928760A000028859064AA120454000048
:10282A00004780529064AA1204540001004780466F
:10283A009064AA12045400020047803A9064AA12D3
:10284A00045400030047802E9064AA120454000026
:10285A00004880229064AA1204540001004880169D
:10286A009064AA12045400020048800A9064AA12D2
:0B287A000454000300487F0D120FBC47
:012885002230
:100B040041601801426019000041601B0041601CF3
:0E0B14000041601D0041601E7F42601FFFFF18
:10369700E4F561AE3EAD3DAC3C853F178E168D150A
:1036A7008C14787EE254FCF2E24514F218E515F228
:1036B70018E516F218E517F2787FE254FBF2E254A8
:0D36C700FB4404F2E24401F27F01022C8C6E
:100B23009064A5EFF0E0FF24C0F582E43464F5831C
:100B3300E004F074C22FF582E43464F583E4F074C6
:100B4300C02FF582E43464F583E0C3956350030258
:100B53000D749064A5E0FB24C0F582E43464F5834E
:100B6300E4F09039829364016003020D257F01FE56
:100B7300FDFC74C42BF582E43464F583E0F9F812C8
:100B8300040DE51F4FF51FE51E4EF51EE51D4DF542
:100B93001DE51C4CF51CAF1FAE1EAD1DFC780112EC
:100BA30003FAEF5455FBEE5455FAED5455F9EC5452
:100BB30055F8C3E51F9BF53BE51E9AF53AE51D99EC
:100BC300F539E51C98F538AF3BAE3AAD39FC780200
:100BD3001203FAEF5433FBEE5433FAED5433F9ECCA
:100BE3005433F8E53B5433FFE53A5433FEE53954C7
:100BF30033FDE5385433FCEB2FF53BEA3EF53AE998
:100C03003DF539E83CF538AF3BAE3AAD39FC7804F5
:100C13001203FAEF253BFFEE353AFEED3539FDECD5
:100C23003538FCEF540FF53BEE540FF53AED540F06
:100C3300F539EC540FF538AF3BAE3AAD39FC7808D3
:100C43001203FAEF253BFFEE353AED3539FDEC356E
:100C530038EFF53BE4F53AEDF539E4F538AE3AAC67
:100C63003878101203FAEF253BFFEE353AFEEFF525
:100C73003BEEF53AE4F539F5389064A5E025E02438
:100C8300CEF582E43464F583E0FEA3E0D39553EE1E
:100C9300955240249064A5E0FF25E024CEF582E43C
:100CA3003464F583E0F552A3E0F55374C42FF58261
:100CB300E43464F583E0F564903982E493FFE4FC63
:100CC300FDFEAB3BAA3AA939A838D31203E9405237
:100CD300AF650565D3EF9403748094805003020DD0
:100CE30074E4F565F51FF51EF51DF51C7F01FEFD8A
:100CF300FCA964A80112040D8F1B8E1A8D198C1880
:100D0300E47F01FEFDFCA80112040D8F338E328DAA
:100D1300318C30E4F552F553756420122D104337AE
:100D23000222E4F5657F01FEFDFC9064A5E0FB244F
:100D3300C4F582E43464F583E0F9F812040DE51B8D
:100D43004FF51BE51A4EF51AE5194DF519E5184C43
:100D5300F518E47F01FEFDFCA80312040DE5334FF3
:100D6300F533E5324EF532E5314DF531E5304CF5ED
:020D730030222C
:10058D00E4F566903986E493FFE566C39F40030268
:10059D0008CBE56625E02400F582E4346085828A87
:1005AD007F548F8B7E0E8E8C758903758889E566D9
:1005BD0025E02400F582E4346085828A8F8B758C6A
:1005CD0012758904758889E56625E02408F582E4AD
:1005DD003460F583E0FCA3E0C3950FEC950E502E2F
:1005ED00E56625E02414F582E43460F583E0FCA390
:1005FD00E0C39513EC95125015AF600560EF9402B2
:10060D0074809480400BE4F5605337FD8003E4F56E
:10061D0060E53730E125E56625E024CEF582E4344A
:10062D0064F583E4F0A3F0E56625E024D2F582E4D9
:10063D003464F583E4F0A3F00206DBE56625E024DF
:10064D0008F582E4346085828A8E8B758C0A7589F3
:10065D00267588892088FDE5F130E00875F107E4FD
:10066D00F50AF50BAE0AE50B7802C333CE33CED8BF
:10067D00F9FFE56625E024CEF582E43464F583EEDA
:10068D00F0A3EFF0E56625E02414F582E4346085EF
:10069D00828A758B12758C0A7589277588892088D1
:1006AD00FDE5F130E00875F107E4F50AF50BAE0A4A
:1006BD00E50B7802C333CE33CED8F9FFE56625E0DE
:1006CD0024D2F582E43464F583EEF0A3EFF0E56611
:1006DD0025E024C6F582E43464F583E0FEA3E078DA
:1006ED0002CEC313CE13D8F9F5518E50E56625E031
:1006FD0024CEF582E43464F583E0FEA3E0FF903967
:10070D007EE493FC740193FDC3EF9DEE9C4017E5D1
:10071D006625E024D2F582E43464F583E0FEA3E09F
:10072D00C39DEE9C50028068E56625E024CEF582DF
:10073D00E43464F583E0FEA3E0C39551EE9550409B
:10074D001CE56625E024D2F582E43464F583E0FEF1
:10075D00A3E0C39551EE955040030207E774BE2503
:10076D0066F582E43464F583E004F074BE2566F525
:10077D0082E43464F583E0FF903983E493FEEFD394
:10078D009E406474BE2566F582E43464F583E4F01E
:10079D00E56625E02404F582E43460F583E0FEA3EC
:1007AD00E0FFE56625E02408F582E43460F583EE8C
:1007BD00F0A3EFF0E56625E02410F582E43460F552
:1007CD0083E0FEA3E0FFE56625E02414F582E43422
:1007DD0060F583EEF0A3EFF0800D74BE2566F58213
:1007ED00E43464F583E4F0E56625E02404F582E461
:1007FD00346085828AE56625E02400F582E4346064
:10080D0085828B758C0A7589207588CB2088FDE5CE
:10081D00F130E00875F107E4F50AF50BE56625E022
:10082D002404F582E4346085828A758B547F0E8FA3
:10083D008C7589237588897E0A8E8A8F8BE566254E
:10084D00E02404F582E4346085828CE4F5897588B2
:10085D0029E56625E02410F582E4346085828AE579
:10086D006625E02400F582E4346085828B8E8C75DC
:10087D0089207588CB2088FDE5F130E00875F107FA
:10088D00E4F50AF50BE56625E02410F582E4346005
:10089D0085828A758B547F0E8F8C75892475888916
:1008AD00758A0A8F8BE56625E02410F582E43460A5
:0F08BD0085828CE4F589758829056602059022ED
:1011C200E4F566903986E493FFE566C39F40030227
:1011D200137AE56625E024C6F582E43464F583E0FB
:1011E200FEA3E07802CEC313CE13D8F9F5518E5088
:1011F200E56625E024CEF582E43464F583E0FEA3BF
:10120200E0D39551EE9550402EE56625E024D2F5C7
:1012120082E43464F583E0FEA3E0D39551EE955069
:10122200401574C22566F582E43464F583E4F0AFB8
:1012320066120B23021375903985E493FFC3E551BF
:101242009FFFE5509400FED3EF9400EE940040021D
:1012520080047E007F00E56625E024CEF582E4343A
:1012620064F583E0FCA3E0C39FEC9E400302136895
:10127200903985E493FFC3E5519FFFE5509400FE4A
:10128200D3EF9400EE9400400280047E007F00E5DC
:101292006625E024D2F582E43464F583E0FCA3E021
:1012A200C39FEC9E400302136874C02566F582E476
:1012B2003464F583E4F074C22566F582E43464F59F
:1012C20083E004F074C22566F582E43464F583E0B9
:1012D200C39563500302137574C22566F582E43424
:1012E20064F583E4F07F01FEFDFC74C42566F5829B
:1012F200E43464F583E0F9F812040D1203B8E51F33
:101302005FF51FE51E5EF51EE51D5DF51DE51C5C26
:10131200F51CE47F01FEFDFCA966A80112040D1272
:1013220003B8E5335FF533E5325EF532E5315DF55D
:1013320031E5305CF530E47F01FEFDFC74C42566C6
:10134200F582E43464F583E0F9F812040D1203B86F
:10135200E51B5FF51BE51A5EF51AE5195DF519E562
:10136200185CF518800D74C22566F582E43464F5C4
:0913720083E4F005660211C522B6
:102D1000E4F566903986E493FFE566C39F506EE55F
:102D20006625E024CEF582E43464F583E4F0A3F074
:102D3000E56625E024D2F582E43464F583E4F0A36B
:102D4000F0E56625E02404F582E43460F583E0FED6
:102D5000A3E0FFE56625E02408F582E43460F5830E
:102D6000EEF0A3EFF0E56625E02410F582E4346090
:102D7000F583E0FEA3E0FFE56625E02414F582E498
:0E2D80003460F583EEF0A3EFF0056680862246
:1029BB00E4F566903986E493FFE566C39F50679014
:1029CB006018E0FF7E00C39410748094805053EF26
:1029DB009408748094804025E56625E02400F582F8
:1029EB00E43460F583E0FEA3E0FFE56625E0240414
:1029FB00F582E43460F583EE8FF012026AE566250A
:102A0B00E02400F582E43460F583E0FEA3E0FFE50B
:102A1B006625E02410F582E43460F583EE8FF01226
:102A2B00026A0566808D906018E0C39410748094E0
:102A3B008040054337048006906018E004F07F0166
:032A4B00022C8CCE
:102D8E00E4FFFEFDFCAB1BAA1AA919A818C3120377
:102D9E00E9606390601AE004F07006906019E00438
:102DAE00F090397AE493FE740193FF4E602ED39027
:102DBE00601AE09F906019E09E4021E4F0A3F0F5C8
:102DCE001FF51EF51DF51CF533F532F531F530F511
:102DDE001BF51AF519F518C21A022D1090397CE45C
:102DEE0093FE740193FFD390601AE09F906019E0F8
:0D2DFE009E400AD21A22E4906019F0A3F062
:012E0B0022A4
:05137B009064B8EFF0E2
:10138000A3E0FCA3E0FDA3E0FEA3E0F52B8E2A8DF5
:10139000298C287884E2F50A08E2F50B758A08752D
:1013A0008B28758C2475881D2088FDE4FFFEFDFCCC
:1013B000AB27AA26A925A824D31203D34006AC2420
:1013C000A8048013AF27AE26AD25AC241203C5AB0D
:1013D00007AA06A905A80490601FE0FEA3E0FFE4A9
:1013E000FCFDC31203D35041E4FFFEFDFCAB27AA72
:1013F00026A925A8241203D34006AF27AE26800BCA
:10140000AF27AE26AD25AC241203C590601FEEF0C9
:10141000A3EFF09064B8E025E024CAF582E43464D8
:10142000F583E0A3E090601EF0903977E493FE74BA
:101430000193FFD3906020E09F90601FE09E501BBF
:101440009064B8E025E024CAF582E43464F583E0D2
:10145000A3E090601EF090601B8079E4FFFEFDFC2D
:10146000AB27AA26A925A824D31203D3403490641D
:10147000B8E0FF25E024CAF582E43464F583E0FC9B
:10148000A3E0D39400EC9400404DEF25E024CAF58E
:1014900082E43464F58374FFF5F012026A90601CF4
:1014A00080329064B8E0FF25E024CAF582E4346419
:1014B000F583E0FCA3E0C3947FEC94005019EF2582
:1014C000E024CAF582E43464F583E475F001120285
:1014D0006A90601D7401F090601CE064017011A3BB
:1014E000E06401700B90601CF0A3F090601B04F0AE
:1014F00090601BE06401703590601EE0FF9064B85E
:10150000E025E024CAF582E43464F583E4F0A3EF37
:10151000F074FF90601FF0A3F090601E747FF0E401
:0F15200090601CF0A3F090601BF07F01227F0011
:01152F002299
:102FC800E49064B7F090397112042C780112040D62
:102FD8009064B9120448AF6112137BEF6022056157
:102FE800E53730E4095337EF9064B77401F090394E
:102FF80086E493FFE561C39F4006E4F5614337101B
:10300800C39039757401939562E4939400400890D5
:1030180064B7E064017005D219023697E4FF122CF8
:013028008C1B
:013029002284
:102C8C00EF70607F01FEFDFC74C42561F582E434B5
:102C9C0064F583E0F9F812040D8F178E168D158CE0
:102CAC0014787EE254FCF2E24514F218E515F218A1
:102CBC00E516F218E517F2E56125E024CAF582E481
:102CCC003464F583E0A3E0547FFF7878E254804FBE
:102CDC00F2787FE254FBF2E254FB4404F2E244014A
:102CEC00F2801CE56125E024CAF582E43464F583A6
:102CFC00E0A3E0547FFF7878E254804FF2787FE2D3
:042D0C004402F22269
:10288600E49064A5F0A3F09064A5E0FEA3E0FFC386
:102896009488EE94035031EF248DFFEE34058F8239
:1028A600F583E493FF9064A6E02421FD9064A5E0FF
:1028B60034608D82F583EFF09064A6E004F070C773
:0828C6009064A5E004F080BF5E
:1028CE009063A97401F0A37460F0A37421F0E4F591
:1028DE0061F537F536F535F534C219C21AF51FF51F
:1028EE001EF51DF51CF533F532F531F530F51BF5FA
:1028FE001AF519F51890398093FF903984E493FEF8
:10290E00A807088002C333D8FCF563756420E4FF82
:03291E00022C8CFC
:102E0C007884E2F50A08E2F50BAE0A7803CEC31318
:102E1C00CE13D8F97802C333CE33CED8F9FFE5619F
:102E2C0025E02400F582E43460F583EEF0A3EFF0A6
:102E3C0020190F903979E4937005D2190236970254
:102E4C002FC80561903986E493FFE561C39F401F4D
:102E5C00787FE254FBF2E254FB4404F2E24401F2C8
:102E6C00E4F561E53720E2030229BB433701227FF9
:052E7C0001122C8C2264
:053BCC000562022D8ED0
:10393200E53730E01A9063A9A3E0FAA3E0F9120593
:10394200101211C2E4F5617F01122C8C5337FE2252
:10293B0002302AE493A3F8E493A34003F68001F258
:10294B0008DFF48029E493A3F85407240CC8C3339D
:10295B00C4540F4420C8834004F456800146F6DF6C
:10296B00E4800B01020408102040809008CCE47E28
:10297B00019360BCA3FF543F30E509541FFEE49361
:10298B00A360010ECF54C025E060A840B8E493A328
:10299B00FAE493A3F8E493A3C8C582C8CAC583CA53
:1029AB00F0A3C8C582C8CAC583CADFE9DEE780BE0B
:010B220000D2
:10006000E709F608DFFA8046E709F208DFFA803E82
:1000700088828C83E709F0A3DFFA8032E309F6086F
:10008000DFFA8078E309F208DFFA807088828C83D7
:10009000E309F0A3DFFA806489828A83E0A3F6088B
:1000A000DFFA805889828A83E0A3F208DFFA804C65
:1000B00080D280FA80C680D4806980F2803380103C
:1000C00080A680EA809A80A880DA80E280CA8033A5
:1000D00089828A83ECFAE493A3C8C582C8CCC5831D
:1000E000CCF0A3C8C582C8CCC583CCDFE9DEE780ED
:1000F0000D89828A83E493A3F608DFF9ECFAA9F06C
:10010000EDFB2289828A83ECFAE0A3C8C582C8CCC1
:10011000C583CCF0A3C8C582C8CCC583CCDFEADEDA
:10012000E880DB89828A83E493A3F208DFF980CC3C
:1001300088F0EF60010E4E60C388F0ED2402B40435
:100140000050B9F582EB2402B4040050AF232345DC
:0601500082239000B07351
:10015600BB010689828A83E0225002E722BBFE02A7
:09016600E32289828A83E49322DA
:10016F00BB010CE58229F582E5833AF583E0225045
:10017F0006E92582F8E622BBFE06E92582F8E2228F
:0D018F00E58229F582E5833AF583E49322A9
:10019C00BB010FF8E58229F582E5833AF583E02867
:1001AC00F0225009C58229F8E58226F622BBFE0909
:1001BC00C58229F8E22582F222F8EA2583F583E943
:0301CC0093282253
:1001CF00BB010689828A83F0225002F722BBFE010F
:0201DF00F32209
:1001E100F8BB010DE58229F582E5833AF583E8F054
:1001F100225006E92582C8F622BBFE05E92582C800
:02020100F222E7
:10020300EF8DF0A4A8F0CF8CF0A428CE8DF0A42E0F
:02021300FE22C9
:10021500BC000BBE0029EF8DF084FFADF022E4CCCD
:10022500F875F008EF2FFFEE33FEEC33FCEE9DEC96
:10023500984005FCEE9DFE0FD5F0E9E4CEFD22EDDC
:10024500F8F5F0EE8420D21CFEADF075F008EF2F26
:10025500FFED33FD4007985006D5F0F222C398FD17
:050265000FD5F0EA22B4
:10026A00C5F0F8A3E028F0C5F0F8E582158270021F
:06027A001583E038F022BC
:0D028000EF2BFFEE3AFEED39FDEC38FC22CD
:0E028D00C3EF9BFFEE9AFEED99FDEC98FC226C
:10029B00E88FF0A4CC8BF0A42CFCE98EF0A42CFC02
:1002AB008AF0EDA42CFCEA8EF0A4CDA8F08BF0A480
:1002BB002DCC3825F0FDE98FF0A42CCD35F0FCEBDF
:1002CB008EF0A4FEA9F0EB8FF0A4CFC5F02ECD39A4
:0F02DB00FEE43CFCEAA42DCE35F0FDE43CFC2211
:1002EA0075F008758200EF2FFFEE33FECD33CDCCCB
:1002FA0033CCC58233C5829BED9AEC99E58298404E
:10030A000CF582EE9BFEED9AFDEC99FC0FD5F0D62A
:10031A00E4CEFBE4CDFAE4CCF9A88222B800C1B954
:10032A000059BA002DEC8BF084CFCECDFCE5F0CB92
:10033A00F97818EF2FFFEE33FEED33FDEC33FCEBCB
:10034A0033FB10D703994004EB99FB0FD8E5E4F986
:10035A00FA227818EF2FFFEE33FEED33FDEC33FC73
:10036A00C933C910D7059BE99A4007EC9BFCE99A67
:10037A00F90FD8E0E4C9FAE4CCFB2275F010EF2FAC
:10038A00FFEE33FEED33FDCC33CCC833C810D707AC
:10039A009BEC9AE899400AED9BFDEC9AFCE899F8E7
:0E03AA000FD5F0DAE4CDFBE4CCFAE4C8F9227A
:0D03B800CFF4CFCEF4CECDF4CDCCF4CC22DA
:0E03C500C3E49FFFE49EFEE49DFDE49CFC2249
:1003D300EB9FF5F0EA9E42F0E99D42F0EC6480C8A1
:0603E30064809845F02241
:1003E900EB9FF5F0EA9E42F0E99D42F0E89C45F06A
:0103F90022E1
:1003FA00E8600FECC313FCED13FDEE13FEEF13FFE1
:03040A00D8F12204
:10040D00E8600FEFC333FFEE33FEED33FDEC33FC4D
:03041D00D8F122F1
:0C042000E0FCA3E0FDA3E0FEA3E0FF224F
:10042C00E493FC740193FD740293FE740393FF2216
:0C043C00E0F8A3E0F9A3E0FAA3E0FB2243
:0C044800ECF0A3EDF0A3EEF0A3EFF02227
:10045400A8828583F0D083D08212046B12046B12BD
:10046400046B12046BE473E493A3C583C5F0C583E2
:10047400C8C582C8F0A3C583C5F0C583C8C582C8F2
:010484002255
:0C048500A42582F582E5F03583F5832282
:09049100E0FBA3E0FAA3E0F9226C
:10049A00F8E0FBA3A3E0F925F0F0E58215827002EB
:0704AA001583E0FA38F0228F
:0904B100EBF0A3EAF0A3E9F0224C
:1004BA00BB010DE58229F582E5833AF583020491B1
:1004CA005007E92582F802056FBBFE07E92582F885
:1004DA00020578E58229F582E5833AF583020581EA
:1004EA00D083D082F8E4937012740193700DA3A3A1
:1004FA0093F8740193F5828883E4737402936860B5
:06050A00EFA3A3A380DFB4
:060510008A838982E47376
:10051600EC8EF0A4CCC5F0CCCDF8EFA4CEC5F02D72
:10052600FDE43CFCE8A42EC8C5F03DFDE43CFCEF30
:0D053600A4FFE5F028FEE43DFDE43CFC22BE
:10054300EF4E6012EF60010EEDBB010B89828A83CF
:10055300F0A3DFFCDEFA2289F05007F709DFFCA9DC
:0C056300F022BBFEFCF309DFFCA9F02233
:09056F00E6FB08E6FA08E6F922B1
:09057800E2FB08E2FA08E2F922B4
:0C058100E493FB740193FA740293F922D6
:00000001FF
