:030000000227755F
:10277500787FE4F6D8FD9060007F007E07E4F0A343
:0A278500DFFCDEFA7581660227CA48
:0C000300000000000000000000000000F1
:0B3A9000EF1FAC0670011E4C70F62208
:10388800AB07AA06EB1BAE0270011A4E600C7FAAAA
:0B3898007E05123A9075D9AA80EA2242
:101F3A00907120E04480F07F057E00123A90E4FF21
:101F4A00FE12388875A75575AC5C9071327450F0E2
:101F5A009071307403F0907136742FF090715C7444
:101F6A0003F090715BE054FCF07F18EF2466FDE407
:101F7A0034718D82F583E4F00FEFB433EE904011A3
:101F8A00E4935407FF90711CE054F84FF090401707
:101F9A00E493547FFF90711DE054804FF0904010FD
:101FAA00E493FF5401C43333335480FE907123E029
:101FBA00547F4EF0EFC313543F4440FFA3E05480D4
:101FCA004FF0904012E493FF540FFE907146E05494
:101FDA00F04EF0EFC4540FFF90714FE054F04FF001
:101FEA00904013E493543FFF907140E054C04FF087
:101FFA00904014E493907126F0904015E493907108
:0B200A0028F0904016E49390712AF03B
:0120150022A8
:10384C00000009C4006400C80101F4004B000A0028
:0E385C0000010F0405020009000A000A000A1C
:1038F100E2FE74C12FF582E43464F583E02224FCF6
:0839010025E0FDF87403082223
:10198500E4FF1238F3C3940850581238F3C3940493
:10199500502878C2C0001238F11239018002C333D1
:1019A500D8FCF45ED000F278C2C0001238F11239CA
:1019B500018002C333D8FC021AB378C3C0001238C1
:1019C500F11238FF8002C333D8FCF45ED000F27800
:1019D500C3C0001238F11238FF8002C333D8FC02AD
:1019E5001AB31238F3C3940840681238F3C394103D
:1019F50050601238F3C3940C502C78D2C0001238C2
:101A0500F124F81239018002C333D8FCF45ED0000A
:101A1500F278D2C0001238F124F81239018002C3DD
:101A250033D8FC021AB378D3C0001238F124F4126B
:101A350039018002C333D8FCF45ED000F278D3C0FC
:101A4500001238F124F41239018002C333D8FC02A4
:101A55001AB31238F3C39414502B78E2C00012382D
:101A6500F124F01239018002C333D8FCF45ED000B2
:101A7500F278E2C0001238F124F01239018002C375
:101A850033D8FC802978E3C0001238F124EC1239F0
:101A9500018002C333D8FCF45ED000F278E3C000C5
:101AA5001238F124EC1239018002C333D8FC4ED030
:0B1AB50000F20FEF64026003021987CB
:011AC0002203
:03005D000232F973
:1032F900C0E0C0F0C083C082C0D075D000C000C09B
:1033090001C002C003C004C005C006C0077881E23D
:1033190030E607E24440F2122CF9D007D006D00576
:10332900D004D003D002D001D000D0D0D082D08335
:05333900D0F0D0E032ED
:1030F300D2AF43AB0843B6C0907132E04440F043D3
:10310300AB087877743FF208744BF2787A7430F234
:10311300788914F27871744FF2187427F278727404
:10312300A8F2087410F208E4F208F208F2787E7448
:0F313300D0F2087404F208741EF2087402F2223B
:10293B00E4FBEB25E025E02462F582E43438F583F3
:10294B00740193FF74C12BF582E43464F583EFF0CB
:10295B00EB25E025E02464F582E43438F583E49339
:10296B00FE740193FFEB25E024C3F582E43464F598
:10297B0083EEF0A3EFF0EB25E024C7F582E434649B
:10298B00F583E4F0A37441F0E47F01FEFDFC74C118
:10299B002B1238F6F9F812040DE53F4FFFE53E4ECA
:1029AB00FEE53D4DFDE53C4C8F3F8E3E8D3DF53CB0
:1029BB000BEB6402600302293D1219851226DA0221
:0229CB0030F3E7
:10396A0078C2E254BFF2E24440F2907181E4F0225C
:0D39B60078C3E254CFF278C0E24440F22220
:0D39C30078C3E2543FF278C0E24480F22263
:0D39D00078D2E254FCF278D0E24401F222F9
:0D39DD0078D2E2543FF278D0E24408F222A2
:0D39EA0078D3E254FCF278D0E24410F222CF
:0D39F70078E2E254F3F278E0E24402F222BA
:0D3A040078E2E254CFF278E0E24404F222CE
:0D3A110078E2E2543FF278E0E24408F2224D
:0D3A1E0078E3E254F3F278E0E24420F22273
:0D3A2B0078E3E2543FF278E0E24480F222BA
:0D3A380078F2E254FCF278F0E24401F22250
:070B1E0044600C0000000020
:083A9B007890E2541FF2E222D0
:10357200E5B154F342B153A8DFD2AF7892E4F20836
:10358200F27890E254E3F2E2441CF2E254FCF2E2FA
:103592004401F208E2547FF2E24420F27895740189
:0C35A200F2187476F2123A9B44A0F22258
:0C3A6C00123A9B44C0F243A820D2AF22C3
:10397A00123A9B44A0F27892E4F208F253A8DF22AA
:03001E00022E505F
:102E5000C0E0C0F0C083C082C0D075D000C000C048
:102E600001C002C003C004C005C006C0077891E2DB
:102E700030E72FE24480F274FFFFFEFDFC90600C0F
:102E800012043CC31203E9501990600C120420EFA5
:102E90002401FFE43EFEE43DFDE43CFC90600C12A6
:102EA0000448D007D006D005D004D003D002D0010A
:0D2EB000D000D0D0D082D083D0F0D0E0325E
:0E0B250044652A000000004465260000000020
:10318E00C374FF9BFF74FF9AFE74FF99FD74FF9842
:10319E00FC12043CC30203E9120420EF2401FFE4F5
:1031AE003EFEE43DFDE43CFC221204209064A602A7
:1031BE00043CE4FCFD7BFF7AFFF9F8D30203D390C5
:0B31CE0064A6020420EE8FF002026AEB
:1034BB00E5B154CF42B153A8BFD2AF75D102789CBE
:1034CB00E254E3F2E2441CF2E254FCF2E24401F275
:1034DB0008E2547FF2E24420F278A17401F21874EE
:0D34EB0076F2789CE2541FF2E244A0F22237
:10398A00789CE2541FF2E244C0F243A840D2AF222C
:101BF90090652A1204209064A21204489064A612E7
:101C090004540000000090652A12045400000000EA
:101C190090652612043C9064A212042012028D9051
:101C290064A612044890652612045400000000902E
:101C39006541E0FEA3E0FF1231C040091231CD90A9
:101C490065411231D31231BA9064DF12318E500FCF
:101C59009064DF1231B71202809064DF12044812D7
:101C690031BA90642F12318E500F90642F1231B710
:101C790012028090642F12044890651DE0B401207F
:101C89001231CD90651E1231D3C390651FE094C403
:101C990090651EE094094008E4F0A3F090651DF0FA
:101CA900906521E0B401201231CD9065241231D321
:101CB900C3906525E09464906524E094004008E4AD
:101CC900F0A3F0906521F0906520E0B40120123175
:101CD900CD9065221231D3C3906523E09464906559
:101CE90022E094004008E4F0A3F0906520F09064AD
:101CF900E3E0FEA3E0FF1231C0400A9064E3E4751B
:101D0900F00112026A74FFFFFEFDFC9065191231A1
:0F1D19009F500C9065191231A69065191204485D
:011D28002298
:03002100022D6E3F
:102D6E00C0E0C0F0C083C082C0D075D000C000C02B
:102D7E0001C002C003C004C005C006C007789DE2B2
:102D8E0030E736E24480F274FFFFFEFDFC90652AC8
:102D9E0012319F500C90652A1231A690652A1204AA
:102DAE00489063ADE0C394FF5003E004F090648458
:102DBE00E0C394FF5003E004F0D007D006D005D056
:102DCE0004D003D002D001D000D0D0D082D083D096
:042DDE00F0D0E0321F
:0D0B3300C115C1164165390042653A000048
:10380E00120420EF2401FFE43EFEE43DFDE43CFC07
:0F381E0022E47F587E02FDFC12043CC30203E942
:10338000E5B254FC42B253A9FED2AF75D10490719C
:1033900000E054E3F0E0F0E054FCF0E04401F09091
:1033A00071057409F0907104745FF0907100E0543D
:1033B0001FF0E044A0F0A3E0547FF0E04420F022AE
:10393700907100E0541FF0E044C0F043A901D2AFFA
:01394700225D
:03002400021E4D6C
:101E4D00C0E0C0F0C083C082C0D075D000C000C05B
:0D1E5D0001C002C003C004C005C006C007DC
:0E1E6A00907101E020E703021F1FE04480F0AA
:101E7800906539E004F0E0C394144025E4F09064E0
:101E8800F912380E9064F91204489064F912381F58
:101E9800400F201B0C9064F912045400000000D27B
:011EA8001B1E
:101EA90030821620150F9064F512380E9064F512E1
:0B1EB900044812343ED2158002C2150E
:101EC40090653AE475F00112026AC390653BE094B0
:101ED4001490653AE094004027E4F0A3F09064E99C
:101EE40012380E9064E91204489064E912381F40D5
:101EF4000F201A0C9064E912045400000000D21A56
:101F040030951620160F9064E512380E9064E51291
:0B1F140004481235AED2168002C2163F
:101F1F00D007D006D005D004D003D002D001D00016
:0B1F2F00D0D0D082D083D0F0D0E032C0
:100B4000602D63F1000000000000000000000000C4
:100B50000000000000000000000000000000000095
:100B60000000000000000000000000000000000085
:100B70000043641E0000004364210000004364251C
:100B8000000000C119416428004164290041642427
:080B90000044642A000000008B
:1030460090642A12042074212FF582E43464F583F7
:10305600229064A2E0FF241EF582E43464F5832204
:103066007D00EF75F00FA424F1F9746335F0FA7B57
:103076000122E5822EF582E43583F58322E4F09081
:103086006424E014F090000F22906429E4F0906428
:0930960028F02290642A02043C97
:0E004E00906543EFF0123A45906543E0FF22C3
:1036DE0078C2E2543FF2E254FCF2E24440F29071BE
:1036EE0081E04404F0907175E04401F043AA20D2C9
:0B36FE00AF75D60175D59F75D2112263
:03004B00021AC1D5
:101AC100C0E0C0F0C083C082C0D075D000C000C0EB
:0D1AD10001C002C003C004C005C006C0076C
:101ADE009064BAE4F0E5D420E503021BDEE5D7F00E
:101AEE00201904E0B4A509906424E0C394034003D4
:101AFE00021BD19064BAE0B4A515D21912308F1220
:101B0E00397A90600C12045400000000123A6C9066
:101B1E006429E0B401089064BAE0906428F01230B1
:101B2E0046E06003021BDE9064BAE0FF123099902B
:101B3E0063F175F00FEB120485EA75F00FA425839F
:101B4E00F583C083C082906429E0FE04F0D082D079
:101B5E0083123078EFF090600C12045400000000F5
:101B6E00906428E0606AE0FFA3E06F7063906428E1
:101B7E00E0FB90642A120420741E2F12305EEBF0EC
:101B8E00C21912308F1230467401F0906424E004B2
:101B9E00F090642A120420EF2401FFE43EFEE43D9F
:101BAE00FDE43CFC90642A120448E47F03FEFDFC35
:101BBE00123099C31203E9400A90642A12045400A9
:101BCE0000000012397A90600C12045400000000DC
:101BDE00D007D006D005D004D003D002D001D0005B
:0B1BEE00D0D0D082D083D0F0D0E03205
:0D3A4500E5D430E4FB8FD7E5D430E4FB225C
:0600270090653C1204B1DB
:10002D00E4FEEEC39D501590653C1204918E8275D1
:0C003D00830012016FFF123A450E80E6AE
:010049002294
:101D2900E49064A2F0A3F0C21C7F0AFEFDFC90605F
:101D39000C12043CD31203E9401912397A90600C51
:101D490012045400000000E4906429F0906428F023
:101D5900C21922E49064A2F09064A2E0FFC3940344
:101D69004003021E4C74212F12304FE07003021EF3
:101D7900439064A2E075F00FA424F2F582E4346381
:101D8900F583E0FE741E2F12305EE06E601A9064D7
:101D9900A2E0242112304F123083C083C082123056
:081DA90066D007D006020543D5
:101DB100E49064A4F09064A3F0A3F0123057E0140F
:101DC100FE9064A4E0FDC39E5022EF75F00FA424A1
:101DD100F1F582E43463F583E5822D12307BE0FF77
:101DE1009064A3E02FF0A3E004F080CF9064A3E01F
:101DF100F0123057E0FEEF75F00FA424F0F582E405
:101E01003463F583123078E0FF9064A3E06F6002E1
:021E1100D21CE1
:101E1300301C1DC21C9064A2E0FF242112304F121B
:101E23003083C083C082123066D007D006120543C8
:101E33009064A2E02425F582E43464F5837401F010
:091E43009064A2E004F0021D61AC
:011E4C002273
:050B980042653F000072
:1038A30012028D9064A71204489064A7020420902A
:0B38B3007123E05498F0E0441EF02266
:10375F0078C3E24403F2E2440CF218E2440CF2782C
:10376F006AE24478F27591FF1238B29071227407B1
:08377F00F0439E7043994022C3
:10333E005399E0EF24FE601714601C24027026904F
:10334E007123E054D8F0E0445AF0439904801612E9
:10335E0038B2439905800E907123E054D8F0E044C2
:10336E0059F04399017869E24448F27F017E0002E8
:02337E0038888D
:103787007869E24401F2786BE230E1FA7402F2AF51
:1037970093EF75F010A4FFAEF0E594C4540FFDEF5E
:0337A7004DFF22B1
:1020EE00E49064A5F0A3F0A312045400000000E4F1
:1020FE009064ABF0A3F074FFA3F0A3F0E4A3F0F0B0
:10210E001237879064A5EEF0A3EFF09064AFE0C3B2
:10211E00940240549064ABE0FEA3E0FF9064A5E00F
:10212E00FCA3E0FDD39FEC9E40089064ABECF0A3C3
:10213E00EDF09064ADE0FEA3E0FFC3ED9FEC9E508A
:10214E000F9064A5E0FFA3E09064ADCFF0A3EFF095
:10215E009064A712043C9064A5E0FEA3E0FFE4FCAB
:10216E00FD120280A31204489064AFE004F0E0C3B5
:10217E009414408C1238ACC006C0079064ABE0FEDD
:10218E00A3E0FBAA06E4F9F8D007D0061238A3C0E4
:10219E0006C0079064ADE0FEA3E0FBAA06E4F8D00B
:1021AE0007D0061238A378041203FA9064A5EEF055
:0321BE00A3EFF09C
:0121C10022FB
:1039480075AF3F8FAF75AEB975A402E5A530E1FB41
:01395800224C
:1035E7009064A71204B175AF3F8FAF9064AAE0C390
:1035F70094014022E5A530E0FB9064A7E475F00153
:1036070012049A120156F5A675AEB975A401906415
:07361700AAE014F080D522A7
:10361E009064A31204B19064A6E06027AE070FEE8B
:10362E002400FDE4343F8D82F583E493FE9064A381
:10363E00E475F00112049AEE1201CF9064A6E01424
:04364E00F080D32213
:10368400A3F078E3E254FCF2E24401F2907192E494
:10369400F0229064B3E004F0E0C3940822C2A4C210
:0E36A40096D2977F04FE22FFE0FEA8070822C0
:102FEA00E4FF78D3E2543FF2E24440F290718DE478
:102FFA00F0E254CFF2E24410F290718CE4F012360F
:10300A0086C297C29612309FEF7030FD7F8C1224D1
:10301A00E77D017F881224E77D017F861224E77D00
:10302A00017F8A1224E7E4FD7F821224E7E4FD7F10
:0B303A00841224E7E4FD7F801224E7ED
:013045002268
:1038BE00E4FDEE25E0FEEF30E004EE4401FEEFC342
:0938CE0013FF0DEDB408EBAF0689
:0138D70022CE
:022DE200AC073C
:102DE400E49064A7F0AF051238BEEC64816019EC7E
:102DF40064836014EC6485600FEC6487600AEC649F
:082E0400896005EC648D704348
:102E0C00E49064A8F0A3F0EC64816004ECB4830655
:102E1C00EF547FFF8017EC64856004ECB48706EFF9
:102E2C00543FFF8008ECB48904EF541FFFEFC454E7
:102E3C000FFE9064A8F0EF540FFFA3F0EE75F00AAC
:032E4C00A42FFFB1
:012E4F002260
:0529CD009064A7EFF08B
:1029D200E4A3F01236841236A1123A90E49064A96C
:1029E200F0122A419064A9E09064A71236AB8002EB
:1029F200C313D8FC30E004D2A48002C2A47F047EB8
:102A020000123A90122A4B40D878E3E254FCF27852
:102A1200E0E24410F2E49064A9F09064A8E025E0BA
:102A2200F0122A4130A4079064A8E04401F0122A6F
:0E2A32004B40E7C296C297C2A49064A8E0FF92
:102A400022C2967F047E00123A9022D2967F047EA4
:0F2A500000123A909064A9E004F0E0C3940822C9
:053921009064A6EFF028
:10392600E4FE1229CDAE079064A6E0FFAD06022D97
:01393600E2AE
:082A5F009064B1EFF0A3EDF06B
:102A6700E41236841236A1123A90E49064B3F0125D
:102A77002AE59064B3E09064B11236AB8002C313C9
:102A8700D8FC30E004D2A48002C2A4122AD41236A1
:102A97009640DCE49064B3F0122AE59064B3E0FF5B
:102AA7009064B2E0FEA807088002C313D8FC30E0A8
:102AB70004D2A48002C2A4122AD412369640D9C2E4
:0C2AC700967F047E00123A90C297C2A4D1
:102AD300227F047E00123A90D2967F047E00123A3F
:0C2AE3009022C2967F047E00123A9022DE
:10309F001232B3D3906469E09433906468E094087B
:1030AF00503CC3A3E094D0906468E09407402F9005
:1030BF00646AE0D3940C5026E0C394014020A3E04F
:1030CF00D3941F5019E0C394014013A3E0D3941875
:1030DF00500CA3E0943C5006A3E0943C40037F00C7
:0430EF00227F012219
:0524E7009064ADEFF070
:1024EC00A3EDF0EF6480601D9064ADE0FF6482604A
:1024FC0014EF6484600FEF6486600AEF64886005F3
:05250C00EF648C706C0F
:10251100E49064AFF0A3F09064AEE0FFC3940A408E
:1025210007EF75F00A84A3F09064AEE075F00A84B9
:10253100AFF09064B0EFF09064AFE0FEC454F04FA0
:102541009064AEF09064ADE0FF64806004EFB4820B
:10255100099064AEE0547FF080229064ADE0FF64A6
:10256100846004EFB486099064AEE0543FF0800CBF
:0C2571009064ADE0B48805A3E0541FF0B6
:10257D00E4FD7F8E122A5F9064ADE0FFA3E0FD12B3
:09258D002A5F7D807F8E022A5F27
:1033C000906534E0FD7F801224E7906533E0FD7F57
:1033D000821224E7906532E0FD7F841224E7906535
:1033E00031E0FD7F861224E7906530E0FD7F881292
:0F33F00024E790652EA3E02430FD7F8C0224E7B4
:1033FF009064A6A3E02430FD7F8C1224E79064A88C
:10340F00E0FD7F881224E79064A9E0FD7F861224F7
:10341F00E79064AAE0FD7F841224E79064ABE0FD9F
:0F342F007F821224E79064ACE0FD7F800224E7E7
:1032B3007F8112392190646EEFF07F831239219060
:1032C300646DEFF07F8512392190646CEFF07F8796
:1032D30012392190646BEFF07F8912392190646A6F
:1032E300EFF07F8D123921EF24D0FEE43407906490
:0632F30068F0A3CEF022FA
:040B9D004165350079
:1037CD009064A2F090653602049190000612016F8C
:1037DD00FE90000802016F9000091201E190000CAB
:0137ED0022B9
:10152100E49064A2F07FFFA374FFF090653612048B
:10153100B190000112016FFE120156FDEEC39D50E4
:10154100030216B31237D1900001E41201E19000B9
:101551000E1204BA120510EFF46008906535742379
:10156100F08009906535E06003E014F01237D19006
:10157100000312016F6F601590000512016F600D7D
:10158100900004E41201E19000030216AF900005FF
:1015910012016FFE90000412016FC39E500B1237AF
:1015A100D1900004740102019C1237D19000021203
:1015B100016F6F6048EFF4701C1237D7C39E400A69
:1015C10074051237CD90000280611237D190000A64
:1015D10074010216A61237D190000874011237E780
:1015E10012016F6F906536600C120491740112370D
:1015F100E4EF0216A6120491900009803DEFF47009
:10160100411237D190000912016FD39400500302A7
:1016110016A990000B12016FFE90000A12016FD300
:101621009E401174011237CD90000C12016F90642D
:10163100A3F080541237D190000A740112019C0268
:1016410016A91237D11237DEC394FF500890000853
:10165100740112019C1237D7B506089064A2740375
:10166100F080201237D19000071237DA6E7039906E
:1016710064A274041237D090000612016F90000822
:101681001201E19064A3EFF01237D1E41237E47450
:10169100FF1201E19064A3E09000111201E1906456
:1016A100A2E09000121201E11237D1900002EF1274
:0216B10001E155
:0116B3002214
:1034F80078E2E2543FF2E24440F2907191E0F01237
:1035080039091235721236DE1237091234BB123AF3
:1035180052123A5F12375F12293B122FEA12338098
:0D35280012398A1239377F017E000238887F
:102F8B00121F3A75D95590715EE054FEF075D9BB9E
:102F9B001234F8D2A37FE87E03123888C2A375D906
:102FAB00AA1237EE75D9AA7B017A6379AC12152177
:102FBB0012242D7B017A64798312152112263E127D
:102FCB0021C2122016122AEF12280F122362121D91
:0F2FDB0029121837120D66121BF975D9AA80BF7B
:100BA1006027645C000000000000000000000000FD
:100BB1000000000000000000000000000000000034
:0B0BC100000000000000000000000029
:0C3A78007B017A64795C740CF0E4FF229E
:103909007E007F277D007B017A64795C12054390F4
:0839190064A6123A7802361E82
:0E399A00E4FF1239489064AA123A780235E729
:10347D00FEE02FFFEC3EFEA3E02FFFEC3EFE22FA16
:10348D001204207E00EB2FFFEE3AFE3395E0FDFC9B
:10349D00221203FA7E009064A6E022FC9064AB0237
:0E34AD0004489064AB0204209064A70204203F
:050FAD009064A6EFF0C6
:100FB2009064AB120454000000007FA5123A45125F
:100FC20034AFEF24A5FFE43EFEE43DFDE43C1234E1
:100FD200A89064A6E0FF64016032EF6402602DEF26
:100FE20064036028EF64046023EF6405601EEF640D
:100FF200066019EF64096014EF640A600FEF641170
:10100200600AEF64126005EF641370207F0512110D
:101012008D12119FC0001234B51234A12405FDE4D3
:1010220033CD2FFFEE3D1234970211579064A6E0A4
:10103200FF6407600AEF64086005EF641070337F95
:1010420006123A459064A6E0FF12117512119FC074
:1010520000C002C0031234B5780812349E2406FD83
:10106200E433CD2FFBEE3DA312348CD003D0020229
:1010720011579064A6E0FF640B600FEF640C600AE6
:10108200EF64146005EF640D70467F0712118D78CE
:10109200101203FA1211751211A9C000C002C00386
:1010A2001234B5781012349E2407FDE433CD2FFBA1
:1010B200EE3DFAA312042078081203FA7E00EB2F09
:1010C200FBEE3A9064A712348CD003D0020211577F
:1010D2009064A6E0640E600302115F7F0B123A4532
:1010E2007F0E123A45906468E0FF123A45906468B8
:1010F200E0A3E0FF123A4590646AE0FF123A45909D
:10110200646BE0FF123A4590646CE0FF123A45903E
:10111200646DE0FF123A4590646EE0FF1211A9C0BF
:1011220000C001C002C003906468E02419FFE433E8
:10113200FEE0A3E07C002FFFEC3E90646A12347D57
:10114200A3E02FFFEC3EA312347D3395E0FDFCD0EB
:1011520003D002D001D0001202801234A91234AF9F
:10116200E4FEFD1234A81234AF123A457F017E002C
:03117200023888B8
:10117500123A459064A712042078081203FA123A2D
:10118500459064A712042022123A459064A6E0FF18
:10119500123A459064A712042022123A459064AB96
:0E11A50012043C22123A459064AB12043C2224
:050BCC0042654100003C
:103709001239F7123A04123A1E123A2B123A3812A7
:1037190039EA1239DD1239D01239C31239B678E2D1
:0B372900E254FCF278E0E24401F222DE
:10259600C3906542E094C8906541E0940050030200
:1025A600263DE4F0A3F090647D30A503F08003742B
:1025B60001F0D20430A207E490647EF080069064B5
:1025C6007E7401F0D20530A107E490647FF08006A6
:1025D60090647F7401F0D206208607E4906479F057
:1025E60080402087089064797401F0803520900837
:1025F6009064797402F0802A2093089064797403B9
:10260600F0801F2094089064797404F0801420B040
:10261600089064797405F0800920A706906479749F
:1026260006F0D20120A00790648174018004E49032
:082636006481F0A3F0D20A2236
:100BD100C11A4464E5000000004464E9000000001B
:0E0BE1004464ED000000004464F100000000D8
:0C3A8400E4FDFC02043C12043C02028041
:0D3A520078D3E254F3F278D0E24420F2225F
:1035AE009064ED1204209064E9123A8A9064ED1250
:1035BE0004489064E9120454000000009064F11273
:1035CE0004209064E5123A8A9064F11204489064E3
:0935DE00E5120454000000002273
:1021C2009064A2120454000000009064A612045409
:1021D200000000007FF47E019064ED123A84C31285
:1021E20003E95006201A030222917F2E7E04906496
:1021F200F1123A8412029BE47B03FAF9F8120326E5
:102202009064A6120448301A0C9064A2120454007E
:102212000000008027E47F24FEFDFC9064A61204E7
:102222003C12029BE47B0AFAF9F81203269064ED51
:1022320012043C1203269064A21204489064DB123A
:1022420004209064A6123A8A9064DB1204489064D7
:10225200F1120454000000009064ED1204540000D6
:102262000000C21A9064A2120420906473120448FF
:10227200E47FE77E03FDFC90647312043CD31203F7
:0F228200E9400A906473120454000003E7D20885
:01229100222A
:100BEF004464F5000000004464F900000000446410
:0E0BFF00FD0000000044650100000000C11B65
:063AA300E4FDFC02043CFE
:0D3A5F0078C2E254CFF278C0E24404F222B3
:10343E009064FD1204209064F512043C12028090F8
:10344E0064FD1204489064F51204540000000090CC
:10345E0065011204209064F912043C1202809065FA
:0F346E00011204489064F9120454000000002277
:102AEF009064A2120454000000007FF47E019065F0
:102AFF0001123AA3C31203E95003301B6C301B0CB5
:102B0F009064A212045400000000801C7FA67E0E69
:102B1F009064FD123AA312029B90650112043C12BD
:102B2F0003269064A21204489064FD12045400001E
:102B3F00000090650112045400000000C21BE47FE6
:102B4F00FF7EFFFDFC9064A212043CC31203E94018
:102B5F000A9064A21204540000FFFF9064A21204B2
:092B6F002090646F120448D207A3
:012B7800223A
:100C0D004464DF000000004464DB00000000426427
:100C1D00E300004464D3000000004464D7000000EA
:010C2D0000C6
:10373400120420EF2401FFE43EFEE43DFDE43CFCE2
:1037440022E4FDFC12043CC30203E9120420120229
:0B3754008DE47B64FAF9F8C30203E97E
:102016007F307E759064DF123745400D9064DF1285
:1020260004540000000012399A7FE87E039064DBB6
:1020360012374540617F187EC67D9A7C3B90645C72
:10204600123748500C90645C12373490645C12046A
:10205600487F7F7E967D987C00906460123748505A
:102066001890646012373490646012044890646477
:102076001237349064641204489064DB120420C35F
:10208600EF94E8FFEE9403FEED9400FDEC9400FC63
:102096009064DB1204489064D312043C90645C1292
:1020A600374F500E90645C1204209064D31204489B
:1020B600D20C9064D712043C90646012374F500ED5
:1020C6009064601204209064D7120448D20DC39025
:1020D60064E4E094889064E3E09413400AE4F0A397
:0720E600F0D20CD20DD20E66
:0120ED0022D0
:100C2E00C100C101C102C103C104C105C106C10792
:100C3E00C108C109C10CC10DC10EC10FC110C11136
:100C4E00C112C113C11441651D0042651E00004151
:100C5E0065200041652100426522000042652400A6
:010C6E000085
:10326B00906479E0FFE4FCFDFE9064A702044890B3
:10327B006460E47B64FAF9F812042002032690647C
:10328B00A2E075F00FA422906477E0FEA3E0FFE4C8
:10329B00FCFD22E47BE87A03F9F890645C229064ED
:0832AB00A2E0FF75F00FA42260
:10183700E49064A2F0F09064A2E0FFC39403400335
:1018470002198474252FF582E43464F583E070036C
:1018570002197B12328924F3F582E43463F583E0BD
:101867001204EA188680188B8B18908C189A8E1899
:10187700959419219819259919299A0000192BD29D
:101887000002192BD20C02192BD20D02192BD20EE2
:1018970002192BD20FEF75F00FA424F5F582E4346B
:1018A70063F583E0FDEF75F00FA424F4F582E434CB
:1018B70063F583E02DFEE433906468F0A3CEF01265
:1018C70032A924F6F582E43463F583E090646AF084
:1018D700EF75F00FA424F7F582E43463F583E09005
:1018E700646BF01232A924F8F582E43463F583E0DF
:1018F70090646CF0EF75F00FA424F9F582E434637B
:10190700F583E090646DF012328924FAF582E434AD
:1019170063F583E090646EF0800AD2128006D213DA
:101927008002D214906424E0D394004003E014F0C2
:101937009064A2E0FF2425F582E43464F583E4F0A3
:10194700741E2FF582E43464F583E4F074212FF5D7
:1019570082E43464F583E4F0FE7F0FC006C007FD20
:1019670012328924F1F9746335F0FA7B01D007D07C
:0D197700061205439064A2E004F002183D42
:011984002240
:060D6600200003020E381C
:100D6C009064A212045400000000C20090651DE0C3
:100D7C006003020E3804F012326B7F01120FAD903B
:100D8C00647A12326E7F02120FAD90647B12326E57
:100D9C007F03120FAD90647D12326E7F04120FAD83
:100DAC0090647E12326E7F05120FAD90647F12320A
:100DBC006E7F06120FAD90646F1204201232747F96
:100DCC0007120FAD9064731204201232747F081254
:100DDC000FAD90647C12326E7F09120FAD12329EF1
:100DEC001232831232747F0B120FAD12327A12321E
:100DFC00747F0C120FAD1232B39064A7120454001E
:100E0C000000007F0E120FAD1232921232747F105E
:100E1C00120FAD90648012326E7F11120FAD906480
:0C0E2C006412327D1232747F14120FAD7C
:100E380030010AC20112326B7F01120FAD30020D70
:100E4800C20290647A12326E7F02120FAD30040D26
:100E5800C20490647D12326E7F04120FAD30050D0E
:100E6800C20590647E12326E7F05120FAD30060DFA
:100E7800C20690647F12326E7F06120FAD300710E3
:100E8800C20790646F1204201232747F07120FADEC
:100E9800300810C2089064731204201232747F085C
:100EA800120FAD30090DC20990647C12326E7F09B1
:100EB800120FAD300A18C20A90648112326E7F1286
:100EC800120FAD90648212326E7F13120FAD300C88
:100ED80010C20C12329E1232831232747F0B120F20
:100EE800AD300D0DC20D12327A1232747F0C120F12
:100EF800AD300E16C20EE47B64FAF9F89064641201
:100F080032831232747F14120FAD300F23C20F9048
:100F18006520E0701B78A67C647D017B017A64798A
:100F280068FE7F071201301233FF9065207401F0CC
:100F380030100DC2101232921232747F10120FAD9F
:100F480030110DC21190648012326E7F11120FADF4
:100F5800301219C21290645C120454000000009010
:100F680064DB1204540000000012399A301319C2CD
:100F780013906460120454000000009064DB1204B3
:100F8800540000000012399A301419C21490646495
:100F9800120454000000009064DB120454000000A6
:050FA8000012399A223D
:100C6F005463BF00010153000204730003075300D4
:100C7F0004091D00050CED5E63D301010203040599
:100C8F0002060708090A030B0C0D0E0F04101112B0
:100C9F0013140515161718195363AC0A000000003A
:0E0CAF00033241000000000001FF3652000039
:0F000F00EC75F006A424D3F582E43463F5832264
:10314200E4FD9064A4F0A374FFF0ED25E025E024F3
:10315200C1F582E43463F583E0FAA3E0D39FEA9EEB
:10316200401CED25E025E024BFF582E43463F583BD
:10317200E0FFA3E09064A4CFF0A3EFF080050DED93
:0B318200B405C79064A4E0FEA3E0FFCA
:01318D00221F
:1037AA00E4FEFC12000FE0B5071112000FE5822DAE
:1037BA00F582E43583F583E0FE80050CECB405E37D
:0237CA00AF0648
:0137CC0022DA
:10365200E49064A2F0A3F07F0212333E1237879007
:1036620064A2EEF0A3EFF09064A2E0FEA3E0FF12EA
:1036720031429064A2EEF0A3EFF09064A2E0A3E0E6
:01368200FF48
:013683002224
:10242D009063BDE070030224E6E0FFA3E0FD1237E8
:10243D00AAE49063BDF0A3F0EF1204EA246B01242B
:10244D007704248306248F09249B0B24A70E24B321
:10245D001024BF1324CB1524D718000024E6906454
:10246D00A7120454000000CF806A9064A712045490
:10247D00000100CF805E9064A7120454000000D2CA
:10248D0080529064A7120454000100D280469064DB
:10249D00A7120454000000D1803A9064A71204548E
:1024AD00000100D1802E9064A71204540000007F1B
:1024BD0080229064A71204540001007F801690645E
:1024CD00A7120454000000D0800A9064A71204548F
:0924DD00000100D07F0D120FADCB
:0124E60022D3
:100CBD0044642F0000000060286433000000000031
:100CCD000000000000000000000000000000000017
:100CDD000000000000000000000000000000000007
:0B0CED0000000041645B0041642E0029
:1031D900FFEE34F8FEE434FFFDE434FFFCE4FAF9D1
:1031E900F812029BE4229064A5E0FEA3E0FF22FA14
:1031F900F9F8120326AD07C322FEE434FFFDE434D7
:10320900FFFCE42225E02433F582E43464F58322CB
:09321900FDFC12043CC30203E9B0
:042EBD00AB07AA06AF
:102EC100E49064A5F0A312045400000000AE02AF28
:102ED1000390645BE0FD04F0ED12320DEEF0A3EF20
:102EE100F090645BE0C394144002E4F0E49064A5C4
:102EF100F09064A612043C9064A5E012320DE0FE4D
:102F0100A3E0FFE4FCFD1202809064A61204489045
:102F110064A5E004F0E0B414D8E47B14FAF9F89065
:082F210064A61204200203263D
:10395900E4FDED12320DEEF0A3EFF00DEDB414F22B
:01396900223B
:0816B4009064A5EEF0A3EFF035
:1016BC00E4FDC3EF940BEE940E500A1231EF94F448
:1016CC00EE940150057DFF021834D3EF9495EE94FF
:1016DC000B4005E4FD021834D3EF944DEE94065004
:1016EC00057D64021834D3EF9495EE940B5028EFDB
:1016FC009439EE940A40201231EFEF24C7FFEE34F8
:10170C00F51232027B121231E77B5C7A011231F94D
:10171C0074129DFD0218341231EFD39439EE940AF1
:10172C005031EF943BEE940940299064A5A3EF242B
:10173C00C5FFEE34F61232027B221231E77BFE1229
:10174C0031F874229DFDC3941240030218347D12AB
:10175C000218341231EFD3943BEE94095031EF94CC
:10176C007CEE940840299064A5A3EF2484FFEE340A
:10177C00F71232027B331231E77BBF1231F874332C
:10178C009DFDC3942240030218347D2202183412AA
:10179C0031EFD3947CEE94085027EF94F0EE94073D
:1017AC00401F9064A5A3EF24107B441231D97B8C8D
:1017BC001231F874449DFDC39433506C7D33021880
:1017CC00341231EFD394F0EE94075026EF941AEEC6
:1017DC009407401E9064A5A3EF24E67B541231D9E4
:1017EC007BD61231F874549DFDC39444503A7D4419
:1017FC0080361231EFD3941AEE9407502BEF944DA0
:10180C00EE940640239064A5A3EF24B3FFEE34F9C5
:10181C001232027B641231E77BCD1231F874649D75
:0A182C00FDC3945450027D54AF0533
:01183600228F
:10280F00E49064A2F0A3F0A3F07F0312333E1228EA
:0C281F009C122EBD9064A3EEF0A3EFF01D
:10282B0090642EE070327FF47E01A312321940289F
:10283B0090642F1204540000000012289C12395986
:10284B0090653FE0FEA3E0FF9064A3EEF0A3EFF0F2
:08285B0012288690642E04F09F
:10286300E47FE87E0390642F123219401590642FA1
:10287300120454000000009064A3E0FEA3E0FF12E2
:022883002886A5
:10288500221216B49064A2EFF090647CF0E4906498
:10289500A3F0A3F0D209221220EE90653FEEF0A33B
:0328A500EFF0222F
:100CF80044650500000000446509000000004465E3
:050D08000D00000000D9
:10386A00EF2401FFE43EFEE43DFDE43CFC02044893
:0E387A00E47FE27E04FDFC12043CC30203E97D
:102292007F0412333E1220EE90653FEEF0FAA3EF78
:1022A200F0FB90650D120420EF2408FFE43EFEE4EB
:1022B2003DFDE43CFC90650D120448D3EB9400EA2A
:1022C2009408906509501512042090650912386A25
:1022D20090650512045400000000800712045400A7
:1022E20000000090650912387A40119065091204C5
:1022F2005400000000E4906480F0D211C390654065
:10230200E094C790653FE0940B9065054015120478
:102312002090650512386A90650912045400000085
:102322000080071204540000000090650512387AFC
:1023320040129065051204540000000090648074FD
:1023420001F0D211E47FE87E03FDFC90650D1238A6
:0F23520081400C90650D12045400000000D21160
:012361002259
:100D0D0044651900000000446511000000004465B1
:050D1D001500000000BC
:1038D8007C0A7D50120516E47B0AFAF9F8120326D1
:0938E800E4FB7A10F9F802032652
:0E39A8007E007C007D641202037D96020215F3
:10236200E49064A2F0A3F0A3F07F0112333E9065E3
:102372001512043CC000C001C002C0031220EEE4EA
:10238200FCFDD003D002D001D0001202809065156E
:10239200120448906511120420EF2401FFE43EFE6E
:1023A200E43DFDE43CFC906511120448E47FE87EC4
:1023B20003FDFC90651912043CC31203E9406B90C3
:1023C200651512042090651112043C1203269065D3
:1023D200151204489065151204201238D89064A290
:1023E200EEF0A3EFF09064A2A3E0FF1239A8A3EFEE
:1023F200F09065151204540000000090651112045B
:10240200540000000090651912045400000000906E
:1024120064A4E090647AF09064A2E0FFA3E0906488
:0A24220077CFF0A3EFF0D210D20242
:01242C00228D
:100D22004C649601010203040502060708090A53EE
:100D320064830A000000000364AF000000000002A8
:050D4200FF3222000059
:10382D00E4FFFDFCAB1BAA1AA919A818C30203E9F2
:0F383D00EE75F006A42496F582E43464F5832238
:103222009064A2120454000000009064A674FFF09F
:10323200AF1BAE1AAD19AC189064A21204487E02FC
:1032420012382D70079064A604F0800D7E041238A7
:103252002D70069064A67402F09064A212045400C9
:083262000000009064A6E0FFEB
:01326A002241
:1036B200E49064A2F0FE12383DE0B5071412383DE2
:1036C200E5822DF582E43583F583E09064A2F080F3
:0B36D200050EEEB402E09064A2E0FFE1
:0136DD0022CA
:10263E00906494E070030226D9E0FFA3E0FD123609
:10264E00B2E4906494F0A3F0EF1204EA2676012629
:10265E008203268E04269A0526A60626B20826BED4
:10266E000926CA0A000026D99064A7120454000055
:10267E00004780529064A712045400010047804620
:10268E009064A712045400020047803A9064A71287
:10269E00045400030047802E9064A71204540000D7
:1026AE00004880229064A71204540001004880164E
:1026BE009064A712045400020048800A9064A71286
:0B26CE000454000300487F0D120FAD04
:0126D90022DE
:100D470041601801426019000041601B0041601CAE
:0E0D57000041601D0041601E7F42601FFFFFD3
:10353500E4F561AE3EAD3DAC3C853F178E168D156D
:103545008C14787EE254FCF2E24514F218E515F28B
:1035550018E516F218E517F2787FE254FBF2E2540B
:0D356500FB4404F2E24401F27F01022B79E5
:1008CC009064A2EFF0E0FF24BDF582E43464F5837C
:1008DC00E004F074BF2FF582E43464F583E4F07423
:1008EC00BD2FF582E43464F583E0C39563500302B5
:1008FC000B1D9064A2E0FB24BDF582E43464F58307
:10090C00E4F090385D9364016003020ACE7F01FE2F
:10091C00FDFC74C12BF582E43464F583E0F9F81224
:10092C00040DE51F4FF51FE51E4EF51EE51D4DF59B
:10093C001DE51C4CF51CAF1FAE1EAD1DFC78011245
:10094C0003FAEF5455FBEE5455FAED5455F9EC54AB
:10095C0055F8C3E51F9BF53BE51E9AF53AE51D9945
:10096C00F539E51C98F538AF3BAE3AAD39FC780259
:10097C001203FAEF5433FBEE5433FAED5433F9EC23
:10098C005433F8E53B5433FFE53A5433FEE5395420
:10099C0033FDE5385433FCEB2FF53BEA3EF53AE9F1
:1009AC003DF539E83CF538AF3BAE3AAD39FC78044F
:1009BC001203FAEF253BFFEE353AFEED3539FDEC2F
:1009CC003538FCEF540FF53BEE540FF53AED540F60
:1009DC00F539EC540FF538AF3BAE3AAD39FC78082D
:1009EC001203FAEF253BFFEE353AED3539FDEC35C8
:1009FC0038EFF53BE4F53AEDF539E4F538AE3AACC1
:100A0C003878101203FAEF253BFFEE353AFEEFF57E
:100A1C003BEEF53AE4F539F5389064A2E025E02494
:100A2C00CBF582E43464F583E0FEA3E0D39553EE7A
:100A3C00955240249064A2E0FF25E024CBF582E49B
:100A4C003464F583E0F552A3E0F55374C12FF582BD
:100A5C00E43464F583E0F56490385DE493FFE4FCE2
:100A6C00FDFEAB3BAA3AA939A838D31203E9405290
:100A7C00AF650565D3EF9403748094805003020B2B
:100A8C001DE4F565F51FF51EF51DF51C7F01FEFD3A
:100A9C00FCA964A80112040D8F1B8E1A8D198C18D9
:100AAC00E47F01FEFDFCA80112040D8F338E328D04
:100ABC00318C30E4F552F553756420122BFD43371D
:100ACC000222E4F5657F01FEFDFC9064A2E0FB24AC
:100ADC00C1F582E43464F583E0F9F812040DE51BEA
:100AEC004FF51BE51A4EF51AE5194DF519E5184C9D
:100AFC00F518E47F01FEFDFCA80312040DE5334F4D
:100B0C00F533E5324EF532E5314DF531E5304CF546
:020B1C00302285
:10058D00E4F566903861E493FFE566C39F4003028E
:10059D0008CBE56625E02400F582E4346085828A87
:1005AD007F548F8B7E0E8E8C758903758889E566D9
:1005BD0025E02400F582E4346085828A8F8B758C6A
:1005CD0012758904758889E56625E02408F582E4AD
:1005DD003460F583E0FCA3E0C3950FEC950E502E2F
:1005ED00E56625E02414F582E43460F583E0FCA390
:1005FD00E0C39513EC95125015AF600560EF9402B2
:10060D0074809480400BE4F5605337FD8003E4F56E
:10061D0060E53730E125E56625E024CBF582E4344D
:10062D0064F583E4F0A3F0E56625E024CFF582E4DC
:10063D003464F583E4F0A3F00206DBE56625E024DF
:10064D0008F582E4346085828A8E8B758C0A7589F3
:10065D00267588892088FDE5F130E00875F107E4FD
:10066D00F50AF50BAE0AE50B7802C333CE33CED8BF
:10067D00F9FFE56625E024CBF582E43464F583EEDD
:10068D00F0A3EFF0E56625E02414F582E4346085EF
:10069D00828A758B12758C0A7589277588892088D1
:1006AD00FDE5F130E00875F107E4F50AF50BAE0A4A
:1006BD00E50B7802C333CE33CED8F9FFE56625E0DE
:1006CD0024CFF582E43464F583EEF0A3EFF0E56614
:1006DD0025E024C3F582E43464F583E0FEA3E078DD
:1006ED0002CEC313CE13D8F9F5518E50E56625E031
:1006FD0024CBF582E43464F583E0FEA3E0FF90386B
:10070D0059E493FC740193FDC3EF9DEE9C4017E5F6
:10071D006625E024CFF582E43464F583E0FEA3E0A2
:10072D00C39DEE9C50028068E56625E024CBF582E2
:10073D00E43464F583E0FEA3E0C39551EE9550409B
:10074D001CE56625E024CFF582E43464F583E0FEF4
:10075D00A3E0C39551EE955040030207E774BB2506
:10076D0066F582E43464F583E004F074BB2566F528
:10077D0082E43464F583E0FF90385EE493FEEFD3BA
:10078D009E406474BB2566F582E43464F583E4F021
:10079D00E56625E02404F582E43460F583E0FEA3EC
:1007AD00E0FFE56625E02408F582E43460F583EE8C
:1007BD00F0A3EFF0E56625E02410F582E43460F552
:1007CD0083E0FEA3E0FFE56625E02414F582E43422
:1007DD0060F583EEF0A3EFF0800D74BB2566F58216
:1007ED00E43464F583E4F0E56625E02404F582E461
:1007FD00346085828AE56625E02400F582E4346064
:10080D0085828B758C0A7589207588CB2088FDE5CE
:10081D00F130E00875F107E4F50AF50BE56625E022
:10082D002404F582E4346085828A758B547F0E8FA3
:10083D008C7589237588897E0A8E8A8F8BE566254E
:10084D00E02404F582E4346085828CE4F5897588B2
:10085D0029E56625E02410F582E4346085828AE579
:10086D006625E02400F582E4346085828B8E8C75DC
:10087D0089207588CB2088FDE5F130E00875F107FA
:10088D00E4F50AF50BE56625E02410F582E4346005
:10089D0085828A758B547F0E8F8C75892475888916
:1008AD00758A0A8F8BE56625E02410F582E43460A5
:0F08BD0085828CE4F589758829056602059022ED
:1011B300E4F566903861E493FFE566C39F4003025C
:1011C300136BE56625E024C3F582E43464F583E01C
:1011D300FEA3E07802CEC313CE13D8F9F5518E5097
:1011E300E56625E024CBF582E43464F583E0FEA3D1
:1011F300E0D39551EE9550402EE56625E024CFF5DA
:1012030082E43464F583E0FEA3E0D39551EE955078
:10121300401574BF2566F582E43464F583E4F0AFCA
:10122300661208CC021366903860E493FFC3E5515D
:101233009FFFE5509400FED3EF9400EE940040022C
:1012430080047E007F00E56625E024CBF582E4344C
:1012530064F583E0FCA3E0C39FEC9E4003021359B3
:10126300903860E493FFC3E5519FFFE5509400FE7F
:10127300D3EF9400EE9400400280047E007F00E5EB
:101283006625E024CFF582E43464F583E0FCA3E033
:10129300C39FEC9E400302135974BD2566F582E497
:1012A3003464F583E4F074BF2566F582E43464F5B1
:1012B30083E004F074BF2566F582E43464F583E0CB
:1012C300C39563500302136674BF2566F582E43445
:1012D30064F583E4F07F01FEFDFC74C12566F582AD
:1012E300E43464F583E0F9F812040D1203B8E51F42
:1012F3005FF51FE51E5EF51EE51D5DF51DE51C5C36
:10130300F51CE47F01FEFDFCA966A80112040D1281
:1013130003B8E5335FF533E5325EF532E5315DF56C
:1013230031E5305CF530E47F01FEFDFC74C12566D8
:10133300F582E43464F583E0F9F812040D1203B87E
:10134300E51B5FF51BE51A5EF51AE5195DF519E571
:10135300185CF518800D74BF2566F582E43464F5D6
:0913630083E4F005660211B622D4
:102BFD00E4F566903861E493FFE566C39F506EE59A
:102C0D006625E024CBF582E43464F583E4F0A3F08B
:102C1D00E56625E024CFF582E43464F583E4F0A382
:102C2D00F0E56625E02404F582E43460F583E0FEEA
:102C3D00A3E0FFE56625E02408F582E43460F58322
:102C4D00EEF0A3EFF0E56625E02410F582E43460A4
:102C5D00F583E0FEA3E0FFE56625E02414F582E4AC
:0E2C6D003460F583EEF0A3EFF005668086225A
:1028A800E4F566903861E493FFE566C39F5067904E
:1028B8006018E0FF7E00C39410748094805053EF3A
:1028C8009408748094804025E56625E02400F5820C
:1028D800E43460F583E0FEA3E0FFE56625E0240428
:1028E800F582E43460F583EE8FF012026AE566251E
:1028F800E02400F582E43460F583E0FEA3E0FFE520
:102908006625E02410F582E43460F583EE8FF0123A
:10291800026A0566808D906018E0C39410748094F4
:102928008040054337048006906018E004F07F017A
:03293800022B79F6
:102C7B00E4FFFEFDFCAB1BAA1AA919A818C312038B
:102C8B00E9606390601AE004F07006906019E0044C
:102C9B00F0903855E493FE740193FF4E602ED39061
:102CAB00601AE09F906019E09E4021E4F0A3F0F5DC
:102CBB001FF51EF51DF51CF533F532F531F530F525
:102CCB001BF51AF519F518C218022BFD903857E4AD
:102CDB0093FE740193FFD390601AE09F906019E00C
:0D2CEB009E400AD21822E4906019F0A3F078
:012CF80022B9
:05136C009064B5EFF0F4
:10137100A3E0FCA3E0FDA3E0FEA3E0F52B8E2A8D04
:10138100298C287884E2F50A08E2F50B758A08753C
:101391008B28758C2475881D2088FDE4FFFEFDFCDB
:1013A100AB27AA26A925A824D31203D34006AC242F
:1013B100A8048013AF27AE26AD25AC241203C5AB1C
:1013C10007AA06A905A80490601FE0FEA3E0FFE4B8
:1013D100FCFDC31203D35041E4FFFEFDFCAB27AA81
:1013E10026A925A8241203D34006AF27AE26800BD9
:1013F100AF27AE26AD25AC241203C590601FEEF0D9
:10140100A3EFF09064B5E025E024C7F582E43464ED
:10141100F583E0A3E090601EF0903852E493FE74EF
:101421000193FFD3906020E09F90601FE09E501BCE
:101431009064B5E025E024C7F582E43464F583E0E7
:10144100A3E090601EF090601B8079E4FFFEFDFC3C
:10145100AB27AA26A925A824D31203D3403490642C
:10146100B5E0FF25E024C7F582E43464F583E0FCB0
:10147100A3E0D39400EC9400404DEF25E024C7F5A0
:1014810082E43464F58374FFF5F012026A90601C03
:1014910080329064B5E0FF25E024C7F582E434642E
:1014A100F583E0FCA3E0C3947FEC94005019EF2591
:1014B100E024C7F582E43464F583E475F001120297
:1014C1006A90601D7401F090601CE064017011A3CA
:1014D100E06401700B90601CF0A3F090601B04F0BD
:1014E10090601BE06401703590601EE0FF9064B570
:1014F100E025E024C7F582E43464F583E4F0A3EF4A
:10150100F074FF90601FF0A3F090601E747FF0E410
:0F15110090601CF0A3F090601BF07F01227F0020
:0115200022A8
:102F2900E49064B4F090384C12042C780112040D2A
:102F39009064B6120448AF6112136CEF6022056108
:102F4900E53730E4095337EF9064B47401F09038F1
:102F590061E493FFE561C39F4006E4F561433710DF
:102F6900C39038507401939562E49394004008909B
:102F790064B4E064017005D217023535E4FF122B01
:012F890079CE
:012F8A002224
:102B7900EF70607F01FEFDFC74C12561F582E434CC
:102B890064F583E0F9F812040D8F178E168D158CF4
:102B990014787EE254FCF2E24514F218E515F218B5
:102BA900E516F218E517F2E56125E024C7F582E498
:102BB9003464F583E0A3E0547FFF7878E254804FD2
:102BC900F2787FE254FBF2E254FB4404F2E244015E
:102BD900F2801CE56125E024C7F582E43464F583BD
:102BE900E0A3E0547FFF7878E254804FF2787FE2E7
:042BF9004402F2227E
:1026DA00E49064A2F0A3F09064A2E0FEA3E0FFC33A
:1026EA009488EE94035031EF248DFFEE34058F82E7
:1026FA00F583E493FF9064A3E02421FD9064A2E0B3
:10270A0034608D82F583EFF09064A3E004F070C723
:08271A009064A2E004F080BF0E
:102722009063A97401F0A37460F0A37421F0E4F53E
:1027320061F537F536F535F534C217C218F51FF5D0
:102742001EF51DF51CF533F532F531F530F51BF5A7
:102752001AF519F51890385B93FF90385FE493FEF1
:10276200A807088002C333D8FCF563756420E4FF30
:03277200022B79BE
:102CF9007884E2F50A08E2F50BAE0A7803CEC3132D
:102D0900CE13D8F97802C333CE33CED8F9FFE561B3
:102D190025E02400F582E43460F583EEF0A3EFF0BA
:102D290020170F903854E4937005D21702353502F5
:102D39002F290561903861E493FFE561C39F401F26
:102D4900787FE254FBF2E254FB4404F2E24401F2DC
:102D5900E4F561E53720E2030228A8433701227F21
:052D690001122B79228C
:053AA9000562022C7B08
:1037EE00E53730E01A9063A9A3E0FAA3E0F91205D9
:1037FE00101211B3E4F5617F01122B795337FE22BB
:10278F00022F8BE493A3F8E493A34003F68001F2A6
:10279F0008DFF48029E493A3F85407240CC8C3334B
:1027AF00C4540F4420C8834004F456800146F6DF1A
:1027BF00E4800B0102040810204080900B1EE47E81
:1027CF00019360BCA3FF543F30E509541FFEE4930F
:1027DF00A360010ECF54C025E060A840B8E493A3D6
:1027EF00FAE493A3F8E493A3C8C582C8CAC583CA01
:1027FF00F0A3C8C582C8CAC583CADFE9DEE780BEB9
:010D6500008D
:10006000E709F608DFFA8046E709F208DFFA803E82
:1000700088828C83E709F0A3DFFA8032E309F6086F
:10008000DFFA8078E309F208DFFA807088828C83D7
:10009000E309F0A3DFFA806489828A83E0A3F6088B
:1000A000DFFA805889828A83E0A3F208DFFA804C65
:1000B00080D280FA80C680D4806980F2803380103C
:1000C00080A680EA809A80A880DA80E280CA8033A5
:1000D00089828A83ECFAE493A3C8C582C8CCC5831D
:1000E000CCF0A3C8C582C8CCC583CCDFE9DEE780ED
:1000F0000D89828A83E493A3F608DFF9ECFAA9F06C
:10010000EDFB2289828A83ECFAE0A3C8C582C8CCC1
:10011000C583CCF0A3C8C582C8CCC583CCDFEADEDA
:10012000E880DB89828A83E493A3F208DFF980CC3C
:1001300088F0EF60010E4E60C388F0ED2402B40435
:100140000050B9F582EB2402B4040050AF232345DC
:0601500082239000B07351
:10015600BB010689828A83E0225002E722BBFE02A7
:09016600E32289828A83E49322DA
:10016F00BB010CE58229F582E5833AF583E0225045
:10017F0006E92582F8E622BBFE06E92582F8E2228F
:0D018F00E58229F582E5833AF583E49322A9
:10019C00BB010FF8E58229F582E5833AF583E02867
:1001AC00F0225009C58229F8E58226F622BBFE0909
:1001BC00C58229F8E22582F222F8EA2583F583E943
:0301CC0093282253
:1001CF00BB010689828A83F0225002F722BBFE010F
:0201DF00F32209
:1001E100F8BB010DE58229F582E5833AF583E8F054
:1001F100225006E92582C8F622BBFE05E92582C800
:02020100F222E7
:10020300EF8DF0A4A8F0CF8CF0A428CE8DF0A42E0F
:02021300FE22C9
:10021500BC000BBE0029EF8DF084FFADF022E4CCCD
:10022500F875F008EF2FFFEE33FEEC33FCEE9DEC96
:10023500984005FCEE9DFE0FD5F0E9E4CEFD22EDDC
:10024500F8F5F0EE8420D21CFEADF075F008EF2F26
:10025500FFED33FD4007985006D5F0F222C398FD17
:050265000FD5F0EA22B4
:10026A00C5F0F8A3E028F0C5F0F8E582158270021F
:06027A001583E038F022BC
:0D028000EF2BFFEE3AFEED39FDEC38FC22CD
:0E028D00C3EF9BFFEE9AFEED99FDEC98FC226C
:10029B00E88FF0A4CC8BF0A42CFCE98EF0A42CFC02
:1002AB008AF0EDA42CFCEA8EF0A4CDA8F08BF0A480
:1002BB002DCC3825F0FDE98FF0A42CCD35F0FCEBDF
:1002CB008EF0A4FEA9F0EB8FF0A4CFC5F02ECD39A4
:0F02DB00FEE43CFCEAA42DCE35F0FDE43CFC2211
:1002EA0075F008758200EF2FFFEE33FECD33CDCCCB
:1002FA0033CCC58233C5829BED9AEC99E58298404E
:10030A000CF582EE9BFEED9AFDEC99FC0FD5F0D62A
:10031A00E4CEFBE4CDFAE4CCF9A88222B800C1B954
:10032A000059BA002DEC8BF084CFCECDFCE5F0CB92
:10033A00F97818EF2FFFEE33FEED33FDEC33FCEBCB
:10034A0033FB10D703994004EB99FB0FD8E5E4F986
:10035A00FA227818EF2FFFEE33FEED33FDEC33FC73
:10036A00C933C910D7059BE99A4007EC9BFCE99A67
:10037A00F90FD8E0E4C9FAE4CCFB2275F010EF2FAC
:10038A00FFEE33FEED33FDCC33CCC833C810D707AC
:10039A009BEC9AE899400AED9BFDEC9AFCE899F8E7
:0E03AA000FD5F0DAE4CDFBE4CCFAE4C8F9227A
:0D03B800CFF4CFCEF4CECDF4CDCCF4CC22DA
:0E03C500C3E49FFFE49EFEE49DFDE49CFC2249
:1003D300EB9FF5F0EA9E42F0E99D42F0EC6480C8A1
:0603E30064809845F02241
:1003E900EB9FF5F0EA9E42F0E99D42F0E89C45F06A
:0103F90022E1
:1003FA00E8600FECC313FCED13FDEE13FEEF13FFE1
:03040A00D8F12204
:10040D00E8600FEFC333FFEE33FEED33FDEC33FC4D
:03041D00D8F122F1
:0C042000E0FCA3E0FDA3E0FEA3E0FF224F
:10042C00E493FC740193FD740293FE740393FF2216
:0C043C00E0F8A3E0F9A3E0FAA3E0FB2243
:0C044800ECF0A3EDF0A3EEF0A3EFF02227
:10045400A8828583F0D083D08212046B12046B12BD
:10046400046B12046BE473E493A3C583C5F0C583E2
:10047400C8C582C8F0A3C583C5F0C583C8C582C8F2
:010484002255
:0C048500A42582F582E5F03583F5832282
:09049100E0FBA3E0FAA3E0F9226C
:10049A00F8E0FBA3A3E0F925F0F0E58215827002EB
:0704AA001583E0FA38F0228F
:0904B100EBF0A3EAF0A3E9F0224C
:1004BA00BB010DE58229F582E5833AF583020491B1
:1004CA005007E92582F802056FBBFE07E92582F885
:1004DA00020578E58229F582E5833AF583020581EA
:1004EA00D083D082F8E4937012740193700DA3A3A1
:1004FA0093F8740193F5828883E4737402936860B5
:06050A00EFA3A3A380DFB4
:060510008A838982E47376
:10051600EC8EF0A4CCC5F0CCCDF8EFA4CEC5F02D72
:10052600FDE43CFCE8A42EC8C5F03DFDE43CFCEF30
:0D053600A4FFE5F028FEE43DFDE43CFC22BE
:10054300EF4E6012EF60010EEDBB010B89828A83CF
:10055300F0A3DFFCDEFA2289F05007F709DFFCA9DC
:0C056300F022BBFEFCF309DFFCA9F02233
:09056F00E6FB08E6FA08E6F922B1
:09057800E2FB08E2FA08E2F922B4
:0C058100E493FB740193FA740293F922D6
:00000001FF
