:0300000002278E46
:10278E00787FE4F6D8FD9060007F007E07E4F0A32A
:0A279E00DFFCDEFA7581660227E316
:0C000300000000000000000000000000F1
:0B3C1600EF1FAC0670011E4C70F62280
:10002700AB07AA06EB1BAE0270011A4E600C7FAA43
:0B0037007E05123C1675D9AA80EA2253
:101F9F00907120E04480F07F057E00123C16E4FF34
:101FAF00FE12002775A75575AC5C9071327450F016
:101FBF009071307403F0907136742FF090715C74DF
:101FCF0003F090715BE054FCF07F18EF2466FDE4A2
:101FDF0034718D82F583E4F00FEFB433EE9040113E
:101FEF00E4935407FF90711CE054F84FF0904017A2
:101FFF00E493547FFF90711DE054804FF090401098
:10200F00E493FF5401C43333335480FE907123E0C3
:10201F00547F4EF0EFC313543F4440FFA3E054806E
:10202F004FF0904012E493FF540FFE907146E0542E
:10203F00F04EF0EFC4540FFF90714FE054F04FF09B
:10204F00904013E493543FFF907140E054C04FF021
:10205F00904014E493907126F0904015E4939071A2
:0B206F0028F0904016E49390712AF0D6
:01207A002243
:103A8400000009C4006400C80101F4004B000A00EE
:0E3A940000010F0405020009000A000A000AE2
:103B5B00E2FE742C2FF582E43465F583E02224FC1D
:083B6B0025E0FDF874030822B7
:10170C00E4FF123B5DC394085058123B5DC3940434
:10171C00502878C2C000123B5B123B6B8002C33373
:10172C00D8FCF45ED000F278C2C000123B5B123BD6
:10173C006B8002C333D8FC02183A78C3C000123B4A
:10174C005B123B698002C333D8FCF45ED000F278A4
:10175C00C3C000123B5B123B698002C333D8FC024E
:10176C00183A123B5DC394084068123B5DC3941059
:10177C005060123B5DC3940C502C78D2C000123BCD
:10178C005B24F8123B6B8002C333D8FCF45ED000B0
:10179C00F278D2C000123B5B24F8123B6B8002C380
:1017AC0033D8FC02183A78D3C000123B5B24F412F5
:1017BC003B6B8002C333D8FCF45ED000F278D3C00C
:1017CC0000123B5B24F4123B6B8002C333D8FC0247
:1017DC00183A123B5DC39414502B78E2C000123BB4
:1017EC005B24F0123B6B8002C333D8FCF45ED00058
:1017FC00F278E2C000123B5B24F0123B6B8002C318
:10180C0033D8FC802978E3C000123B5B24EC123BFC
:10181C006B8002C333D8FCF45ED000F278E3C000D6
:10182C00123B5B24EC123B6B8002C333D8FC4ED0D2
:0B183C0000F20FEF6402600302170EC1
:01184700227E
:03005D00023474F6
:10347400C0E0C0F0C083C082C0D075D000C000C01E
:1034840001C002C003C004C005C006C0077881E2C1
:1034940030E607E24440F2122E7ED007D006D00573
:1034A400D004D003D002D001D000D0D0D082D083B9
:0534B400D0F0D0E03271
:1032B500D2AF43AB0843B6C0907132E04440F0430F
:1032C500AB087877743FF208744BF2787A7430F271
:1032D500788914F27871744FF2187427F278727441
:1032E500A8F2087410F208E4F208F208F2787E7485
:0F32F500D0F2087404F208741EF2087402F22278
:1028BB00E4FBEB25E025E0249AF582E4343AF5833A
:1028CB00740193FF742C2BF582E43465F583EFF0E0
:1028DB00EB25E025E0249CF582E4343AF583E49380
:1028EB00FE740193FFEB25E0242EF582E43465F5AD
:1028FB0083EEF0A3EFF0EB25E02432F582E43465B0
:10290B00F583E4F0A37441F0E47F01FEFDFC742C2D
:10291B002B123B60F9F8120423E53F4FFFE53E4EC7
:10292B00FEE53D4DFDE53C4C8F3F8E3E8D3DF53C30
:10293B000BEB640260030228BD12170C1226F30284
:02294B0032B5A3
:051DAF0042658D0000FB
:073C6B00E475F00102026A9A
:1036360053A8BFD2AF75D102789CE254E3F2E244BC
:103646001CF2E254FCF2E24401F208E2547FF2E298
:103656004420F278A17401F2187476F2789CE25450
:0A3666001FF2E244C0F243A8402224
:0300210002196859
:10196800C0E0C0F0C083C082C0D075D000C000C045
:1019780001C002C003C004C005C006C007789DE2CC
:1019880020E703021A66E24480F23011069064856B
:10199800E004F0906408E004F0906508E004F0903A
:1019A8006591123C6B30181D9063B0123C6BC3906C
:1019B80063B1E094409063B0E0949C4011E4F0A3DC
:0E19C800F0D21780099063B0E4F0A3F0C217CC
:1019D60090658D123C6BC390658EE0946490658D26
:0B19E600E094004006E4F0A3F0D216ED
:1019F100906567E0FEA3E0FFE4FCFD7BFF7AFFF961
:101A0100F8D31203E94006906567123C6B9063AE10
:101A1100123C6B906588123C6BC3906589E094D051
:101A2100906588E094074008E4F0A3F0906587F0A2
:101A310090658B123C6BC390658CE0946490658BD0
:101A4100E094004008E4F0A3F090658AF0906569A5
:101A5100123C6B906583123C6B906571123C6B126A
:101A610036701230F1D007D006D005D004D003D0A3
:101A710002D001D000D0D0D082D083D0F0D0E032DB
:091DB400C113C11442658F000047
:10000F00120436EF2401FFE43EFEE43DFDE43CFC28
:01001F0022BE
:1034B900E5B254FC42B253A9FED2AF75D104907162
:1034C90000E054E3F0E0F0E054FCF0E04401F09057
:1034D90071057409F0907104745FF0907101E05402
:1034E9007FF0E04420F0907100E0541FF0E044C008
:0534F900F043A90122CF
:030024000224456E
:10244500C0E0C0F0C083C082C0D075D000C000C05D
:0D24550001C002C003C004C005C006C007DE
:10246200907101E030E775E04480F0308213201370
:102472000C90656D12000F90656D12045ED2138090
:0324820002C21380
:1024850090658FE475F00112026AC3906590E0943F
:102495001490658FE094004025E4F0A3F090654426
:1024A50075F00112026AC3906545E094E8906544B1
:0E24B500E094034009201506E4F0A3F0D215D0
:1024C30030951620140F90654012000F906540124E
:0B24D300045E1235BBD2148002C2145C
:1024DE00D007D006D005D004D003D002D001D00052
:0B24EE00D0D0D082D083D0F0D0E032FC
:10326200906488120436747E2FF582E43464F58308
:10327200229064E5E0FF247BF582E43464F5832246
:103282007D00EF75F00FA4244EF9746435F0FA7BDB
:103292000122E5822EF582E43583F58322E4F09063
:1032A2006481E014F090000F22906487E4F090644F
:0332B20086F02281
:0A3C2100E4906485F0C210D2112275
:0A3C2B00C211E4906485F0C210227B
:1039330078C2E2543FF2E254FCF2E24440F2907166
:1039430081E04404F0907175E04401F043AA20D271
:0B395300AF75D60175D59F75D211220B
:03004B0002184850
:10184800C0E0C0F0C083C082C0D075D000C000C066
:0D18580001C002C003C004C005C006C007E7
:10186500906504E4F0E5D420E50302194DE5D7F0D1
:10187500201204E0B4A509906481E0C394034003F9
:1018850002194A906504E0B4A508D2121232AB12CF
:101895003C21906487E0B40108906504E09064867B
:1018A500F0123262E0600302194D906504E0FF908A
:1018B500648812045290644E75F00FEB12049BEA93
:1018C50075F00FA42583F583C083C082906487E0FB
:1018D500FE04F0D082D083123294EFF0906485E458
:1018E500F0A3E06063E0FFA3E06F705C906486E0C6
:1018F500FB906488120436747B2F12327AEBF0C2A7
:10190500121232AB1232627401F0906481E004F07D
:10191500906488120436EF2401FFE43EFEE43DFDA9
:10192500E43CFC90648812045EE47F03FEFDFC90B9
:101935006488120452C31203FF400A90648812049B
:081945006A00000000123C2BB7
:10194D00D007D006D005D004D003D002D001D000EE
:0B195D00D0D0D082D083D0F0D0E03298
:0D3BEF00E5D430E4FB8FD7E5D430E4FB22B1
:101A8100E49064E5F0A3F0C21D906485E0D3940A6C
:101A9100400F123C2BE4906487F0906486F0C212F0
:101AA10022E49064E5F09064E5E0FFC39403400311
:101AB100021B92747E2F12326BE07003021B89901D
:101AC10064E5E075F00FA4244FF582E43464F583F6
:101AD100E0FE747B2F12327AE06E601A9064E5E0CA
:101AE100247E12326B12329FC083C082123282D0A6
:061AF10007D006020559B2
:101AF700E49064E7F09064E6F0A3F0123273E01428
:101B0700FE9064E7E0FDC39E5022EF75F00FA4241A
:101B17004EF582E43464F583E5822D123297E0FFB7
:101B27009064E6E02FF0A3E004F080CF9064E6E055
:101B3700F0123273E0FEEF75F00FA4244DF582E446
:101B47003464F583123294E0FF9064E6E06F60023C
:021B5700D21D9D
:101B5900301D1DC21D9064E5E0FF247E12326B1218
:101B6900329FC083C082123282D007D00612055933
:101B79009064E5E02482F582E43464F5837401F02D
:091B89009064E5E004F0021AA7E3
:011B92002230
:041DBD0041659300E9
:1039DE00906505E0FEA3E0FF22907123E054D8F03D
:1039EE00E0445AF0221237B4906593227869E2448B
:0339FE0001F222B1
:1039B40078C3E24403F2E2440CF218E2440CF278D5
:1039C4006AE24479F27591FF9071227407F0439E84
:0A39D4007043994043AA04D2AF22C9
:1037B4005399E0EF24FE600F14601C2402701E1263
:1037C40039E74399048016907123E05498F0E0445B
:1037D4001EF043990580061239E74399017869E29E
:0437E4004448F22241
:1030F100906593E064066003E070097F011239F383
:103101007401F022906593E0B401071239FA740258
:10311100F022906593E0B402097F021239F374033F
:10312100F022906593E0B403071239FA7404F02297
:10313100906593E0B404097F031239F37405F0221A
:0E314100906593E0B405061239FA7406F02288
:03004200022AFD92
:102AFD00C0E0C0F0C083C082C0D075D000C000C09F
:0D2B0D0001C002C003C004C005C006C0071F
:102B1A00786BE230E149E24402F2AF93EF75F010CC
:102B2A00A4FFE594C4540FFDEF4DFF906505E5F051
:102B3A00F0A3EFF0906593E0B402081239DE123C7C
:102B4A0059801C906593E0B404081239DE123C35B2
:0F2B5A00800D906593E0B406061239DE123C47F9
:102B6900D007D006D005D004D003D002D001D000C0
:0B2B7900D0D0D082D083D0F0D0E0326A
:10387E00A3F078E3E254FCF2E24401F2907192E498
:10388E00F0229064F2E004F0E0C3940822C2A4C2D5
:0E389E0096D2977F04FE22FFE0FEA8070822C4
:10320A00E4FF78D3E2543FF2E24440F290718DE455
:10321A00F0E254CFF2E24410F290718CE4F01238EA
:10322A0080C297C296123091EF702A7D0A7F8C1263
:10323A0024F97D017F881224F97D017F861224F901
:10324A00E4FD7F821224F9E4FD7F841224F9E4FD6F
:08325A007F801224F90233E821
:103AF600E4FDEE25E0FEEF30E004EE4401FEEFC308
:093B060013FF0DEDB408EBAF064E
:013B0F002293
:022EF300AC072A
:102EF500E49064E6F0AF05123AF6EC64816019ECF3
:102F050064836014EC6485600FEC6487600AEC648C
:082F1500896005EC648D704336
:102F1D00E49064E7F0A3F0EC64816004ECB4830604
:102F2D00EF547FFF8017EC64856004ECB48706EFE7
:102F3D00543FFF8008ECB48904EF541FFFEFC454D5
:102F4D000FFE9064E7F0EF540FFFA3F0EE75F00A5B
:032F5D00A42FFF9F
:012F6000224E
:05294D009064E6EFF0CC
:10295200E4A3F012387E12389B123C16E49064E82D
:10296200F01229C19064E8E09064E61238A5800272
:10297200C313D8FC30E004D2A48002C2A47F047E38
:1029820000123C161229CB40D878E3E254FCF278CC
:10299200E0E24410F2E49064E8F09064E7E025E0BD
:1029A200F01229C130A4079064E7E04401F0122933
:0E29B200CB40E7C296C297C2A49064E7E0FF54
:1029C00022C2967F047E00123C1622D2967F047E9D
:0F29D00000123C169064E8E004F0E0C394082283
:053B8A009064E5EFF07E
:103B8F00E4FE12294DAE079064E5E0FFAD06022E6C
:013B9F00F332
:0829DF009064F0EFF0A3EDF0AD
:1029E700E412387E12389B123C16E49064F2F0121F
:1029F7002A659064F2E09064F01238A58002C31350
:102A0700D8FC30E004D2A48002C2A4122A5412389F
:102A17009040DCE49064F2F0122A659064F2E0FFE3
:102A27009064F1E0FEA807088002C313D8FC30E0E9
:102A370004D2A48002C2A4122A5412389040D9C2E8
:0C2A4700967F047E00123C16C297C2A4C9
:102A5300227F047E00123C16D2967F047E00123C35
:0C2A63001622C2967F047E00123C162250
:103091001233E8D39064D0E094339064CFE0940885
:1030A1005048C3A3E094D09064CFE09407403B9094
:1030B10064D1E0D3940C5032E0C39401402CA3E0DE
:1030C100D3941F5025E0C39401401FA3E0D394186B
:1030D1005018A3E0943C5012A3E0943C500C90642F
:1030E100CFE0B40708A3E0B4D0037F00227F012220
:0524F9009064ECEFF01F
:1024FE00A3EDF0EF6480601D9064ECE0FF648260F9
:10250E0014EF6484600FEF6486600AEF64886005E0
:05251E00EF648C706CFD
:10252300E49064EEF0A3F09064EDE0FFC3940A40FE
:1025330007EF75F00A84A3F09064EDE075F00A8468
:10254300AFF09064EFEFF09064EEE0FEC454F04F10
:102553009064EDF09064ECE0FF64806004EFB4827B
:10256300099064EDE0547FF080229064ECE0FF6416
:10257300846004EFB486099064EDE0543FF0800C6E
:0C2583009064ECE0B48805A3E0541FF065
:10258F00E4FD7F8E1229DF9064ECE0FFA3E0FD12E3
:09259F0029DF7D807F8E0229DF17
:10353E009064E5A3E02430FD7F8C1224F99064E7BB
:10354E00E0FD7F881224F99064E8E0FD7F86122466
:10355E00F99064E9E0FD7F841224F99064EAE0FDBD
:0F356E007F821224F99064EBE0FD7F800224F944
:1033E8007F81123B8A9064D5EFF07F83123B8A90ED
:1033F80064D4EFF07F85123B8A9064D3EFF07F8727
:10340800123B8A9064D2EFF07F89123B8A9064D194
:10341800EFF07F8D123B8AEF24D0FEE434079064EE
:06342800CFF0A3CEF0225C
:103A24009064E5F090600D0204A790000612016F07
:103A3400FE90000802016F9000091201E190000C51
:013A4400225F
:10141300E49064E5F07FFFA374FFF090600D120485
:10142300C790000112016FFE120156FDEEC39D50DD
:10143300030215A5123A28900001E41201E190007D
:101443000E1204D0120526EFF4600890600C74238A
:10145300F0800990600CE06003E014F0123A2890E9
:10146300000312016F6F601590000512016F600D8C
:10147300900004E41201E19000030215A19000051D
:1014830012016FFE90000412016FC39E500B123ABB
:1014930028900004740102019C123A289000021261
:1014A300016F6F6048EFF4701C123A2EC39E400A1E
:1014B3007405123A249000028061123A2890000ABF
:1014C3007401021598123A289000087401123A3EEA
:1014D30012016F6F90600D600C1204A77401123A31
:1014E3003BEF0215981204A7900009803DEFF470BA
:1014F30041123A2890000912016FD394005003025D
:10150300159B90000B12016FFE90000A12016FD31E
:101513009E40117401123A2490000C12016F9064E2
:10152300E6F08054123A2890000A740112019C02DA
:10153300159B123A28123A35C394FF5008900008BD
:10154300740112019C123A2EB506089064E57403E7
:10155300F08020123A28900007123A316E703990C9
:1015630064E57404123A2790000612016F90000894
:101573001201E19064E6EFF0123A28E4123A3B7468
:10158300FF1201E19064E6E09000111201E1906422
:10159300E5E09000121201E1123A28900002EF12E6
:0215A30001E164
:0115A5002223
:10215200C2B178E0E254BFF278E3E254CFF2E24453
:1021620010F2907194E4F02290648CF0A374C5F0A4
:10217200788E7C647A64798C7E007D017B017F029B
:102182000201309064F07B017A64798CE4F0A374EC
:1021920002F022E0FF7B019064F0E4F0A37411F0FE
:1021A2002290648EE0FF90648CE02278A17C647DB2
:1021B200017B017A64799022E4F078E3E254CFF271
:1021C20078E0E24440F22275D9AA7B017A64798EE2
:1021D200221204369064E802045ED2B17F047E00CB
:1021E20022EF75F020A4FFE5F0F0A3EFF022906457
:1021F2008FE064C52212045E9064C70204361204A2
:102202005E9064CB0204369064E8020436EEF0A3DA
:06221200EFF0A30204C777
:103BA000122185E4FF1237151221C99064F0122109
:063BB0008E7F01023715B3
:103B10009064F0122188E4FF12374A1221C99064A0
:093B2000F012218E7F0102374AE8
:102B8400123B1090648DE064C5600D1221F0600862
:102B9400740212216A022C0490648DE0B4C507907B
:102BA400648FE0B4C50D90648DE064C56035122176
:102BB400F0703090648DE0B4C5101221721221CCF3
:102BC4009064F012218E7F0180161221F070347807
:102BD4008C7C647A64798EFE12217C122185E4FF58
:102BE4000237151221A3D39F4007E090648EF08032
:102BF4000F1221A3C39F500B90648EE090648CF05D
:042C0400123BA022BD
:10126D00E49064E7F0123B101221A3B50702800C45
:10127D001221A3D39F4002800390648EE09064E717
:10128D00F09064E7E020E0099064E5F004A3F080BD
:10129D000D9064E7E0FE149064E5F0A3EEF0906429
:1012AD00E57A64799012219512374A9064E67A6452
:1012BD0079A112219512374A9064A0E064C5602E81
:1012CD0090649C12046A0000000090649012046AFD
:1012DD000000000090649412046A00000000906405
:1012ED009812046A000000009064A074C5F0906428
:1012FD00B1E064C5600A1221AD7E007F111201308C
:10130D009064A1120436906490120452C31203FF2C
:10131D009064C350291204369064A11221F7906491
:10132D00A51222009064A912045E9064AD1221D31F
:10133D0078907C647D017B017A6479A1801E120412
:10134D00369064901221F790649412220090649864
:10135D0012045E90649C1221D31221AD7E007F1188
:10136D00120130122209EF2401FFE43EFEE43DFD9F
:10137D00E43CFC1221D612220990649C12045E12E8
:10138D0022099064AD12045E7FE07E937D047C00A3
:10139D009064E8120452D31203FF40309064E6E0EB
:1013AD00049064E5F0E0FE04A3F0EE947E40099015
:1013BD0064E5747EF0A304F090649C12046A00004E
:1013CD0000009064AD12046A000000009064E5E036
:1013DD00FF1221B39064F012219C1237159064E630
:1013ED00E0FF7B017A6479A19064F012219C1237A1
:1013FD001590648CE0FF9064E5E0FE6F6007EE12DF
:05140D00216A123BA062
:0114120022B7
:103B2900122154D2A6D2B17F04FE123C16C2A67F3E
:093B3900047E00123C16C2B12208
:103ABF00122154C2B1C2A67F04FE123C161221DCA1
:0C3ACF00123C16D2A67F047E00023C16BA
:1036A9009064FB1221BAD2A67F047E00123C16D286
:1036B900B1801530A61B9064FBE004F0E0D394FAC6
:1036C9004006123ABF7F01227F047E00123C168019
:0536D900E2C2B17F0018
:0136DE0022C9
:103BB600122152C2A67F04FE123C161221DC123CD0
:043BC60016C2B12250
:103BCA00122152D2A67F04FE123C161221DC123CAC
:043BDA0016C2B1223C
:05342E009064FBEFF0CB
:10343300122154C2B19064FCF09064FBE0FF54800D
:10344300C4131313540124FF92A6EF25E0F07F0465
:103453007E00123C161221DC123C16C2B17F047EA0
:1034630000123C169064FCE004F0E0C3940840C9E9
:013473002236
:053304009064FBEFF0F6
:103309009064FD1221BAE49064FCF0C2B17F047E9E
:1033190000123C16D2B19064FDE025E0F030A6031E
:10332900E004F07F047E00123C169064FCE004F097
:10333900E0C3940840D59064FBE07005123BCA8055
:0933490003123BB69064FDE0FFA5
:013352002258
:102A6F009064F412220F123B297FA012342E1236DB
:102A7F00A9EF60037F01229064F4122AF360037FB1
:102A8F0001229064F4A3122AF360037F01227F04D2
:102A9F007E00123C16123B297FA112342E1236A94A
:102AAF00EF60207F01229064F9E07002A3E0601FC5
:102ABF007F011233049064F6E475F0011204B0EF55
:102ACF001201CF9064F974FFF5F012026A80D7E417
:102ADF00FF1233049064F61204A7EF1201CF123ADB
:0E2AEF00BF7F0022E0FF12342E1236A9EF2224
:102C8C009064F412220F123B297FA012342E1236BC
:102C9C00A9EF60037F01229064F4122D0160037F81
:102CAC0001229064F4A3122D0160037F0122906431
:102CBC00F974FFF5F012028045F0602C9064F61266
:102CCC0004A7120156FF12342E1236A9EF60037FAF
:102CDC0001229064F4E475F00112026A9064F7E446
:102CEC0075F00112026A80C67F047E00123C161237
:0F2CFC003ABF7F0022E0FF12342E1236A9EF22DA
:063715009064ED1204C7F0
:10371B009064F21221E39064F2E0FEA3E0FF906468
:10372B00ED1204A79064F0E0FDA3E09064F9CDF0F6
:0E373B00A3EDF0122C8CEF600575D9AA80D892
:01374900225D
:06374A009064ED1204C7BB
:103750009064F21221E39064F2E0FEA3E0FF906433
:10376000ED1204A79064F0E0FDA3E09064F9CDF0C1
:0E377000A3EDF0122A6FEF600575D9AA80D87C
:01377E002228
:103B7300D2A6D2B178F2E254F3F2E24404F29071A5
:073B830097E4F012215A2221
:1037E80078E2E2543FF2E24440F2907191E0F01244
:1037F800393312381C1239B4123BFC123C0912320C
:103808000A1236361234B9123B7312314F7F017ED9
:043818000002002783
:102FCD00121F9F75D95590715EE054FEF075D9BBF7
:102FDD001237E8D2A37FE87E03120027C2A312287E
:102FED00BB75D9AA123A4575D9AA7B017A647907BE
:102FFD001214131222D47B017A657907121413125D
:10300D002657122E0712221812395E121EAC121CF0
:10301D00A312207B12238E121A811215A6120D33C4
:02302D0080BF62
:1036DF009064B21204369064C312045E9064B61202
:1036EF0004369064C712045E9064BA120436906474
:1036FF00CB02045EE0FF7B017A6479B29064F0E460
:06370F00F0A37411F0228A
:10314F00122B8490648CE09064E5F01237031237F1
:10315F004A9064C2E0B4C50F1236DF9064C3120404
:10316F00369064E612045E9064E5E020E00404F01B
:10317F0080069064E5E014F09064E512370312378F
:10318F004A9064C2E0B4C5159064B21204369064DC
:0D319F00E6120452C31203FF50031236DF84
:0131AC002200
:033C720002126DCE
:10357D00FEE02FFFEC3EFEA3E02FFFEC3EFE22FA15
:10358D001204367E00EB2FFFEE3AFE3395E0FDFC84
:10359D00221204107E009064E5E022FC9064EA02A1
:0E35AD00045E9064EA0204369064E60204367E
:050B34009064E5EFF004
:100B39009064EA12046A000000007FA5123BEF12DC
:100B490035AFEF24A5FFE43EFEE43DFDE43C12355C
:100B5900A89064E5E0FF64016032EF6402602DEF64
:100B690064036028EF64046023EF6405601EEF648A
:100B7900066019EF64096014EF640A600FEF6411ED
:100B8900600AEF64126005EF641370207F05120D8F
:100B99000D120D1FC0001235B51235A12405FDE453
:100BA90033CD2FFFEE3D123597020CDE9064E5E060
:100BB900FF6407600AEF64086005EF641070337F13
:100BC90006123BEF9064E5E0FF120CF5120D1FC011
:100BD90000C002C0031235B5780812359E2406FDFF
:100BE900E433CD2FFBEE3DA312358CD003D00202A6
:100BF9000CDE9064E5E0FF640B600FEF640C600AA3
:100C0900EF64146005EF640D70467F07120D0D78CF
:100C190010120410120CF5120D29C000C002C003F5
:100C29001235B5781012359E2407FDE433CD2FFB1C
:100C3900EE3DFAA312043678081204107E00EB2F59
:100C4900FBEE3A9064E612358CD003D002020CDE3A
:100C59009064E5E0640E6003020CE67F0B123BEF43
:100C69007F0E123BEF9064CFE0FF123BEF9064CF11
:100C7900E0A3E0FF123BEF9064D1E0FF123BEF905D
:100C890064D2E0FF123BEF9064D3E0FF123BEF9098
:100C990064D4E0FF123BEF9064D5E0FF120D29C048
:100CA90000C001C002C0039064CFE02419FFE433FF
:100CB900FEE0A3E07C002FFFEC3E9064D112357D6D
:100CC900A3E02FFFEC3EA312357D3395E0FDFCD068
:100CD90003D002D001D0001202961235A91235AF05
:0C0CE900E4FEFD1235A81235AF023BEF0F
:100CF500123BEF9064E61204367808120410123B9A
:100D0500EF9064E612043622123BEF9064E5E0FFB3
:100D1500123BEF9064E612043622123BEF9064EA30
:0E0D250012045222123BEF9064EA1204522292
:10381C0078E3E2543FF278F2E254FCF278D3E254CB
:10382C00FCF218E2543FF2E254FCF278C3E2543F4B
:10383C00F2E254CFF278E2E254FCF278E0E2440196
:02384C00F22266
:102E0700C3906592E094C8906591E094004067E4B0
:102E1700F0A3F02086069064DCF0804520870890B8
:102E270064DC7401F0803A2090089064DC7402F04E
:102E3700802F2093089064DC7403F080242094088A
:102E47009064DC7404F0801920B0089064DC740589
:102E5700F0800E9064DC20A7057406F0800374FFF1
:102E6700F0D20120A0079064E374018004E4906429
:072E7700E3F0A3F0D20622F4
:1038AC00F583EFF09064EFE004F02290654E020493
:1038BC0052E4FAF9F802033C9DFEE09C9064EDF0B2
:0E38CC00A3CEF022E0FCA3E0FDC39FEC9E2201
:0D3BFC0078D3E254F3F278D0E24420F222B4
:1035BB001238B7906544E0FEA3E0FFE4FCFD120275
:1035CB009690654E12045EE4906544F0A3F090650E
:1035DB0052120436906540120452120296906552B4
:0E35EB0012045E90654012046A000000002287
:10221800E49064E5F0A3F09064E712046A0000001B
:1022280000E47FBC7E02FDFC1238B7C31203FF50E6
:10223800062015030222D3E47F6D7E05FDFC906520
:10224800521204521202B17B041238BD9064E71294
:10225800045EE43015089064E5F0A3F080217F2443
:10226800FEFDFC9064E71204521202B17B0A123898
:10227800BD1238B712033C9064E5EEF0A3EFF0907E
:1022880065631204369064E7120452120296906550
:102298006312045E90655212046A000000009065A3
:1022A8004E12046A00000000C215D39064E6E09460
:1022B800E79064E5E0940340077403F0A374E7F043
:0B22C8009064E5E0FEA3E0FF121B9312
:0122D30022E8
:081B93009064EBEEF0A3EFF00B
:101B9B00E4A3F0A3F0C21D90653E1238D0500FC3E2
:101BAB009064ECE09064EB1238C4D21D80479065D2
:101BBB003EE0FEA3E0FF9064EB1238D0500FC390D1
:101BCB00653FE090653E1238C4C21D8028E49064E6
:101BDB00EFF09064EFE0FFC3940750169064EBA313
:101BEB00E0FE74462FF582E43465F583EE1238AFD0
:101BFB0080E0021C9D301D3AE49064EFF09064EF9E
:101C0B00E0FB2401FFE433FE9064EDE0FCA3E0FD78
:101C1B001202037C007D0712021590653EA3E02F94
:101C2B00FF74462BF582E434651238ACE0B407CD73
:101C3B008051E49064EFF09064EDE0FEA3E0FBAA2A
:101C4B0006E4F9F8A3E0FFC374069FFFE49400FEDB
:101C5B003395E0FDFC1202B1E47B071238BE9065B0
:101C6B003EA3E0C39FFF9064EFE0FDC374069DFDB0
:101C7B00E49400FC74462DF58274653C1238ACE09C
:101C8B00B407B49064EBE0FFA3E090653ECFF0A304
:071C9B00EFF0E490654DF04D
:011CA200221F
:10395E00301627C21690654DE0C39407501CE02424
:10396E0046F582E43465F583E0FF9064D8E4F0A375
:0B397E00EFF090654DE004F0D2042251
:10377F009064EBE0FFE4FCFDFE7BFF7AFFF9F8D3EA
:10378F000203E990656BE0FEA3E0FFE4FCFD2290ED
:10379F006577020452E4FDFC0204529064E51204C2
:0537AF003690656B225D
:0D3C090078C2E254CFF278C0E24404F22207
:1036700090657312043690656D1204521202969092
:10368000657312045E90656D12046A0000000012FA
:10369000379E9065711237951202969065771204E5
:0936A0005EE4906571F0A3F022D4
:103ADB00C3EF9DEE9C4008EF9DFBEE9CFA8007C365
:0A3AEB00ED9FFBEC9EFAAE02AF0364
:013AF50022AE
:101EAC00E47F64FEFDFC12379EC31203FF50030255
:101EBC001F9E7F607EEA9065731237A41202B112E6
:101ECC00379E12033C9064E512045E906573120415
:101EDC006A0000000090657712046A000000007F21
:101EEC00FF7EFF9064E51237A4C31203FF400A90F3
:101EFC0064E512046A0000FFFF1237AAE0FCA3E0BD
:101F0C00FD123ADB9064E9EEF0A3EFF09064E91275
:071F1C00379512378850626F
:101F2300E49064EBF01237929064E5120452D312FA
:101F330003FF5028E49064EBF012377F404CD390BA
:101F4300656CE0940090656BE09400400774FFF5C6
:101F5300F012026A9064EBE004F080DDE49064EB3D
:101F6300F012377F4024123792F8D31203E9400A64
:101F730090656BE475F00112026A9064EBE004F083
:021F830080DFFD
:101F85001237AAEEF0A3EFF090656BE0FFA3E090A7
:091F950064D6CFF0A3EFF0D203F3
:011F9E002220
:041DC1004165560022
:10384E00120436EF2401FFE43EFEE43DFDE43CFCB1
:10385E00221204361202A3E47B64FAF9F8C30203BF
:10386E00FF7F7F7E967D987C00120452C30203FF79
:101CA300C3906568E094E8906567E09403400F3063
:101CB3001B0C123C72C21BE4906567F0A3F0E47F37
:101CC300E87E03FDFC90656312387740717F187ED0
:101CD300C67D9A7C3B9064C3123877500C9064C3E2
:101CE30012384E9064C312045E9064C712386F506A
:101CF3000C9064C712384E9064C712045E9064CB94
:101D030012386F500C9064CB12384E9064CB12048F
:101D13005E906563120436C3EF94E8FFEE9403FE0E
:0E1D2300ED9400FDEC9400FC90656312045EEC
:101D3100906556E004F0E0C3940A4004E4F0D21B3D
:101D41009065571204529064C312385F500E90642C
:101D5100C312043690655712045ED20890655B1277
:101D610004529064C712385F500E9064C712043653
:101D710090655B12045ED20990655F120452906413
:101D8100CB12385F500E9064CB12043690655F120F
:101D9100045ED20AC390656AE09488906569E09414
:0D1DA10013400AE4F0A3F0D208D209D20AE0
:011DAE002212
:1034FE009064C7E47B64FAF9F812043612033C9028
:10350E0064E602045E9064D6E0FEA3E0FFE4FCFDF8
:10351E00229064DCE0FFE4FCFDFE22E47BE87A030B
:10352E00F9F89064C3229064E5E0FF75F00FA422D1
:1015A600E49064E5F0F09064E5E0FFC39403400343
:1015B60002170B74822FF582E43464F583E070031E
:1015C6000217029064E5E0FB75F00FA42450F58243
:1015D600E43464F583E012050015FB8016008B16D3
:1015E600058C160F8E160A9416A39816A79916AB95
:1015F6009A000016ADD2000216ADD2080216ADD280
:10160600090216ADD20A0216ADD20BEB75F00FA485
:101616002451F582E43464F58312352278081204E5
:1016260023EB75F00FA42452F582E43464F583E0CD
:101636007C002FFFEC3E9064CFF0A3EFF012353420
:101646002453F582E43464F583E09064D1F0EF75B9
:10165600F00FA42454F582E43464F583E09064D258
:10166600F01235342455F582E43464F583E0906451
:10167600D3F0EF75F00FA42456F582E43464F583B5
:10168600E09064D4F09064E5E075F00FA42457F57B
:1016960082E43464F583E09064D5F0800AD20D804C
:1016A60006D20E8002D20F906481E0D394004003EC
:1016B600E014F09064E5E0FF2482F582E43464F5FA
:1016C60083E4F0747B2FF582E43464F583E4F074EC
:1016D6007E2FF582E43464F583E4F0FE7F0FC006C6
:1016E600C007FD9064E5E075F00FA4244EF974641C
:1016F60035F0FA7B01D007D0061205599064E5E073
:0517060004F00215AC27
:01170B0022BB
:100D3300200003020DC4C200906587E06003020D2A
:100D4300C404F012351F12350D7F01120B34906469
:100D5300DD12352212350D7F02120B3412351312B8
:100D6300350D7F07120B349064D812351612350DEA
:100D73007F08120B349064DF12352212350D7F0980
:100D8300120B341235291235077F0B120B34123430
:100D9300FE7F0C120B341233E89064E612046A00EF
:100DA3000000007F0E120B349064DA1235161235F0
:100DB3000D7F10120B349064CB1235017F14120B8C
:100DC3003430010DC20112351F12350D7F01120B94
:100DD30034300210C2029064DD12352212350D7FC9
:100DE30002120B3430030DC20312351312350D7F7B
:100DF30007120B34300410C2049064D81235161253
:100E0300350D7F08120B34300510C2059064DF12D4
:100E1300352212350D7F09120B3430061EC206909F
:100E230064E312352212350D7F12120B349064E401
:100E330012352212350D7F13120B3430080DC20800
:100E43001235291235077F0B120B3430090AC209F8
:100E53001234FE7F0C120B34300A13C20AE47B6493
:100E6300FAF9F89064CB1235077F14120B34300B68
:100E730023C20B90658AE0701B78E57C647D017B5F
:100E8300017A6479CFFE7F0712013012353E9065F7
:100E93008A7401F0300C10C20C9064DA1235161209
:100EA300350D7F10120B34300D19C20D9064C3122F
:100EB300046A0000000090656312046A00000000E9
:100EC300123C72300E19C20E9064C712046A0000FD
:100ED300000090656312046A00000000123C723047
:100EE3000F19C20F9064CB12046A000000009065D2
:0C0EF3006312046A00000000123C72222E
:101DC50042641A000054641C0001015300020473AC
:101DD500000307530004091D00050CED5E64300186
:101DE500010203040502060708090A030B0C0D0E80
:101DF5000F0410111213140515161718195364073B
:101E05000A00000000033241000000000001FF3815
:031E1500DA0000F0
:0F004E00EC75F006A42430F582E43464F58322C7
:10335300E4FD9064E7F0A374FFF0ED25E025E0249D
:103363001EF582E43464F583E0FAA3E0D39FEA9E7A
:10337300401CED25E025E0241CF582E43464F5834C
:10338300E0FFA3E09064E7CFF0A3EFF080050DED3D
:0B339300B405C79064E7E0FEA3E0FF74
:01339E00220C
:103A0100E4FEFC12004EE0B5071112004EE5822DD6
:103A1100F582E43583F583E0FE80050CECB405E323
:023A2100AF06EE
:013A23002280
:093C350090641AEEF0A3EFF022F6
:093C3E0090641AE0FEA3E0FF22ED
:1038DA00E49064E5F0A3F0123C3E9064E5EEF0A3B8
:1038EA00EFF09064E5E0FEA3E0FF1233539064E545
:0C38FA00EEF0A3EFF09064E5E0A3E0FF27
:01390600229E
:1022D400906418E0700302238DE0FFA3E0FD123A3E
:1022E40001E4906418F0A3F0EF1205002312012317
:1022F4001E04232A0623360923420B234E0E235A97
:1023040010236613237215237E180000238D906416
:10231400E612046A000000CF806A9064E612046A40
:10232400000100CF805E9064E612046A000000D2CF
:1023340080529064E612046A000100D280469064E0
:10234400E612046A000000D1803A9064E612046A3E
:10235400000100D1802E9064E612046A0000007F20
:1023640080229064E612046A0001007F8016906463
:10237400E612046A000000D0800A9064E612046A3F
:09238400000100D07F0D120B34A2
:01238D00222D
:101E18004263B20000602A63B40EDD0BAA000D0B0A
:101E2800AA0B000E1B0B000A991C290A9909552AAE
:101E38003709550800384508000655465306550029
:0B1E48000054644163AD004163AC0036
:1031AD00ED75F006A424B9F582E43463F583E022CD
:1031BD0075F006A424B6F582E43463F583E0227538
:1031CD00F006A424B8F582E43463F5832225E024C7
:1031DD00DEF582E43463F5832275F006A424B4F59C
:1031ED0082E43463F583E0229064E5E09064DFF0DF
:0D31FD0022123C509064E6EEF0A3EFF022A9
:042F6100AB07AA060A
:102F6500E49064E9F0A312046A00000000AE02AF29
:102F750003906406E0FD04F0ED1231DAEEF0A3EF04
:102F8500F0906406E0C394144002E4F0E49064E930
:102F9500F09064EA1204529064E9E01231DAE0FE3E
:102FA500A3E0FFE4FCFD1202969064EA12045E9031
:102FB50064E9E004F0E0B414D8E47B14FAF9F8907D
:082FC50064EA12043602033C29
:103BDE00E4FDED1231DAEEF0A3EFF00DEDB414F2D8
:013BEE0022B4
:1025A800E4FDC3EF9455EE940F40057DFF022654D9
:1025B800E49064E9F0F09064E9E0FCC394065025E7
:1025C800EC1231E6FAA3E0C39FEA9E40109064E95A
:1025D800E01231BDFAA3E0D39FEA9E40089064E977
:1025E800E004F080D19064E9E0FD1231BDFAA3E087
:1025F800FBC3EF9BFFEE9AFE1231ADFD7C00120586
:102608002CC004C005C006C0079064E9E0FF123181
:10261800BDFCA3E0FDEF1231E6FEA3E0C39DFFEE93
:102628009CAB07FAE4F9F8D007D006D005D004121D
:10263800033CAD079064E9E0FF1231AEC39DFDEFA6
:0C2648001231CCE0FFEDC39F5002AD0743
:02265400AF05D0
:012656002261
:10398900E4FEEFB4FF037F0722E4FDED1231CCE042
:10399900FCEFC39C400D1231ADFCEFD39C5004AE3B
:0A39A9000580050DEDB406E3AF063E
:0139B30022F1
:093C47009063B2EEF0A3EFF0224D
:093C50009063B2E0FEA3E0FF2244
:07207B00E49064E5F0FFFEB4
:102082009063ACE07036C39063AFE094F49063AEBB
:10209200E094014027E4F0A3F01231FE123BDE90FF
:1020A20064E6E0FEA3E0FF1221469063ADEFF0127A
:0C20B20031F5E4FEFFD2059063AC04F0B1
:1020BE001231FE122F61C39063AFE094E89063AECD
:0520CE00E094034072E4
:1020D300E49064E8F09063AEF0A3F01221469064BC
:1020E300E8EFF09063ADE06F6004D2188007C21888
:1020F3001231F5D20530174AC2179063ADE0FF9055
:1021030064E8E0FE6F60369063ADE0D39E400BE081
:10211300D39400400BE014F080069063ADE004F02C
:102123009063ADE0C3940740089064E574FFF080CA
:102133000C9063ADE01231CCE09064E5F01231F520
:02214300D205C3
:0D214500221225A89064E5EFF012398922DE
:101E5300426585000044657B0000000044657F0007
:051E6300000000C19C1D
:093C5900906585EEF0A3EFF02266
:093C6200906585E0FEA3E0FF225D
:103B42007C0A7D5012052CE47B0AFAF9F812033C38
:093B5200E4FB7A10F9F802033CCF
:103AA200EFC3949640047E6480107E007C007D64A7
:0C3AB2001202037D96120215AE07AF064B
:013ABE0022E5
:10238E00E49064E5F0A3F0A3F090657F120452127E
:10239E003C62E4FCFD12029690657F12045E90652D
:1023AE007B120436EF2401FFE43EFEE43DFDE43CE7
:1023BE00FC90657B12045EC3906584E094D09065BA
:1023CE0083E094075003301C6D90657F12043690A5
:1023DE00657B12045212033C90657F12045E906579
:1023EE007F120436123B429064E5EEF0A3EFF090BC
:1023FE0064E5A3E0FF123AA2A3EFF090657F12040A
:10240E006A0000000090657B12046A00000000E480
:10241E00906583F0A3F09064E7E09064DDF0906443
:10242E00E5E0FFA3E09064DACFF0A3EFF0D20CD298
:06243E0002301C02C21C6A
:012444002275
:101E68004C651A01010203040502060708090A5312
:101E780065070A000000000364AF000000000002CC
:051E8800FF339F000084
:103A6500E4FFFDFCAB1BAA1AA919A818C30203FFA2
:0F3A7500EE75F006A4241AF582E43465F5832279
:10339F009064E512046A000000009064E974FFF085
:1033AF00AF1BAE1AAD19AC189064E512045E7E0225
:1033BF00123A6570079064E904F0800D7E04123AAA
:1033CF006570069064E97402F09064E512046A0077
:0833DF000000009064E9E0FF2A
:0133E70022C3
:10390700E49064E5F0FE123A75E0B50714123A75D3
:10391700E5822DF582E43583F583E09064E5F08058
:0B392700050EEEB402E09064E5E0FF46
:013932002272
:10265700906518E070030226F2E0FFA3E0FD12394F
:1026670007E4906518F0A3F0EF120500268F012606
:102677009B0326A70426B30526BF0626CB0826D725
:102687000926E30A000026F29064E612046A0000B5
:10269700004780529064E612046A000100478046B2
:1026A7009064E612046A00020047803A9064E612DA
:1026B700046A00030047802E9064E612046A000053
:1026C700004880229064E612046A000100488016E0
:1026D7009064E612046A00020048800A9064E612D9
:0B26E700046A000300487F0D120B3452
:0126F20022C5
:101E8D0041601801426019000041601B0041601C57
:0E1E9D000041601D0041601E7F42601FFFFF7C
:1035F900E4F561AE3EAD3DAC3C853F178E168D15A9
:103609008C14787EE254FCF2E24514F218E515F2C6
:1036190018E516F218E517F2787FE254FBF2E25446
:0D362900FB4404F2E24401F27F01022C0890
:1008E2009064E5EFF0E0FF2428F582E43465F583B7
:1008F200E004F0742A2FF582E43465F583E4F074A1
:10090200282FF582E43465F583E0C3956350030232
:100912000B339064E5E0FB2428F582E43465F5832B
:10092200E4F0903A959364016003020AE47F01FEC9
:10093200FDFC742C2BF582E43465F583E0F9F812A2
:100942000423E51F4FF51FE51E4EF51EE51D4DF56F
:100952001DE51C4CF51CAF1FAE1EAD1DFC7801122F
:100962000410EF5455FBEE5455FAED5455F9EC547E
:1009720055F8C3E51F9BF53BE51E9AF53AE51D992F
:10098200F539E51C98F538AF3BAE3AAD39FC780243
:10099200120410EF5433FBEE5433FAED5433F9ECF6
:1009A2005433F8E53B5433FFE53A5433FEE539540A
:1009B20033FDE5385433FCEB2FF53BEA3EF53AE9DB
:1009C2003DF539E83CF538AF3BAE3AAD39FC780439
:1009D200120410EF253BFFEE353AFEED3539FDEC02
:1009E2003538FCEF540FF53BEE540FF53AED540F4A
:1009F200F539EC540FF538AF3BAE3AAD39FC780817
:100A0200120410EF253BFFEE353AED3539FDEC359A
:100A120038EFF53BE4F53AEDF539E4F538AE3AACAA
:100A2200387810120410EF253BFFEE353AFEEFF551
:100A32003BEEF53AE4F539F5389064E5E025E0243B
:100A420036F582E43465F583E0FEA3E0D39553EEF8
:100A5200955240249064E5E0FF25E02436F582E4D7
:100A62003465F583E0F552A3E0F553742C2FF5823B
:100A7200E43465F583E0F564903A95E493FFE4FC91
:100A8200FDFEAB3BAA3AA939A838D31203FF405264
:100A9200AF650565D3EF9403748094805003020B15
:100AA20033E4F565F51FF51EF51DF51C7F01FEFD0E
:100AB200FCA964A8011204238F1B8E1A8D198C18AD
:100AC200E47F01FEFDFCA8011204238F338E328DD8
:100AD200318C30E4F552F553756420122D0B4337F7
:100AE2000222E4F5657F01FEFDFC9064E5E0FB2453
:100AF2002CF582E43465F583E0F9F8120423E51B52
:100B02004FF51BE51A4EF51AE5194DF519E5184C86
:100B1200F518E47F01FEFDFCA803120423E5334F20
:100B2200F533E5324EF532E5314DF531E5304CF530
:020B320030226F
:1005A300E4F566903A99E493FFE566C39F4003023E
:1005B30008E1E56625E02400F582E4346085828A5B
:1005C3007F548F8B7E0E8E8C758903758889E566C3
:1005D30025E02400F582E4346085828A8F8B758C54
:1005E30012758904758889E56625E02408F582E497
:1005F3003460F583E0FCA3E0C3950FEC950E502E19
:10060300E56625E02414F582E43460F583E0FCA379
:10061300E0C39513EC95125015AF600560EF94029B
:1006230074809480400BE4F5605337FD8003E4F558
:1006330060E53730E125E56625E02436F582E434CC
:1006430065F583E4F0A3F0E56625E0243AF582E45A
:100653003465F583E4F0A3F00206F1E56625E024B2
:1006630008F582E4346085828A8E8B758C0A7589DD
:10067300267588892088FDE5F130E00875F107E4E7
:10068300F50AF50BAE0AE50B7802C333CE33CED8A9
:10069300F9FFE56625E02436F582E43465F583EE5B
:1006A300F0A3EFF0E56625E02414F582E4346085D9
:1006B300828A758B12758C0A7589277588892088BB
:1006C300FDE5F130E00875F107E4F50AF50BAE0A34
:1006D300E50B7802C333CE33CED8F9FFE56625E0C8
:1006E300243AF582E43465F583EEF0A3EFF0E56692
:1006F30025E0242EF582E43465F583E0FEA3E0785B
:1007030002CEC313CE13D8F9F5518E50E56625E01A
:100713002436F582E43465F583E0FEA3E0FF903AE6
:1007230091E493FC740193FDC3EF9DEE9C4017E5A8
:100733006625E0243AF582E43465F583E0FEA3E020
:10074300C39DEE9C50028068E56625E02436F58261
:10075300E43465F583E0FEA3E0C39551EE95504084
:100763001CE56625E0243AF582E43465F583E0FE72
:10077300A3E0C39551EE955040030207FD7426256F
:1007830066F582E43465F583E004F074262566F5A6
:1007930082E43465F583E0FF903A96E493FEEFD369
:1007A3009E406474262566F582E43465F583E4F09F
:1007B300E56625E02404F582E43460F583E0FEA3D6
:1007C300E0FFE56625E02408F582E43460F583EE76
:1007D300F0A3EFF0E56625E02410F582E43460F53C
:1007E30083E0FEA3E0FFE56625E02414F582E4340C
:1007F30060F583EEF0A3EFF0800D74262566F58295
:10080300E43465F583E4F0E56625E02404F582E449
:10081300346085828AE56625E02400F582E434604D
:1008230085828B758C0A7589207588CB2088FDE5B8
:10083300F130E00875F107E4F50AF50BE56625E00C
:100843002404F582E4346085828A758B547F0E8F8D
:100853008C7589237588897E0A8E8A8F8BE5662538
:10086300E02404F582E4346085828CE4F58975889C
:1008730029E56625E02410F582E4346085828AE563
:100883006625E02400F582E4346085828B8E8C75C6
:1008930089207588CB2088FDE5F130E00875F107E4
:1008A300E4F50AF50BE56625E02410F582E43460EF
:1008B30085828A758B547F0E8F8C75892475888900
:1008C300758A0A8F8BE56625E02410F582E434608F
:0F08D30085828CE4F58975882905660205A622C1
:100EFF00E4F566903A99E493FFE566C39F400302D9
:100F0F0010B7E56625E0242EF582E43465F583E01D
:100F1F00FEA3E07802CEC313CE13D8F9F5518E504D
:100F2F00E56625E02436F582E43465F583E0FEA31B
:100F3F00E0D39551EE9550402EE56625E0243AF525
:100F4F0082E43465F583E0FEA3E0D39551EE95502E
:100F5F004015742A2566F582E43465F583E4F0AF15
:100F6F00661208E20210B2903A98E493FFC3E5517B
:100F7F009FFFE5509400FED3EF9400EE94004002E3
:100F8F0080047E007F00E56625E02436F582E43498
:100F9F0065F583E0FCA3E0C39FEC9E40030210A520
:100FAF00903A98E493FFC3E5519FFFE5509400FEFC
:100FBF00D3EF9400EE9400400280047E007F00E5A2
:100FCF006625E0243AF582E43465F583E0FCA3E07E
:100FDF00C39FEC9E40030210A574282566F582E49A
:100FEF003465F583E4F0742A2566F582E43465F5FB
:100FFF0083E004F0742A2566F582E43465F583E016
:10100F00C3956350030210B2742A2566F582E43447
:10101F0065F583E4F07F01FEFDFC742C2566F582F7
:10102F00E43465F583E0F9F81204231203CEE51FCB
:10103F005FF51FE51E5EF51EE51D5DF51DE51C5CEC
:10104F00F51CE47F01FEFDFCA966A8011204231222
:10105F0003CEE5335FF533E5325EF532E5315DF50D
:10106F0031E5305CF530E47F01FEFDFC742C256624
:10107F00F582E43465F583E0F9F81204231203CE08
:10108F00E51B5FF51BE51A5EF51AE5195DF519E528
:10109F00185CF518800D742A2566F582E43465F521
:0910AF0083E4F00566020F022241
:102D0B00E4F566903A99E493FFE566C39F506EE550
:102D1B006625E02436F582E43465F583E4F0A3F010
:102D2B00E56625E0243AF582E43465F583E4F0A307
:102D3B00F0E56625E02404F582E43460F583E0FEDB
:102D4B00A3E0FFE56625E02408F582E43460F58313
:102D5B00EEF0A3EFF0E56625E02410F582E4346095
:102D6B00F583E0FEA3E0FFE56625E02414F582E49D
:0E2D7B003460F583EEF0A3EFF005668086224B
:10282800E4F566903A99E493FFE566C39F50679094
:102838006018E0FF7E00C39410748094805053EFBA
:102848009408748094804025E56625E02400F5828C
:10285800E43460F583E0FEA3E0FFE56625E02404A8
:10286800F582E43460F583EE8FF012026AE566259E
:10287800E02400F582E43460F583E0FEA3E0FFE5A0
:102888006625E02410F582E43460F583EE8FF012BB
:10289800026A0566808D906018E0C3941074809475
:1028A8008040054337048006906018E004F07F01FB
:0328B800022C08E7
:102D8900E4FFFEFDFCAB1BAA1AA919A818C312037C
:102D9900FF606390601AE004F07006906019E00427
:102DA900F0903A8DE493FE740193FF4E602ED39018
:102DB900601AE09F906019E09E4021E4F0A3F0F5CD
:102DC9001FF51EF51DF51CF533F532F531F530F516
:102DD9001BF51AF519F518C21A022D0B903A8FE452
:102DE90093FE740193FFD390601AE09F906019E0FD
:0D2DF9009E400AD21A22E4906019F0A3F067
:012E060022A9
:0510B8009064FFEFF061
:1010BD00A3E0FCA3E0FDA3E0FEA3E0F52B8E2A8DBB
:1010CD00298C287884E2F50A08E2F50B758A0875F3
:1010DD008B28758C2475881D2088FDE4FFFEFDFC92
:1010ED00AB27AA26A925A824D31203E94006AC24D0
:1010FD00A8048013AF27AE26AD25AC241203DBABBD
:10110D0007AA06A905A80490601FE0FEA3E0FFE46E
:10111D00FCFDC31203E95041E4FFFEFDFCAB27AA21
:10112D0026A925A8241203E94006AF27AE26800B79
:10113D00AF27AE26AD25AC241203DB90601FEEF079
:10114D00A3EFF09064FFE025E02432F582E43465EE
:10115D00F583E0A3E090601EF0903A8AE493FE746C
:10116D000193FFD3906020E09F90601FE09E501B85
:10117D009064FFE025E02432F582E43465F583E0E8
:10118D00A3E090601EF090601B8079E4FFFEFDFCF3
:10119D00AB27AA26A925A824D31203E940349064CD
:1011AD00FFE0FF25E02432F582E43465F583E0FCB1
:1011BD00A3E0D39400EC9400404DEF25E02432F5EC
:1011CD0082E43465F58374FFF5F012026A90601CB9
:1011DD0080329064FFE0FF25E02432F582E434652F
:1011ED00F583E0FCA3E0C3947FEC94005019EF2548
:1011FD00E02432F582E43465F583E475F0011202E2
:10120D006A90601D7401F090601CE064017011A380
:10121D00E06401700B90601CF0A3F090601B04F073
:10122D0090601BE06401703590601EE0FF9064FFDC
:10123D00E025E02432F582E43465F583E4F0A3EF94
:10124D00F074FF90601FF0A3F090601E747FF0E4C7
:0F125D0090601CF0A3F090601BF07F01227F00D7
:01126C00225F
:10302F00E49064FEF0903A84120442780112042373
:10303F0090650012045EAF611210B8EF6022056157
:10304F00E53730E4095337EF9064FE7401F0903A9E
:10305F0099E493FFE561C39F4006E4F561433710A0
:10306F00C3903A887401939562E49394004008905A
:10307F0064FEE064017005D2190235F9E4FF122CE9
:01308F000838
:01309000221D
:102C0800EF70607F01FEFDFC742C2561F582E434D1
:102C180065F583E0F9F81204238F178E168D158C4D
:102C280014787EE254FCF2E24514F218E515F21825
:102C3800E516F218E517F2E56125E02432F582E49D
:102C48003465F583E0A3E0547FFF7878E254804F41
:102C5800F2787FE254FBF2E254FB4404F2E24401CE
:102C6800F2801CE56125E02432F582E43465F583C1
:102C7800E0A3E0547FFF7878E254804FF2787FE257
:042C88004402F222EE
:1026F300E49064E5F0A3F09064E5E0FEA3E0FFC39B
:102703009488EE94035031EF24A3FFEE34058F82B7
:10271300F583E493FF9064E6E02421FD9064E5E013
:1027230034608D82F583EFF09064E6E004F070C7C7
:082733009064E5E004F080BFB2
:10273B009063A97401F0A37460F0A37421F0E4F525
:10274B0061F537F536F535F534C219C21AF51FF5B3
:10275B001EF51DF51CF533F532F531F530F51BF58E
:10276B001AF519F518903A9393FF903A97E493FE64
:10277B00A807088002C333D8FCF563756420E4FF17
:03278B00022C0815
:102E7E007884E2F50A08E2F50BAE0A7803CEC313A6
:102E8E00CE13D8F97802C333CE33CED8F9FFE5612D
:102E9E0025E02400F582E43460F583EEF0A3EFF034
:102EAE0020190F903A8CE4937005D2190235F9026D
:102EBE00302F0561903A99E493FFE561C39F401F5F
:102ECE00787FE254FBF2E254FB4404F2E24401F256
:102EDE00E4F561E53720E203022828433701227F1B
:052EEE0001122C082276
:050045000562022D8997
:103A4500E53730E01A9063A9A3E0FAA3E0F912057F
:103A550026120EFFE4F5617F01122C085337FE2272
:1027A800022FCDE493A3F8E493A34003F68001F24B
:1027B80008DFF48029E493A3F85407240CC8C33332
:1027C800C4540F4420C8834004F456800146F6DF01
:1027D800E4800B0102040810204080901DAFE47EC5
:1027E800019360BCA3FF543F30E509541FFEE493F6
:1027F800A360010ECF54C025E060A840B8E493A3BD
:10280800FAE493A3F8E493A3C8C582C8CAC583CAE7
:10281800F0A3C8C582C8CAC583CADFE9DEE780BE9F
:011EAB000036
:10006000E709F608DFFA8046E709F208DFFA803E82
:1000700088828C83E709F0A3DFFA8032E309F6086F
:10008000DFFA8078E309F208DFFA807088828C83D7
:10009000E309F0A3DFFA806489828A83E0A3F6088B
:1000A000DFFA805889828A83E0A3F208DFFA804C65
:1000B00080D280FA80C680D4806980F2803380103C
:1000C00080A680EA809A80A880DA80E280CA8033A5
:1000D00089828A83ECFAE493A3C8C582C8CCC5831D
:1000E000CCF0A3C8C582C8CCC583CCDFE9DEE780ED
:1000F0000D89828A83E493A3F608DFF9ECFAA9F06C
:10010000EDFB2289828A83ECFAE0A3C8C582C8CCC1
:10011000C583CCF0A3C8C582C8CCC583CCDFEADEDA
:10012000E880DB89828A83E493A3F208DFF980CC3C
:1001300088F0EF60010E4E60C388F0ED2402B40435
:100140000050B9F582EB2402B4040050AF232345DC
:0601500082239000B07351
:10015600BB010689828A83E0225002E722BBFE02A7
:09016600E32289828A83E49322DA
:10016F00BB010CE58229F582E5833AF583E0225045
:10017F0006E92582F8E622BBFE06E92582F8E2228F
:0D018F00E58229F582E5833AF583E49322A9
:10019C00BB010FF8E58229F582E5833AF583E02867
:1001AC00F0225009C58229F8E58226F622BBFE0909
:1001BC00C58229F8E22582F222F8EA2583F583E943
:0301CC0093282253
:1001CF00BB010689828A83F0225002F722BBFE010F
:0201DF00F32209
:1001E100F8BB010DE58229F582E5833AF583E8F054
:1001F100225006E92582C8F622BBFE05E92582C800
:02020100F222E7
:10020300EF8DF0A4A8F0CF8CF0A428CE8DF0A42E0F
:02021300FE22C9
:10021500BC000BBE0029EF8DF084FFADF022E4CCCD
:10022500F875F008EF2FFFEE33FEEC33FCEE9DEC96
:10023500984005FCEE9DFE0FD5F0E9E4CEFD22EDDC
:10024500F8F5F0EE8420D21CFEADF075F008EF2F26
:10025500FFED33FD4007985006D5F0F222C398FD17
:050265000FD5F0EA22B4
:10026A00C5F0F8A3E028F0C5F0F8E582158270021F
:06027A001583E038F022BC
:10028000A3F8E0C5F025F0F0E58215827002158331
:06029000E0C838F0E8228E
:0D029600EF2BFFEE3AFEED39FDEC38FC22B7
:0E02A300C3EF9BFFEE9AFEED99FDEC98FC2256
:1002B100E88FF0A4CC8BF0A42CFCE98EF0A42CFCEC
:1002C1008AF0EDA42CFCEA8EF0A4CDA8F08BF0A46A
:1002D1002DCC3825F0FDE98FF0A42CCD35F0FCEBC9
:1002E1008EF0A4FEA9F0EB8FF0A4CFC5F02ECD398E
:0F02F100FEE43CFCEAA42DCE35F0FDE43CFC22FB
:1003000075F008758200EF2FFFEE33FECD33CDCCB4
:1003100033CCC58233C5829BED9AEC99E582984037
:100320000CF582EE9BFEED9AFDEC99FC0FD5F0D614
:10033000E4CEFBE4CDFAE4CCF9A88222B800C1B93E
:100340000059BA002DEC8BF084CFCECDFCE5F0CB7C
:10035000F97818EF2FFFEE33FEED33FDEC33FCEBB5
:1003600033FB10D703994004EB99FB0FD8E5E4F970
:10037000FA227818EF2FFFEE33FEED33FDEC33FC5D
:10038000C933C910D7059BE99A4007EC9BFCE99A51
:10039000F90FD8E0E4C9FAE4CCFB2275F010EF2F96
:1003A000FFEE33FEED33FDCC33CCC833C810D70796
:1003B0009BEC9AE899400AED9BFDEC9AFCE899F8D1
:0E03C0000FD5F0DAE4CDFBE4CCFAE4C8F92264
:0D03CE00CFF4CFCEF4CECDF4CDCCF4CC22C4
:0E03DB00C3E49FFFE49EFEE49DFDE49CFC2233
:1003E900EB9FF5F0EA9E42F0E99D42F0EC6480C88B
:0603F90064809845F0222B
:1003FF00EB9FF5F0EA9E42F0E99D42F0E89C45F054
:01040F0022CA
:10041000E8600FECC313FCED13FDEE13FEEF13FFCA
:03042000D8F122EE
:10042300E8600FEFC333FFEE33FEED33FDEC33FC37
:03043300D8F122DB
:0C043600E0FCA3E0FDA3E0FEA3E0FF2239
:10044200E493FC740193FD740293FE740393FF2200
:0C045200E0F8A3E0F9A3E0FAA3E0FB222D
:0C045E00ECF0A3EDF0A3EEF0A3EFF02211
:10046A00A8828583F0D083D082120481120481127B
:10047A000481120481E473E493A3C583C5F0C583A0
:10048A00C8C582C8F0A3C583C5F0C583C8C582C8DC
:01049A00223F
:0C049B00A42582F582E5F03583F583226C
:0904A700E0FBA3E0FAA3E0F92256
:1004B000F8E0FBA3A3E0F925F0F0E58215827002D5
:0704C0001583E0FA38F02279
:0904C700EBF0A3EAF0A3E9F02236
:1004D000BB010DE58229F582E5833AF5830204A785
:1004E0005007E92582F8020585BBFE07E92582F859
:1004F00002058EE58229F582E5833AF583020597A8
:10050000D083D082F8E4937012740193700DA3A38A
:1005100093F8740193F5828883E47374029368609E
:06052000EFA3A3A380DF9E
:060526008A838982E47360
:10052C00EC8EF0A4CCC5F0CCCDF8EFA4CEC5F02D5C
:10053C00FDE43CFCE8A42EC8C5F03DFDE43CFCEF1A
:0D054C00A4FFE5F028FEE43DFDE43CFC22A8
:10055900EF4E6012EF60010EEDBB010B89828A83B9
:10056900F0A3DFFCDEFA2289F05007F709DFFCA9C6
:0C057900F022BBFEFCF309DFFCA9F0221D
:09058500E6FB08E6FA08E6F9229B
:09058E00E2FB08E2FA08E2F9229E
:0C059700E493FB740193FA740293F922C0
:00000001FF
