:03000000022902D0
:10290200787FE4F6D8FD9060007F007E07E4F0A3B4
:0A291200DFFCDEFA7581660229572A
:0C000300000000000000000000000000F1
:0B3D5D00EF1FAC0670011E4C70F62238
:103BEF00AB07AA06EB1BAE0270011A4E600C7FAA40
:0B3BFF007E05123D5D75D9AA80EA2208
:1021E200907120E04480F07F057E00123D5DE4FFA7
:1021F200FE123BEF75A75575AC5C9071327450F0CE
:102202009071307403F0907136742FF090715C7499
:1022120003F090715BE054FCF07F18EF2466FDE45C
:1022220034718D82F583E4F00FEFB433EE904011F8
:10223200E4935407FF90711CE054F84FF09040175C
:10224200E493547FFF90711DE054804FF090401052
:10225200E493FF5401C43333335480FE907123E07E
:10226200547F4EF0EFC313543F4440FFA3E0548029
:102272004FF0904012E493FF540FFE907146E054E9
:10228200F04EF0EFC4540FFF90714FE054F04FF056
:10229200904013E493543FFF907140E054C04FF0DC
:1022A200904014E493907126F0904015E49390715D
:0B22B20028F0904016E49390712AF091
:0122BD0022FE
:103B9800000009C4006400C80101F4004B000A00D9
:0E3BA80000010F0405020009000A000A000ACD
:103CA300E2FE74FE2FF582E43464F583E02224FC03
:083CB30025E0FDF8740308226E
:10189300E4FF123CA5C394085058123CA5C394041A
:1018A300502878C2C000123CA3123CB38002C33359
:1018B300D8FCF45ED000F278C2C000123CA3123C04
:1018C300B38002C333D8FC0219C178C3C000123CF1
:1018D300A3123CB18002C333D8FCF45ED000F2788B
:1018E300C3C000123CA3123CB18002C333D8FC0234
:1018F30019C1123CA5C394084068123CA5C39410B7
:101903005060123CA5C3940C502C78D2C000123CFA
:10191300A324F8123CB38002C333D8FCF45ED00096
:10192300F278D2C000123CA324F8123CB38002C365
:1019330033D8FC0219C178D3C000123CA324F4129B
:101943003CB38002C333D8FCF45ED000F278D3C03A
:1019530000123CA324F4123CB38002C333D8FC022C
:1019630019C1123CA5C39414502B78E2C000123C59
:10197300A324F0123CB38002C333D8FCF45ED0003E
:10198300F278E2C000123CA324F0123CB38002C3FD
:1019930033D8FC802978E3C000123CA324EC123C2A
:1019A300B38002C333D8FCF45ED000F278E3C00006
:1019B300123CA324EC123CB38002C333D8FC4ED0B8
:0B19C30000F20FEF64026003021895B1
:0119CE0022F6
:03005D000235A5C4
:1035A500C0E0C0F0C083C082C0D075D000C000C0EC
:1035B50001C002C003C004C005C006C0077881E28F
:1035C50030E607E24440F2122F6BD007D006D00553
:1035D500D004D003D002D001D000D0D0D082D08387
:0535E500D0F0D0E0323F
:1033E600D2AF43AB0843B6C0907132E04440F043DD
:1033F600AB087877743FF208744BF2787A7430F23F
:10340600788914F27871744FF2187427F27872740E
:10341600A8F2087410F208E4F208F208F2787E7452
:0F342600D0F2087404F208741EF2087402F22245
:102A2F00E4FBEB25E025E024AEF582E4343BF583AF
:102A3F00740193FF74FE2BF582E43464F583EFF099
:102A4F00EB25E025E024B0F582E4343BF583E493F5
:102A5F00FE740193FFEB25E02400F582E43465F565
:102A6F0083EEF0A3EFF0EB25E02404F582E4346568
:102A7F00F583E4F0A37441F0E47F01FEFDFC74FEE6
:102A8F002B123CA8F9F8120423E53F4FFFE53E4E09
:102A9F00FEE53D4DFDE53C4C8F3F8E3E8D3DF53CBB
:102AAF000BEB64026003022A31121893122867029B
:022ABF0033E6FC
:0525CE004265620000FF
:073D7C00E475F00102026A88
:1036F600E5B154CF42B153A8BFD2AF75D102789C81
:10370600E254E3F2E2441CF2E254FCF2E24401F237
:1037160008E2547FF2E24420F278A17401F21874B0
:1037260076F2789CE2541FF2E244C0F243A84022AB
:03002100021D11AC
:101D1100C0E0C0F0C083C082C0D075D000C000C098
:101D210001C002C003C004C005C006C007789DE21F
:101D310020E703021E03E24480F23011069064287A
:101D4100E004F09063ADE004F09064DAE004F09018
:101D51006566123D7C30181D90646A123D7CC3900B
:101D6100646BE0944090646AE0949C4011E4F0A3B9
:0E1D7100F0D217800990646AE4F0A3F0C21764
:101D7F00906562123D7CC3906563E09464906562E8
:0B1D8F00E094004006E4F0A3F0D21640
:101D9A00906539E0FEA3E0FFE4FCFD7BFF7AFFF9E2
:101DAA00F8D31203E94006906539123D7C906468C5
:101DBA00123D7C90655A123D7CC390655BE094D0DD
:101DCA0090655AE094074008E4F0A3F0906559F052
:101DDA0090655D123D7CC390655EE0946490655D9C
:101DEA00E094004008E4F0A3F090655CF090653B55
:101DFA00123D7C906557123D7CD007D006D005D0A5
:101E0A0004D003D002D001D000D0D0D082D083D069
:041E1A00F0D0E032F2
:0D25D300C113C11441655F00426560000046
:103C3F00120436EF2401FFE43EFEE43DFDE43CFCBC
:093C4F002275F00112026AC32281
:1035EA00E5B254FC42B253A9FED2AF75D104907130
:1035FA0000E054E3F0E0F0E054FCF0E04401F09025
:10360A0071057409F0907104745FF0907101E054CF
:10361A007FF0E04420F0907100E0541FF0E044C0D5
:05362A00F043A901229C
:03002400022105B1
:10210500C0E0C0F0C083C082C0D075D000C000C0A0
:0D21150001C002C003C004C005C006C00721
:0E212200907101E020E7030221C7E04480F045
:1021300090655FE004F0E0C39414401FE4F0906504
:1021400045123C50906546E09458906545E09402F5
:0B2150004009201B06E4F0A3F0D21BA6
:10215B0030821620130F906541123C3F906541125F
:0B216B00045E1236B5D2138002C213CE
:10217600906560E4123C50906561E094149065604F
:10218600E094004021E4F0A3F0906516123C5090D4
:102196006517E094E8906516E0940340092015065B
:0621A600E4F0A3F0D215E5
:1021AC0030951620140F906512123C3F9065121258
:0B21BC00045E1237F3D2148002C2143C
:1021C700D007D006D005D004D003D002D001D0006C
:0B21D700D0D0D082D083D0F0D0E03216
:1033430090642B12043674212FF582E43464F583E0
:10335300229064B9E0FF241EF582E43464F58322ED
:103363007D00EF75F00FA424F1F9746335F0FA7B57
:103373000122E5822EF582E43583F58322E4F09081
:103383006424E014F090000F2290642AE4F0906427
:0333930029F022FC
:0A3D6800E4906428F0C210D211228A
:0A3D7200C211E4906428F0C2102290
:103A970078C2E2543FF2E254FCF2E24440F2907101
:103AA70081E04404F0907175E04401F043AA20D20C
:0B3AB700AF75D60175D59F75D21122A6
:03004B000219CFC8
:1019CF00C0E0C0F0C083C082C0D075D000C000C0DE
:0D19DF0001C002C003C004C005C006C0075F
:1019EC009064D8E4F0E5D420E503021AD4E5D7F0EE
:1019FC00201204E0B4A509906424E0C394034003CE
:101A0C00021AD19064D8E0B4A508D21212338C1209
:101A1C003D6890642AE0B401089064D8E090642991
:101A2C00F0123343E06003021AD49064D8E0FF90C4
:101A3C00642B1204529063F175F00FEB12049BEAC5
:101A4C0075F00FA42583F583C083C08290642AE0CF
:101A5C00FE04F0D082D083123375EFF0906428E44A
:101A6C00F0A3E06063E0FFA3E06F705C906429E09A
:101A7C00FB90642B120436741E2F12335BEBF0C2F6
:101A8C001212338C1233437401F0906424E004F08E
:101A9C0090642B120436EF2401FFE43EFEE43DFD7E
:101AAC00E43CFC90642B12045EE47F03FEFDFC908E
:101ABC00642B120452C31203FF400A90642B1204CD
:081ACC006A00000000123D72E7
:101AD400D007D006D005D004D003D002D001D00066
:0B1AE400D0D0D082D083D0F0D0E03210
:0D3D3600E5D430E4FB8FD7E5D430E4FB2268
:101AEF00E49064B9F0A3F0C21E906428E0D3940A86
:101AFF00400F123D72E490642AF0906429F0C212F4
:101B0F0022E49064B9F09064B9E0FFC394034003FA
:101B1F00021C0074212F12334CE07003021BF7904C
:101B2F0064B9E075F00FA424F2F582E43463F58311
:101B3F00E0FE741E2F12335BE06E601A9064B9E002
:101B4F00242112334C123380C083C082123363D0EE
:061B5F0007D00602055943
:101B6500E49064BBF09064BAF0A3F0123354E0142F
:101B7500FE9064BBE0FDC39E5022EF75F00FA424D8
:101B8500F1F582E43463F583E5822D123378E0FFC5
:101B95009064BAE02FF0A3E004F080CF9064BAE03F
:101BA500F0123354E0FEEF75F00FA424F0F582E453
:101BB5003463F583123375E0FF9064BAE06F600219
:021BC500D21E2E
:101BC700301E1DC21E9064B9E0FF242112334C124F
:101BD7003380C083C082123363D007D00612055901
:101BE7009064B9E02425F582E43464F5837401F048
:091BF7009064B9E004F0021B1532
:011C000022C1
:103C0A001202A39064BF12045E9064BF020436904D
:0B3C1A007123E05498F0E0441EF022FB
:103AED0078C3E24403F2E2440CF218E2440CF2789B
:103AFD006AE24478F27591FF123C199071227407B5
:083B0D00F0439E704399402231
:103673005399E0EF24FE601714601C240270269017
:103683007123E054D8F0E0445AF0439904801612B1
:103693003C19439905800E907123E054D8F0E0441F
:1036A30059F04399017869E24448F27F017E0002B0
:0236B3003BEFEB
:100027007869E24401F2786BE230E1FA7402F2AFE8
:1000370093EF75F010A4FFAEF0E594C4540FFDEFF5
:030047004DFF2248
:1022BE00E49064BDF0A3F0A312046A00000000E4F1
:1022CE009064C3F0A3F074FFA3F0A3F0E4A3F0F0C6
:1022DE001200279064BDEEF0A3EFF09064C7E0C348
:1022EE00940240549064C3E0FEA3E0FF9064BDE00E
:1022FE00FCA3E0FDD39FEC9E40089064C3ECF0A3DA
:10230E00EDF09064C5E0FEA3E0FFC3ED9FEC9E50A0
:10231E000F9064BDE0FFA3E09064C5CFF0A3EFF093
:10232E009064BF1204529064BDE0FEA3E0FFE4FC93
:10233E00FD120296A312045E9064C7E004F0E0C39F
:10234E009414408C123C13C006C0079064C3E0FE88
:10235E00A3E0FBAA06E4F9F8D007D006123C0AC0A7
:10236E0006C0079064C5E0FEA3E0FBAA06E4F8D021
:10237E0007D006123C0A78041204109064BDEEF0E9
:03238E00A3EFF0CA
:012391002229
:103A0F00A3F078E3E254FCF2E24401F2907192E405
:103A1F00F0229064C6E004F0E0C3940822C2A4C26E
:0E3A2F0096D2977F04FE22FFE0FEA807082231
:10329500E4FF78D3E2543FF2E24440F290718DE4CA
:1032A500F0E254CFF2E24410F290718CE4F0123A5D
:1032B50011C297C29612311CEF702A7D0A7F8C12BB
:1032C50026807D017F881226807D017F86122680DB
:1032D500E4FD7F82122680E4FD7F84122680E4FDD2
:0832E5007F80122680023519DA
:103C2500E4FDEE25E0FEEF30E004EE4401FEEFC3D7
:093C350013FF0DEDB408EBAF061E
:013C3E002263
:022FE000AC073C
:102FE200E49064BAF0AF05123C25EC64816019EC00
:102FF20064836014EC6485600FEC6487600AEC649F
:08300200896005EC648D704348
:10300A00E49064BBF0A3F0EC64816004ECB4830642
:10301A00EF547FFF8017EC64856004ECB48706EFF9
:10302A00543FFF8008ECB48904EF541FFFEFC454E7
:10303A000FFE9064BBF0EF540FFFA3F0EE75F00A99
:03304A00A42FFFB1
:01304D002260
:052AC1009064BAEFF083
:102AC600E4A3F0123A0F123A2C123D5DE49064BC76
:102AD600F0122B359064BCE09064BA123A3680024C
:102AE600C313D8FC30E004D2A48002C2A47F047EC3
:102AF60000123D5D122B3F40D878E3E254FCF27899
:102B0600E0E24410F2E49064BCF09064BBE025E09F
:102B1600F0122B3530A4079064BBE04401F0122B71
:0E2B26003F40E7C296C297C2A49064BBE0FF96
:102B340022C2967F047E00123D5D22D2967F047EDF
:0F2B440000123D5D9064BCE004F0E0C3940822F1
:053CD2009064B9EFF061
:103CD700E4FE122AC1AE079064B9E0FFAD06022FD9
:013CE700E0FC
:082B53009064C4EFF0A3EDF063
:102B5B00E4123A0F123A2C123D5DE49064C6F01267
:102B6B002BD99064C6E09064C4123A368002C3132A
:102B7B00D8FC30E004D2A48002C2A4122BC8123AB3
:102B8B002140DCE49064C6F0122BD99064C6E0FFC0
:102B9B009064C5E0FEA807088002C313D8FC30E0A0
:102BAB0004D2A48002C2A4122BC8123A2140D9C26B
:0C2BBB00967F047E00123D5DC297C2A40C
:102BC700227F047E00123D5DD2967F047E00123D77
:0C2BD7005D22C2967F047E00123D5D224C
:10311C00123519D39064A2E094339064A1E0940822
:10312C005048C3A3E094D09064A1E09407403B9036
:10313C0064A3E0D3940C5032E0C39401402CA3E080
:10314C00D3941F5025E0C39401401FA3E0D39418DF
:10315C005018A3E0943C5012A3E0943C500C9064A3
:10316C00A1E0B40708A3E0B4D0037F00227F0122C2
:052680009064C0EFF0C2
:10268500A3EDF0EF6480601D9064C0E0FF6482609C
:1026950014EF6484600FEF6486600AEF6488600558
:0526A500EF648C706C75
:1026AA00E49064C2F0A3F09064C1E0FFC3940A40CE
:1026BA0007EF75F00A84A3F09064C1E075F00A840C
:1026CA00AFF09064C3EFF09064C2E0FEC454F04FE0
:1026DA009064C1F09064C0E0FF64806004EFB4824B
:1026EA00099064C1E0547FF080229064C0E0FF64E6
:1026FA00846004EFB486099064C1E0543FF0800C12
:0C270A009064C0E0B48805A3E0541FF008
:10271600E4FD7F8E122B539064C0E0FFA3E0FD1210
:092726002B537D807F8E022B53A2
:103776009064B9A3E02430FD7F8C1226809064BB50
:10378600E0FD7F881226809064BCE0FD7F861226CD
:10379600809064BDE0FD7F841226809064BEE0FDCB
:0F37A6007F821226809064BFE0FD7F8002268024
:103519007F81123CD29064A7EFF07F83123CD29056
:1035290064A6EFF07F85123CD29064A5EFF07F8707
:10353900123CD29064A4EFF07F89123CD29064A32C
:10354900EFF07F8D123CD2EF24D0FEE43407906473
:06355900A1F0A3CEF02258
:103B38009064B9F090600D0204A790000612016F1E
:103B4800FE90000802016F9000091201E190000C3C
:013B5800224A
:10141A00E49064B9F07FFFA374FFF090600D1204AA
:10142A00C790000112016FFE120156FDEEC39D50D6
:10143A00030215AC123B3C900001E41201E190005A
:10144A000E1204D0120526EFF4600890600C742383
:10145A00F0800990600CE06003E014F0123B3C90CD
:10146A00000312016F6F601590000512016F600D85
:10147A00900004E41201E19000030215A89000050F
:10148A0012016FFE90000412016FC39E500B123BB3
:10149A003C900004740102019C123B3C9000021231
:1014AA00016F6F6048EFF4701C123B42C39E400A02
:1014BA007405123B389000028061123B3C90000A8E
:1014CA00740102159F123B3C9000087401123B52B2
:1014DA0012016F6F90600D600C1204A77401123B29
:1014EA004FEF02159F1204A7900009803DEFF47098
:1014FA0041123B3C90000912016FD3940050030241
:10150A0015A290000B12016FFE90000A12016FD310
:10151A009E40117401123B3890000C12016F9064C6
:10152A00BAF08054123B3C90000A740112019C02EA
:10153A0015A2123B3C123B49C394FF500890000885
:10154A00740112019C123B42B506089064B97403F7
:10155A00F08020123B3C900007123B456E70399098
:10156A0064B97404123B3B90000612016F900008A4
:10157A001201E19064BAEFF0123B3CE4123B4F7463
:10158A00FF1201E19064BAE09000111201E1906447
:10159A00B9E09000121201E1123B3C900002EF12F6
:0215AA0001E15D
:0115AC00221C
:10239200C2B178E0E254BFF278E3E254CFF2E24411
:1023A20010F2907194E4F02290642FF0A374C5F0BF
:1023B20078317C647A64792F7E007D017B017F0213
:1023C2000201309064C47B017A64792FE4F0A37433
:1023D20002F022E0FF7B019064C4E4F0A37411F0E8
:1023E20022906431E0FF90642FE02278447C647D87
:1023F200017B017A64793322E4F078E3E254CFF28C
:1024020078E0E24440F22275D9AA7B017A647931FC
:10241200221204369064BC02045ED2B17F047E00B4
:1024220022EF75F020A4FFE5F0F0A3EFF022906414
:1024320032E064C52212045E9064990204361204EA
:102442005E90649D0204369064BC020436EEF0A3F2
:06245200EFF0A30204C735
:103CE8001223C5E4FF1239111224099064C4122367
:063CF800CE7F010239112C
:103C58009064C41223C8E4FF123946122409906400
:093C6800C41223CE7F010239468B
:102C7100123C58906430E064C5600D122430600845
:102C810074021223AA022CF1906430E0B4C50790BB
:102C91006432E0B4C50D906430E064C5603512243F
:102CA100307030906430E0B4C5101223B212240C9D
:102CB1009064C41223CE7F018016122430703478C0
:102CC1002F7C647A647931FE1223BC1223C5E4FFA0
:102CD1000239111223E3D39F4007E0906431F08061
:102CE1000F1223E3C39F500B906431E090642FF0E7
:042CF100123CE82287
:10127400E49064BBF0123C581223E3B50702800CDF
:101284001223E3D39F40028003906431E09064BB57
:10129400F09064BBE020E0099064B9F004A3F0800E
:1012A4000D9064BBE0FE149064B9F0A3EEF090647A
:1012B400B97A6479331223D51239469064BA7A64C0
:1012C40079441223D5123946906443E064C5602EF4
:1012D40090643F12046A0000000090643312046AB0
:1012E4000000000090643712046A0000000090645B
:1012F4003B12046A0000000090644374C5F09064DB
:1013040054E064C5600A1223ED7E007F111201309F
:10131400906444120436906433120452C31203FFDF
:1013240090649550291204369064441224379064D2
:101334004812244090644C12045E906450122413AA
:1013440078337C647D017B017A647944801E1204C5
:101354003690643312243790643712244090643BEF
:1013640012045E90643F1224131223ED7E007F1159
:10137400120130122449EF2401FFE43EFEE43DFD56
:10138400E43CFC12241612244990643F12045E12B9
:10139400244990645012045E7FE07E937D047C00B7
:1013A4009064BC120452D31203FF40309064BAE03C
:1013B400049064B9F0E0FE04A3F0EE947E4009903A
:1013C40064B9747EF0A304F090643F12046A0000D0
:1013D400000090645012046A000000009064B9E0B8
:1013E400FF1223F39064C41223DC1239119064BAFF
:1013F400E0FF7B017A6479449064C41223DC1239DF
:101404001190642FE0FF9064B9E0FE6F6007EE1264
:0514140023AA123CE8D0
:0114190022B0
:103C7100122394D2A6D2B17F04FE123D5DC2A67F6B
:093C8100047E00123D5DC2B12277
:103BD300122394C2B1C2A67F04FE123D5D12241CBF
:0C3BE300123D5DD2A67F047E00023D5D15
:1038A5009064CF1223FAD2A67F047E00123D5DD22A
:1038B500B1801530A61B9064CFE004F0E0D394FAF4
:1038C5004006123BD37F01227F047E00123D5D80BE
:0538D500E2C2B17F001A
:0138DA0022CB
:103CFE00122392C2A67F04FE123D5D12241C123DB9
:043D0E005DC2B122BF
:103D1200122392D2A67F04FE123D5D12241C123D94
:043D22005DC2B122AB
:05355F009064CFEFF0C5
:10356400122394C2B19064D0F09064CFE0FF5480F1
:10357400C4131313540124FF92A6EF25E0F07F0433
:103584007E00123D5D12241C123D5DC2B17F047E9B
:1035940000123D5D9064D0E004F0E0C3940840C99B
:0135A4002204
:053435009064CFEFF0F0
:10343A009064D11223FAE49064D0F0C2B17F047E82
:10344A0000123D5DD2B19064D1E025E0F030A603D0
:10345A00E004F07F047E00123D5D9064D0E004F049
:10346A00E0C3940840D59064CFE07005123D128005
:09347A0003123CFE9064D1E0FF56
:013483002226
:102BE3009064C812244F123C717FA012355F1238D3
:102BF300A5EF60037F01229064C8122C6760037FF6
:102C030001229064C8A3122C6760037F01227F0412
:102C13007E00123D5D123C717FA112355F1238A513
:102C2300EF60207F01229064CDE07002A3E0601F7B
:102C33007F011234359064CAE475F0011204B0EFD9
:102C43001201CF9064CD74FFF5F012026A80D7E4CD
:102C5300FF1234359064CA1204A7EF1201CF123B5E
:0E2C6300D37F0022E0FF12355F1238A5EF226A
:102D79009064C812244F123C717FA012355F12383B
:102D8900A5EF60037F01229064C8122DEE60037FD6
:102D990001229064C8A3122DEE60037F0122906482
:102DA900CD74FFF5F012028045F0602C9064CA12D0
:102DB90004A7120156FF12355F1238A5EF60037F91
:102DC90001229064C8E475F00112026A9064CBE4B0
:102DD90075F00112026A80C67F047E00123D5D1201
:0F2DE9003BD37F0022E0FF12355F1238A5EF22A7
:063911009064C11204C71E
:103917009064C61224239064C6E0FEA3E0FF90647F
:10392700C11204A79064C4E0FDA3E09064CDCDF07C
:0E393700A3EDF0122D79EF600575D9AA80D8A6
:01394500225F
:063946009064C11204C7E9
:10394C009064C61224239064C6E0FEA3E0FF90644A
:10395C00C11204A79064C4E0FDA3E09064CDCDF047
:0E396C00A3EDF0122BE3EF600575D9AA80D809
:01397A00222A
:103CBB00D2A6D2B178F2E254F3F2E24404F290715C
:073CCB0097E4F012239A2296
:10386E0078E2E2543FF2E24440F2907191E0F012BD
:10387E003A9712397B1236F6123D43123D50123AE8
:10388E00ED122A2F1232951235EA123CBB1231DBA1
:07389E007F017E00023BEFF9
:10317C001221E275D95590715EE054FEF075D9BB01
:10318C0012386ED2A37FE87E03123BEFC2A375D92F
:10319C00AA123B5975D9AA7B017A6379AC12141A1D
:1031AC001225147B017A6479D912141A1227CB12C6
:1031BC002EF4122458123AC2122025121E1E121F6F
:0F31CC002A12272F121AEF12172D120D3A80BF59
:1038DB0090645512043690649512045E90645912EC
:1038EB00043690649912045E90645D120436906401
:1038FB009D02045EE0FF7B017A6479559064C4E419
:06390B00F0A37411F0228C
:1031DB00122C7190642FE09064B9F01238FF123901
:1031EB0046906465E0B4C50F1238DB906495120409
:1031FB00369064BA12045E9064B9E020E00404F0E7
:10320B0080069064B9E014F09064B91238FF12395B
:10321B0046906465E0B4C51590645512043690640D
:0D322B00BA120452C31203FF50031238DB25
:013238002273
:033D8800021274B0
:1037B500FEE02FFFEC3EFEA3E02FFFEC3EFE22FADB
:1037C5001204367E00EB2FFFEE3AFE3395E0FDFC4A
:1037D500221204107E009064B9E022FC9064BE02BF
:0E37E500045E9064BE0204369064BA0204369C
:050B34009064B9EFF030
:100B39009064BE12046A000000007FA5123D3612BF
:100B490037E7EF24A5FFE43EFEE43DFDE43C123720
:100B5900E09064B9E0FF64016032EF6402602DEF58
:100B690064036028EF64046023EF6405601EEF648A
:100B7900066019EF64096014EF640A600FEF6411ED
:100B8900600AEF64126005EF641370207F05120D8F
:100B990014120D26C0001237ED1237D92405FDE4D1
:100BA90033CD2FFFEE3D1237CF020CDE9064B9E052
:100BB900FF6407600AEF64086005EF641070337F13
:100BC90006123D369064B9E0FF120CFC120D26C0E6
:100BD90000C002C0031237ED78081237D62406FD8B
:100BE900E433CD2FFBEE3DA31237C4D003D002026C
:100BF9000CDE9064B9E0FF640B600FEF640C600ACF
:100C0900EF64146005EF640D70467F07120D1478C8
:100C190010120410120CFC120D30C000C002C003E7
:100C29001237ED78101237D62407FDE433CD2FFBA8
:100C3900EE3DFAA312043678081204107E00EB2F59
:100C4900FBEE3A9064BA1237C4D003D002020CDE2C
:100C59009064B9E0640E6003020CE67F0B123D3626
:100C69007F0E123D369064A1E0FF123D369064A1DB
:100C7900E0A3E0FF123D369064A3E0FF123D3690F9
:100C890064A4E0FF123D369064A5E0FF123D369062
:100C990064A6E0FF123D369064A7E0FF120D30C054
:100CA90000C001C002C0039064A1E02419FFE4332D
:100CB900FEE0A3E07C002FFFEC3E9064A31237B561
:100CC900A3E02FFFEC3EA31237B53395E0FDFCD02E
:100CD90003D002D001D0001202961237E11237E791
:100CE900E4FEFD1237E01237E7123D367F017E0040
:030CF900023BEFCC
:100CFC00123D369064BA1204367808120410123D74
:100D0C00369064BA12043622123D369064B9E0FF74
:100D1C00123D369064BA12043622123D369064BEEF
:0E0D2C0012045222123D369064BE120452226E
:10397B0078E3E2543FF278F2E254FCF278D3E2546B
:10398B00FCF218E2543FF2E254FCF278C3E2543FEB
:10399B00F2E254CFF278E2E254FCF278E0E2440136
:0239AB00F22206
:102EF400C3906567E094C8906566E094004067E419
:102F0400F0A3F02086069064B0F0804520870890F6
:102F140064B07401F0803A2090089064B07402F0B8
:102F2400802F2093089064B07403F08024209408C8
:102F34009064B07404F0801920B0089064B07405F3
:102F4400F0800E9064B020A7057406F0800374FF2F
:102F5400F0D20120A0079064B774018004E4906467
:072F6400B7F0A3F0D2062232
:103A3D00F583EFF09064C3E004F02290652002045A
:103A4D0052E4FAF9F802033C9DFEE09C9064C1F04B
:0E3A5D00A3CEF022E0FCA3E0FDC39FEC9E226E
:0D3D430078D3E254F3F278D0E24420F2226B
:1037F300123A48906516E0FEA3E0FFE4FCFD1202D6
:103803009690652012045EE4906516F0A3F090652F
:103813002412043690651212045212029690652403
:0E38230012045E90651212046A00000000227A
:10245800E49064B9F0A3F09064BB12046A00000031
:1024680000E47FBC7E02FDFC123A48C31203FF5011
:1024780006201503022513E47F6D7E05FDFC90659B
:10248800241204521202B17B04123A4E9064BB1219
:10249800045EE43015089064B9F0A3F080217F242D
:1024A800FEFDFC9064BB1204521202B17B0A123A80
:1024B8004E123A4812033C9064B9EEF0A3EFF09044
:1024C80065351204369064BB120452120296906568
:1024D8003512045E90652412046A000000009065BD
:1024E8002012046A00000000C215D39064BAE09478
:1024F800E79064B9E0940340077403F0A374E7F02D
:0B2508009064B9E0FEA3E0FF121C018C
:0125130022A5
:081C01009064BFEEF0A3EFF0C8
:101C0900E4A3F0A3F0C21E906510123A61500FC30D
:101C19009064C0E09064BF123A55D21E8047906527
:101C290010E0FEA3E0FF9064BF123A61500FC39029
:101C39006511E0906510123A55C21E8028E490643F
:101C4900C3F09064C3E0FFC3940750169064BFA328
:101C5900E0FE74182FF582E43465F583EE123A40FC
:101C690080E0021D0B301E3AE49064C3F09064C317
:101C7900E0FB2401FFE433FE9064C1E0FCA3E0FD36
:101C89001202037C007D07120215906510A3E02F54
:101C9900FF74182BF582E43465123A3DE0B407CDA0
:101CA9008051E49064C3F09064C1E0FEA3E0FBAA14
:101CB90006E4F9F8A3E0FFC374069FFFE49400FE6D
:101CC9003395E0FDFC1202B1E47B07123A4F9065AF
:101CD90010A3E0C39FFF9064C3E0FDC374069DFD9C
:101CE900E49400FC74182DF58274653C123A3DE0C9
:101CF900B407B49064BFE0FFA3E0906510CFF0A3F0
:071D0900EFF0E490651FF00C
:011D100022B0
:103AC200301627C21690651FE0C39407501CE024ED
:103AD20018F582E43465F583E0FF9064ACE4F0A36A
:0B3AE200EFF090651FE004F0D204221A
:103D2600E4FDFC120452C30203FF9064B902043698
:0D3D500078C2E254CFF278C0E24404F222BF
:1036B50090654712043690654112045212029690A5
:1036C500654712045E90654112046A00000000908F
:1036D500654B120452906545E0FEA3E0FFE4FCFD56
:1036E50012029690654B12045EE4906545F0A3F0D6
:0136F50022B2
:06362F009064C112045E6C
:103635009064C912046A000000009064C512043643
:103645009064C1123D29400B9064C51204529064E8
:10365500C180099064C11204529064C512043612E7
:0E36650002A39064C912045E9064C902043688
:10202500E47F64FEFDFC90654B123D295006201BA4
:1020350003022104301B0C9064B912046A000000ED
:1020450000801FE47F607EEAFDFC90654712045224
:102055001202B190654B12045212033C9064B912FE
:10206500045E90654712046A0000000090654B12FB
:10207500046A00000000C21B7FFF7EFF9064B91256
:102085003D26400A9064B912046A0000FFFF90657E
:102095003D1204369064C512045E123D3012362F8F
:1020A5009064BD12045E7FE87E039064BD123D26F8
:1020B5004036123D3090653D123D2990653D4015F5
:1020C500120436C3EF94E8FFEE9403FEED9400FD91
:1020D500EC94008010120436EF24E8FFEE3403FE82
:1020E500E43DFDE43CFC8003123D3090653D120467
:0F20F5005E90653D1204369064A812045ED2031B
:0121040022B8
:0425E0004165280029
:1039DF00120436EF2401FFE43EFEE43DFDE43CFC1F
:1039EF00221204361202A3E47B64FAF9F8C302032D
:1039FF00FF7F7F7E967D987C00120452C30203FFE7
:101E1E00C390653AE094E8906539E09403400F3042
:101E2E001C0C123D88C21CE4906539F0A3F0E47FCF
:101E3E00E87E03FDFC906535123A0840717F187EEE
:101E4E00C67D9A7C3B906495123A08500C9064952E
:101E5E001239DF90649512045E906499123A005024
:101E6E000C9064991239DF90649912045E90649D0F
:101E7E00123A00500C90649D1239DF90649D12044A
:101E8E005E906535120436C3EF94E8FFEE9403FEC0
:0E1E9E00ED9400FDEC9400FC90653512045E9E
:101EAC00906528E004F0E0C3940A4004E4F0D21CEE
:101EBC009065291204529064951239F0500E90647A
:101ECC009512043690652912045ED20890652D1285
:101EDC0004529064991239F0500E906499120436A1
:101EEC0090652D12045ED2099065311204529064F3
:101EFC009D1239F0500E90649D120436906531128B
:101F0C00045ED20AC390653CE0948890653BE094F3
:0D1F1C0013400AE4F0A3F0D208D209D20A63
:011F29002295
:10373600906499E47B64FAF9F812043612033C901B
:1037460064BA02045E9064B0E0FFE4FCFDFE2290E1
:1037560064ACE0FEA3E0FFE4FCFD22E47BE87A0330
:10376600F9F8906495229064B9E0FF75F00FA422F1
:10172D00E49064B9F0F09064B9E0FFC39403400312
:10173D0002189274252FF582E43464F583E070036A
:10174D000218899064B9E0FB75F00FA424F3F582BB
:10175D00E43463F583E012050017828017878B1739
:10176D008C8C17968E179194182A98182E991832DA
:10177D009A00001834D200021834D208021834D25C
:10178D0009021834D20A021834D20BEB75F00FA4EB
:10179D0024F4F582E43463F58312374E780812048D
:1017AD0023EB75F00FA424F5F582E43463F583E0A3
:1017BD007C002FFFEC3E9064A1F0A3EFF012376C8C
:1017CD0024F6F582E43463F583E09064A3F0EF75BD
:1017DD00F00FA424F7F582E43463F583E09064A45C
:1017ED00F012376C24F8F582E43463F583E09064ED
:1017FD00A5F0EF75F00FA424F9F582E43463F583B9
:10180D00E09064A6F09064B9E075F00FA424FAF5A9
:10181D0082E43463F583E09064A7F0800AD20D80F2
:10182D0006D20E8002D20F906424E0D394004003C0
:10183D00E014F09064B9E0FF2425F582E43464F5FA
:10184D0083E4F0741E2FF582E43464F583E4F074C0
:10185D00212FF582E43464F583E4F0FE7F0FC0069A
:10186D00C007FD9064B9E075F00FA424F1F974631D
:10187D0035F0FA7B01D007D0061205599064B9E016
:05188D0004F002173316
:011892002233
:100D3A00200003020DCBC200906559E06003020D4A
:100D4A00CB04F012374B1237457F01120B349064F3
:100D5A00B112374E1237457F02120B349064A81233
:100D6A0004361237457F07120B34123755123745AE
:100D7A007F08120B349064B312374E1237457F093D
:100D8A00120B3412376112373F7F0B120B341237B2
:100D9A00367F0C120B341235199064BA12046A00A9
:100DAA000000007F0E120B349064AE1237581237CF
:100DBA00457F10120B3490649D1237397F14120B41
:100DCA003430010DC20112374B1237457F01120B25
:100DDA0034300210C2029064B112374E1237457F86
:100DEA0002120B34300310C2039064A812043612A4
:100DFA0037457F07120B3430040DC20412375512DF
:100E0A0037457F08120B34300510C2059064B312BF
:100E1A00374E1237457F09120B3430061EC2069030
:100E2A0064B712374E1237457F12120B349064B8EA
:100E3A0012374E1237457F13120B3430080DC20891
:100E4A0012376112373F7F0B120B3430090AC2097D
:100E5A001237367F0C120B34300A13C20AE47B6451
:100E6A00FAF9F890649D12373F7F14120B34300B55
:100E7A0023C20B90655CE0701B78B97C647D017BB2
:100E8A00017A6479A1FE7F071201301237769065E4
:100E9A005C7401F0300C10C20C9064AE1237581218
:100EAA0037457F10120B34300D19C20D906495121C
:100EBA00046A0000000090653512046A0000000010
:100ECA00123D88300E19C20E90649912046A00000D
:100EDA00000090653512046A00000000123D883057
:100EEA000F19C20F90649D12046A000000009065F9
:0C0EFA003512046A00000000123D88223E
:1025E4005463BF0001015300020473000307530046
:1025F40004091D00050CED5E63D30101020304050B
:1026040002060708090A030B0C0D0E0F0410111221
:1026140013140515161718195363AC0A00000000AB
:0E262400033241000000000001FF39AD00004C
:0F004E00EC75F006A424D3F582E43463F5832225
:10348400E4FD9064BBF0A374FFF0ED25E025E02497
:10349400C1F582E43463F583E0FAA3E0D39FEA9EA6
:1034A400401CED25E025E024BFF582E43463F58378
:1034B400E0FFA3E09064BBCFF0A3EFF080050DED37
:0B34C400B405C79064BBE0FEA3E0FF6E
:0134CF0022DA
:103B1500E4FEFC12004EE0B5071112004EE5822DC1
:103B2500F582E43583F583E0FE80050CECB405E30E
:023B3500AF06D9
:013B3700226B
:1039AD00E49064B9F0A3F07F0212367312002790F1
:1039BD0064B9EEF0A3EFF09064B9E0FEA3E0FF125E
:1039CD0034849064B9EEF0A3EFF09064B9E0A3E015
:0139DD00FFEA
:0139DE0022C6
:102514009063BDE070030225CDE0FFA3E0FD123B14
:1025240015E49063BDF0A3F0EF12050025520125D8
:102534005E04256A0625760925820B258E0E259ACA
:102544001025A61325B21525BE18000025CD9064CC
:10255400BA12046A000000CF806A9064BA12046A56
:10256400000100CF805E9064BA12046A000000D2B9
:1025740080529064BA12046A000100D280469064CA
:10258400BA12046A000000D1803A9064BA12046A54
:10259400000100D1802E9064BA12046A0000007F0A
:1025A40080229064BA12046A0001007F801690644D
:1025B400BA12046A000000D0800A9064BA12046A55
:0925C400000100D07F0D120B3460
:0125CD0022EB
:08263200416467004164660089
:10339600FEE434FFFDE434FFFCE4FAF9F81202B16E
:1033A600E4229064BDE0FEA3E0FF227A01F9F81260
:1033B600033CAD07C322FEE434FFFDE434FFFCE426
:1033C6002225E0246CF582E43464F583229064B906
:1033D600E09064B3F0229064BDA3EF2467FFEE2271
:04304E00AB07AA061C
:10305200E49064BDF0A312046A00000000AE02AF67
:1030620003906494E0FD04F0ED1233C7EEF0A3EF99
:10307200F0906494E0C394144002E4F0E49064BDE0
:10308200F09064BE1204529064BDE01233C7E0FEB9
:10309200A3E0FFE4FCFD1202969064BE12045E906F
:1030A20064BDE004F0E0B414D8E47B14FAF9F890BB
:0830B20064BE12043602033C67
:10000F00E4FDED1233C7EEF0A3EFF00DEDB414F2F3
:01001F0022BE
:0815AD009064BDEEF0A3EFF025
:1015B500E4FDC3EF940BEE940E500A1233A894F495
:1015C500EE940150057DFF02172AD3EF9400EE94A7
:1015D5000E4005E4FD02172AD3EF9466EE940650FB
:1015E500057D6402172AD3EF9400EE940E5024EF84
:1015F5009433EE940D401C1233A8EF24CDFFEE3446
:10160500F27B121233967BCDFA1233B374129DFD21
:1016150002172A1233A8D39433EE940D502FEF946A
:10162500B8EE940C40279064BDA3EF2448FFEE3438
:10163500F37B221233967B7BFA1233B374229DFD22
:10164500C39412400302172A7D1202172A1233A8E7
:10165500D394B8EE940C5031EF9433EE940B4029AB
:101665009064BDA3EF24CDFFEE34F41233BC7B337D
:101675001233A07B851233B174339DFDC394224090
:101685000302172A7D2202172A1233A8D39433EEB8
:10169500940B5028EF9499EE940940201233DC34D2
:1016A500F61233BC7B441233A07B9A1233B17444D7
:1016B5009DFDC39433506E7D3302172A1233A8D390
:1016C5009499EE94095028EF9499EE9407402012CE
:1016D50033DC34F81233BC7B541233A0FB7A02128C
:1016E50033B374549DFDC39444503A7D44803612FF
:1016F50033A8D39499EE9407502BEF9466EE940695
:1017050040239064BDA3EF249AFFEE34F91233BC55
:101715007B641233A07B331233B174649DFDC39493
:071725005450027D54AF0592
:01172C00229A
:10323900E4FEEF70028052EFC39401400AEFD39489
:103249001150047E018042EFC39412400AEFD394D7
:103259002150047E028032EFC39422400AEFD394B6
:103269003250047E038022EFC39433400AEFD39493
:103279004350047E048012EFC39444400AEFD39470
:0B3289005350047E0580027E06AF0655
:013294002217
:061F2A00E49064B9F0FE32
:101F3000906466E07035C3906469E094F4906468DE
:101F4000E094014026E4F0A3F012200812000F9064
:101F50006564E0FEA3E0FF122019906467EFF012C1
:0B1F600033D3E4FED20590646604F069
:101F6B0012200812304EC3906469E094E8906468C4
:081F7B00E0940350030220076B
:101F8300E49064BAF0906468F0A3F0122019A3EF10
:101F9300F0906467E0FE6F6004D2188007C21812E5
:101FA30033D3D20530175DC2179064BAE0FF6E6079
:011FB3004EDF
:101FB400906467E0FED39F400BEED394004011E0A1
:101FC40014F0800CEEC394065006906467E004F0AD
:0F1FD400E49064BBF09064BBE0FFC394FF501F28
:101FE300123239A3EFF0906467E0B5070A9064BB3F
:071FF300E09064B9F08008E2
:081FFA009064BBE004F080D705
:052002001233D3D205EA
:10200700227F031236731222BE906564EEF0A3EFAF
:0E201700F0221215AD9064B9EFF012323922AA
:02263A00C19D40
:1032ED00E4906557F0A3F09064BBE09064B1F0906A
:1032FD0064B9E0FFA3E09064AECFF0A3EFF0D20C81
:10330D00D2022290655312043690654F1204521268
:10331D00033C90655312045E90655302043690642D
:10332D00B9EEF0A3EFF09064B9A3E0FF123BB6A3A2
:06333D00EFF09065532241
:103C8A007C0A7D5012052CE47B0AFAF9F812033CEF
:093C9A00E4FB7A10F9F802033C86
:103BB600EFC3949640047E6480107E007C007D6492
:0C3BC6001202037D96120215AE07AF0636
:013BD20022D0
:10272F00E49064B9F0A3F0A3F07F011236739065C3
:10273F0053120452C000C001C002C0031222BEE4F3
:10274F00FCFDD003D002D001D00012029690655349
:10275F0012045E90654F120436EF2401FFE43EFE33
:10276F00E43DFDE43CFC90654F12045E301D2012E9
:10277F003310123C8A12332B12046A0000000090AF
:10278F00654F12046A000000001232EDC21D22C311
:10279F00906558E094D0906557E09407401D123330
:1027AF0010123C8A12332B12046A0000000090654D
:0B27BF004F12046A000000001232ED0F
:0127CA0022EC
:10263C004C64EC01010203040502060708090A5365
:10264C0064D90A000000000364AF0000000000021F
:05265C00FF34D0000076
:103B7900E4FFFDFCAB1BAA1AA919A818C30203FF8D
:0F3B8900EE75F006A424ECF582E43464F5832293
:1034D0009064B912046A000000009064BD74FFF0AB
:1034E000AF1BAE1AAD19AC189064B912045E7E021F
:1034F000123B7970079064BD04F0800D7E04123B8E
:103500007970069064BD7402F09064B912046A0088
:083510000000009064BDE0FF23
:013518002290
:103A6B00E49064B9F0FE123B89E0B50714123B8970
:103A7B00E5822DF582E43583F583E09064B9F0801F
:0B3A8B00050EEEB402E09064B9E0FF0D
:013A9600220D
:1027CB009064EAE07003022866E0FFA3E0FD123A92
:1027DB006BE49064EAF0A3F0EF12050028030128E4
:1027EB000F03281B04282705283306283F08284BEE
:1027FB000928570A000028669064BA12046A000080
:10280B00004780529064BA12046A00010047804668
:10281B009064BA12046A00020047803A9064BA12BC
:10282B00046A00030047802E9064BA12046A000009
:10283B00004880229064BA12046A00010048801696
:10284B009064BA12046A00020048800A9064BA12BB
:0B285B00046A000300487F0D120B34DC
:01286600224F
:1026610041601801426019000041601B0041601C7B
:0E2671000041601D0041601E7F42601FFFFFA0
:10383100E4F561AE3EAD3DAC3C853F178E168D156E
:103841008C14787EE254FCF2E24514F218E515F28C
:1038510018E516F218E517F2787FE254FBF2E2540C
:0D386100FB4404F2E24401F27F01022CF569
:1008E2009064B9EFF0E0FF24FAF582E43464F58312
:1008F200E004F074FC2FF582E43464F583E4F074D0
:10090200FA2FF582E43464F583E0C3956350030261
:100912000B339064B9E0FB24FAF582E43464F58386
:10092200E4F0903BA99364016003020AE47F01FEB4
:10093200FDFC74FE2BF582E43464F583E0F9F812D1
:100942000423E51F4FF51FE51E4EF51EE51D4DF56F
:100952001DE51C4CF51CAF1FAE1EAD1DFC7801122F
:100962000410EF5455FBEE5455FAED5455F9EC547E
:1009720055F8C3E51F9BF53BE51E9AF53AE51D992F
:10098200F539E51C98F538AF3BAE3AAD39FC780243
:10099200120410EF5433FBEE5433FAED5433F9ECF6
:1009A2005433F8E53B5433FFE53A5433FEE539540A
:1009B20033FDE5385433FCEB2FF53BEA3EF53AE9DB
:1009C2003DF539E83CF538AF3BAE3AAD39FC780439
:1009D200120410EF253BFFEE353AFEED3539FDEC02
:1009E2003538FCEF540FF53BEE540FF53AED540F4A
:1009F200F539EC540FF538AF3BAE3AAD39FC780817
:100A0200120410EF253BFFEE353AED3539FDEC359A
:100A120038EFF53BE4F53AEDF539E4F538AE3AACAA
:100A2200387810120410EF253BFFEE353AFEEFF551
:100A32003BEEF53AE4F539F5389064B9E025E02467
:100A420008F582E43465F583E0FEA3E0D39553EE26
:100A5200955240249064B9E0FF25E02408F582E431
:100A62003465F583E0F552A3E0F55374FE2FF58269
:100A7200E43464F583E0F564903BA9E493FFE4FC7D
:100A8200FDFEAB3BAA3AA939A838D31203FF405264
:100A9200AF650565D3EF9403748094805003020B15
:100AA20033E4F565F51FF51EF51DF51C7F01FEFD0E
:100AB200FCA964A8011204238F1B8E1A8D198C18AD
:100AC200E47F01FEFDFCA8011204238F338E328DD8
:100AD200318C30E4F552F553756420122DF843370A
:100AE2000222E4F5657F01FEFDFC9064B9E0FB247F
:100AF200FEF582E43464F583E0F9F8120423E51B81
:100B02004FF51BE51A4EF51AE5194DF519E5184C86
:100B1200F518E47F01FEFDFCA803120423E5334F20
:100B2200F533E5324EF532E5314DF531E5304CF530
:020B320030226F
:1005A300E4F566903BADE493FFE566C39F40030229
:1005B30008E1E56625E02400F582E4346085828A5B
:1005C3007F548F8B7E0E8E8C758903758889E566C3
:1005D30025E02400F582E4346085828A8F8B758C54
:1005E30012758904758889E56625E02408F582E497
:1005F3003460F583E0FCA3E0C3950FEC950E502E19
:10060300E56625E02414F582E43460F583E0FCA379
:10061300E0C39513EC95125015AF600560EF94029B
:1006230074809480400BE4F5605337FD8003E4F558
:1006330060E53730E125E56625E02408F582E434FA
:1006430065F583E4F0A3F0E56625E0240CF582E488
:100653003465F583E4F0A3F00206F1E56625E024B2
:1006630008F582E4346085828A8E8B758C0A7589DD
:10067300267588892088FDE5F130E00875F107E4E7
:10068300F50AF50BAE0AE50B7802C333CE33CED8A9
:10069300F9FFE56625E02408F582E43465F583EE89
:1006A300F0A3EFF0E56625E02414F582E4346085D9
:1006B300828A758B12758C0A7589277588892088BB
:1006C300FDE5F130E00875F107E4F50AF50BAE0A34
:1006D300E50B7802C333CE33CED8F9FFE56625E0C8
:1006E300240CF582E43465F583EEF0A3EFF0E566C0
:1006F30025E02400F582E43465F583E0FEA3E07889
:1007030002CEC313CE13D8F9F5518E50E56625E01A
:100713002408F582E43465F583E0FEA3E0FF903B13
:10072300A5E493FC740193FDC3EF9DEE9C4017E594
:100733006625E0240CF582E43465F583E0FEA3E04E
:10074300C39DEE9C50028068E56625E02408F5828F
:10075300E43465F583E0FEA3E0C39551EE95504084
:100763001CE56625E0240CF582E43465F583E0FEA0
:10077300A3E0C39551EE955040030207FD74F8259D
:1007830066F582E43464F583E004F074F82566F5D5
:1007930082E43464F583E0FF903BAAE493FEEFD355
:1007A3009E406474F82566F582E43464F583E4F0CE
:1007B300E56625E02404F582E43460F583E0FEA3D6
:1007C300E0FFE56625E02408F582E43460F583EE76
:1007D300F0A3EFF0E56625E02410F582E43460F53C
:1007E30083E0FEA3E0FFE56625E02414F582E4340C
:1007F30060F583EEF0A3EFF0800D74F82566F582C3
:10080300E43464F583E4F0E56625E02404F582E44A
:10081300346085828AE56625E02400F582E434604D
:1008230085828B758C0A7589207588CB2088FDE5B8
:10083300F130E00875F107E4F50AF50BE56625E00C
:100843002404F582E4346085828A758B547F0E8F8D
:100853008C7589237588897E0A8E8A8F8BE5662538
:10086300E02404F582E4346085828CE4F58975889C
:1008730029E56625E02410F582E4346085828AE563
:100883006625E02400F582E4346085828B8E8C75C6
:1008930089207588CB2088FDE5F130E00875F107E4
:1008A300E4F50AF50BE56625E02410F582E43460EF
:1008B30085828A758B547F0E8F8C75892475888900
:1008C300758A0A8F8BE56625E02410F582E434608F
:0F08D30085828CE4F58975882905660205A622C1
:100F0600E4F566903BADE493FFE566C39F400302BC
:100F160010BEE56625E02400F582E43465F583E03D
:100F2600FEA3E07802CEC313CE13D8F9F5518E5046
:100F3600E56625E02408F582E43465F583E0FEA342
:100F4600E0D39551EE9550402EE56625E0240CF54C
:100F560082E43465F583E0FEA3E0D39551EE955027
:100F6600401574FC2566F582E43464F583E4F0AF3D
:100F7600661208E20210B9903BACE493FFC3E55158
:100F86009FFFE5509400FED3EF9400EE94004002DC
:100F960080047E007F00E56625E02408F582E434BF
:100FA60065F583E0FCA3E0C39FEC9E40030210AC12
:100FB600903BACE493FFC3E5519FFFE5509400FEE0
:100FC600D3EF9400EE9400400280047E007F00E59B
:100FD6006625E0240CF582E43465F583E0FCA3E0A5
:100FE600C39FEC9E40030210AC74FA2566F582E4BA
:100FF6003464F583E4F074FC2566F582E43464F524
:1010060083E004F074FC2566F582E43464F583E03D
:10101600C3956350030210B974FC2566F582E43467
:1010260064F583E4F07F01FEFDFC74FE2566F5821F
:10103600E43464F583E0F9F81204231203CEE51FC5
:101046005FF51FE51E5EF51EE51D5DF51DE51C5CE5
:10105600F51CE47F01FEFDFCA966A801120423121B
:1010660003CEE5335FF533E5325EF532E5315DF506
:1010760031E5305CF530E47F01FEFDFC74FE25664B
:10108600F582E43464F583E0F9F81204231203CE02
:10109600E51B5FF51BE51A5EF51AE5195DF519E521
:1010A600185CF518800D74FC2566F582E43464F549
:0910B60083E4F00566020F092233
:102DF800E4F566903BADE493FFE566C39F506EE54E
:102E08006625E02408F582E43465F583E4F0A3F050
:102E1800E56625E0240CF582E43465F583E4F0A347
:102E2800F0E56625E02404F582E43460F583E0FEED
:102E3800A3E0FFE56625E02408F582E43460F58325
:102E4800EEF0A3EFF0E56625E02410F582E43460A7
:102E5800F583E0FEA3E0FFE56625E02414F582E4AF
:0E2E68003460F583EEF0A3EFF005668086225D
:10299C00E4F566903BADE493FFE566C39F5067900A
:1029AC006018E0FF7E00C39410748094805053EF45
:1029BC009408748094804025E56625E02400F58217
:1029CC00E43460F583E0FEA3E0FFE56625E0240433
:1029DC00F582E43460F583EE8FF012026AE5662529
:1029EC00E02400F582E43460F583E0FEA3E0FFE52B
:1029FC006625E02410F582E43460F583EE8FF01246
:102A0C00026A0566808D906018E0C39410748094FF
:102A1C008040054337048006906018E004F07F0185
:032A2C00022CF584
:102E7600E4FFFEFDFCAB1BAA1AA919A818C312038E
:102E8600FF606390601AE004F07006906019E00439
:102E9600F0903BA1E493FE740193FF4E602ED39015
:102EA600601AE09F906019E09E4021E4F0A3F0F5DF
:102EB6001FF51EF51DF51CF533F532F531F530F528
:102EC6001BF51AF519F518C21A022DF8903BA3E462
:102ED60093FE740193FFD390601AE09F906019E00F
:0D2EE6009E400AD21A22E4906019F0A3F079
:012EF30022BC
:0510BF009064D3EFF086
:1010C400A3E0FCA3E0FDA3E0FEA3E0F52B8E2A8DB4
:1010D400298C287884E2F50A08E2F50B758A0875EC
:1010E4008B28758C2475881D2088FDE4FFFEFDFC8B
:1010F400AB27AA26A925A824D31203E94006AC24C9
:10110400A8048013AF27AE26AD25AC241203DBABB5
:1011140007AA06A905A80490601FE0FEA3E0FFE467
:10112400FCFDC31203E95041E4FFFEFDFCAB27AA1A
:1011340026A925A8241203E94006AF27AE26800B72
:10114400AF27AE26AD25AC241203DB90601FEEF072
:10115400A3EFF09064D3E025E02404F582E4346541
:10116400F583E0A3E090601EF0903B9EE493FE7450
:101174000193FFD3906020E09F90601FE09E501B7E
:101184009064D3E025E02404F582E43465F583E03B
:10119400A3E090601EF090601B8079E4FFFEFDFCEC
:1011A400AB27AA26A925A824D31203E940349064C6
:1011B400D3E0FF25E02404F582E43465F583E0FC04
:1011C400A3E0D39400EC9400404DEF25E02404F513
:1011D40082E43465F58374FFF5F012026A90601CB2
:1011E40080329064D3E0FF25E02404F582E4346582
:1011F400F583E0FCA3E0C3947FEC94005019EF2541
:10120400E02404F582E43465F583E475F001120208
:101214006A90601D7401F090601CE064017011A379
:10122400E06401700B90601CF0A3F090601B04F06C
:1012340090601BE06401703590601EE0FF9064D301
:10124400E025E02404F582E43465F583E4F0A3EFBB
:10125400F074FF90601FF0A3F090601E747FF0E4C0
:0F12640090601CF0A3F090601BF07F01227F00D0
:011273002258
:1030BA00E49064D2F0903B981204427801120423FF
:1030CA009064D412045EAF611210BFEF60220561F2
:1030DA00E53730E4095337EF9064D27401F0903B3E
:1030EA00ADE493FFE561C39F4006E4F56143371001
:1030FA00C3903B9C7401939562E4939400400890BA
:10310A0064D2E064017005D219023831E4FF122C4E
:01311A00F5BF
:01311B002291
:102CF500EF70607F01FEFDFC74FE2561F582E43412
:102D050064F583E0F9F81204238F178E168D158C60
:102D150014787EE254FCF2E24514F218E515F21837
:102D2500E516F218E517F2E56125E02404F582E4DD
:102D35003465F583E0A3E0547FFF7878E254804F53
:102D4500F2787FE254FBF2E254FB4404F2E24401E0
:102D5500F2801CE56125E02404F582E43465F58301
:102D6500E0A3E0547FFF7878E254804FF2787FE269
:042D75004402F22200
:10286700E49064B9F0A3F09064B9E0FEA3E0FFC37D
:102877009488EE94035031EF24A3FFEE34058F8242
:10288700F583E493FF9064BAE02421FD9064B9E0F6
:1028970034608D82F583EFF09064BAE004F070C77E
:0828A7009064B9E004F080BF69
:1028AF009063A97401F0A37460F0A37421F0E4F5B0
:1028BF0061F537F536F535F534C219C21AF51FF53E
:1028CF001EF51DF51CF533F532F531F530F51BF519
:1028DF001AF519F518903BA793FF903BABE493FEC5
:1028EF00A807088002C333D8FCF563756420E4FFA2
:0328FF00022CF5B3
:102F6B007884E2F50A08E2F50BAE0A7803CEC313B8
:102F7B00CE13D8F97802C333CE33CED8F9FFE5613F
:102F8B0025E02400F582E43460F583EEF0A3EFF046
:102F9B0020190F903BA0E4937005D219023831022F
:102FAB0030BA0561903BADE493FFE561C39F401FD1
:102FBB00787FE254FBF2E254FB4404F2E24401F268
:102FCB00E4F561E53720E20302299C433701227FB8
:052FDB0001122CF5229B
:053D83000562022E762E
:103B5900E53730E01A9063A9A3E0FAA3E0F912056A
:103B690026120F06E4F5617F01122CF55337FE2268
:10291C0002317CE493A3F8E493A34003F68001F224
:10292C0008DFF48029E493A3F85407240CC8C333BC
:10293C00C4540F4420C8834004F456800146F6DF8B
:10294C00E4800B01020408102040809025CEE47E28
:10295C00019360BCA3FF543F30E509541FFEE49380
:10296C00A360010ECF54C025E060A840B8E493A347
:10297C00FAE493A3F8E493A3C8C582C8CAC583CA72
:10298C00F0A3C8C582C8CAC583CADFE9DEE780BE2A
:01267F00005A
:10006000E709F608DFFA8046E709F208DFFA803E82
:1000700088828C83E709F0A3DFFA8032E309F6086F
:10008000DFFA8078E309F208DFFA807088828C83D7
:10009000E309F0A3DFFA806489828A83E0A3F6088B
:1000A000DFFA805889828A83E0A3F208DFFA804C65
:1000B00080D280FA80C680D4806980F2803380103C
:1000C00080A680EA809A80A880DA80E280CA8033A5
:1000D00089828A83ECFAE493A3C8C582C8CCC5831D
:1000E000CCF0A3C8C582C8CCC583CCDFE9DEE780ED
:1000F0000D89828A83E493A3F608DFF9ECFAA9F06C
:10010000EDFB2289828A83ECFAE0A3C8C582C8CCC1
:10011000C583CCF0A3C8C582C8CCC583CCDFEADEDA
:10012000E880DB89828A83E493A3F208DFF980CC3C
:1001300088F0EF60010E4E60C388F0ED2402B40435
:100140000050B9F582EB2402B4040050AF232345DC
:0601500082239000B07351
:10015600BB010689828A83E0225002E722BBFE02A7
:09016600E32289828A83E49322DA
:10016F00BB010CE58229F582E5833AF583E0225045
:10017F0006E92582F8E622BBFE06E92582F8E2228F
:0D018F00E58229F582E5833AF583E49322A9
:10019C00BB010FF8E58229F582E5833AF583E02867
:1001AC00F0225009C58229F8E58226F622BBFE0909
:1001BC00C58229F8E22582F222F8EA2583F583E943
:0301CC0093282253
:1001CF00BB010689828A83F0225002F722BBFE010F
:0201DF00F32209
:1001E100F8BB010DE58229F582E5833AF583E8F054
:1001F100225006E92582C8F622BBFE05E92582C800
:02020100F222E7
:10020300EF8DF0A4A8F0CF8CF0A428CE8DF0A42E0F
:02021300FE22C9
:10021500BC000BBE0029EF8DF084FFADF022E4CCCD
:10022500F875F008EF2FFFEE33FEEC33FCEE9DEC96
:10023500984005FCEE9DFE0FD5F0E9E4CEFD22EDDC
:10024500F8F5F0EE8420D21CFEADF075F008EF2F26
:10025500FFED33FD4007985006D5F0F222C398FD17
:050265000FD5F0EA22B4
:10026A00C5F0F8A3E028F0C5F0F8E582158270021F
:06027A001583E038F022BC
:10028000A3F8E0C5F025F0F0E58215827002158331
:06029000E0C838F0E8228E
:0D029600EF2BFFEE3AFEED39FDEC38FC22B7
:0E02A300C3EF9BFFEE9AFEED99FDEC98FC2256
:1002B100E88FF0A4CC8BF0A42CFCE98EF0A42CFCEC
:1002C1008AF0EDA42CFCEA8EF0A4CDA8F08BF0A46A
:1002D1002DCC3825F0FDE98FF0A42CCD35F0FCEBC9
:1002E1008EF0A4FEA9F0EB8FF0A4CFC5F02ECD398E
:0F02F100FEE43CFCEAA42DCE35F0FDE43CFC22FB
:1003000075F008758200EF2FFFEE33FECD33CDCCB4
:1003100033CCC58233C5829BED9AEC99E582984037
:100320000CF582EE9BFEED9AFDEC99FC0FD5F0D614
:10033000E4CEFBE4CDFAE4CCF9A88222B800C1B93E
:100340000059BA002DEC8BF084CFCECDFCE5F0CB7C
:10035000F97818EF2FFFEE33FEED33FDEC33FCEBB5
:1003600033FB10D703994004EB99FB0FD8E5E4F970
:10037000FA227818EF2FFFEE33FEED33FDEC33FC5D
:10038000C933C910D7059BE99A4007EC9BFCE99A51
:10039000F90FD8E0E4C9FAE4CCFB2275F010EF2F96
:1003A000FFEE33FEED33FDCC33CCC833C810D70796
:1003B0009BEC9AE899400AED9BFDEC9AFCE899F8D1
:0E03C0000FD5F0DAE4CDFBE4CCFAE4C8F92264
:0D03CE00CFF4CFCEF4CECDF4CDCCF4CC22C4
:0E03DB00C3E49FFFE49EFEE49DFDE49CFC2233
:1003E900EB9FF5F0EA9E42F0E99D42F0EC6480C88B
:0603F90064809845F0222B
:1003FF00EB9FF5F0EA9E42F0E99D42F0E89C45F054
:01040F0022CA
:10041000E8600FECC313FCED13FDEE13FEEF13FFCA
:03042000D8F122EE
:10042300E8600FEFC333FFEE33FEED33FDEC33FC37
:03043300D8F122DB
:0C043600E0FCA3E0FDA3E0FEA3E0FF2239
:10044200E493FC740193FD740293FE740393FF2200
:0C045200E0F8A3E0F9A3E0FAA3E0FB222D
:0C045E00ECF0A3EDF0A3EEF0A3EFF02211
:10046A00A8828583F0D083D082120481120481127B
:10047A000481120481E473E493A3C583C5F0C583A0
:10048A00C8C582C8F0A3C583C5F0C583C8C582C8DC
:01049A00223F
:0C049B00A42582F582E5F03583F583226C
:0904A700E0FBA3E0FAA3E0F92256
:1004B000F8E0FBA3A3E0F925F0F0E58215827002D5
:0704C0001583E0FA38F02279
:0904C700EBF0A3EAF0A3E9F02236
:1004D000BB010DE58229F582E5833AF5830204A785
:1004E0005007E92582F8020585BBFE07E92582F859
:1004F00002058EE58229F582E5833AF583020597A8
:10050000D083D082F8E4937012740193700DA3A38A
:1005100093F8740193F5828883E47374029368609E
:06052000EFA3A3A380DF9E
:060526008A838982E47360
:10052C00EC8EF0A4CCC5F0CCCDF8EFA4CEC5F02D5C
:10053C00FDE43CFCE8A42EC8C5F03DFDE43CFCEF1A
:0D054C00A4FFE5F028FEE43DFDE43CFC22A8
:10055900EF4E6012EF60010EEDBB010B89828A83B9
:10056900F0A3DFFCDEFA2289F05007F709DFFCA9C6
:0C057900F022BBFEFCF309DFFCA9F0221D
:09058500E6FB08E6FA08E6F9229B
:09058E00E2FB08E2FA08E2F9229E
:0C059700E493FB740193FA740293F922C0
:00000001FF
