:030000000229B022
:1029B000787FE4F6D8FD9060007F007E07E4F0A306
:0A29C000DFFCDEFA758166022A05CD
:0C000300000000000000000000000000F1
:0B3C5A00EF1FAC0670011E4C70F6223C
:103B0000AB07AA06EB1BAE0270011A4E600C7FAA2F
:0B3B10007E05123C5A75D9AA80EA22FB
:10231B00907120E04480F07F057E00123C5AE4FF70
:10232B00FE123B0075A75575AC5C9071327450F082
:10233B009071307403F0907136742FF090715C745F
:10234B0003F090715BE054FCF07F18EF2466FDE422
:10235B0034718D82F583E4F00FEFB433EE904011BE
:10236B00E4935407FF90711CE054F84FF090401722
:10237B00E493547FFF90711DE054804FF090401018
:10238B00E493FF5401C43333335480FE907123E044
:10239B00547F4EF0EFC313543F4440FFA3E05480EF
:1023AB004FF0904012E493FF540FFE907146E054AF
:1023BB00F04EF0EFC4540FFF90714FE054F04FF01C
:1023CB00904013E493543FFF907140E054C04FF0A2
:1023DB00904014E493907126F0904015E493907123
:0B23EB0028F0904016E49390712AF057
:0123F60022C4
:103AA700000009C4006400C80101F4004B000A00CB
:0E3AB70000010F0405020009000A000A000ABF
:103B8400E2FE74F02FF582E43464F583E02224FC31
:083B940025E0FDF8740308228E
:101C7900E4FF123B86C394085058123B86C3940470
:101C8900502878C2C000123B84123B948002C333AF
:101C9900D8FCF45ED000F278C2C000123B84123B3B
:101CA900948002C333D8FC021DA778C3C000123B3D
:101CB90084123B928002C333D8FCF45ED000F278E0
:101CC900C3C000123B84123B928002C333D8FC028A
:101CD9001DA7123B86C394084068123B86C3941023
:101CE9005060123B86C3940C502C78D2C000123B32
:101CF9008424F8123B948002C333D8FCF45ED000EC
:101D0900F278D2C000123B8424F8123B948002C3BB
:101D190033D8FC021DA778D3C000123B8424F412E7
:101D29003B948002C333D8FCF45ED000F278D3C070
:101D390000123B8424F4123B948002C333D8FC0282
:101D49001DA7123B86C39414502B78E2C000123BA6
:101D59008424F0123B948002C333D8FCF45ED00093
:101D6900F278E2C000123B8424F0123B948002C353
:101D790033D8FC802978E3C000123B8424EC123B61
:101D8900948002C333D8FCF45ED000F278E3C0003B
:101D9900123B8424EC123B948002C333D8FC4ED00E
:0B1DA90000F20FEF64026003021C7BDD
:011DB400220C
:03005D0002352049
:10352000C0E0C0F0C083C082C0D075D000C000C071
:1035300001C002C003C004C005C006C0077881E214
:1035400030E607E24440F2122E96D007D006D005AE
:10355000D004D003D002D001D000D0D0D082D0830C
:05356000D0F0D0E032C4
:1033A700D2AF43AB0843B6C0907132E04440F0431C
:1033B700AB087877743FF208744BF2787A7430F27E
:1033C700788914F27871744FF2187427F27872744E
:1033D700A8F2087410F208E4F208F208F2787E7492
:0F33E700D0F2087404F208741EF2087402F22285
:102ADD00E4FBEB25E025E024BDF582E4343AF583F3
:102AED00740193FF74F02BF582E43464F583EFF0F9
:102AFD00EB25E025E024BFF582E4343AF583E49339
:102B0D00FE740193FFEB25E024F2F582E43464F5C5
:102B1D0083EEF0A3EFF0EB25E024F6F582E43464C8
:102B2D00F583E4F0A37441F0E47F01FEFDFC74F045
:102B3D002B123B89F9F812040DE53F4FFFE53E4E90
:102B4D00FEE53D4DFDE53C4C8F3F8E3E8D3DF53C0C
:102B5D000BEB64026003022ADF121C7912291502A5
:022B6D0033A78C
:073C6D0078C3E254CFF222FC
:073C740078C3E2543FF22285
:073C7B0078D2E254FCF222B2
:073C820078D2E2543FF22268
:073C890078D3E254FCF222A3
:073C900078E3E2543FF22249
:073C970078F2E254FCF22276
:0708CC0044600C0000000075
:083C65007890E2541FF2E22204
:10372200E5B154F342B153A8DFD2AF7892E4F20884
:10373200F27890E254E3F2E2441CF2E254FCF2E248
:103742004401F208E2547FF2E24420F278957401D7
:0C375200F2187476F2123C6544A0F222DA
:0C3C4200123C6544C0F243A820D2AF221F
:103BFD00123C6544A0F27892E4F208F253A8DF2259
:03001E00022FEBC3
:102FEB00C0E0C0F0C083C082C0D075D000C000C0AC
:102FFB0001C002C003C004C005C006C0077891E23F
:10300B0030E72FE24480F274FFFFFEFDFC90600C72
:10301B0012043CC31203E9501990600C120420EF08
:10302B002401FFE43EFEE43DFDE43CFC90600C1209
:10303B000448D007D006D005D004D003D002D0016D
:0D304B00D000D0D0D082D083D0F0D0E032C1
:1008D3004465420000000042653C000042653E0062
:0108E3000014
:1039DD00E475F00102026A120420EF2401FFE43EB7
:1039ED00FEE43DFDE43CFC22E4FCFD7BFF7AFFF9A7
:0539FD00F8D30203D322
:10356500E5B154CF42B153A8BFD2AF75D102789C13
:10357500E254E3F2E2441CF2E254FCF2E24401F2CA
:1035850008E2547FF2E24420F278A17401F2187443
:1035950076F2789CE2541FF2E244C0F243A840D28E
:0235A500AF2253
:030021000216C7FD
:1016C700C0E0C0F0C083C082C0D075D000C000C0E9
:1016D70001C002C003C004C005C006C007789DE270
:1016E70020E703021832E24480F274FFFFFEFDFC9C
:1016F70090654212043CC31203E9500C90654212F4
:1017070039E49065421204489063ADE0C394FF50FA
:1017170003E004F09064B3E0C394FF5003E004F0E7
:10172700906555E0FEA3E0FF1239F5400690655538
:101737001239DD301B2A906434E0FEA3E0FF123932
:10174700F540269064341239DDC3906435E0944047
:10175700906434E0949C4011E4F0A3F0D21A80091D
:09176700906434E4F0A3F0C21A0E
:1017700090653C1239DDC390653DE0946490653C12
:0B178000E094004006E4F0A3F0D21754
:10178B0090653E1239DDC390653FE0946490653EF1
:0B179B00E094004006E4F0A3F0D21937
:1017A60090652A1239E490652A1204489064301232
:1017B6000420EF2401FFE43EFEE43DFDE43CFC9002
:1017C60064301204489065471239DDC3906548E0DD
:1017D60094D0906547E094074008E4F0A3F0906544
:1017E60046F090654A1239DDC390654BE0946490EB
:1017F600654AE094004008E4F0A3F0906549F09053
:10180600652E1239DD9065381239E4906538120478
:011816004889
:101817009065401239DDC3906541E094D0906540F2
:0B182700E094074006E4F0A3F0D21F9D
:10183200D007D006D005D004D003D002D001D0000A
:0B184200D0D0D082D083D0F0D0E032B4
:0D08E400C114C1154165500042655100006E
:103B1B00120420EF2401FFE43EFEE43DFDE43CFCF7
:0B3B2B0022E4FDFC12043CC30203E98D
:1035E900E5B254FC42B253A9FED2AF75D104907131
:1035F90000E054E3F0E0F0E054FCF0E04401F09026
:1036090071057409F0907104745FF0907100E054D1
:103619001FF0E044A0F0A3E0547FF0E04420F02242
:103BCA00907100E0541FF0E044C0F043A901D2AF65
:013BDA0022C8
:030024000222268F
:10222600C0E0C0F0C083C082C0D075D000C000C07E
:0D22360001C002C003C004C005C006C007FF
:0E224300907101E020E703022300E04480F0E8
:10225100906550E004F0E0C394144029E4F09064E8
:1022610067123B1B9064671204487F587E0290649A
:1022710067123B2C400F20180C9064671204540025
:05228100000000D2186E
:1022860030821620140F906463123B1B9064631215
:0B22960004481237D1D2148002C21499
:1022A100906551E475F00112026AC3906552E094A1
:1022B10014906551E09400402BE4F0A3F09064D6B3
:1022C100123B1B9064D61204487FE87E039064D6CB
:1022D100123B2C400F20160C9064D61204540000BF
:0422E1000000D21611
:1022E50030951620150F9064D2123B1B9064D212C4
:0B22F5000448123798D2158002C21571
:10230000D007D006D005D004D003D002D001D00031
:0B231000D0D0D082D083D0F0D0E032DB
:1008F100602D63F100000000000000000000000016
:1009010000000000000000000000000000000000E6
:1009110000000000000000000000000000000000D6
:100921000043641E0000004364210000004364256D
:10093100000000C11E416428004164290041642473
:080941000044642A00000000DC
:1032A30090642A12042074212FF582E43464F58398
:1032B30022906502E0FF241EF582E43464F5832244
:1032C3007D00EF75F00FA424F1F9746335F0FA7BF8
:1032D3000122E5822EF582E43583F58322E4F09022
:1032E3006424E014F090000F22906429E4F09064C9
:0932F30028F02290642A02043C38
:0E004E00906557EFF0123C1B906557E0FF22C3
:10398A0078C2E2543FF2E254FCF2E24440F290710F
:10399A0081E04404F0907175E04401F043AA20D21A
:0B39AA00AF75D60175D59F75D21122B4
:03004B00021DB5DE
:101DB500C0E0C0F0C083C082C0D075D000C000C0F4
:0D1DC50001C002C003C004C005C006C00775
:101DD200906519E4F0E5D420E503021ED2E5D7F0C0
:101DE200201E04E0B4A509906424E0C394034003D8
:101DF200021EC5906519E0B4A515D21E1232EC126E
:101E02003BFD90600C12045400000000123C429012
:101E12006429E0B40108906519E0906428F0123258
:101E2200A3E06003021ED2906519E0FF1232F69021
:101E320063F175F00FEB120485EA75F00FA42583A8
:101E4200F583C083C082906429E0FE04F0D082D082
:101E5200831232D5EFF090600C120454000000009F
:101E6200906428E0606AE0FFA3E06F7063906428EA
:101E7200E0FB90642A120420741E2F1232BBEBF096
:101E8200C21E1232EC1232A37401F0906424E004F8
:101E9200F090642A120420EF2401FFE43EFEE43DA8
:101EA200FDE43CFC90642A120448E47F03FEFDFC3E
:101EB2001232F6C31203E9400A90642A1204540053
:101EC200000000123BFD90600C1204540000000060
:101ED200D007D006D005D004D003D002D001D00064
:0B1EE200D0D0D082D083D0F0D0E0320E
:0D3C1B00E5D430E4FB8FD7E5D430E4FB2284
:101EED00E4906502F0A3F0C2227F0AFEFDFC906033
:101EFD000C12043CD31203E94019123BFD90600C07
:101F0D0012045400000000E4906429F0906428F05D
:101F1D00C21E22E4906502F0906502E0FFC39403B7
:101F2D00400302201074212F1232ACE07003022006
:101F3D0007906502E075F00FA424F2F582E4346396
:101F4D00F583E0FE741E2F1232BBE06E601A9065B1
:101F5D0002E024211232AC1232E0C083C082123270
:081F6D00C3D007D006020543B2
:101F7500E4906504F0906503F0A3F01232B4E01428
:101F8500FE906504E0FDC39E5022EF75F00FA4247A
:101F9500F1F582E43463F583E5822D1232D8E0FF52
:101FA500906503E02FF0A3E004F080CF906503E097
:101FB500F01232B4E0FEEF75F00FA424F0F582E4E0
:101FC5003463F5831232D5E0FF906503E06F60025C
:021FD500D22216
:101FD70030221DC222906502E0FF24211232AC128A
:101FE70032E0C083C0821232C3D007D00612054345
:101FF700906502E02425F582E43464F5837401F0EA
:09200700906502E004F0021F25BF
:0120100022AD
:050949004265530000AF
:103B360012028D90650A12044890650A02042090CC
:0B3B46007123E05498F0E0441EF022D0
:1039B50078C3E24403F2E2440CF218E2440CF278D4
:1039C5006AE24478F27591FF123B459071227407C3
:0839D500F0439E70439940226B
:1035A7005399E0EF24FE601714601C2402702690E4
:1035B7007123E054D8F0E0445AF04399048016127E
:1035C7003B45439905800E907123E054D8F0E044C1
:1035D70059F04399017869E24448F27F017E00027D
:0235E7003B00A7
:100027007869E24401F2786BE230E1FA7402F2AFE8
:1000370093EF75F010A4FFAEF0E594C4540FFDEFF5
:030047004DFF2248
:1024D000E4906508F0A3F0A312045400000000E4A7
:1024E00090650EF0A3F074FFA3F0A3F0E4A3F0F066
:1024F000120027906508EEF0A3EFF0906512E0C39C
:102500009402405490650EE0FEA3E0FF906508E061
:10251000FCA3E0FDD39FEC9E400890650EECF0A379
:10252000EDF0906510E0FEA3E0FFC3ED9FEC9E5040
:102530000F906508E0FFA3E0906510CFF0A3EFF0E7
:1025400090650A12043C906508E0FEA3E0FFE4FCFD
:10255000FD120280A3120448906512E004F0E0C36B
:102560009414408C123B3FC006C00790650EE0FEFD
:10257000A3E0FBAA06E4F9F8D007D006123B36C068
:1025800006C007906510E0FEA3E0FBAA06E4F8D0C1
:1025900007D006123B3678041203FA906508EEF075
:0325A000A3EFF0B6
:0125A3002215
:103BDB0075AF3F8FAF75AEB975A402E5A530E1FBAC
:013BEB0022B7
:10380A009065031204B175AF3F8FAF906506E0C3B0
:10381A0094014022E5A530E0FB906503E475F001D0
:10382A0012049A120156F5A675AEB975A4019065EF
:07383A0006E014F080D52226
:103841009065031204B1906506E06027AE070FEEA4
:103851002400FDE4343F8D82F583E493FE906503FB
:10386100E475F00112049AEE1201CF906506E0149E
:04387100F080D322EE
:1038A700A3F078E3E254FCF2E24401F2907192E46F
:1038B700F02290650FE004F0E0C3940822C2A4C28E
:0E38C70096D2977F04FE22FFE0FEA80708229B
:1032FC00E4FF78D3E2543FF2E24440F290718DE463
:10330C00F0E254CFF2E24410F290718CE4F01238F7
:10331C00A9C297C29612318BEF702A7D0A7F8C124C
:10332C0027CA7D017F881227CA7D017F861227CA92
:10333C00E4FD7F821227CAE4FD7F841227CAE4FDD4
:08334C007F801227CA0234DA67
:103B5100E4FDEE25E0FEEF30E004EE4401FEEFC3AC
:093B610013FF0DEDB408EBAF06F3
:013B6A002238
:022F7D00AC079F
:102F7F00E4906503F0AF05123B51EC64816019ECEE
:102F8F0064836014EC6485600FEC6487600AEC6402
:082F9F00896005EC648D7043AC
:102FA700E4906504F0A3F0EC64816004ECB483065C
:102FB700EF547FFF8017EC64856004ECB48706EF5D
:102FC700543FFF8008ECB48904EF541FFFEFC4544B
:102FD7000FFE906504F0EF540FFFA3F0EE75F00AB3
:032FE700A42FFF15
:012FEA0022C4
:052B6F00906503EFF08A
:102B7400E4A3F01238A71238C4123C5AE490650555
:102B8400F0122BE3906505E09065031238CE8002C5
:102B9400C313D8FC30E004D2A48002C2A47F047E14
:102BA40000123C5A122BED40D878E3E254FCF27840
:102BB400E0E24410F2E4906505F0906504E025E05D
:102BC400F0122BE330A407906504E04401F0122BCB
:0E2BD400ED40E7C296C297C2A4906504E0FFF0
:102BE20022C2967F047E00123C5A22D2967F047E35
:0F2BF20000123C5A906505E004F0E0C3940822FD
:053BB400906502EFF036
:103BB900E4FE122B6FAE07906502E0FFAD06022FFF
:013BC9007D7E
:082C010090650DEFF0A3EDF06A
:102C0900E41238A71238C4123C5AE490650FF01246
:102C19002C8790650FE090650D1238CE8002C313A2
:102C2900D8FC30E004D2A48002C2A4122C76123857
:102C3900B940DCE490650FF0122C8790650FE0FF36
:102C490090650EE0FEA807088002C313D8FC30E0A7
:102C590004D2A48002C2A4122C761238B940D9C277
:0C2C6900967F047E00123C5AC297C2A461
:102C7500227F047E00123C5AD2967F047E00123CCD
:0C2C85005A22C2967F047E00123C5A22A4
:10318B001234DAD3906499E09433906498E0940805
:10319B005048C3A3E094D0906498E09407403B90D0
:1031AB00649AE0D3940C5032E0C39401402CA3E01A
:1031BB00D3941F5025E0C39401401FA3E0D3941870
:1031CB005018A3E0943C5012A3E0943C500C906434
:1031DB0098E0B40708A3E0B4D0037F00227F01225C
:0527CA00906509EFF02D
:1027CF00A3EDF0EF6480601D906509E0FF64826007
:1027DF0014EF6484600FEF6486600AEF648860050D
:0527EF00EF648C706C2A
:1027F400E490650BF0A3F090650AE0FFC3940A40EF
:1028040007EF75F00A84A3F090650AE075F00A8476
:10281400AFF090650CEFF090650BE0FEC454F04F00
:1028240090650AF0906509E0FF64806004EFB4826B
:102834000990650AE0547FF08022906509E0FF6406
:10284400846004EFB4860990650AE0543FF0800C7C
:0C285400906509E0B48805A3E0541FF073
:10286000E4FD7F8E122C01906509E0FFA3E0FD12CC
:092870002C017D807F8E022C01F9
:10362900906502A3E02430FD7F8C1227CA906504BF
:10363900E0FD7F881227CA906505E0FD7F86122785
:10364900CA906506E0FD7F841227CA906507E0FDF0
:0F3659007F821227CA906508E0FD7F800227CA92
:1034DA007F81123BB490649EEFF07F83123BB490DD
:1034EA00649DEFF07F85123BB490649CEFF07F8778
:1034FA00123BB490649BEFF07F89123BB490649ABC
:10350A00EFF07F8D123BB4EF24D0FEE434079064D1
:06351A0098F0A3CEF022A0
:04094E0041654C00B3
:103A4700906502F090654D02049190000612016F97
:103A5700FE90000802016F9000091201E190000C2E
:013A6700223C
:10153400E4906502F07FFFA374FFF090654D120400
:10154400B190000112016FFE120156FDEEC39D50D1
:10155400030216C6123A4B900001E41201E1900016
:101564000E1204BA120510EFF4600890654C74234F
:10157400F0800990654CE06003E014F0123A4B905F
:10158400000312016F6F601590000512016F600D6A
:10159400900004E41201E19000030216C2900005D9
:1015A40012016FFE90000412016FC39E500B123A99
:1015B4004B900004740102019C123A4B90000212F9
:1015C400016F6F6048EFF4701C123A51C39E400AD9
:1015D4007405123A479000028061123A4B90000A57
:1015E40074010216B9123A4B9000087401123A6160
:1015F40012016F6F90654D600C1204917401123AE0
:101604005EEF0216B9120491900009803DEFF47068
:1016140041123A4B90000912016FD3940050030217
:1016240016BC90000B12016FFE90000A12016FD3DA
:101634009E40117401123A4790000C12016F90659C
:1016440003F08054123A4B90000A740112019C0278
:1016540016BC123A4B123A58C394FF500890000833
:10166400740112019C123A51B50608906502740384
:10167400F08020123A4B900007123A546E70399061
:1016840065027404123A4A90000612016F90000831
:101694001201E1906503EFF0123A4BE4123A5E74E2
:1016A400FF1201E1906503E09000111201E19065E1
:1016B40002E09000121201E1123A4B900002EF1284
:0216C40001E142
:0116C6002201
:02095200C11FC3
:10375E0078E2E2543FF2E24440F2907191E0F012CE
:10376E003B9C12372212398A123A25123565123CC9
:10377E0028123C351239B5122ADD1232FC1235E907
:0A378E00123BCA7F017E00023B00DF
:1030C40012231B75D95590715EE054FEF075D9BB7F
:1030D40012375ED2A37FE87E03123B00C2A375D9E8
:1030E400AA123A6875D9AA7B017A6379AC121534AD
:1030F4001225A47B017A6479B2121534122879124C
:103104002F0B12265E123931122C911238D5121B54
:1031140036122011122716121EED1219CD120D9E11
:0531240075D9AA80B975
:100954006026648C0000000000000000000000001D
:100964000000000000000000000000000000000083
:0A0974000000000000000000000079
:0C3C4E007B017A64798C740CF0E4FF2296
:103B9C007E007F267D007B017A64798C1205439030
:083BAC006506123C4E0238418F
:0E3C0D00E4FF123BDB906506123C4E02380AC3
:1036A700FEE02FFFEC3EFEA3E02FFFEC3EFE22FAEA
:1036B7001204207E00EB2FFFEE3AFE3395E0FDFC6F
:1036C700221203FA7E00906502E022FC9065070251
:0E36D700044890650702042090650302042059
:050FC000906502EFF056
:100FC500906507120454000000007FA5123C1B1217
:100FD50036D9EF24A5FFE43EFEE43DFDE43C1236A0
:100FE500D2906502E0FF64016032EF6402602DEF8C
:100FF50064036028EF64046023EF6405601EEF64FA
:10100500066019EF64096014EF640A600FEF64115C
:10101500600AEF64126005EF641370207F051211FA
:10102500A01211B2C0001236DF1236CB2405FDE442
:1010350033CD2FFFEE3D1236C102116A906502E0F5
:10104500FF6407600AEF64086005EF641070337F82
:1010550006123C1B906502E0FF1211881211B2C006
:1010650000C002C0031236DF78081236C82406FD18
:10107500E433CD2FFBEE3DA31236B6D003D00202EA
:10108500116A906502E0FF640B600FEF640C600A63
:10109500EF64146005EF640D70467F071211A078A8
:1010A500101203FA1211881211BCC000C002C0034D
:1010B5001236DF78101236C82407FDE433CD2FFB36
:1010C500EE3DFAA312042078081203FA7E00EB2FF6
:1010D500FBEE3A9065031236B6D003D00202116AD0
:1010E500906502E0640E60030211727F0B123C1BD7
:1010F5007F0E123C1B906498E0FF123C1B90649895
:10110500E0A3E0FF123C1B90649AE0FF123C1B90A9
:10111500649BE0FF123C1B90649CE0FF123C1B901B
:10112500649DE0FF123C1B90649EE0FF1211BCC061
:1011350000C001C002C003906498E02419FFE433A5
:10114500FEE0A3E07C002FFFEC3E90649A1236A7E8
:10115500A3E02FFFEC3EA31236A73395E0FDFCD0AC
:1011650003D002D001D0001202801236D31236D934
:10117500E4FEFD1236D21236D9123C1B7F017E00E9
:03118500023B002A
:10118800123C1B90650312042078081203FA123CE3
:101198001B90650312042022123C1B906502E0FF9D
:1011A800123C1B90650312042022123C1B90650719
:0E11B80012043C22123C1B90650712043C22DC
:05097E00426555000078
:103A2500123C90123C97123C89123C82123C7B124C
:103A35003C74123C6D78E2E254FCF278E0E2440119
:023A4500F2226B
:102F0B00C3906556E094C8906555E094004062E428
:102F1B00F0A3F02086069064A9F0804020870890EB
:102F2B0064A97401F080352090089064A97402F0B4
:102F3B00802A2093089064A97403F0801F209408C2
:102F4B009064A97404F0801420B0089064A97405EF
:102F5B00F0800920A7069064A97406F0D20120A086
:102F6B00079064B074018004E49064B0F0A3F0D2D5
:022F7B000A2228
:100983004764DA000000000000004164E100C11781
:10099300C1164464D2000000004464D60000000085
:1009A3004464E2000000004464E600000000416487
:0209B300D10071
:103AC500F583EFF090650AE004F022E4FAF9F802D4
:0E3AD500032612043C020280E4FDFC02043CC5
:0D3C280078D3E254F3F278D0E24420F22287
:103798009064E21204209064D6123AD79064E21240
:1037A80004489064D6120454000000009064E612A5
:1037B80004209064D2123AD79064E61204489064C8
:0937C800D212045400000000229A
:10265E00E4906502F0A3F0906504120454000000AB
:10266E00007FBC7E029064E2123ADDC31203E95091
:10267E00062016030227157F6D7E059064E6123A3A
:10268E00DD12029B7B04123AD0906504120448E4DA
:10269E00301608906502F0A3F080247F24FEFDFC26
:1026AE0090650412043C12029B7B0A123AD090648D
:1026BE00E212043C120326906502EEF0A3EFF090B6
:1026CE006526120420906504123AD79065261204EE
:1026DE00489064E6120454000000009064E2120474
:1026EE005400000000C216D3906503E094E7906595
:1026FE0002E0940340077403F0A374E7F0906502C0
:07270E00E0A3E0FF12212D02
:0127150022A1
:05212D00906508EFF0D1
:10213200E4A3F0C222A3F09064D1E0FEEFD39E406C
:102142000B906508E09EA3F0D222803E9064D1E01D
:10215200FF906508E0FEC39F5009C3EF9EA3F0C243
:10216200228027E490650AF090650AE0FFC3940795
:102172005015906508E0FE74DA2FF582E43464F5B8
:1021820083EE123AC880E1022220302236E49065C2
:102192000AF090650AE0FB2401FFE433FE90650932
:1021A200E0FD7C001202037D071202159064D1E06B
:1021B2002FFF74DA2BF582E43464123AC5E0B407D7
:1021C200D18053E490650AF090650AE0FFC394075A
:1021D2005044C374069FFFE49400AB07FA3395E0C2
:1021E200F9F8906509E0FFE4FCFDFE12029BE47B36
:1021F20007123AD19064D1E0C39FFF90650AE0FDD7
:10220200C374069DFDE49400FC74DA2DF5827464B7
:102212003C123AC580B2906508E09064D1F0E49037
:0322220064E1F084
:012225002296
:10393100301729C2179064E1E0C39407501EE024B8
:10394100DAF582E43464F583E0FFE4FCFDFE906483
:0D395100A31204489064E1E004F0D20822C3
:1009B50058646B000000000000000000000000000B
:1009C500000000000000000000000041648300C139
:1009D500194464630000000044646700000000449B
:1009E50064840000000044648800000000C11844CD
:0609F500645F0000000039
:1033540025E025E0246BF582E43464F58312044807
:1033640090650EE004F022FE3395E0FDFC90650AC2
:1033740012043C12029BE47B06FAF9F8020326903D
:10338400645F12042090650602043CE4FDFC020420
:103394003C12042012028D90650A02044812043C77
:0333A400020280A2
:0D3C350078C2E254CFF278C0E24404F222DB
:1037D1009064841204209064631233A19064841273
:1037E100044890646312045400000000906488123D
:1037F10004209064671233A1906488120448906495
:09380100671204540000000022CB
:102C9100906502120454000000007FF47E019064EC
:102CA1008812338FC31203E9500330186730180CB0
:102CB10090650212045400000000801C7F607EEACF
:102CC10090648412338F12029B90648812043C1228
:102CD1000326906502120448906484120454000093
:102CE100000090648812045400000000C218E47FC0
:102CF100FF7EFFFDFC90650212043CC31203E94014
:102D01000A9065021204540000FFFF90650212044C
:042D1100201223F772
:012D1500229B
:0623F70090650612044887
:1023FD0090650A12045400000000C222E490650E9C
:10240D00F0123383D31203E9401090645F12043C41
:10241D00906506123395D2228034123383C3120392
:10242D00E9500D12338990645F123395C222801EDC
:10243D00E490650EF090650EE0FBC39406500C9091
:10244D006506120420EB12335480EA0224CA3022AE
:10245D0027E490650EF090650EE0FFC39406505191
:10246D00EF2401FFE43312336B90645F1233A190BC
:10247D00650EE012335480DEE490650EF090650E2B
:10248D00E0FFC39406502AC374059FFFE494001225
:10249D00336BA804A905AA06AB0790645F1204204C
:1024AD0012028D90650EE0FBC374059B12335480B0
:1024BD00CC90650612042090645F120448E4906489
:0224CD0083F09A
:0124CF0022EA
:1038D50030192AC219906483E0C39406501FE0256D
:1038E500E025E0246BF582E43464F583120420902E
:0E38F500649F120448906483E004F0D207221E
:1009FB0044652A00000000446526000000004265A3
:100A0B002E000044651A0000000044651E00000023
:0A0A1B000044652200000000C12025
:103903007FE87E03FDFC12043CC30203E91204209A
:10391300EF2401FFE43EFEE43DFDE43CFC221204FF
:0E3923002012028DE47B64FAF9F8C30203E976
:101B3600E47F307E75FDFC90652A123909402390BA
:101B4600652A12045400000000E4FFFEFDFC9064C8
:101B5600A312043CD31203E94008302005123C0DC1
:101B6600C220E4FFFEFDFC9064A3123909701A90AE
:101B7600652A123903401230200F123C0DC2209004
:101B8600652A12045400000000E490652612390309
:101B960040737F187EC67D9A7C3B90648C1239090F
:101BA600500C90648C12391090648C1204487F7F1C
:101BB6007E967D987C00906490123909500C906452
:101BC600901239109064901204487F7F7E967D981B
:101BD6007C00906494123909500C90649412391068
:101BE600906494120448D220906526120420C3EF14
:101BF60094E8FFEE9403FEED9400FDEC9400FC9057
:101C0600652612044890651A12043C90648C1239B9
:101C160021500E90648C12042090651A120448D24A
:101C26000C90651E12043C906490123921500E905F
:101C3600649012042090651E120448D20D9065220D
:101C460012043C906494123921500E90649412044C
:101C560020906522120448D20EC390652FE0948826
:101C660090652EE09413400AE4F0A3F0D20CD20D56
:021C7600D20E8C
:011C78002249
:100A2500C100C101C102C103C104C105C106C1079D
:100A3500C108C109C10CC10DC10EC10FC110C11141
:100A4500C112C11341654600426547000041654931
:060A55000042654A0000AA
:103668009064A9E0FFE4FCFDFE9065030204489025
:103678006490E47B64FAF9F812042002032690644B
:10368800A7E0FEA3E0FFE4FCFD22E47BE87A03F96F
:0F369800F890648C22906502E0FF75F00FA42279
:1019CD00E4906502F0F0906502E0FFC394034003DC
:1019DD00021B3574252FF582E43464F583E0700322
:1019ED00021B2C906502E0FB75F00FA424F3F58229
:1019FD00E43463F583E01204EA1A22801A278B1A65
:101A0D002C8C1A368E1A31941ACD981AD1991AD562
:101A1D009A00001AD7D200021AD7D20C021AD7D2C6
:101A2D000D021AD7D20E021AD7D20FEB75F00FA4F2
:101A3D0024F4F582E43463F583E0FFE4FCFDFE78E5
:101A4D000812040DEB75F00FA424F5F582E4346350
:101A5D00F583E07C002FFFEC3E906498F0A3EFF04F
:101A6D0012369D24F6F582E43463F583E090649A92
:101A7D00F0EF75F00FA424F7F582E43463F583E0FD
:101A8D0090649BF012369D24F8F582E43463F5835F
:101A9D00E090649CF0EF75F00FA424F9F582E43426
:101AAD0063F583E090649DF0906502E075F00FA4FE
:101ABD0024FAF582E43463F583E090649EF0800AA5
:101ACD00D2118006D2128002D213906424E0D394F6
:101ADD00004003E014F0906502E0FF2425F582E458
:101AED003464F583E4F0741E2FF582E43464F583D9
:101AFD00E4F074212FF582E43464F583E4F0FE7F85
:101B0D000FC006C007FD906502E075F00FA424F12B
:101B1D00F9746335F0FA7B01D007D00612054390B6
:081B2D006502E004F00219D387
:011B3500228D
:100D9E00200003020E5BC200906546E06003020E67
:100DAE005B04F01236687F01120FC09064AA1236EF
:100DBE006B7F02120FC09064AB12366B7F03120F63
:100DCE00C09064AD12366B7F04120FC09064AE12E9
:100DDE00366B7F05120FC09064AF12366B7F061212
:100DEE000FC090649F1204201236717F07120FC03D
:100DFE009064A31204201236717F08120FC0906403
:100E0E00AC12366B7F09120FC01236921236801258
:100E1E0036717F0B120FC01236771236717F0C129D
:100E2E000FC01234DA906503120454000000007FE4
:100E3E000E120FC01236861236717F10120FC0902E
:100E4E00649412367A1236717F14120FC030010A72
:100E5E00C2011236687F01120FC030020DC202901D
:100E6E0064AA12366B7F02120FC030040DC20490BA
:100E7E0064AD12366B7F04120FC030050DC20590A3
:100E8E0064AE12366B7F05120FC030060DC206908F
:100E9E0064AF12366B7F06120FC0300710C2079078
:100EAE00649F1204201236717F07120FC030081093
:100EBE00C2089064A31204201236717F08120FC06C
:100ECE0030090DC2099064AC12366B7F09120FC047
:100EDE00300A18C20A9064B012366B7F12120FC01D
:100EEE009064B112366B7F13120FC0300C10C20C0F
:100EFE001236921236801236717F0B120FC0300DE1
:100F0E000DC20D1236771236717F0C120FC0300ED5
:100F1E0016C20EE47B64FAF9F890649412368012CD
:100F2E0036717F14120FC0300F23C20F906549E047
:100F3E00701B78027C657D017B017A647998FE7F57
:100F4E00071201301236299065497401F030100DE8
:100F5E00C2101236861236717F10120FC030111960
:100F6E00C21190648C120454000000009065261289
:100F7E00045400000000123C0D301219C21290648D
:100F8E0090120454000000009065261204540000D4
:100F9E000000123C0D301319C213906494120454C5
:100FAE000000000090652612045400000000123C60
:020FBE000D2202
:100A5B005463BF00010153000204730003075300EA
:100A6B0004091D00050CED5E63D3010102030405AF
:100A7B0002060708090A030B0C0D0E0F04101112C6
:100A8B0013140515161718195363AC0A0000000050
:0E0A9B00033241000000000001FF387500002A
:0F000F00EC75F006A424D3F582E43463F5832264
:10344500E4FD906504F0A374FFF0ED25E025E0248C
:10345500C1F582E43463F583E0FAA3E0D39FEA9EE5
:10346500401CED25E025E024BFF582E43463F583B7
:10347500E0FFA3E0906504CFF0A3EFF080050DED2C
:0B348500B405C7906504E0FEA3E0FF63
:013490002219
:103A0200E4FEFC12000FE0B5071112000FE5822D53
:103A1200F582E43583F583E0FE80050CECB405E322
:023A2200AF06ED
:013A2400227F
:10387500E4906502F0A3F07F021235A712002790AD
:103885006502EEF0A3EFF0906502E0FEA3E0FF1203
:103895003445906502EEF0A3EFF0906502E0A3E0F9
:0138A500FF23
:0138A60022FF
:1025A4009063BDE0700302265DE0FFA3E0FD123AF4
:1025B40002E49063BDF0A3F0EF1204EA25E20125E2
:1025C400EE0425FA0626060926120B261E0E262AD6
:1025D40010263613264215264E180000265D9065F7
:1025E40003120454000000CF806A9065031204545F
:1025F400000100CF805E906503120454000000D2F5
:102604008052906503120454000100D28046906504
:1026140003120454000000D1803A9065031204545C
:10262400000100D1802E9065031204540000007F45
:1026340080229065031204540001007F8016906587
:1026440003120454000000D0800A9065031204545D
:09265400000100D07F0D120FC03F
:01265D00225A
:100AA90044643000000000C11AC11B4264340000D4
:100AB900602864360000000000000000000000000B
:100AC900000000000000000000000000000000001D
:100AD90000000000000000000000000041645E000A
:080AE90041642F0041642E005E
:10324700FEE434FFFDE434FFFCE4FAF9F812029BD4
:10325700E422906508E0FEA3E0FF227A01F9F81264
:103267000326AD07C322FEE434FFFDE434FFFCE48C
:103277002225E02436F582E43464F5832290650242
:10328700E09064ACF022FDFC90643012043CC30271
:0C32970003E9906508A3EF2467FFEE2216
:04305800AB07AA0612
:10305C00E4906508F0A312045400000000AE02AF27
:10306C000390645EE0FD04F0ED123278EEF0A3EF15
:10307C00F090645EE0C394144002E4F0E4906508C0
:10308C00F090650912043C906508E0123278E0FE7D
:10309C00A3E0FFE4FCFD1202809065091204489045
:1030AC006508E004F0E0B414D8E47B14FAF9F89065
:0830BC0065091204200203263D
:103BEC00E4FDED123278EEF0A3EFF00DEDB414F22B
:013BFC0022A6
:08184D00906508EEF0A3EFF036
:10185500E4FDC3EF940BEE940E500A12325994F442
:10186500EE940150057DFF0219CAD3EF9400EE9462
:101875000E4005E4FD0219CAD3EF9466EE940650B6
:10188500057D640219CAD3EF9400EE940E5024EF3F
:101895009433EE940D401C123259EF24CDFFEE34F3
:1018A500F27B121232477BCDFA12326474129DFD1F
:1018B5000219CA123259D39433EE940D502FEF9476
:1018C500B8EE940C4027906508A3EF2448FFEE344A
:1018D500F37B221232477B7BFA12326474229DFD20
:1018E500C3941240030219CA7D120219CA12325951
:1018F500D394B8EE940C5031EF9433EE940B402909
:10190500906508A3EF24CDFFEE34F412326D7B33DE
:101915001232517B8512326274339DFDC39422408D
:10192500030219CA7D220219CA123259D39433EE21
:10193500940B5028EF9499EE940940201232993473
:10194500F612326D7B441232517B9A123262744424
:101955009DFDC39433506E7D330219CA123259D39B
:101965009499EE94095028EF9499EE94074020122B
:10197500329934F812326D7B54123251FB7A0212CD
:10198500326474549DFDC39444503A7D44803612AC
:101995003259D39499EE9407502BEF9466EE940642
:1019A5004023906508A3EF249AFFEE34F912326DB7
:1019B5007B641232517B3312326274649DFDC39491
:0719C5005450027D54AF05F0
:0119CC0022F8
:1031EB00E4FEEF70028052EFC39401400AEFD394D8
:1031FB001150047E018042EFC39412400AEFD39426
:10320B002150047E028032EFC39422400AEFD39404
:10321B003250047E038022EFC39433400AEFD394E1
:10322B004350047E048012EFC39444400AEFD394BE
:0B323B005350047E0580027E06AF06A3
:013246002265
:09201100E4906502F0A3F0A3F0D5
:10201A0090642EE070427FF47E0112328D40399036
:10202A00643012045400000000122110123BEC909C
:10203A006553E0FEA3E0FF906503EEF0A3EFF01214
:10204A00212190642FEFF0123284E4906503F0A30B
:08205A00F0D20990642E04F09D
:10206200122110123058906503EEF0A3EFF0E47FD6
:0B207200E87E0312328D500302210FA4
:10207D00E4906505F0906430120454000000009067
:10208D006503E0FEA3E0FF122121906505EFF090BE
:10209D00642FE0FE6F6004D21B8007C21B123284D6
:0F20AD00D209301A5DC21A906505E0FF6E604ED1
:1020BC0090642FE0FED39F400BEED394004011E0D0
:1020CC0014F0800CEEC39406500690642FE004F0DC
:0F20DC00E4906506F0906506E0FFC394FF501F87
:1020EB001231EBA3EFF090642FE0B5070A90650671
:0720FB00E0906502F080088F
:08210200906506E004F080D7AF
:05210A00123284D2092D
:10210F00227F031235A71224D0906553EEF0A3EF70
:0E211F00F02212184D906502EFF01231EB2203
:100AF1004465380000000044653000000000446592
:070B01003400000000C1A157
:1033F60090653412042090653012043C1203269026
:103406006534120448906534020420906504E09007
:1034160064AAF0906502E0FFA3E09064A7CFF0A352
:10342600EFF0D210D20222906502EEF0A3EFF090F8
:0F3436006502A3E0FF123AE3A3EFF090653422A2
:103B6B007C0A7D50120516E47B0AFAF9F81203263B
:093B7B00E4FB7A10F9F8020326BC
:103AE300EFC3949640047E6480107E007C007D6466
:0C3AF3001202037D96120215AE07AF060A
:013AFF0022A4
:10271600E4906502F0A3F0A3F07F011235A790655F
:102726003412043CC000C001C002C0031224D0E42D
:10273600FCFDD003D002D001D00012028090653497
:10274600120448906530120420EF2401FFE43EFE97
:10275600E43DFDE43CFC90653012044830212A1229
:1027660033F6123B6B12342D120454000000009015
:1027760065301204540000000090653812045400BD
:10278600000000123411C22122E47FD07E07FDFC36
:1027960090653812043CC31203E940271233F6123F
:1027A6003B6B12342D120454000000009065301269
:1027B6000454000000009065381204540000000024
:0327C600123411B9
:0127C90022ED
:100B08004C64C501010203040502060708090A53DB
:100B180064B20A000000000364AF00000000000295
:050B2800FF3491000004
:103A8800E4FFFDFCAB1BAA1AA919A818C30203E995
:0F3A9800EE75F006A424C5F582E43464F58322AC
:103491009065021204540000000090650674FFF06C
:1034A100AF1BAE1AAD19AC189065021204487E022A
:1034B100123A88700790650604F0800D7E04123A76
:1034C1008870069065067402F0906502120454003B
:0834D100000000906506E0FF19
:0134D90022D0
:10395E00E4906502F0FE123A98E0B50714123A9818
:10396E00E5822DF582E43583F583E0906502F080E3
:0B397E00050EEEB402E0906502E0FFD1
:01398900221B
:102879009064C3E07003022914E0FFA3E0FD12395C
:102889005EE49064C3F0A3F0EF1204EA28B10128D2
:10289900BD0328C90428D50528E10628ED0828F92B
:1028A9000929050A0000291490650312045400003F
:1028B9000047805290650312045400010047804686
:1028C90090650312045400020047803A9065031290
:1028D900045400030047802E90650312045400003D
:1028E90000488022906503120454000100488016B4
:1028F90090650312045400020048800A906503128F
:0B2909000454000300487F0D120FC0B3
:0129140022A0
:100B2D0041601801426019000041601B0041601CCA
:0E0B3D000041601D0041601E7F42601FFFFFEF
:1036E500E4F561AE3EAD3DAC3C853F178E168D15BC
:1036F5008C14787EE254FCF2E24514F218E515F2DA
:1037050018E516F218E517F2787FE254FBF2E25459
:0D371500FB4404F2E24401F27F01022D1694
:100B4C00906502EFF0E0FF24ECF582E43464F58369
:100B5C00E004F074EE2FF582E43464F583E4F07471
:100B6C00EC2FF582E43464F583E0C3956350030203
:100B7C000D9D906502E0FB24ECF582E43464F58372
:100B8C00E4F0903AB89364016003020D4E7F01FECD
:100B9C00FDFC74F02BF582E43464F583E0F9F81273
:100BAC00040DE51F4FF51FE51E4EF51EE51D4DF519
:100BBC001DE51C4CF51CAF1FAE1EAD1DFC780112C3
:100BCC0003FAEF5455FBEE5455FAED5455F9EC5429
:100BDC0055F8C3E51F9BF53BE51E9AF53AE51D99C3
:100BEC00F539E51C98F538AF3BAE3AAD39FC7802D7
:100BFC001203FAEF5433FBEE5433FAED5433F9ECA1
:100C0C005433F8E53B5433FFE53A5433FEE539549D
:100C1C0033FDE5385433FCEB2FF53BEA3EF53AE96E
:100C2C003DF539E83CF538AF3BAE3AAD39FC7804CC
:100C3C001203FAEF253BFFEE353AFEED3539FDECAC
:100C4C003538FCEF540FF53BEE540FF53AED540FDD
:100C5C00F539EC540FF538AF3BAE3AAD39FC7808AA
:100C6C001203FAEF253BFFEE353AED3539FDEC3545
:100C7C0038EFF53BE4F53AEDF539E4F538AE3AAC3E
:100C8C003878101203FAEF253BFFEE353AFEEFF5FC
:100C9C003BEEF53AE4F539F538906502E025E024B1
:100CAC00FAF582E43464F583E0FEA3E0D39553EEC9
:100CBC0095524024906502E0FF25E024FAF582E489
:100CCC003464F583E0F552A3E0F55374F02FF5820C
:100CDC00E43464F583E0F564903AB8E493FFE4FC03
:100CEC00FDFEAB3BAA3AA939A838D31203E940520E
:100CFC00AF650565D3EF9403748094805003020DA7
:100D0C009DE4F565F51FF51EF51DF51C7F01FEFD37
:100D1C00FCA964A80112040D8F1B8E1A8D198C1856
:100D2C00E47F01FEFDFCA80112040D8F338E328D81
:100D3C00318C30E4F552F553756420122D9A4337FB
:100D4C000222E4F5657F01FEFDFC906502E0FB24C8
:100D5C00F0F582E43464F583E0F9F812040DE51B38
:100D6C004FF51BE51A4EF51AE5194DF519E5184C1A
:100D7C00F518E47F01FEFDFCA80312040DE5334FCA
:100D8C00F533E5324EF532E5314DF531E5304CF5C4
:020D9C00302203
:10058D00E4F566903ABCE493FFE566C39F40030231
:10059D0008CBE56625E02400F582E4346085828A87
:1005AD007F548F8B7E0E8E8C758903758889E566D9
:1005BD0025E02400F582E4346085828A8F8B758C6A
:1005CD0012758904758889E56625E02408F582E4AD
:1005DD003460F583E0FCA3E0C3950FEC950E502E2F
:1005ED00E56625E02414F582E43460F583E0FCA390
:1005FD00E0C39513EC95125015AF600560EF9402B2
:10060D0074809480400BE4F5605337FD8003E4F56E
:10061D0060E53730E125E56625E024FAF582E4341E
:10062D0064F583E4F0A3F0E56625E024FEF582E4AD
:10063D003464F583E4F0A3F00206DBE56625E024DF
:10064D0008F582E4346085828A8E8B758C0A7589F3
:10065D00267588892088FDE5F130E00875F107E4FD
:10066D00F50AF50BAE0AE50B7802C333CE33CED8BF
:10067D00F9FFE56625E024FAF582E43464F583EEAE
:10068D00F0A3EFF0E56625E02414F582E4346085EF
:10069D00828A758B12758C0A7589277588892088D1
:1006AD00FDE5F130E00875F107E4F50AF50BAE0A4A
:1006BD00E50B7802C333CE33CED8F9FFE56625E0DE
:1006CD0024FEF582E43464F583EEF0A3EFF0E566E5
:1006DD0025E024F2F582E43464F583E0FEA3E078AE
:1006ED0002CEC313CE13D8F9F5518E50E56625E031
:1006FD0024FAF582E43464F583E0FEA3E0FF903A3A
:10070D00B4E493FC740193FDC3EF9DEE9C4017E59B
:10071D006625E024FEF582E43464F583E0FEA3E073
:10072D00C39DEE9C50028068E56625E024FAF582B3
:10073D00E43464F583E0FEA3E0C39551EE9550409B
:10074D001CE56625E024FEF582E43464F583E0FEC5
:10075D00A3E0C39551EE955040030207E774EA25D7
:10076D0066F582E43464F583E004F074EA2566F5F9
:10077D0082E43464F583E0FF903AB9E493FEEFD35D
:10078D009E406474EA2566F582E43464F583E4F0F2
:10079D00E56625E02404F582E43460F583E0FEA3EC
:1007AD00E0FFE56625E02408F582E43460F583EE8C
:1007BD00F0A3EFF0E56625E02410F582E43460F552
:1007CD0083E0FEA3E0FFE56625E02414F582E43422
:1007DD0060F583EEF0A3EFF0800D74EA2566F582E7
:1007ED00E43464F583E4F0E56625E02404F582E461
:1007FD00346085828AE56625E02400F582E4346064
:10080D0085828B758C0A7589207588CB2088FDE5CE
:10081D00F130E00875F107E4F50AF50BE56625E022
:10082D002404F582E4346085828A758B547F0E8FA3
:10083D008C7589237588897E0A8E8A8F8BE566254E
:10084D00E02404F582E4346085828CE4F5897588B2
:10085D0029E56625E02410F582E4346085828AE579
:10086D006625E02400F582E4346085828B8E8C75DC
:10087D0089207588CB2088FDE5F130E00875F107FA
:10088D00E4F50AF50BE56625E02410F582E4346005
:10089D0085828A758B547F0E8F8C75892475888916
:1008AD00758A0A8F8BE56625E02410F582E43460A5
:0F08BD0085828CE4F589758829056602059022ED
:1011C600E4F566903ABCE493FFE566C39F400302EC
:1011D600137EE56625E024F2F582E43464F583E0C7
:1011E600FEA3E07802CEC313CE13D8F9F5518E5084
:1011F600E56625E024FAF582E43464F583E0FEA38F
:10120600E0D39551EE9550402EE56625E024FEF597
:1012160082E43464F583E0FEA3E0D39551EE955065
:10122600401574EE2566F582E43464F583E4F0AF88
:1012360066120B4C021379903ABBE493FFC3E55157
:101246009FFFE5509400FED3EF9400EE9400400219
:1012560080047E007F00E56625E024FAF582E4340A
:1012660064F583E0FCA3E0C39FEC9E400302136C8D
:10127600903ABBE493FFC3E5519FFFE5509400FE0F
:10128600D3EF9400EE9400400280047E007F00E5D8
:101296006625E024FEF582E43464F583E0FCA3E0F1
:1012A600C39FEC9E400302136C74EC2566F582E442
:1012B6003464F583E4F074EE2566F582E43464F56F
:1012C60083E004F074EE2566F582E43464F583E089
:1012D600C39563500302137974EE2566F582E434F0
:1012E60064F583E4F07F01FEFDFC74F02566F5826B
:1012F600E43464F583E0F9F812040D1203B8E51F2F
:101306005FF51FE51E5EF51EE51D5DF51DE51C5C22
:10131600F51CE47F01FEFDFCA966A80112040D126E
:1013260003B8E5335FF533E5325EF532E5315DF559
:1013360031E5305CF530E47F01FEFDFC74F0256696
:10134600F582E43464F583E0F9F812040D1203B86B
:10135600E51B5FF51BE51A5EF51AE5195DF519E55E
:10136600185CF518800D74EE2566F582E43464F594
:0913760083E4F005660211C922AE
:102D9A00E4F566903ABCE493FFE566C39F506EE59E
:102DAA006625E024FAF582E43464F583E4F0A3F0BE
:102DBA00E56625E024FEF582E43464F583E4F0A3B5
:102DCA00F0E56625E02404F582E43460F583E0FE4C
:102DDA00A3E0FFE56625E02408F582E43460F58384
:102DEA00EEF0A3EFF0E56625E02410F582E4346006
:102DFA00F583E0FEA3E0FFE56625E02414F582E40E
:0E2E0A003460F583EEF0A3EFF00566808622BB
:102A4A00E4F566903ABCE493FFE566C39F5067904D
:102A5A006018E0FF7E00C39410748094805053EF96
:102A6A009408748094804025E56625E02400F58268
:102A7A00E43460F583E0FEA3E0FFE56625E0240484
:102A8A00F582E43460F583EE8FF012026AE566257A
:102A9A00E02400F582E43460F583E0FEA3E0FFE57C
:102AAA006625E02410F582E43460F583EE8FF01297
:102ABA00026A0566808D906018E0C3941074809451
:102ACA008040054337048006906018E004F07F01D7
:032ADA00022D16B4
:102E1800E4FFFEFDFCAB1BAA1AA919A818C31203EC
:102E2800E9606390601AE004F07006906019E004AD
:102E3800F0903AB0E493FE740193FF4E602ED39065
:102E4800601AE09F906019E09E4021E4F0A3F0F53D
:102E58001FF51EF51DF51CF533F532F531F530F586
:102E68001BF51AF519F518C21D022D9A903AB2E40D
:102E780093FE740193FFD390601AE09F906019E06D
:0D2E88009E400AD21D22E4906019F0A3F0D4
:012E9500221A
:05137F00906514EFF081
:10138400A3E0FCA3E0FDA3E0FEA3E0F52C8E2B8DEF
:101394002A8C297884E2F50A08E2F50B758A087527
:1013A4008B29758C2575881D2088FDE4FFFEFDFCC6
:1013B400AB28AA27A926A825D31203D34006AC2517
:1013C400A8048013AF28AE27AD26AC251203C5AB05
:1013D40007AA06A905A80490601FE0FEA3E0FFE4A5
:1013E400FCFDC31203D35041E4FFFEFDFCAB28AA6D
:1013F40027A926A8251203D34006AF28AE27800BC1
:10140400AF28AE27AD26AC251203C590601FEEF0C1
:10141400A3EFF0906514E025E024F6F582E434644B
:10142400F583E0A3E090601EF0903AADE493FE747F
:101434000193FFD3906020E09F90601FE09E501BBB
:10144400906514E025E024F6F582E43464F583E045
:10145400A3E090601EF090601B8079E4FFFEFDFC29
:10146400AB28AA27A926A825D31203D34034906514
:1014740014E0FF25E024F6F582E43464F583E0FC0F
:10148400A3E0D39400EC9400404DEF25E024F6F55E
:1014940082E43464F58374FFF5F012026A90601CF0
:1014A4008032906514E0FF25E024F6F582E434648C
:1014B400F583E0FCA3E0C3947FEC94005019EF257E
:1014C400E024F6F582E43464F583E475F001120255
:1014D4006A90601D7401F090601CE064017011A3B7
:1014E400E06401700B90601CF0A3F090601B04F0AA
:1014F40090601BE06401703590601EE0FF906514FD
:10150400E025E024F6F582E43464F583E4F0A3EF07
:10151400F074FF90601FF0A3F090601E747FF0E4FD
:0F15240090601CF0A3F090601BF07F01227F000D
:011533002295
:10312900E4906513F0903AA712042C780112040D6B
:10313900906515120448AF6112137FEF6022056193
:10314900E53730E4095337EF9065137401F0903A8D
:10315900BCE493FFE561C39F4006E4F56143371082
:10316900C3903AAB7401939562E49394004008903C
:103179006513E064017005D21C0236E5E4FF122DE7
:01318900162F
:01318A002222
:102D1600EF70607F01FEFDFC74F02561F582E434FE
:102D260064F583E0F9F812040D8F178E168D158C55
:102D360014787EE254FCF2E24514F218E515F21816
:102D4600E516F218E517F2E56125E024F6F582E4CA
:102D56003464F583E0A3E0547FFF7878E254804F33
:102D6600F2787FE254FBF2E254FB4404F2E24401BF
:102D7600F2801CE56125E024F6F582E43464F583EF
:102D8600E0A3E0547FFF7878E254804FF2787FE248
:042D96004402F222DF
:10291500E4906502F0A3F0906502E0FEA3E0FFC33A
:102925009488EE94035031EF248DFFEE34058F82A9
:10293500F583E493FF906503E02421FD906502E0B3
:1029450034608D82F583EFF0906503E004F070C785
:08295500906502E004F080BF70
:10295D009063A97401F0A37460F0A37421F0E4F501
:10296D0061F537F536F535F534C21CC21DF51FF589
:10297D001EF51DF51CF533F532F531F530F51BF56A
:10298D001AF519F518903AB693FF903ABAE493FEFA
:10299D00A807088002C333D8FCF563756420E4FFF3
:0329AD00022D16E2
:102E96007884E2F50A08E2F50BAE0A7803CEC3138E
:102EA600CE13D8F97802C333CE33CED8F9FFE56115
:102EB60025E02400F582E43460F583EEF0A3EFF01C
:102EC600201C0F903AAFE4937005D21C0236E5023F
:102ED60031290561903ABCE493FFE561C39F401F29
:102EE600787FE254FBF2E254FB4404F2E24401F23E
:102EF600E4F561E53720E203022A4A433701227FDF
:052F060001122D16224E
:053C9E000562022E1872
:103A6800E53730E01A9063A9A3E0FAA3E0F912055C
:103A7800101211C6E4F5617F01122D165337FE228C
:1029CA000230C4E493A3F8E493A34003F68001F22F
:1029DA0008DFF48029E493A3F85407240CC8C3330E
:1029EA00C4540F4420C8834004F456800146F6DFDD
:1029FA00E4800B01020408102040809008CCE47E99
:102A0A00019360BCA3FF543F30E509541FFEE493D1
:102A1A00A360010ECF54C025E060A840B8E493A398
:102A2A00FAE493A3F8E493A3C8C582C8CAC583CAC3
:102A3A00F0A3C8C582C8CAC583CADFE9DEE780BE7B
:010B4B0000A9
:10006000E709F608DFFA8046E709F208DFFA803E82
:1000700088828C83E709F0A3DFFA8032E309F6086F
:10008000DFFA8078E309F208DFFA807088828C83D7
:10009000E309F0A3DFFA806489828A83E0A3F6088B
:1000A000DFFA805889828A83E0A3F208DFFA804C65
:1000B00080D280FA80C680D4806980F2803380103C
:1000C00080A680EA809A80A880DA80E280CA8033A5
:1000D00089828A83ECFAE493A3C8C582C8CCC5831D
:1000E000CCF0A3C8C582C8CCC583CCDFE9DEE780ED
:1000F0000D89828A83E493A3F608DFF9ECFAA9F06C
:10010000EDFB2289828A83ECFAE0A3C8C582C8CCC1
:10011000C583CCF0A3C8C582C8CCC583CCDFEADEDA
:10012000E880DB89828A83E493A3F208DFF980CC3C
:1001300088F0EF60010E4E60C388F0ED2402B40435
:100140000050B9F582EB2402B4040050AF232345DC
:0601500082239000B07351
:10015600BB010689828A83E0225002E722BBFE02A7
:09016600E32289828A83E49322DA
:10016F00BB010CE58229F582E5833AF583E0225045
:10017F0006E92582F8E622BBFE06E92582F8E2228F
:0D018F00E58229F582E5833AF583E49322A9
:10019C00BB010FF8E58229F582E5833AF583E02867
:1001AC00F0225009C58229F8E58226F622BBFE0909
:1001BC00C58229F8E22582F222F8EA2583F583E943
:0301CC0093282253
:1001CF00BB010689828A83F0225002F722BBFE010F
:0201DF00F32209
:1001E100F8BB010DE58229F582E5833AF583E8F054
:1001F100225006E92582C8F622BBFE05E92582C800
:02020100F222E7
:10020300EF8DF0A4A8F0CF8CF0A428CE8DF0A42E0F
:02021300FE22C9
:10021500BC000BBE0029EF8DF084FFADF022E4CCCD
:10022500F875F008EF2FFFEE33FEEC33FCEE9DEC96
:10023500984005FCEE9DFE0FD5F0E9E4CEFD22EDDC
:10024500F8F5F0EE8420D21CFEADF075F008EF2F26
:10025500FFED33FD4007985006D5F0F222C398FD17
:050265000FD5F0EA22B4
:10026A00C5F0F8A3E028F0C5F0F8E582158270021F
:06027A001583E038F022BC
:0D028000EF2BFFEE3AFEED39FDEC38FC22CD
:0E028D00C3EF9BFFEE9AFEED99FDEC98FC226C
:10029B00E88FF0A4CC8BF0A42CFCE98EF0A42CFC02
:1002AB008AF0EDA42CFCEA8EF0A4CDA8F08BF0A480
:1002BB002DCC3825F0FDE98FF0A42CCD35F0FCEBDF
:1002CB008EF0A4FEA9F0EB8FF0A4CFC5F02ECD39A4
:0F02DB00FEE43CFCEAA42DCE35F0FDE43CFC2211
:1002EA0075F008758200EF2FFFEE33FECD33CDCCCB
:1002FA0033CCC58233C5829BED9AEC99E58298404E
:10030A000CF582EE9BFEED9AFDEC99FC0FD5F0D62A
:10031A00E4CEFBE4CDFAE4CCF9A88222B800C1B954
:10032A000059BA002DEC8BF084CFCECDFCE5F0CB92
:10033A00F97818EF2FFFEE33FEED33FDEC33FCEBCB
:10034A0033FB10D703994004EB99FB0FD8E5E4F986
:10035A00FA227818EF2FFFEE33FEED33FDEC33FC73
:10036A00C933C910D7059BE99A4007EC9BFCE99A67
:10037A00F90FD8E0E4C9FAE4CCFB2275F010EF2FAC
:10038A00FFEE33FEED33FDCC33CCC833C810D707AC
:10039A009BEC9AE899400AED9BFDEC9AFCE899F8E7
:0E03AA000FD5F0DAE4CDFBE4CCFAE4C8F9227A
:0D03B800CFF4CFCEF4CECDF4CDCCF4CC22DA
:0E03C500C3E49FFFE49EFEE49DFDE49CFC2249
:1003D300EB9FF5F0EA9E42F0E99D42F0EC6480C8A1
:0603E30064809845F02241
:1003E900EB9FF5F0EA9E42F0E99D42F0E89C45F06A
:0103F90022E1
:1003FA00E8600FECC313FCED13FDEE13FEEF13FFE1
:03040A00D8F12204
:10040D00E8600FEFC333FFEE33FEED33FDEC33FC4D
:03041D00D8F122F1
:0C042000E0FCA3E0FDA3E0FEA3E0FF224F
:10042C00E493FC740193FD740293FE740393FF2216
:0C043C00E0F8A3E0F9A3E0FAA3E0FB2243
:0C044800ECF0A3EDF0A3EEF0A3EFF02227
:10045400A8828583F0D083D08212046B12046B12BD
:10046400046B12046BE473E493A3C583C5F0C583E2
:10047400C8C582C8F0A3C583C5F0C583C8C582C8F2
:010484002255
:0C048500A42582F582E5F03583F5832282
:09049100E0FBA3E0FAA3E0F9226C
:10049A00F8E0FBA3A3E0F925F0F0E58215827002EB
:0704AA001583E0FA38F0228F
:0904B100EBF0A3EAF0A3E9F0224C
:1004BA00BB010DE58229F582E5833AF583020491B1
:1004CA005007E92582F802056FBBFE07E92582F885
:1004DA00020578E58229F582E5833AF583020581EA
:1004EA00D083D082F8E4937012740193700DA3A3A1
:1004FA0093F8740193F5828883E4737402936860B5
:06050A00EFA3A3A380DFB4
:060510008A838982E47376
:10051600EC8EF0A4CCC5F0CCCDF8EFA4CEC5F02D72
:10052600FDE43CFCE8A42EC8C5F03DFDE43CFCEF30
:0D053600A4FFE5F028FEE43DFDE43CFC22BE
:10054300EF4E6012EF60010EEDBB010B89828A83CF
:10055300F0A3DFFCDEFA2289F05007F709DFFCA9DC
:0C056300F022BBFEFCF309DFFCA9F02233
:09056F00E6FB08E6FA08E6F922B1
:09057800E2FB08E2FA08E2F922B4
:0C058100E493FB740193FA740293F922D6
:00000001FF
