:03000000022920B2
:10292000787FE4F6D8FD9060007F007E07E4F0A396
:0A293000DFFCDEFA758166022975EE
:0C000300000000000000000000000000F1
:0B3E4E00EF1FAC0670011E4C70F62246
:103CF000AB07AA06EB1BAE0270011A4E600C7FAA3E
:0B3D00007E05123E4E75D9AA80EA2213
:10211D00907120E04480F07F057E00123E4EE4FF7A
:10212D00FE123CF075A75575AC5C9071327450F091
:10213D009071307403F0907136742FF090715C745F
:10214D0003F090715BE054FCF07F18EF2466FDE422
:10215D0034718D82F583E4F00FEFB433EE904011BE
:10216D00E4935407FF90711CE054F84FF090401722
:10217D00E493547FFF90711DE054804FF090401018
:10218D00E493FF5401C43333335480FE907123E044
:10219D00547F4EF0EFC313543F4440FFA3E05480EF
:1021AD004FF0904012E493FF540FFE907146E054AF
:1021BD00F04EF0EFC4540FFF90714FE054F04FF01C
:1021CD00904013E493543FFF907140E054C04FF0A2
:1021DD00904014E493907126F0904015E493907123
:0B21ED0028F0904016E49390712AF057
:0121F80022C4
:103C9900000009C4006400C80101F4004B000A00D7
:0E3CA90000010F0405020009000A000A000ACB
:103DA400E2FE74292FF582E43465F583E02224FCD5
:083DB40025E0FDF8740308226C
:10189300E4FF123DA6C394085058123DA6C3940416
:1018A300502878C2C000123DA4123DB48002C33355
:1018B300D8FCF45ED000F278C2C000123DA4123D01
:1018C300B48002C333D8FC0219C178C3C000123DEF
:1018D300A4123DB28002C333D8FCF45ED000F27888
:1018E300C3C000123DA4123DB28002C333D8FC0230
:1018F30019C1123DA6C394084068123DA6C39410B3
:101903005060123DA6C3940C502C78D2C000123DF7
:10191300A424F8123DB48002C333D8FCF45ED00093
:10192300F278D2C000123DA424F8123DB48002C361
:1019330033D8FC0219C178D3C000123DA424F41299
:101943003DB48002C333D8FCF45ED000F278D3C038
:1019530000123DA424F4123DB48002C333D8FC0228
:1019630019C1123DA6C39414502B78E2C000123D56
:10197300A424F0123DB48002C333D8FCF45ED0003B
:10198300F278E2C000123DA424F0123DB48002C3F9
:1019930033D8FC802978E3C000123DA424EC123D27
:1019A300B48002C333D8FCF45ED000F278E3C00005
:1019B300123DA424EC123DB48002C333D8FC4ED0B4
:0B19C30000F20FEF64026003021895B1
:0119CE0022F6
:03005D00023681E7
:10368100C0E0C0F0C083C082C0D075D000C000C00F
:1036910001C002C003C004C005C006C0077881E2B2
:1036A10030E607E24440F2122F85D007D006D0055C
:1036B100D004D003D002D001D000D0D0D082D083AA
:0536C100D0F0D0E03262
:10347500D2AF43AB0843B6C0907132E04440F0434D
:10348500AB087877743FF208744BF2787A7430F2AF
:10349500788914F27871744FF2187427F27872747F
:1034A500A8F2087410F208E4F208F208F2787E74C3
:0F34B500D0F2087404F208741EF2087402F222B6
:102A4D00E4FBEB25E025E024AFF582E4343CF5838F
:102A5D00740193FF74292BF582E43465F583EFF04F
:102A6D00EB25E025E024B1F582E4343CF583E493D5
:102A7D00FE740193FFEB25E0242BF582E43465F51C
:102A8D0083EEF0A3EFF0EB25E0242FF582E434651F
:102A9D00F583E4F0A37441F0E47F01FEFDFC74299D
:102AAD002B123DA9F9F8120423E53F4FFFE53E4EE9
:102ABD00FEE53D4DFDE53C4C8F3F8E3E8D3DF53C9D
:102ACD000BEB64026003022A4F1218931228850241
:022ADD0034754E
:0A25E70042600C000042600E00008C
:073E6D00E475F00102026A96
:10374D00E5B154CF42B153A8BFD2AF75D102789C29
:10375D00E254E3F2E2441CF2E254FCF2E24401F2E0
:10376D0008E2547FF2E24420F278A17401F2187459
:10377D0076F2789CE2541FF2E244C0F243A8402254
:030021000219CFF2
:1019CF00C0E0C0F0C083C082C0D075D000C000C0DE
:1019DF0001C002C003C004C005C006C007789DE265
:1019EF0020E703021ADCE24480F2301106906428EB
:1019FF00E004F09063ADE004F0906505E004F09032
:101A0F006584123E6D301A1D90646A123E6DC3904C
:101A1F00646BE0944090646AE0949C4011E4F0A3FE
:0E1A2F00F0D219800990646AE4F0A3F0C219A5
:101A3D0090600C123E6DC390600DE0946490600C4C
:0B1A4D00E094004006E4F0A3F0D21685
:101A580090600E123E6DC390600FE0946490600E2B
:0B1A6800E094004006E4F0A3F0D21868
:101A7300906564E0FEA3E0FFE4FCFD7BFF7AFFF9E1
:101A8300F8D31203E94006906564123E6D906468D2
:101A9300123E6D906573123E6DC3906574E094D0F1
:101AA300906573E094074008E4F0A3F0906572F04A
:101AB300906576123E6DC3906577E0946490657689
:101AC300E094004008E4F0A3F0906575F09065663B
:101AD300123E6D906570123E6DD007D006D005D0D2
:101AE30004D003D002D001D000D0D0D082D083D094
:041AF300F0D0E0321D
:0D25F100C113C11441657C0042657D0000EE
:103D4000120436EF2401FFE43EFEE43DFDE43CFCBA
:093D50002275F00112026AC3227F
:1036C600E5B254FC42B253A9FED2AF75D104907153
:1036D60000E054E3F0E0F0E054FCF0E04401F09048
:1036E60071057409F0907104745FF0907101E054F3
:1036F6007FF0E04420F0907100E0541FF0E044C0F9
:05370600F043A90122BF
:0300240002204077
:10204000C0E0C0F0C083C082C0D075D000C000C066
:0D20500001C002C003C004C005C006C007E7
:0E205D00907101E020E703022102E04480F0D0
:10206B0090657CE004F0E0C39414401FE4F09064AE
:10207B009D123D5190649EE0945890649DE09402B3
:0B208B004009201706E4F0A3F0D21774
:1020960030821620130F906499123D409064991275
:0B20A600045E1238C6D2138002C21381
:1020B10090657DE4123D5190657EE0941490657DBC
:1020C100E094004021E4F0A3F0906541123D51906D
:1020D1006542E094E8906541E094034009201506CB
:0620E100E4F0A3F0D215AB
:1020E70030951620140F90653D123D4090653D12C6
:0B20F700045E123888D2148002C2146C
:10210200D007D006D005D004D003D002D001D00031
:0B211200D0D0D082D083D0F0D0E032DB
:1033D20090642B12043674212FF582E43464F58351
:1033E200229064E4E0FF241EF582E43464F5832233
:1033F2007D00EF75F00FA424F1F9746335F0FA7BC8
:103402000122E5822EF582E43583F58322E4F090F1
:103412006424E014F090000F2290642AE4F0906497
:0334220029F0226C
:0A3E5900E4906428F0C210D2112298
:0A3E6300C211E4906428F0C210229E
:103B980078C2E2543FF2E254FCF2E24440F29071FF
:103BA80081E04404F0907175E04401F043AA20D20A
:0B3BB800AF75D60175D59F75D21122A4
:03004B00021AF79F
:101AF700C0E0C0F0C083C082C0D075D000C000C0B5
:0D1B070001C002C003C004C005C006C00735
:101B1400906503E4F0E5D420E503021BFCE5D7F06F
:101B2400201204E0B4A509906424E0C394034003A4
:101B3400021BF9906503E0B4A508D21212341B12FB
:101B44003E5990642AE0B40108906503E09064294A
:101B5400F01233D2E06003021BFC906503E0FF90B7
:101B6400642B1204529063F175F00FEB12049BEA9C
:101B740075F00FA42583F583C083C08290642AE0A6
:101B8400FE04F0D082D083123404EFF0906428E491
:101B9400F0A3E06063E0FFA3E06F705C906429E071
:101BA400FB90642B120436741E2F1233EAEBF0C23E
:101BB4001212341B1233D27401F0906424E004F046
:101BC40090642B120436EF2401FFE43EFEE43DFD55
:101BD400E43CFC90642B12045EE47F03FEFDFC9065
:101BE400642B120452C31203FF400A90642B1204A4
:081BF4006A00000000123E63CC
:101BFC00D007D006D005D004D003D002D001D0003D
:0B1C0C00D0D0D082D083D0F0D0E032E6
:0D3E2700E5D430E4FB8FD7E5D430E4FB2276
:101C1700E49064E4F0A3F0C21F906428E0D3940A30
:101C2700400F123E63E490642AF0906429F0C212D8
:101C370022E49064E4F09064E4E0FFC3940340037B
:101C4700021D2874212F1233DBE07003021D1F9041
:101C570064E4E075F00FA424F2F582E43463F583BD
:101C6700E0FE741E2F1233EAE06E601A9064E4E01F
:101C770024211233DB12340FC083C0821233F2D017
:061C870007D0060205591A
:101C8D00E49064E6F09064E5F0A3F01233E3E01421
:101C9D00FE9064E6E0FDC39E5022EF75F00FA42484
:101CAD00F1F582E43463F583E5822D123407E0FF0C
:101CBD009064E5E02FF0A3E004F080CF9064E5E0C0
:101CCD00F01233E3E0FEEF75F00FA424F0F582E49B
:101CDD003463F583123404E0FF9064E5E06F600235
:021CED00D21F04
:101CEF00301F1DC21F9064E4E0FF24211233DB126A
:101CFF00340FC083C0821233F2D007D006120559B9
:101D0F009064E4E02425F582E43464F5837401F0F3
:091D1F009064E4E004F0021C3DB4
:011D28002298
:103D0B001202A39064EA12045E9064EA02043690F5
:0B3D1B007123E05498F0E0441EF022F9
:103BEE0078C3E24403F2E2440CF218E2440CF27899
:103BFE006AE24478F27591FF123D1A9071227407B1
:083C0E00F0439E70439940222F
:10370B005399E0EF24FE601714601C24027026907E
:10371B007123E054D8F0E0445AF043990480161218
:10372B003D1A439905800E907123E054D8F0E04484
:10373B0059F04399017869E24448F27F017E000217
:02374B003CF050
:100027007869E24401F2786BE230E1FA7402F2AFE8
:1000370093EF75F010A4FFAEF0E594C4540FFDEFF5
:030047004DFF2248
:1022D000E49064E8F0A3F0A312046A00000000E4B4
:1022E0009064EEF0A3F074FFA3F0A3F0E4A3F0F089
:1022F0001200279064E8EEF0A3EFF09064F2E0C3E0
:10230000940240549064EEE0FEA3E0FF9064E8E0A5
:10231000FCA3E0FDD39FEC9E40089064EEECF0A39C
:10232000EDF09064F0E0FEA3E0FFC3ED9FEC9E5063
:102330000F9064E8E0FFA3E09064F0CFF0A3EFF02B
:102340009064EA1204529064E8E0FEA3E0FFE4FC2B
:10235000FD120296A312045E9064F2E004F0E0C362
:102360009414408C123D14C006C0079064EEE0FE49
:10237000A3E0FBAA06E4F9F8D007D006123D0BC093
:1023800006C0079064F0E0FEA3E0FBAA06E4F8D0E4
:1023900007D006123D0B78041204109064E8EEF0AA
:0323A000A3EFF0B8
:0123A3002217
:103AE200A3F078E3E254FCF2E24401F2907192E432
:103AF200F0229064F1E004F0E0C3940822C2A4C270
:0E3B020096D2977F04FE22FFE0FEA80708225D
:10332400E4FF78D3E2543FF2E24440F290718DE43A
:10333400F0E254CFF2E24410F290718CE4F0123ACD
:10334400E4C297C29612320AEF702A7D0A7F8C1269
:10335400269E7D017F8812269E7D017F8612269EF1
:10336400E4FD7F8212269EE4FD7F8412269EE4FD06
:083374007F8012269E0235F550
:103D2600E4FDEE25E0FEEF30E004EE4401FEEFC3D5
:093D360013FF0DEDB408EBAF061C
:013D3F002261
:02306C00AC07AF
:10306E00E49064E5F0AF05123D26EC64816019EC46
:10307E0064836014EC6485600FEC6487600AEC6412
:08308E00896005EC648D7043BC
:10309600E49064E6F0A3F0EC64816004ECB483068B
:1030A600EF547FFF8017EC64856004ECB48706EF6D
:1030B600543FFF8008ECB48904EF541FFFEFC4545B
:1030C6000FFE9064E6F0EF540FFFA3F0EE75F00AE2
:0330D600A42FFF25
:0130D90022D4
:052ADF009064E5EFF03A
:102AE400E4A3F0123AE2123AFF123E4EE49064E795
:102AF400F0122B539064E7E09064E5123B098002E6
:102B0400C313D8FC30E004D2A48002C2A47F047EA4
:102B140000123E4E122B5D40D878E3E254FCF2786A
:102B2400E0E24410F2E49064E7F09064E6E025E02B
:102B3400F0122B5330A4079064E6E04401F0122B0A
:0E2B44005D40E7C296C297C2A49064E6E0FF2F
:102B520022C2967F047E00123E4E22D2967F047ECF
:0F2B620000123E4E9064E7E004F0E0C3940822B6
:053DD3009064E4EFF034
:103DD800E4FE122ADFAE079064E4E0FFAD0602308D
:013DE8006C6E
:082B71009064EFEFF0A3EDF01A
:102B7900E4123AE2123AFF123E4EE49064F1F01286
:102B89002BF79064F1E09064EF123B098002C313C4
:102B9900D8FC30E004D2A48002C2A4122BE6123A77
:102BA900F440DCE49064F1F0122BF79064F1E0FF5B
:102BB9009064F0E0FEA807088002C313D8FC30E057
:102BC90004D2A48002C2A4122BE6123AF440D9C25C
:0C2BD900967F047E00123E4EC297C2A4FC
:102BE500227F047E00123E4ED2967F047E00123E66
:0C2BF5004E22C2967F047E00123E4E224B
:10320A001235F5D39064CDE094339064CCE0940801
:10321A005048C3A3E094D09064CCE09407403B901C
:10322A0064CEE0D3940C5032E0C39401402CA3E066
:10323A00D3941F5025E0C39401401FA3E0D39418F0
:10324A005018A3E0943C5012A3E0943C500C9064B4
:10325A00CCE0B40708A3E0B4D0037F00227F0122A8
:05269E009064EBEFF079
:1026A300A3EDF0EF6480601D9064EBE0FF64826053
:1026B30014EF6484600FEF6486600AEF648860053A
:0526C300EF648C706C57
:1026C800E49064EDF0A3F09064ECE0FFC3940A405A
:1026D80007EF75F00A84A3F09064ECE075F00A84C3
:1026E800AFF09064EEEFF09064EDE0FEC454F04F6C
:1026F8009064ECF09064EBE0FF64806004EFB482D7
:10270800099064ECE0547FF080229064EBE0FF6471
:10271800846004EFB486099064ECE0543FF0800CC8
:0C2728009064EBE0B48805A3E0541FF0BF
:10273400E4FD7F8E122B719064EBE0FFA3E0FD12A9
:092744002B717D807F8E022B7148
:1037CD009064E4A3E02430FD7F8C12269E9064E685
:1037DD00E0FD7F8812269E9064E7E0FD7F8612262D
:1037ED009E9064E8E0FD7F8412269E9064E9E0FDE2
:0F37FD007F8212269E9064EAE0FD7F8002269E66
:1035F5007F81123DD39064D2EFF07F83123DD3904B
:1036050064D1EFF07F85123DD39064D0EFF07F87D2
:10361500123DD39064CFEFF07F89123DD39064CEF5
:10362500EFF07F8D123DD3EF24D0FEE43407906494
:06363500CCF0A3CEF02250
:103C39009064E4F09065790204A790000612016F80
:103C4900FE90000802016F9000091201E190000C3A
:013C59002248
:10141A00E49064E4F07FFFA374FFF090657912040E
:10142A00C790000112016FFE120156FDEEC39D50D6
:10143A00030215AC123C3D900001E41201E1900058
:10144A000E1204D0120526EFF46008906578742312
:10145A00F08009906578E06003E014F0123C3D905A
:10146A00000312016F6F601590000512016F600D85
:10147A00900004E41201E19000030215A89000050F
:10148A0012016FFE90000412016FC39E500B123CB2
:10149A003D900004740102019C123C3D900002122E
:1014AA00016F6F6048EFF4701C123C43C39E400A00
:1014BA007405123C399000028061123C3D90000A8A
:1014CA00740102159F123C3D9000087401123C53AE
:1014DA0012016F6F906579600C1204A77401123CB7
:1014EA0050EF02159F1204A7900009803DEFF47097
:1014FA0041123C3D90000912016FD394005003023F
:10150A0015A290000B12016FFE90000A12016FD310
:10151A009E40117401123C3990000C12016F9064C4
:10152A00E5F08054123C3D90000A740112019C02BD
:10153A0015A2123C3D123C4AC394FF500890000881
:10154A00740112019C123C43B506089064E47403CA
:10155A00F08020123C3D900007123C466E70399094
:10156A0064E47404123C3C90000612016F90000877
:10157A001201E19064E5EFF0123C3DE4123C507434
:10158A00FF1201E19064E5E09000111201E190641C
:10159A00E4E09000121201E1123C3D900002EF12C9
:0215AA0001E15D
:0115AC00221C
:1023A400C2B178E0E254BFF278E3E254CFF2E244FF
:1023B40010F2907194E4F02290642FF0A374C5F0AD
:1023C40078317C647A64792F7E007D017B017F0201
:1023D4000201309064EF7B017A64792FE4F0A374F6
:1023E40002F022E0FF7B019064EFE4F0A37411F0AB
:1023F40022906431E0FF90642FE02278447C647D75
:10240400017B017A64793322E4F078E3E254CFF279
:1024140078E0E24440F22275D9AA7B017A647931EA
:10242400221204369064E702045ED2B17F047E0077
:1024340022EF75F020A4FFE5F0F0A3EFF022E4759D
:10244400F00102026A906432E064C52212045E90D4
:1024540064C402043612045E9064C80204369064B4
:0D246400E7020436EEF0A3EFF0A30204C778
:103DE9001223D7E4FF1239E412241B9064EF122343
:063DF900E07F010239E445
:103D59009064EF1223DAE4FF123A1912241B9064DB
:093D6900EF1223E07F01023A1978
:102C8F00123D59906430E064C5600D12244960080C
:102C9F0074021223BC022D0F906430E0B4C507906C
:102CAF006432E0B4C50D906430E064C56035122421
:102CBF00497030906430E0B4C5101223C412241E42
:102CCF009064EF1223E07F0180161224497034784C
:102CDF002F7C647A647931FE1223CE1223D7E4FF5E
:102CEF000239E41223F5D39F4007E0906431F0805E
:102CFF000F1223F5C39F500B906431E090642FF0B7
:042D0F00123DE92266
:10380C0090658174FFF0E490657FF0A3F090657F84
:10381C00E0FEA3E0FF7B017A6579819064F8E4F027
:10382C00A304F0122F0EEF600575D9AA80DF906506
:0D383C007F122442C390657FE0941040D0BD
:01384900225C
:10127400E49064E6F0123D591223F5B50702800CA0
:101284001223F5D39F40028003906431E09064E61A
:10129400F09064E6E020E0099064E4F004A3F080B8
:1012A4000D9064E6E0FE149064E4F0A3EEF0906424
:1012B400E47A6479331223E7123A199064E57A6484
:1012C40079441223E7123A19906443E064C5602E0E
:1012D40090643F12046A0000000090643312046AB0
:1012E4000000000090643712046A0000000090645B
:1012F4003B12046A0000000090644374C5F09064DB
:1013040054E064C5600A1223FF7E007F111201308D
:10131400906444120436906433120452C31203FFDF
:101324009064C0502912043690644412245090648E
:101334004812245990644C12045E9064501224257F
:1013440078337C647D017B017A647944801E1204C5
:101354003690643312245090643712245990643BBD
:1013640012045E90643F1224251223FF7E007F1135
:10137400120130122462EF2401FFE43EFEE43DFD3D
:10138400E43CFC12242812246290643F12045E128E
:10139400246290645012045E7FE07E937D047C009E
:1013A4009064E7120452D31203FF40309064E5E0E6
:1013B400049064E4F0E0FE04A3F0EE947E4009900F
:1013C40064E4747EF0A304F090643F12046A0000A5
:1013D400000090645012046A000000009064E4E08D
:1013E400FF1224059064EF1223EE1239E49064E5B1
:1013F400E0FF7B017A6479449064EF1223EE1239A2
:10140400E490642FE0FF9064E4E0FE6F6007EE1266
:0514140023BC123DE9BC
:0114190022B0
:103D72001223A6D2A6D2B17F04FE123E4EC2A67F65
:093D8200047E00123E4EC2B12283
:103CD4001223A6C2B1C2A67F04FE123E4E12242EA7
:0C3CE400123E4ED2A67F047E00023E4E2F
:103978009064FA12240CD2A67F047E00123E4ED226
:10398800B1801530A61B9064FAE004F0E0D394FAF5
:103998004006123CD47F01227F047E00123E4E80F6
:0539A800E2C2B17F0046
:0139AD0022F7
:103DFF001223A4C2A67F04FE123E4E12242E123EA0
:043E0F004EC2B122CC
:103E13001223A4D2A67F04FE123E4E12242E123E7B
:043E23004EC2B122B8
:05363B009064FAEFF0BD
:103640001223A6C2B19064FBF09064FAE0FF5480AC
:10365000C4131313540124FF92A6EF25E0F07F0456
:103660007E00123E4E12242E123E4EC2B17F047EC8
:1036700000123E4E9064FBE004F0E0C3940840C9A1
:013680002227
:0534C4009064FAEFF036
:1034C9009064FC12240CE49064FBF0C2B17F047E8A
:1034D90000123E4ED2B19064FCE025E0F030A60324
:1034E900E004F07F047E00123E4E9064FBE004F09D
:1034F900E0C3940840D59064FAE07005123E138049
:0935090003123DFF9064FCE0FF99
:013512002296
:102C01009064F3122468123D727FA012363B123990
:102C110078EF60037F01229064F3122C8560037FBB
:102C210001229064F3A3122C8560037F01227F04AB
:102C31007E00123E4E123D727FA112363B12397850
:102C4100EF60207F01229064F8E07002A3E0601F32
:102C51007F011234C49064F5E475F0011204B0EF01
:102C61001201CF9064F874FFF5F012026A80D7E484
:102C7100FF1234C49064F51204A7EF1201CF123C85
:0E2C8100D47F0022E0FF12363B123978EF229A
:102F0E009064F3122468123D727FA012363B123980
:102F1E0078EF60037F01229064F3122F7B60037FB2
:102F2E0001229064F3A3122F7B60037F0122906431
:102F3E00F874FFF5F012028045F060249064F512EB
:102F4E0004A7120156FF12363B123978EF60037F49
:102F5E0001229064F31224429064F612244280CE31
:102F6E007F047E00123E4E123CD47F0022E0FF1200
:072F7E00363B123978EF2207
:0639E4009064EC1204C720
:1039EA009064F11224359064F1E0FEA3E0FF906444
:1039FA00EC1204A79064EFE0FDA3E09064F8CDF028
:0E3A0A00A3EDF0122F0EEF600575D9AA80D83B
:013A1800228B
:063A19009064EC1204C7EA
:103A1F009064F11224359064F1E0FEA3E0FF90640E
:103A2F00EC1204A79064EFE0FDA3E09064F8CDF0F2
:0E3A3F00A3EDF0122C01EF600575D9AA80D816
:013A4D002256
:103DBC00D2A6D2B178F2E254F3F2E24404F290715A
:073DCC0097E4F01223AC2282
:1039410078E2E2543FF2E24440F2907191E0F012E9
:103951003B98123A4E12374D123E34123E41123B01
:10396100EE122A4D1233241236C6123DBC12326AAF
:073971007F017E00023CF023
:1031460012211D75D95590715EE054FEF075D9BBFC
:10315600123941D2A37FE87E03123CF0C2A375D98F
:10316600AA123C5A75D9AA7B017A6379AC12141A51
:1031760012252D7B017A65790412141A1227E91299
:103186002FFA122471123BC3122E93123B3E121ECB
:1031960039121F4512274D121C1712172D120D3A00
:0231A60080BCEB
:1039AE009064551204369064C012045E90645912ED
:1039BE0004369064C412045E90645D120436906402
:1039CE00C802045EE0FF7B017A6479559064EFE4EF
:0639DE00F0A37411F022B9
:10326A00122C8F90642FE09064E4F01239D2123A53
:10327A0019906465E0B4C50F1239AE9064C01204A7
:10328A00369064E512045E9064E4E020E00404F001
:10329A0080069064E4E014F09064E41239D2123AA1
:1032AA0019906465E0B4C5159064551204369064AB
:0D32BA00E5120452C31203FF50031239AE97
:0132C70022E4
:033E7900021274BE
:10384A00FEE02FFFEC3EFEA3E02FFFEC3EFE22FA45
:10385A001204367E00EB2FFFEE3AFE3395E0FDFCB4
:10386A00221204107E009064E4E022FC9064E902D3
:0E387A00045E9064E90204369064E5020436B0
:050B34009064E4EFF005
:100B39009064E912046A000000007FA5123E2712A2
:100B4900387CEF24A5FFE43EFEE43DFDE43C123889
:100B5900759064E4E0FF64016032EF6402602DEF98
:100B690064036028EF64046023EF6405601EEF648A
:100B7900066019EF64096014EF640A600FEF6411ED
:100B8900600AEF64126005EF641370207F05120D8F
:100B990014120D26C00012388212386E2405FDE4A5
:100BA90033CD2FFFEE3D123864020CDE9064E4E091
:100BB900FF6407600AEF64086005EF641070337F13
:100BC90006123E279064E4E0FF120CFC120D26C0C9
:100BD90000C002C003123882780812386B2406FD5F
:100BE900E433CD2FFBEE3DA3123859D003D00202D6
:100BF9000CDE9064E4E0FF640B600FEF640C600AA4
:100C0900EF64146005EF640D70467F07120D1478C8
:100C190010120410120CFC120D30C000C002C003E7
:100C2900123882781012386B2407FDE433CD2FFB7C
:100C3900EE3DFAA312043678081204107E00EB2F59
:100C4900FBEE3A9064E5123859D003D002020CDE6B
:100C59009064E4E0640E6003020CE67F0B123E2709
:100C69007F0E123E279064CCE0FF123E279064CCA1
:100C7900E0A3E0FF123E279064CEE0FF123E2790EA
:100C890064CFE0FF123E279064D0E0FF123E279028
:100C990064D1E0FF123E279064D2E0FF120D30C00C
:100CA90000C001C002C0039064CCE02419FFE43302
:100CB900FEE0A3E07C002FFFEC3E9064CE12384AA0
:100CC900A3E02FFFEC3EA312384A3395E0FDFCD098
:100CD90003D002D001D00012029612387612387C65
:100CE900E4FEFD12387512387C123E277F017E0022
:030CF900023CF0CA
:100CFC00123E279064E51204367808120410123E56
:100D0C00279064E512043622123E279064E4E0FF3B
:100D1C00123E279064E512043622123E279064E9B5
:0E0D2C0012045222123E279064E91204522251
:103A4E0078E3E2543FF278F2E254FCF278D3E25497
:103A5E00FCF218E2543FF2E254FCF278C3E2543F17
:103A6E00F2E254CFF278E2E254FCF278E0E2440162
:023A7E00F22232
:102FFA00C3906585E094C8906584E094004062E4DB
:10300A00F0A3F02086069064DBF0804020870890C9
:10301A0064DB7401F080352090089064DB7402F060
:10302A00802A2093089064DB7403F0801F209408A0
:10303A009064DB7404F0801420B0089064DB74059B
:10304A00F0800920A7069064DB7406F0D20120A064
:10305A00079064E274018004E49064E2F0A3F0D281
:02306A0006223C
:103B1000F583EFF09064EEE004F02290654B020430
:103B200052E4FAF9F802033C9DFEE09C9064ECF04C
:0E3B3000A3CEF022E0FCA3E0FDC39FEC9E229A
:0D3E340078D3E254F3F278D0E24420F22279
:10388800123B1B906541E0FEA3E0FFE4FCFD120241
:103898009690654B12045EE4906541F0A3F0906544
:1038A8004F12043690653D12045212029690654FED
:0E38B80012045E90653D12046A0000000022BA
:10247100E49064E4F0A3F09064E612046A000000C2
:1024810000E47FBC7E02FDFC123B1BC31203FF5024
:102491000620150302252CE47F6D7E05FDFC906569
:1024A1004F1204521202B17B04123B219064E612D6
:1024B100045EE43015089064E4F0A3F080217F24E9
:1024C100FEFDFC9064E61204521202B17B0A123B3B
:1024D10021123B1B12033C9064E4EEF0A3EFF09059
:1024E10065601204369064E61204521202969065F9
:1024F1006012045E90654F12046A0000000090654E
:102501004B12046A00000000C215D39064E5E09408
:10251100E79064E4E0940340077403F0A374E7F0E8
:0B2521009064E4E0FEA3E0FF121D291F
:01252C00228C
:081D29009064EAEEF0A3EFF074
:101D3100E4A3F0A3F0C21F90653B123B34500FC3E4
:101D41009064EBE09064EA123B28D21F80479065D3
:101D51003BE0FEA3E0FF9064EA123B34500FC390D6
:101D6100653CE090653B123B28C21F8028E49064EB
:101D7100EEF09064EEE0FFC3940750169064EAA37E
:101D8100E0FE74432FF582E43465F583EE123B13D4
:101D910080E0021E33301F3AE49064EEF09064EE6E
:101DA100E0FB2401FFE433FE9064ECE0FCA3E0FDE2
:101DB1001202037C007D0712021590653BA3E02F00
:101DC100FF74432BF582E43465123B10E0B407CD78
:101DD1008051E49064EEF09064ECE0FEA3E0FBAA95
:101DE10006E4F9F8A3E0FFC374069FFFE49400FE44
:101DF1003395E0FDFC1202B1E47B07123B229065B2
:101E01003BA3E0C39FFF9064EEE0FDC374069DFD1C
:101E1100E49400FC74432DF58274653C123B10E0A0
:101E2100B407B49064EAE0FFA3E090653BCFF0A370
:071E3100EFF0E490654AF0B8
:011E38002287
:103BC300301627C21690654AE0C39407501CE024C0
:103BD30043F582E43465F583E0FF9064D7E4F0A312
:0B3BE300EFF090654AE004F0D20422ED
:1035130025E025E0249FF582E43464F58312045EFC
:103523009064F0E004F022FE3395E0FDFC9064EC3F
:103533001204521202B1E47B06FAF9F802033C903A
:1035430064BC0204529064951204369064E8020449
:0D355300521204361202A39064EC02045ED2
:0D3E410078C2E254CFF278C0E24404F222CD
:1038C6009064B812043690649912045212029690CB
:1038D60064B812045E90649912046A000000001233
:1038E600354290649DE0FEA3E0FFE4FCFD120296E3
:0E38F6009064BC12045EE490649DF0A3F02286
:102E9300E47FF47E01FDFC123542C31203FF5003AD
:102EA30030176730170C9064E412046A00000000C6
:102EB300801CE47F607EEAFDFC9064B81204521229
:102EC30002B112354212033C9064E412045E906432
:102ED300B812046A000000009064BC12046A000087
:102EE3000000C217E47FFF7EFFFDFC9064E4120440
:102EF30052C31203FF400A9064E412046A0000FF05
:0A2F0300FF9064E41204361221F975
:012F0D0022A1
:0621F9009064E812045E90
:1021FF009064EC12046A00000000C21F123548D32D
:10220F001203FF40109064951204529064E8123547
:10221F0054D21F8034123548C31203FF500D1235AC
:10222F004E906495123554C21F801EE49064F0F0F6
:10223F009064F0E0FBC39406500C9064E8120436EF
:10224F00EB12351380EA0222CA301F2AE49064F0A1
:10225F00F09064F0E0FFC394065054EF2401FFE4C4
:10226F003312352A9064951204521202969064F03C
:10227F00E012351380DBE49064F0F09064F0E0FF3F
:10228F00C39406502AC374059FFFE4940012352AA5
:10229F00A804A905AA06AB0790649512043612028A
:1022AF00A39064F0E0FBC374059B12351380CC90B0
:1022BF0064E812043690649512045EE49064B7F0FB
:0122CF0022EC
:103B3E0030182AC2189064B7E0C39406501FE025CF
:103B4E00E025E0249FF582E43464F5831204369078
:0E3B5E0064D312045E9064B7E004F0D2032238
:0425FE0041655300E0
:103AB200120436EF2401FFE43EFEE43DFDE43CFC4B
:103AC200221204361202A3E47B64FAF9F8C3020359
:103AD200FF7F7F7E967D987C00120452C30203FF13
:101E3900C3906565E094E8906564E09403400F30D1
:101E49001D0C123E79C21DE4906564F0A3F0E47F95
:101E5900E87E03FDFC906560123ADB40717F187ED5
:101E6900C67D9A7C3B9064C0123ADB500C9064C0EA
:101E7900123AB29064C012045E9064C4123AD3500C
:101E89000C9064C4123AB29064C412045E9064C89F
:101E9900123AD3500C9064C8123AB29064C8120432
:101EA9005E906560120436C3EF94E8FFEE9403FE7A
:0E1EB900ED9400FDEC9400FC90656012045E58
:101EC700906553E004F0E0C3940A4004E4F0D21DA7
:101ED7009065541204529064C0123AC3500E906435
:101EE700C012043690655412045ED20890655812E9
:101EF70004529064C4123AC3500E9064C41204365C
:101F070090655812045ED20990655C120452906481
:101F1700C8123AC3500E9064C812043690655C121A
:101F2700045ED20AC3906567E09488906566E09482
:0D1F370013400AE4F0A3F0D208D209D20A48
:011F4400227A
:10378D009064C4E47B64FAF9F812043612033C9099
:10379D0064E502045E9064DBE0FFE4FCFDFE229034
:1037AD0064D7E0FEA3E0FFE4FCFD22E47BE87A03AE
:1037BD00F9F89064C0229064E4E0FF75F00FA42244
:10172D00E49064E4F0F09064E4E0FFC394034003BC
:10173D0002189274252FF582E43464F583E070036A
:10174D000218899064E4E0FB75F00FA424F3F58290
:10175D00E43463F583E012050017828017878B1739
:10176D008C8C17968E179194182A98182E991832DA
:10177D009A00001834D200021834D208021834D25C
:10178D0009021834D20A021834D20BEB75F00FA4EB
:10179D0024F4F582E43463F5831237A57808120436
:1017AD0023EB75F00FA424F5F582E43463F583E0A3
:1017BD007C002FFFEC3E9064CCF0A3EFF01237C30A
:1017CD0024F6F582E43463F583E09064CEF0EF7592
:1017DD00F00FA424F7F582E43463F583E09064CF31
:1017ED00F01237C324F8F582E43463F583E0906496
:1017FD00D0F0EF75F00FA424F9F582E43463F5838E
:10180D00E09064D1F09064E4E075F00FA424FAF553
:10181D0082E43463F583E09064D2F0800AD20D80C7
:10182D0006D20E8002D20F906424E0D394004003C0
:10183D00E014F09064E4E0FF2425F582E43464F5CF
:10184D0083E4F0741E2FF582E43464F583E4F074C0
:10185D00212FF582E43464F583E4F0FE7F0FC0069A
:10186D00C007FD9064E4E075F00FA424F1F97463F2
:10187D0035F0FA7B01D007D0061205599064E4E0EB
:05188D0004F002173316
:011892002233
:100D3A00200003020DCBC200906572E06003020D31
:100D4A00CB04F01237A212379C7F01120B34906445
:100D5A00DC1237A512379C7F02120B349064D3122F
:100D6A00043612379C7F07120B341237AC12379CA9
:100D7A007F08120B349064DE1237A512379C7F0964
:100D8A00120B341237B81237967F0B120B34123704
:100D9A008D7F0C120B341235F59064E512046A004B
:100DAA000000007F0E120B349064D91237AF12374D
:100DBA009C7F10120B349064C81237907F14120B68
:100DCA003430010DC2011237A212379C7F01120B77
:100DDA0034300210C2029064DC1237A512379C7FAD
:100DEA0002120B34300310C2039064D31204361279
:100DFA00379C7F07120B3430040DC2041237AC1231
:100E0A00379C7F08120B34300510C2059064DE123D
:100E1A0037A512379C7F09120B3430061EC2069082
:100E2A0064E21237A512379C7F12120B349064E3E6
:100E3A001237A512379C7F13120B3430080DC208E3
:100E4A001237B81237967F0B120B3430090AC209CF
:100E5A0012378D7F0C120B34300A13C20AE47B64FA
:100E6A00FAF9F89064C81237967F14120B34300BD3
:100E7A0023C20B906575E0701B78E47C647D017B6E
:100E8A00017A6479CCFE7F071201301237CD906562
:100E9A00757401F0300C10C20C9064D91237AF127D
:100EAA00379C7F10120B34300D19C20D9064C0129A
:100EBA00046A0000000090656012046A00000000E5
:100ECA00123E79300E19C20E9064C412046A0000F0
:100EDA00000090656012046A00000000123E79303A
:100EEA000F19C20F9064C812046A000000009065CE
:0C0EFA006012046A00000000123E792221
:102602005463BF0001015300020473000307530027
:1026120004091D00050CED5E63D3010102030405EC
:1026220002060708090A030B0C0D0E0F0410111203
:1026320013140515161718195363AC0A000000008D
:0E264200033241000000000001FF3A8000005A
:0F004E00EC75F006A424D3F582E43463F5832225
:10356000E4FD9064E6F0A374FFF0ED25E025E0248F
:10357000C1F582E43463F583E0FAA3E0D39FEA9EC9
:10358000401CED25E025E024BFF582E43463F5839B
:10359000E0FFA3E09064E6CFF0A3EFF080050DED2F
:0B35A000B405C79064E6E0FEA3E0FF66
:0135AB0022FD
:103C1600E4FEFC12004EE0B5071112004EE5822DBF
:103C2600F582E43583F583E0FE80050CECB405E30C
:023C3600AF06D7
:013C38002269
:103A8000E49064E4F0A3F07F0212370B1200279059
:103A900064E4EEF0A3EFF09064E4E0FEA3E0FF1234
:103AA00035609064E4EEF0A3EFF09064E4E0A3E00E
:013AB000FF16
:013AB10022F2
:10252D009063BDE070030225E6E0FFA3E0FD123CE1
:10253D0016E49063BDF0A3F0EF120500256B0125A5
:10254D007704258306258F09259B0B25A70E25B31B
:10255D001025BF1325CB1525D718000025E690644F
:10256D00E512046A000000CF806A9064E512046AE7
:10257D00000100CF805E9064E512046A000000D275
:10258D0080529064E512046A000100D28046906486
:10259D00E512046A000000D1803A9064E512046AE5
:1025AD00000100D1802E9064E512046A0000007FC6
:1025BD0080229064E512046A0001007F8016906409
:1025CD00E512046A000000D0800A9064E512046AE6
:0925DD00000100D07F0D120B3447
:0125E60022D2
:0826500041646700416466006B
:10342500FEE434FFFDE434FFFCE4FAF9F81202B1DE
:10343500E4229064E8E0FEA3E0FF227A01F9F812A5
:10344500033CAD07C322FEE434FFFDE434FFFCE496
:103455002225E0246CF582E43464F583229064E44B
:10346500E09064DEF0229064E8A3EF2467FFEE228B
:0430DA00AB07AA0690
:1030DE00E49064E8F0A312046A00000000AE02AFB0
:1030EE0003906494E0FD04F0ED123456EEF0A3EF7D
:1030FE00F0906494E0C394144002E4F0E49064E829
:10310E00F09064E91204529064E8E0123456E0FE46
:10311E00A3E0FFE4FCFD1202969064E912045E90B7
:10312E0064E8E004F0E0B414D8E47B14FAF9F89003
:08313E0064E912043602033CAF
:10000F00E4FDED123456EEF0A3EFF00DEDB414F263
:01001F0022BE
:0815AD009064E8EEF0A3EFF0FA
:1015B500E4FDC3EF940BEE940E500A12343794F405
:1015C500EE940150057DFF02172AD3EF9400EE94A7
:1015D5000E4005E4FD02172AD3EF9466EE940650FB
:1015E500057D6402172AD3EF9400EE940E5024EF84
:1015F5009433EE940D401C123437EF24CDFFEE34B6
:10160500F27B121234257BCDFA12344274129DFD01
:1016150002172A123437D39433EE940D502FEF94DA
:10162500B8EE940C40279064E8A3EF2448FFEE340D
:10163500F37B221234257B7BFA12344274229DFD02
:10164500C39412400302172A7D1202172A12343757
:10165500D394B8EE940C5031EF9433EE940B4029AB
:101665009064E8A3EF24CDFFEE34F412344B7B33C2
:1016750012342F7B8512344074339DFDC394224070
:101685000302172A7D2202172A123437D39433EE28
:10169500940B5028EF9499EE9409402012346B3442
:1016A500F612344B7B4412342F7B9A123440744427
:1016B5009DFDC39433506E7D3302172A123437D300
:1016C5009499EE94095028EF9499EE9407402012CE
:1016D500346B34F812344B7B5412342FFB7A0212DC
:1016E500344274549DFDC39444503A7D448036126F
:1016F5003437D39499EE9407502BEF9466EE940605
:1017050040239064E8A3EF249AFFEE34F912344B9A
:101715007B6412342F7B3312344074649DFDC39473
:071725005450027D54AF0592
:01172C00229A
:1032C800E4FEEF70028052EFC39401400AEFD394FA
:1032D8001150047E018042EFC39412400AEFD39448
:1032E8002150047E028032EFC39422400AEFD39427
:1032F8003250047E038022EFC39433400AEFD39404
:103308004350047E048012EFC39444400AEFD394E0
:0B3318005350047E0580027E06AF06C5
:013323002287
:061F4500E49064E4F0FEEC
:101F4B00906466E07035C3906469E094F4906468C3
:101F5B00E094014026E4F0A3F012202312000F902E
:101F6B006582E0FEA3E0FF122034906467EFF0126D
:0B1F7B003462E4FED20590646604F0BE
:101F86001220231230DAC3906469E094E890646802
:081F9600E09403500302202235
:101F9E00E49064E5F0906468F0A3F0122034A3EFAF
:101FAE00F0906467E0FE6F6004D21A8007C21A12C6
:101FBE003462D20530195DC2199064E5E0FF6E609F
:011FCE004EC4
:101FCF00906467E0FED39F400BEED394004011E086
:101FDF0014F0800CEEC394065006906467E004F092
:0F1FEF00E49064E6F09064E6E0FFC394FF501FB7
:101FFE001232C8A3EFF0906467E0B5070A9064E66A
:07200E00E09064E4F080089B
:082015009064E6E004F080D7BE
:05201D00123462D2053F
:10202200227F0312370B1222D0906582EEF0A3EFCB
:0E203200F0221215AD9064E4EFF01232C822D5
:02265800C19E21
:10337C00E4906570F0A3F09064E6E09064DCF0906B
:10338C0064E4E0FFA3E09064D9CFF0A3EFF0D20C9B
:10339C00D2022290656C12043690656812045212A7
:1033AC00033C90656C12045E90656C02043690646C
:1033BC00E4EEF0A3EFF09064E4A3E0FF123CB7A3BB
:0633CC00EFF090656C2299
:103D8B007C0A7D5012052CE47B0AFAF9F812033CED
:093D9B00E4FB7A10F9F802033C84
:103CB700EFC3949640047E6480107E007C007D6490
:0C3CC7001202037D96120215AE07AF0634
:013CD30022CE
:10274D00E49064E4F0A3F0A3F07F0112370B9065E1
:10275D006C120452C000C001C002C0031222D0E4AA
:10276D00FCFDD003D002D001D00012029690656C12
:10277D0012045E906568120436EF2401FFE43EFEFC
:10278D00E43DFDE43CFC90656812045E301E2012B1
:10279D00339F123D8B1233BA12046A000000009071
:1027AD00656812046A0000000012337CC21E22C349
:1027BD00906571E094D0906570E09407401D1233E0
:1027CD009F123D8B1233BA12046A0000000090650F
:0B27DD006812046A0000000012337C48
:0127E80022CE
:10265A004C651701010203040502060708090A531B
:10266A0065040A000000000364AF000000000002D5
:05267A00FF35AC00007B
:103C7A00E4FFFDFCAB1BAA1AA919A818C30203FF8B
:0F3C8A00EE75F006A42417F582E43465F5832265
:1035AC009064E412046A000000009064E874FFF078
:1035BC00AF1BAE1AAD19AC189064E412045E7E0217
:1035CC00123C7A70079064E804F0800D7E04123C83
:1035DC007A70069064E87402F09064E412046A0055
:0835EC000000009064E8E0FF1C
:0135F40022B4
:103B6C00E49064E4F0FE123C8AE0B50714123C8A3F
:103B7C00E5822DF582E43583F583E09064E4F080F2
:0B3B8C00050EEEB402E09064E4E0FFE0
:013B9700220B
:1027E900906515E07003022884E0FFA3E0FD123B29
:1027F9006CE4906515F0A3F0EF120500282101287B
:102809002D03283904284505285106285D0828691B
:102819000928750A000028849064E512046A0000FA
:10282900004780529064E512046A0001004780461F
:102839009064E512046A00020047803A9064E51248
:10284900046A00030047802E9064E512046A0000C0
:10285900004880229064E512046A0001004880164D
:102869009064E512046A00020048800A9064E51247
:0B287900046A000300487F0D120B34BE
:012884002231
:10267F0041601801426019000041601B0041601C5D
:0E268F000041601D0041601E7F42601FFFFF82
:10390400E4F561AE3EAD3DAC3C853F178E168D159A
:103914008C14787EE254FCF2E24514F218E515F2B8
:1039240018E516F218E517F2787FE254FBF2E25438
:0D393400FB4404F2E24401F27F01022D1376
:1008E2009064E4EFF0E0FF2425F582E43465F583BB
:1008F200E004F074272FF582E43465F583E4F074A4
:10090200252FF582E43465F583E0C3956350030235
:100912000B339064E4E0FB2425F582E43465F5832F
:10092200E4F0903CAA9364016003020AE47F01FEB2
:10093200FDFC74292BF582E43465F583E0F9F812A5
:100942000423E51F4FF51FE51E4EF51EE51D4DF56F
:100952001DE51C4CF51CAF1FAE1EAD1DFC7801122F
:100962000410EF5455FBEE5455FAED5455F9EC547E
:1009720055F8C3E51F9BF53BE51E9AF53AE51D992F
:10098200F539E51C98F538AF3BAE3AAD39FC780243
:10099200120410EF5433FBEE5433FAED5433F9ECF6
:1009A2005433F8E53B5433FFE53A5433FEE539540A
:1009B20033FDE5385433FCEB2FF53BEA3EF53AE9DB
:1009C2003DF539E83CF538AF3BAE3AAD39FC780439
:1009D200120410EF253BFFEE353AFEED3539FDEC02
:1009E2003538FCEF540FF53BEE540FF53AED540F4A
:1009F200F539EC540FF538AF3BAE3AAD39FC780817
:100A0200120410EF253BFFEE353AED3539FDEC359A
:100A120038EFF53BE4F53AEDF539E4F538AE3AACAA
:100A2200387810120410EF253BFFEE353AFEEFF551
:100A32003BEEF53AE4F539F5389064E4E025E0243C
:100A420033F582E43465F583E0FEA3E0D39553EEFB
:100A5200955240249064E4E0FF25E02433F582E4DB
:100A62003465F583E0F552A3E0F55374292FF5823E
:100A7200E43465F583E0F564903CAAE493FFE4FC7A
:100A8200FDFEAB3BAA3AA939A838D31203FF405264
:100A9200AF650565D3EF9403748094805003020B15
:100AA20033E4F565F51FF51EF51DF51C7F01FEFD0E
:100AB200FCA964A8011204238F1B8E1A8D198C18AD
:100AC200E47F01FEFDFCA8011204238F338E328DD8
:100AD200318C30E4F552F553756420122D9743376B
:100AE2000222E4F5657F01FEFDFC9064E4E0FB2454
:100AF20029F582E43465F583E0F9F8120423E51B55
:100B02004FF51BE51A4EF51AE5194DF519E5184C86
:100B1200F518E47F01FEFDFCA803120423E5334F20
:100B2200F533E5324EF532E5314DF531E5304CF530
:020B320030226F
:1005A300E4F566903CAEE493FFE566C39F40030227
:1005B30008E1E56625E02400F582E4346085828A5B
:1005C3007F548F8B7E0E8E8C758903758889E566C3
:1005D30025E02400F582E4346085828A8F8B758C54
:1005E30012758904758889E56625E02408F582E497
:1005F3003460F583E0FCA3E0C3950FEC950E502E19
:10060300E56625E02414F582E43460F583E0FCA379
:10061300E0C39513EC95125015AF600560EF94029B
:1006230074809480400BE4F5605337FD8003E4F558
:1006330060E53730E125E56625E02433F582E434CF
:1006430065F583E4F0A3F0E56625E02437F582E45D
:100653003465F583E4F0A3F00206F1E56625E024B2
:1006630008F582E4346085828A8E8B758C0A7589DD
:10067300267588892088FDE5F130E00875F107E4E7
:10068300F50AF50BAE0AE50B7802C333CE33CED8A9
:10069300F9FFE56625E02433F582E43465F583EE5E
:1006A300F0A3EFF0E56625E02414F582E4346085D9
:1006B300828A758B12758C0A7589277588892088BB
:1006C300FDE5F130E00875F107E4F50AF50BAE0A34
:1006D300E50B7802C333CE33CED8F9FFE56625E0C8
:1006E3002437F582E43465F583EEF0A3EFF0E56695
:1006F30025E0242BF582E43465F583E0FEA3E0785E
:1007030002CEC313CE13D8F9F5518E50E56625E01A
:100713002433F582E43465F583E0FEA3E0FF903CE7
:10072300A6E493FC740193FDC3EF9DEE9C4017E593
:100733006625E02437F582E43465F583E0FEA3E023
:10074300C39DEE9C50028068E56625E02433F58264
:10075300E43465F583E0FEA3E0C39551EE95504084
:100763001CE56625E02437F582E43465F583E0FE75
:10077300A3E0C39551EE955040030207FD74232572
:1007830066F582E43465F583E004F074232566F5A9
:1007930082E43465F583E0FF903CABE493FEEFD352
:1007A3009E406474232566F582E43465F583E4F0A2
:1007B300E56625E02404F582E43460F583E0FEA3D6
:1007C300E0FFE56625E02408F582E43460F583EE76
:1007D300F0A3EFF0E56625E02410F582E43460F53C
:1007E30083E0FEA3E0FFE56625E02414F582E4340C
:1007F30060F583EEF0A3EFF0800D74232566F58298
:10080300E43465F583E4F0E56625E02404F582E449
:10081300346085828AE56625E02400F582E434604D
:1008230085828B758C0A7589207588CB2088FDE5B8
:10083300F130E00875F107E4F50AF50BE56625E00C
:100843002404F582E4346085828A758B547F0E8F8D
:100853008C7589237588897E0A8E8A8F8BE5662538
:10086300E02404F582E4346085828CE4F58975889C
:1008730029E56625E02410F582E4346085828AE563
:100883006625E02400F582E4346085828B8E8C75C6
:1008930089207588CB2088FDE5F130E00875F107E4
:1008A300E4F50AF50BE56625E02410F582E43460EF
:1008B30085828A758B547F0E8F8C75892475888900
:1008C300758A0A8F8BE56625E02410F582E434608F
:0F08D30085828CE4F58975882905660205A622C1
:100F0600E4F566903CAEE493FFE566C39F400302BA
:100F160010BEE56625E0242BF582E43465F583E012
:100F2600FEA3E07802CEC313CE13D8F9F5518E5046
:100F3600E56625E02433F582E43465F583E0FEA317
:100F4600E0D39551EE9550402EE56625E02437F521
:100F560082E43465F583E0FEA3E0D39551EE955027
:100F6600401574272566F582E43465F583E4F0AF11
:100F7600661208E20210B9903CADE493FFC3E55156
:100F86009FFFE5509400FED3EF9400EE94004002DC
:100F960080047E007F00E56625E02433F582E43494
:100FA60065F583E0FCA3E0C39FEC9E40030210AC12
:100FB600903CADE493FFC3E5519FFFE5509400FEDE
:100FC600D3EF9400EE9400400280047E007F00E59B
:100FD6006625E02437F582E43465F583E0FCA3E07A
:100FE600C39FEC9E40030210AC74252566F582E48F
:100FF6003465F583E4F074272566F582E43465F5F7
:1010060083E004F074272566F582E43465F583E011
:10101600C3956350030210B974272566F582E4343C
:1010260065F583E4F07F01FEFDFC74292566F582F3
:10103600E43465F583E0F9F81204231203CEE51FC4
:101046005FF51FE51E5EF51EE51D5DF51DE51C5CE5
:10105600F51CE47F01FEFDFCA966A801120423121B
:1010660003CEE5335FF533E5325EF532E5315DF506
:1010760031E5305CF530E47F01FEFDFC7429256620
:10108600F582E43465F583E0F9F81204231203CE01
:10109600E51B5FF51BE51A5EF51AE5195DF519E521
:1010A600185CF518800D74272566F582E43465F51D
:0910B60083E4F00566020F092233
:102D9700E4F566903CAEE493FFE566C39F506EE5AD
:102DA7006625E02433F582E43465F583E4F0A3F087
:102DB700E56625E02437F582E43465F583E4F0A37E
:102DC700F0E56625E02404F582E43460F583E0FE4F
:102DD700A3E0FFE56625E02408F582E43460F58387
:102DE700EEF0A3EFF0E56625E02410F582E4346009
:102DF700F583E0FEA3E0FFE56625E02414F582E411
:0E2E07003460F583EEF0A3EFF00566808622BE
:1029BA00E4F566903CAEE493FFE566C39F506790EA
:1029CA006018E0FF7E00C39410748094805053EF27
:1029DA009408748094804025E56625E02400F582F9
:1029EA00E43460F583E0FEA3E0FFE56625E0240415
:1029FA00F582E43460F583EE8FF012026AE566250B
:102A0A00E02400F582E43460F583E0FEA3E0FFE50C
:102A1A006625E02410F582E43460F583EE8FF01227
:102A2A00026A0566808D906018E0C39410748094E1
:102A3A008040054337048006906018E004F07F0167
:032A4A00022D1347
:102E1500E4FFFEFDFCAB1BAA1AA919A818C31203EF
:102E2500FF606390601AE004F07006906019E0049A
:102E3500F0903CA2E493FE740193FF4E602ED39074
:102E4500601AE09F906019E09E4021E4F0A3F0F540
:102E55001FF51EF51DF51CF533F532F531F530F589
:102E65001BF51AF519F518C21C022D97903CA4E420
:102E750093FE740193FFD390601AE09F906019E070
:0D2E85009E400AD21C22E4906019F0A3F0D8
:012E9200221D
:0510BF009064FEEFF05B
:1010C400A3E0FCA3E0FDA3E0FEA3E0F52B8E2A8DB4
:1010D400298C287884E2F50A08E2F50B758A0875EC
:1010E4008B28758C2475881D2088FDE4FFFEFDFC8B
:1010F400AB27AA26A925A824D31203E94006AC24C9
:10110400A8048013AF27AE26AD25AC241203DBABB5
:1011140007AA06A905A80490601FE0FEA3E0FFE467
:10112400FCFDC31203E95041E4FFFEFDFCAB27AA1A
:1011340026A925A8241203E94006AF27AE26800B72
:10114400AF27AE26AD25AC241203DB90601FEEF072
:10115400A3EFF09064FEE025E0242FF582E43465EB
:10116400F583E0A3E090601EF0903C9FE493FE744E
:101174000193FFD3906020E09F90601FE09E501B7E
:101184009064FEE025E0242FF582E43465F583E0E5
:10119400A3E090601EF090601B8079E4FFFEFDFCEC
:1011A400AB27AA26A925A824D31203E940349064C6
:1011B400FEE0FF25E0242FF582E43465F583E0FCAE
:1011C400A3E0D39400EC9400404DEF25E0242FF5E8
:1011D40082E43465F58374FFF5F012026A90601CB2
:1011E40080329064FEE0FF25E0242FF582E434652C
:1011F400F583E0FCA3E0C3947FEC94005019EF2541
:10120400E0242FF582E43465F583E475F0011202DD
:101214006A90601D7401F090601CE064017011A379
:10122400E06401700B90601CF0A3F090601B04F06C
:1012340090601BE06401703590601EE0FF9064FED6
:10124400E025E0242FF582E43465F583E4F0A3EF90
:10125400F074FF90601FF0A3F090601E747FF0E4C0
:0F12640090601CF0A3F090601BF07F01227F00D0
:011273002258
:1031A800E49064FDF0903C991204427801120423E3
:1031B8009064FF12045EAF611210BFEF60220561D8
:1031C800E53730E4095337EF9064FD7401F0903C23
:1031D800AEE493FFE561C39F4006E4F56143371011
:1031E800C3903C9D7401939562E4939400400890C9
:1031F80064FDE064017005D21B023904E4FF122D5E
:0132080013B2
:0132090022A2
:102D1300EF70607F01FEFDFC74292561F582E434C8
:102D230065F583E0F9F81204238F178E168D158C41
:102D330014787EE254FCF2E24514F218E515F21819
:102D4300E516F218E517F2E56125E0242FF582E494
:102D53003465F583E0A3E0547FFF7878E254804F35
:102D6300F2787FE254FBF2E254FB4404F2E24401C2
:102D7300F2801CE56125E0242FF582E43465F583B8
:102D8300E0A3E0547FFF7878E254804FF2787FE24B
:042D93004402F222E2
:10288500E49064E4F0A3F09064E4E0FEA3E0FFC309
:102895009488EE94035031EF24A3FFEE34058F8224
:1028A500F583E493FF9064E5E02421FD9064E4E082
:1028B50034608D82F583EFF09064E5E004F070C735
:0828C5009064E4E004F080BF20
:1028CD009063A97401F0A37460F0A37421F0E4F592
:1028DD0061F537F536F535F534C21BC21CF51FF51C
:1028ED001EF51DF51CF533F532F531F530F51BF5FB
:1028FD001AF519F518903CA893FF903CACE493FEA3
:10290D00A807088002C333D8FCF563756420E4FF83
:03291D00022D1375
:102F85007884E2F50A08E2F50BAE0A7803CEC3139E
:102F9500CE13D8F97802C333CE33CED8F9FFE56125
:102FA50025E02400F582E43460F583EEF0A3EFF02C
:102FB500201B0F903CA1E4937005D21B023904023B
:102FC50031A80561903CAEE493FFE561C39F401FC6
:102FD500787FE254FBF2E254FB4404F2E24401F24E
:102FE500E4F561E53720E2030229BA433701227F80
:052FF50001122D132262
:053E74000562022E159D
:103C5A00E53730E01A9063A9A3E0FAA3E0F9120568
:103C6A0026120F06E4F5617F01122D135337FE2247
:10293A00023146E493A3F8E493A34003F68001F23C
:10294A0008DFF48029E493A3F85407240CC8C3339E
:10295A00C4540F4420C8834004F456800146F6DF6D
:10296A00E4800B01020408102040809025E7E47EF1
:10297A00019360BCA3FF543F30E509541FFEE49362
:10298A00A360010ECF54C025E060A840B8E493A329
:10299A00FAE493A3F8E493A3C8C582C8CAC583CA54
:1029AA00F0A3C8C582C8CAC583CADFE9DEE780BE0C
:01269D00003C
:10006000E709F608DFFA8046E709F208DFFA803E82
:1000700088828C83E709F0A3DFFA8032E309F6086F
:10008000DFFA8078E309F208DFFA807088828C83D7
:10009000E309F0A3DFFA806489828A83E0A3F6088B
:1000A000DFFA805889828A83E0A3F208DFFA804C65
:1000B00080D280FA80C680D4806980F2803380103C
:1000C00080A680EA809A80A880DA80E280CA8033A5
:1000D00089828A83ECFAE493A3C8C582C8CCC5831D
:1000E000CCF0A3C8C582C8CCC583CCDFE9DEE780ED
:1000F0000D89828A83E493A3F608DFF9ECFAA9F06C
:10010000EDFB2289828A83ECFAE0A3C8C582C8CCC1
:10011000C583CCF0A3C8C582C8CCC583CCDFEADEDA
:10012000E880DB89828A83E493A3F208DFF980CC3C
:1001300088F0EF60010E4E60C388F0ED2402B40435
:100140000050B9F582EB2402B4040050AF232345DC
:0601500082239000B07351
:10015600BB010689828A83E0225002E722BBFE02A7
:09016600E32289828A83E49322DA
:10016F00BB010CE58229F582E5833AF583E0225045
:10017F0006E92582F8E622BBFE06E92582F8E2228F
:0D018F00E58229F582E5833AF583E49322A9
:10019C00BB010FF8E58229F582E5833AF583E02867
:1001AC00F0225009C58229F8E58226F622BBFE0909
:1001BC00C58229F8E22582F222F8EA2583F583E943
:0301CC0093282253
:1001CF00BB010689828A83F0225002F722BBFE010F
:0201DF00F32209
:1001E100F8BB010DE58229F582E5833AF583E8F054
:1001F100225006E92582C8F622BBFE05E92582C800
:02020100F222E7
:10020300EF8DF0A4A8F0CF8CF0A428CE8DF0A42E0F
:02021300FE22C9
:10021500BC000BBE0029EF8DF084FFADF022E4CCCD
:10022500F875F008EF2FFFEE33FEEC33FCEE9DEC96
:10023500984005FCEE9DFE0FD5F0E9E4CEFD22EDDC
:10024500F8F5F0EE8420D21CFEADF075F008EF2F26
:10025500FFED33FD4007985006D5F0F222C398FD17
:050265000FD5F0EA22B4
:10026A00C5F0F8A3E028F0C5F0F8E582158270021F
:06027A001583E038F022BC
:10028000A3F8E0C5F025F0F0E58215827002158331
:06029000E0C838F0E8228E
:0D029600EF2BFFEE3AFEED39FDEC38FC22B7
:0E02A300C3EF9BFFEE9AFEED99FDEC98FC2256
:1002B100E88FF0A4CC8BF0A42CFCE98EF0A42CFCEC
:1002C1008AF0EDA42CFCEA8EF0A4CDA8F08BF0A46A
:1002D1002DCC3825F0FDE98FF0A42CCD35F0FCEBC9
:1002E1008EF0A4FEA9F0EB8FF0A4CFC5F02ECD398E
:0F02F100FEE43CFCEAA42DCE35F0FDE43CFC22FB
:1003000075F008758200EF2FFFEE33FECD33CDCCB4
:1003100033CCC58233C5829BED9AEC99E582984037
:100320000CF582EE9BFEED9AFDEC99FC0FD5F0D614
:10033000E4CEFBE4CDFAE4CCF9A88222B800C1B93E
:100340000059BA002DEC8BF084CFCECDFCE5F0CB7C
:10035000F97818EF2FFFEE33FEED33FDEC33FCEBB5
:1003600033FB10D703994004EB99FB0FD8E5E4F970
:10037000FA227818EF2FFFEE33FEED33FDEC33FC5D
:10038000C933C910D7059BE99A4007EC9BFCE99A51
:10039000F90FD8E0E4C9FAE4CCFB2275F010EF2F96
:1003A000FFEE33FEED33FDCC33CCC833C810D70796
:1003B0009BEC9AE899400AED9BFDEC9AFCE899F8D1
:0E03C0000FD5F0DAE4CDFBE4CCFAE4C8F92264
:0D03CE00CFF4CFCEF4CECDF4CDCCF4CC22C4
:0E03DB00C3E49FFFE49EFEE49DFDE49CFC2233
:1003E900EB9FF5F0EA9E42F0E99D42F0EC6480C88B
:0603F90064809845F0222B
:1003FF00EB9FF5F0EA9E42F0E99D42F0E89C45F054
:01040F0022CA
:10041000E8600FECC313FCED13FDEE13FEEF13FFCA
:03042000D8F122EE
:10042300E8600FEFC333FFEE33FEED33FDEC33FC37
:03043300D8F122DB
:0C043600E0FCA3E0FDA3E0FEA3E0FF2239
:10044200E493FC740193FD740293FE740393FF2200
:0C045200E0F8A3E0F9A3E0FAA3E0FB222D
:0C045E00ECF0A3EDF0A3EEF0A3EFF02211
:10046A00A8828583F0D083D082120481120481127B
:10047A000481120481E473E493A3C583C5F0C583A0
:10048A00C8C582C8F0A3C583C5F0C583C8C582C8DC
:01049A00223F
:0C049B00A42582F582E5F03583F583226C
:0904A700E0FBA3E0FAA3E0F92256
:1004B000F8E0FBA3A3E0F925F0F0E58215827002D5
:0704C0001583E0FA38F02279
:0904C700EBF0A3EAF0A3E9F02236
:1004D000BB010DE58229F582E5833AF5830204A785
:1004E0005007E92582F8020585BBFE07E92582F859
:1004F00002058EE58229F582E5833AF583020597A8
:10050000D083D082F8E4937012740193700DA3A38A
:1005100093F8740193F5828883E47374029368609E
:06052000EFA3A3A380DF9E
:060526008A838982E47360
:10052C00EC8EF0A4CCC5F0CCCDF8EFA4CEC5F02D5C
:10053C00FDE43CFCE8A42EC8C5F03DFDE43CFCEF1A
:0D054C00A4FFE5F028FEE43DFDE43CFC22A8
:10055900EF4E6012EF60010EEDBB010B89828A83B9
:10056900F0A3DFFCDEFA2289F05007F709DFFCA9C6
:0C057900F022BBFEFCF309DFFCA9F0221D
:09058500E6FB08E6FA08E6F9229B
:09058E00E2FB08E2FA08E2F9229E
:0C059700E493FB740193FA740293F922C0
:00000001FF
