:030000000228A92A
:1028A900787FE4F6D8FD9060007F007E07E4F0A30E
:0A28B900DFFCDEFA7581660228FEDE
:0C000300000000000000000000000000F1
:0B3A9C00EF1FAC0670011E4C70F622FC
:1038FF00AB07AA06EB1BAE0270011A4E600C7FAA33
:0B390F007E05123A9C75D9AA80EA22BE
:10217500907120E04480F07F057E00123A9CE4FFD8
:10218500FE1238FF75A75575AC5C9071327450F02E
:102195009071307403F0907136742FF090715C7407
:1021A50003F090715BE054FCF07F18EF2466FDE4CA
:1021B50034718D82F583E4F00FEFB433EE90401166
:1021C500E4935407FF90711CE054F84FF0904017CA
:1021D500E493547FFF90711DE054804FF0904010C0
:1021E500E493FF5401C43333335480FE907123E0EC
:1021F500547F4EF0EFC313543F4440FFA3E0548097
:102205004FF0904012E493FF540FFE907146E05456
:10221500F04EF0EFC4540FFF90714FE054F04FF0C3
:10222500904013E493543FFF907140E054C04FF049
:10223500904014E493907126F0904015E4939071CA
:0B22450028F0904016E49390712AF0FE
:01225000226B
:1038C400000009C4006400C80101F4004B000A00B0
:0E38D40000010F0405020009000A000A000AA4
:10398300E2FE74AB2FF582E43464F583E02224FC79
:0839930025E0FDF87403082291
:101ABE00E4FF123985C394085058123985C3940433
:101ACE00502878C2C0001239831239938002C33372
:101ADE00D8FCF45ED000F278C2C0001239831239FD
:101AEE00938002C333D8FC021BEC78C3C0001239BA
:101AFE00831239918002C333D8FCF45ED000F278A1
:101B0E00C3C0001239831239918002C333D8FC024C
:101B1E001BEC123985C394084068123985C39410A2
:101B2E005060123985C3940C502C78D2C0001239F3
:101B3E008324F81239938002C333D8FCF45ED000AC
:101B4E00F278D2C00012398324F81239938002C37E
:101B5E0033D8FC021BEC78D3C00012398324F41264
:101B6E0039938002C333D8FCF45ED000F278D3C030
:101B7E000012398324F41239938002C333D8FC0245
:101B8E001BEC123985C39414502B78E2C000123925
:101B9E008324F01239938002C333D8FCF45ED00054
:101BAE00F278E2C00012398324F01239938002C316
:101BBE0033D8FC802978E3C00012398324EC123923
:101BCE00938002C333D8FCF45ED000F278E3C000F9
:101BDE0012398324EC1239938002C333D8FC4ED0D1
:0B1BEE0000F20FEF64026003021AC057
:011BF90022C9
:03005D000233EF7C
:1033EF00C0E0C0F0C083C082C0D075D000C000C0A4
:1033FF0001C002C003C004C005C006C0077881E247
:10340F0030E607E24440F2122D94D007D006D005E3
:10341F00D004D003D002D001D000D0D0D082D0833E
:05342F00D0F0D0E032F6
:10322E00D2AF43AB0843B6C0907132E04440F04396
:10323E00AB087877743FF208744BF2787A7430F2F8
:10324E00788914F27871744FF2187427F2787274C8
:10325E00A8F2087410F208E4F208F208F2787E740C
:0F326E00D0F2087404F208741EF2087402F222FF
:1029D600E4FBEB25E025E024DAF582E43438F583E0
:1029E600740193FF74AB2BF582E43464F583EFF046
:1029F600EB25E025E024DCF582E43438F583E49326
:102A0600FE740193FFEB25E024ADF582E43464F512
:102A160083EEF0A3EFF0EB25E024B1F582E4346415
:102A2600F583E4F0A37441F0E47F01FEFDFC74AB92
:102A36002B123988F9F812040DE53F4FFFE53E4E9B
:102A4600FEE53D4DFDE53C4C8F3F8E3E8D3DF53C14
:102A56000BEB640260030229D8121ABE12280E027A
:022A6600322E0E
:073AAF0078C3E254CFF222BC
:073AB60078C3E2543FF22245
:073ABD0078D2E254FCF22272
:073AC40078D2E2543FF22228
:073ACB0078D3E254FCF22263
:0D3A2A0078E2E254F3F278E0E24402F22286
:0D3A370078E2E254CFF278E0E24404F2229B
:0D3A440078E3E254F3F278E0E24420F2224D
:073AD20078E3E2543FF22209
:073AD90078F2E254FCF22236
:070B1E0044600C0000000020
:083AA7007890E2541FF2E222C4
:10362900E5B154F342B153A8DFD2AF7892E4F2087E
:10363900F27890E254E3F2E2441CF2E254FCF2E242
:103649004401F208E2547FF2E24420F278957401D1
:0C365900F2187476F2123AA744A0F22294
:0C3A7800123AA744C0F243A820D2AF22AB
:1039FC00123AA744A0F27892E4F208F253A8DF221C
:03001E00022E7738
:102E7700C0E0C0F0C083C082C0D075D000C000C021
:102E870001C002C003C004C005C006C0077891E2B4
:102E970030E72FE24480F274FFFFFEFDFC90600CE8
:102EA70012043CC31203E9501990600C120420EF7E
:102EB7002401FFE43EFEE43DFDE43CFC90600C127F
:102EC7000448D007D006D005D004D003D002D001E3
:0D2ED700D000D0D0D082D083D0F0D0E03237
:0E0B250044652400000000446520000000002C
:10312800C374FF9BFF74FF9AFE74FF99FD74FF98A8
:10313800FC12043CC30203E9E0FEA3E0FFE4FCFD4B
:103148007BFF7AFFF9F8D30203D3120420EF24019E
:10315800FFE43EFEE43DFDE43CFC221204209064C2
:10316800C102043CEE8FF012026AC322E475F0013A
:0931780002026A9064C102042005
:10357200E5B154CF42B153A8BFD2AF75D102789C06
:10358200E254E3F2E2441CF2E254FCF2E24401F2BD
:1035920008E2547FF2E24420F278A17401F2187436
:0D35A20076F2789CE2541FF2E244A0F2227F
:103A0C00789CE2541FF2E244C0F243A840D2AF22A9
:101F72009065241204209064BD1204489064C1123A
:101F82000454000000009065241204540000000074
:101F920090652012043C9064BD12042012028D90C0
:101FA20064C112044890652012045400000000121B
:101FB20031669064E5123128500F9064E512316366
:101FC2001202809064E51204481231669064301265
:101FD2003128500F906430123163120280906430C5
:101FE200120448906517E0B4011F12317B90651806
:101FF20012316C906519E094C4906518E094094020
:1020020008E4F0A3F0906517F090651BE0B4011F9F
:1020120012317B90651E12316C90651FE0946490C2
:10202200651EE094004008E4F0A3F090651BF09078
:10203200651AE0B4011F12317B90651C12316C905D
:10204200651DE0946490651CE094004008E4F0A3F0
:10205200F090651AF09064E912314040069064E90C
:1020620012317474FFFFFEFDFC906513123139507A
:0D2072000C90651312315290651312044852
:01207F00223E
:030021000224AF07
:1024AF00C0E0C0F0C083C082C0D075D000C000C0F3
:1024BF0001C002C003C004C005C006C007789DE27A
:1024CF0030E77AE24480F274FFFFFEFDFC90652452
:1024DF00123139500C906524123152906524120438
:1024EF00489063ADE0C394FF5003E004F09064871D
:1024FF00E0C394FF5003E004F0906531E0FEA3E0E9
:10250F00FF12314540069065311231743018259015
:10251F0064341231404026906434123174C3906495
:10252F0035E09440906434E0949C4011E4F0A3F0C3
:10253F00D2178009906434E4F0A3F0C217D007D00B
:10254F0006D005D004D003D002D001D000D0D0D017
:08255F0082D083D0F0D0E032FD
:0D0B3300C115C11641652C0042652D000062
:10391A00120420EF2401FFE43EFEE43DFDE43CFCFA
:0B392A0022E4FDFC12043CC30203E990
:10347600E5B254FC42B253A9FED2AF75D1049071A5
:1034860000E054E3F0E0F0E054FCF0E04401F0909A
:1034960071057409F0907104745FF0907100E05446
:1034A6001FF0E044A0F0A3E0547FF0E04420F022B7
:1039C900907100E0541FF0E044C0F043A901D2AF68
:0139D90022CB
:0300240002208037
:10208000C0E0C0F0C083C082C0D075D000C000C026
:0D20900001C002C003C004C005C006C007A7
:0E209D00907101E020E70302215AE04480F038
:1020AB0090652CE004F0E0C394144029E4F09064B4
:1020BB00FF12391A9064FF1204487F587E02906415
:1020CB00FF12392B400F201D0C9064FF120454009B
:0520DB00000000D21D11
:1020E00030821620150F9064FB12391A9064FB128F
:0B20F00004481234F5D2158002C2151E
:1020FB0090652DE475F00112026AC390652EE09491
:10210B001490652DE09400402BE4F0A3F09064EF65
:10211B0012391A9064EF1204487FE87E039064EF43
:10212B0012392B400F201C0C9064EF12045400004A
:04213B000000D21CB2
:10213F0030951620160F9064EB12391A9064EB123B
:0B214F000448123665D2168002C2164A
:10215A00D007D006D005D004D003D002D001D000D9
:0B216A00D0D0D082D083D0F0D0E03283
:100B4000602D63F1000000000000000000000000C4
:100B50000000000000000000000000000000000095
:100B60000000000000000000000000000000000085
:100B70000043641E0000004364210000004364251C
:100B8000000000C11B416428004164290041642425
:080B90000044642A000000008B
:1031810090642A12042074212FF582E43464F583BB
:10319100229064BDE0FF241EF582E43464F58322AD
:1031A1007D00EF75F00FA424F1F9746335F0FA7B1B
:1031B1000122E5822EF582E43583F58322E4F09045
:1031C1006424E014F090000F22906429E4F09064EC
:0931D10028F02290642A02043C5B
:0E004E00906533EFF0123A51906533E0FF22D7
:1037C30078C2E2543FF2E254FCF2E24440F29071D8
:1037D30081E04404F0907175E04401F043AA20D2E3
:0B37E300AF75D60175D59F75D211227D
:03004B00021BFA9B
:101BFA00C0E0C0F0C083C082C0D075D000C000C0B1
:0D1C0A0001C002C003C004C005C006C00731
:101C17009064D4E4F0E5D420E503021D17E5D7F07E
:101C2700201B04E0B4A509906424E0C39403400397
:101C3700021D0A9064D4E0B4A515D21B1231CA1252
:101C470039FC90600C12045400000000123A78909E
:101C57006429E0B401089064D4E0906428F012315C
:101C670081E06003021D179064D4E0FF1231D49025
:101C770063F175F00FEB120485EA75F00FA4258365
:101C8700F583C083C082906429E0FE04F0D082D03F
:101C9700831231B3EFF090600C120454000000007F
:101CA700906428E0606AE0FFA3E06F7063906428A7
:101CB700E0FB90642A120420741E2F123199EBF076
:101CC700C21B1231CA1231817401F0906424E004FE
:101CD700F090642A120420EF2401FFE43EFEE43D65
:101CE700FDE43CFC90642A120448E47F03FEFDFCFB
:101CF7001231D4C31203E9400A90642A1204540033
:101D07000000001239FC90600C120454000000001F
:101D1700D007D006D005D004D003D002D001D00020
:0B1D2700D0D0D082D083D0F0D0E032CA
:0D3A5100E5D430E4FB8FD7E5D430E4FB2250
:101D3200E49064BDF0A3F0C2207F0AFEFDFC906037
:101D42000C12043CD31203E940191239FC90600CC6
:101D520012045400000000E4906429F0906428F01A
:101D6200C21B22E49064BDF09064BDE0FFC3940303
:101D72004003021E5574212F12318AE07003021EA5
:101D82004C9064BDE075F00FA424F2F582E4346354
:101D9200F583E0FE741E2F123199E06E601A906492
:101DA200BDE0242112318A1231BEC083C0821231B9
:081DB200A1D007D00602054391
:101DBA00E49064BFF09064BEF0A3F0123192E01494
:101DCA00FE9064BFE0FDC39E5022EF75F00FA4247D
:101DDA00F1F582E43463F583E5822D1231B6E0FF32
:101DEA009064BEE02FF0A3E004F080CF9064BEE0E0
:101DFA00F0123192E0FEEF75F00FA424F0F582E4C0
:101E0A003463F5831231B3E0FF9064BEE06F600281
:021E1A00D220D4
:101E1C0030201DC2209064BDE0FF242112318A12B3
:101E2C0031BEC083C0821231A1D007D00612054347
:101E3C009064BDE02425F582E43464F5837401F0EC
:091E4C009064BDE004F0021D6A7F
:011E5500226A
:050B980042652F000082
:1039350012028D9064C51204489064C5020420905B
:0B3945007123E05498F0E0441EF022D3
:1038190078C3E24403F2E2440CF218E2440CF27871
:103829006AE24478F27591FF123944907122740763
:08383900F0439E704399402208
:103434005399E0EF24FE601714601C240270269058
:103444007123E054D8F0E0445AF0439904801612F2
:103454003944439905800E907123E054D8F0E04438
:1034640059F04399017869E24448F27F017E0002F1
:0234740038FF1F
:100027007869E24401F2786BE230E1FA7402F2AFE8
:1000370093EF75F010A4FFAEF0E594C4540FFDEFF5
:030047004DFF2248
:10225100E49064C3F0A3F0A312045400000000E46E
:102261009064C9F0A3F074FFA3F0A3F0E4A3F0F02D
:102271001200279064C3EEF0A3EFF09064CDE0C3A9
:10228100940240549064C9E0FEA3E0FF9064C3E06F
:10229100FCA3E0FDD39FEC9E40089064C9ECF0A341
:1022A100EDF09064CBE0FEA3E0FFC3ED9FEC9E5008
:1022B1000F9064C3E0FFA3E09064CBCFF0A3EFF0F5
:1022C1009064C512043C9064C3E0FEA3E0FFE4FC0B
:1022D100FD120280A31204489064CDE004F0E0C333
:1022E1009414408C12393EC006C0079064C9E0FEC8
:1022F100A3E0FBAA06E4F9F8D007D006123935C0ED
:1023010006C0079064CBE0FEA3E0FBAA06E4F8D088
:1023110007D00612393578041203FA9064C3EEF03F
:03232100A3EFF037
:012324002296
:1039DA0075AF3F8FAF75AEB975A402E5A530E1FBAF
:0139EA0022BA
:10369E009064BE1204B175AF3F8FAF9064C1E0C3AA
:1036AE0094014022E5A530E0FB9064BEE475F00184
:1036BE0012049A120156F5A675AEB975A40190645E
:0736CE00C1E014F080D522D9
:1036D5009064BE1204B19064C1E06027AE070FEE9E
:1036E5002400FDE4343F8D82F583E493FE9064BEAF
:1036F500E475F00112049AEE1201CF9064C1E01452
:04370500F080D3225B
:10373B00A3F078E3E254FCF2E24401F2907192E4DC
:10374B00F0229064CAE004F0E0C3940822C2A4C241
:0E375B0096D2977F04FE22FFE0FEA807082208
:10301400E4FF78D3E2543FF2E24440F290718DE44D
:10302400F0E254CFF2E24410F290718CE4F01237E3
:103034003DC297C2961231DAEF7030FD7F8C1226B2
:103044001B7D017F8812261B7D017F8612261B7D36
:10305400017F8A12261BE4FD7F8212261BE4FD7F7A
:0B3064008412261BE4FD7F8012261B57
:01306F00223E
:10395000E4FDEE25E0FEEF30E004EE4401FEEFC3AF
:0939600013FF0DEDB408EBAF06F6
:01396900223B
:022E0900AC0714
:102E0B00E49064BEF0AF05123950EC64816019ECAC
:102E1B0064836014EC6485600FEC6487600AEC6477
:082E2B00896005EC648D704321
:102E3300E49064BFF0A3F0EC64816004ECB4830617
:102E4300EF547FFF8017EC64856004ECB48706EFD2
:102E5300543FFF8008ECB48904EF541FFFEFC454C0
:102E63000FFE9064BFF0EF540FFFA3F0EE75F00A6E
:032E7300A42FFF8A
:012E76002239
:052A68009064BEEFF0D8
:102A6D00E4A3F012373B123758123A9CE49064C03D
:102A7D00F0122ADC9064C0E09064BE1237628002CE
:102A8D00C313D8FC30E004D2A48002C2A47F047E1C
:102A9D0000123A9C122AE640D878E3E254FCF27810
:102AAD00E0E24410F2E49064C0F09064BFE025E0F1
:102ABD00F0122ADC30A4079064BFE04401F0122A22
:0E2ACD00E640E7C296C297C2A49064BFE0FF45
:102ADB0022C2967F047E00123A9C22D2967F047EFD
:0F2AEB0000123A9C9064C0E004F0E0C39408220B
:0539B3009064BDEFF07F
:1039B800E4FE122A68AE079064BDE0FFAD06022E51
:0139C80009F5
:082AFA009064C8EFF0A3EDF0B9
:102B0200E412373B123758123A9CE49064CAF0122E
:102B12002B809064CAE09064C81237628002C313AB
:102B2200D8FC30E004D2A48002C2A4122B6F123768
:102B32004D40DCE49064CAF0122B809064CAE0FF3E
:102B42009064C9E0FEA807088002C313D8FC30E0F5
:102B520004D2A48002C2A4122B6F12374D40D9C2F4
:0C2B6200967F047E00123A9CC297C2A429
:102B6E00227F047E00123A9CD2967F047E00123A97
:0C2B7E009C22C2967F047E00123A9C222A
:1031DA001233A9D390646CE0943390646BE0940842
:1031EA00503CC3A3E094D090646BE09407402F90C6
:1031FA00646DE0D3940C5026E0C394014020A3E010
:10320A00D3941F5019E0C394014013A3E0D3941838
:10321A00500CA3E0943C5006A3E0943C40037F008A
:04322A00227F0122DC
:05261B009064C4EFF023
:10262000A3EDF0EF6480601D9064C4E0FF648260FD
:1026300014EF6484600FEF6486600AEF64886005BD
:05264000EF648C706CDA
:10264500E49064C6F0A3F09064C5E0FFC3940A402B
:1026550007EF75F00A84A3F09064C5E075F00A846D
:10266500AFF09064C7EFF09064C6E0FEC454F04F3D
:102675009064C5F09064C4E0FF64806004EFB482A8
:10268500099064C5E0547FF080229064C4E0FF6443
:10269500846004EFB486099064C5E0543FF0800C73
:0C26A5009064C4E0B48805A3E0541FF06A
:1026B100E4FD7F8E122AFA9064C4E0FFA3E0FD12CC
:0926C1002AFA7D807F8E022AFABC
:1034B6009064BDA3E02430FD7F8C12261B9064BF70
:1034C600E0FD7F8812261B9064C0E0FD7F861226F1
:1034D6001B9064C1E0FD7F8412261B9064C2E0FD50
:0F34E6007F8212261B9064C3E0FD7F8002261BAD
:1033A9007F811239B3906471EFF07F831239B39042
:1033B9006470EFF07F851239B390646FEFF07F8707
:1033C9001239B390646EEFF07F891239B390646D4E
:1033D900EFF07F8D1239B3EF24D0FEE43407906407
:0633E9006BF0A3CEF02200
:040B9D004165280086
:103864009064BDF090652902049190000612016FE6
:10387400FE90000802016F9000091201E190000C13
:013884002221
:10151A00E49064BDF07FFFA374FFF0906529120484
:10152A00B190000112016FFE120156FDEEC39D50EB
:10153A00030216AC123868900001E41201E190002F
:10154A000E1204BA120510EFF4600890652874238D
:10155A00F08009906528E06003E014F01238689082
:10156A00000312016F6F601590000512016F600D84
:10157A00900004E41201E19000030216A89000050D
:10158A0012016FFE90000412016FC39E500B1238B5
:10159A0068900004740102019C12386890000212DB
:1015AA00016F6F6048EFF4701C12386EC39E400AD8
:1015BA007405123864900002806112386890000A3B
:1015CA00740102169F123868900008740112387E5E
:1015DA0012016F6F906529600C1204917401123820
:1015EA007BEF02169F120491900009803DEFF47080
:1015FA004112386890000912016FD3940050030217
:10160A0016A290000B12016FFE90000A12016FD30E
:10161A009E4011740112386490000C12016F90649C
:10162A00BEF0805412386890000A740112019C02BC
:10163A0016A2123868123875C394FF500890000831
:10164A00740112019C12386EB506089064BD7403C9
:10165A00F080201238689000071238716E70399045
:10166A0064BD740412386790000612016F90000876
:10167A001201E19064BEEFF0123868E412387B740C
:10168A00FF1201E19064BEE09000111201E1906442
:10169A00BDE09000121201E1123868900002EF12C8
:0216AA0001E15C
:0116AC00221B
:1035AF0078E2E2543FF2E24440F2907191E0F0127F
:1035BF00399B1236291237C31237EE123572123A6F
:1035CF005E123A6B1238191229D612301412347651
:0D35DF00123A0C1239C97F017E000238FF3C
:102F500012217575D95590715EE054FEF075D9BB9C
:102F60001235AFD2A37FE87E031238FFC2A375D912
:102F7000AA12388575D9AA7B017A6379AC12151A21
:102F80001223F57B017A64798612151A12277212C0
:102F900026CA12232512197B122B8A121E561225BD
:102FA00067121D3212182D120D69121F7275D9AADF
:022FB00080BCE3
:100BA1006027645F000000000000000000000000FA
:100BB1000000000000000000000000000000000034
:0B0BC100000000000000000000000029
:0C3A84007B017A64795F740CF0E4FF228F
:10399B007E007F277D007B017A64795F120543905F
:0839AB0064C1123A840236D512
:0E3A1C00E4FF1239DA9064C1123A8402369E39
:10353400FEE02FFFEC3EFEA3E02FFFEC3EFE22FA5E
:103544001204207E00EB2FFFEE3AFE3395E0FDFCE3
:10355400221203FA7E009064BDE022FC9064C20251
:0E35640004489064C20204209064BE02042059
:050FA6009064BDEFF0B6
:100FAB009064C2120454000000007FA5123A511243
:100FBB003566EF24A5FFE43EFEE43DFDE43C12352F
:100FCB005F9064BDE0FF64016032EF6402602DEF5F
:100FDB0064036028EF64046023EF6405601EEF6414
:100FEB00066019EF64096014EF640A600FEF641177
:100FFB00600AEF64126005EF641370207F05121115
:10100B0086121198C00012356C1235582405FDE478
:10101B0033CD2FFFEE3D12354E0211509064BDE0E3
:10102B00FF6407600AEF64086005EF641070337F9C
:10103B0006123A519064BDE0FF12116E121198C066
:10104B0000C002C00312356C78081235552406FD1A
:10105B00E433CD2FFBEE3DA3123543D003D0020278
:10106B0011509064BDE0FF640B600FEF640C600ADD
:10107B00EF64146005EF640D70467F0712118678DC
:10108B00101203FA12116E1211A2C000C002C0039B
:10109B0012356C78101235552407FDE433CD2FFB38
:1010AB00EE3DFAA312042078081203FA7E00EB2F10
:1010BB00FBEE3A9064BE123543D003D002021150BE
:1010CB009064BDE0640E60030211587F0B123A511D
:1010DB007F0E123A5190646BE0FF123A5190646BA1
:1010EB00E0A3E0FF123A5190646DE0FF123A519089
:1010FB00646EE0FF123A5190646FE0FF123A519028
:10110B006470E0FF123A51906471E0FF1211A2C0BB
:10111B0000C001C002C00390646BE02419FFE433EC
:10112B00FEE0A3E07C002FFFEC3E90646D123534A3
:10113B00A3E02FFFEC3EA31235343395E0FDFCD03A
:10114B0003D002D001D00012028012356012356636
:10115B00E4FEFD12355F123566123A517F017E00B7
:03116B000238FF48
:10116E00123A519064BE12042078081203FA123A11
:10117E00519064BE12042022123A519064BDE0FFD9
:10118E00123A519064BE12042022123A519064C257
:0E119E0012043C22123A519064C212043C2208
:050BCC0042653100004C
:1037EE00123A2A123A37123A44123AD2123AD912ED
:1037FE003ACB123AC4123ABD123AB6123AAF78E246
:0B380E00E254FCF278E0E24401F222F8
:1026CA00C3906532E094C8906531E09400500302EB
:1026DA002771E4F0A3F090648030A503F0800374BE
:1026EA0001F0D20430A207E4906481F0800690647D
:1026FA00817401F0D20530A107E4906482F080066B
:10270A009064827401F0D206208607E490647CF01B
:10271A00804020870890647C7401F08035209008FE
:10272A0090647C7402F0802A20930890647C74037D
:10273A00F0801F20940890647C7404F0801420B008
:10274A000890647C7405F0800920A70690647C7464
:10275A0006F0D20120A00790648474018004E490FA
:08276A006484F0A3F0D20A22FE
:100BD100C11C4464EB000000004464EF000000000D
:0E0BE1004464F3000000004464F700000000CC
:0C3A9000E4FDFC02043C12043C02028035
:0D3A5E0078D3E254F3F278D0E24420F22253
:103665009064F31204209064EF123A969064F3127A
:1036750004489064EF120454000000009064F712AF
:1036850004209064EB123A969064F7120448906413
:09369500EB1204540000000022B5
:102325009064BD120454000000009064C11204546E
:10233500000000007FBC7E029064F3123A90C31245
:1023450003E95006201C030223F47F6D7E0590648B
:10235500F7123A9012029BE47B04FAF9F81203266D
:102365009064C1120448301C0C9064BD12045400E2
:102375000000008027E47F24FEFDFC9064C1120468
:102385003C12029BE47B0AFAF9F81203269064F3E7
:1023950012043C1203269064BD1204489064E112B5
:1023A50004209064C1123A969064E1120448906446
:1023B500F7120454000000009064F3120454000066
:1023C5000000C21C9064BD1204209064761204487B
:1023D500E47FE77E03FDFC90647612043CD3120390
:0F23E500E9400A906476120454000003E7D2081E
:0123F40022C6
:100BEF004464FB000000004464FF00000000446503
:0E0BFF00030000000044650700000000C11D57
:063AE000E4FDFC02043CC1
:0D3A6B0078C2E254CFF278C0E24404F222A7
:1034F5009065031204209064FB12043C1202809034
:1035050065031204489064FB120454000000009007
:1035150065071204209064FF12043C120280906536
:0F352500071204489064FF1204540000000022B3
:102B8A009064BD120454000000007FF47E01906539
:102B9A0007123AE0C31203E95003301D6C301D0CD2
:102BAA009064BD12045400000000801C7F607EEA1D
:102BBA00906503123AE012029B90650712043C12D8
:102BCA0003269064BD120448906503120454000061
:102BDA00000090650712045400000000C21DE47F43
:102BEA00FF7EFFFDFC9064BD12043CC31203E94062
:102BFA000A9064BD1204540000FFFF9064BD1204E1
:092C0A0020906472120448D20704
:012C1300229E
:100C0D004464E5000000004464E10000000042641B
:100C1D00E900004464D5000000004464D9000000E0
:0A0C2D00004464DD00000000C11E59
:103769007FE87E03FDFC12043CC30203E912042036
:10377900EF2401FFE43EFEE43DFDE43CFC2212049B
:0E3789002012028DE47B64FAF9F8C30203E912
:10197B00E47F307E75FDFC9064E512376F40239059
:10198B0064E512045400000000E4FFFEFDFC9064CB
:10199B007612043CD31203E94008301E05123A1CA0
:1019AB00C21EE4FFFEFDFC90647612376F701A9036
:1019BB0064E51237694012301E0F123A1CC21E909A
:1019CB0064E512045400000000E49064E1123769EE
:1019DB0040737F187EC67D9A7C3B90645F12376F95
:1019EB00500C90645F12377690645F1204487F7FCF
:1019FB007E967D987C0090646312376F500C9064D8
:101A0B00631237769064631204487F7F7E967D98CD
:101A1B007C0090646712376F500C906467123776B6
:101A2B00906467120448D21E9064E1120420C3EF45
:101A3B0094E8FFEE9403FEED9400FDEC9400FC9013
:101A4B0064E11204489064D512043C90645F123731
:101A5B0087500E90645F1204209064D5120448D214
:101A6B000C9064D912043C906463123787500E902B
:101A7B0064631204209064D9120448D20D9064DD83
:101A8B0012043C906467123787500E9064671204FF
:101A9B00209064DD120448D20EC39064EAE094886F
:101AAB009064E9E09413400AE4F0A3F0D20CD20D59
:021ABB00D20E49
:011ABD002206
:100C3700C100C101C102C103C104C105C106C10789
:100C4700C108C109C10CC10DC10EC10FC110C1112D
:100C5700C112C113C1144165170042651800004154
:100C6700651A0041651B0042651C000042651E00B5
:010C7700007C
:1033610090647CE0FFE4FCFDFE9064BE02044890A2
:103371006463E47B64FAF9F8120420020326906482
:10338100BDE075F00FA42290647AE0FEA3E0FFE4B3
:10339100FCFD22E47BE87A03F9F890645F229064F3
:0833A100BDE0FF75F00FA4224E
:10182D00E49064BDF0F09064BDE0FFC39403400309
:10183D0002197A74252FF582E43464F583E0700380
:10184D0002197112337F24F3F582E43463F583E0DA
:10185D001204EA187C8018818B18868C18908E18CB
:10186D008B94191798191B99191F9A00001921D2D9
:10187D0000021921D20C021921D20D021921D20E0A
:10188D00021921D20FEF75F00FA424F5F582E4347F
:10189D0063F583E0FDEF75F00FA424F4F582E434D5
:1018AD0063F583E02DFEE43390646BF0A3CEF0126C
:1018BD00339F24F6F582E43463F583E090646DF094
:1018CD00EF75F00FA424F7F582E43463F583E0900F
:1018DD00646EF012339F24F8F582E43463F583E0EF
:1018ED0090646FF0EF75F00FA424F9F582E4346382
:1018FD00F583E0906470F012337F24FAF582E434BE
:10190D0063F583E0906471F0800AD2128006D213E1
:10191D008002D214906424E0D394004003E014F0CC
:10192D009064BDE0FF2425F582E43464F583E4F092
:10193D00741E2FF582E43464F583E4F074212FF5E1
:10194D0082E43464F583E4F0FE7F0FC006C007FD2A
:10195D0012337F24F1F9746335F0FA7B01D007D08F
:0D196D00061205439064BDE004F00218333B
:01197A00224A
:100D6900200003020E31C200906517E06003020EF5
:100D79003104F01233617F01120FA690647D1233A2
:100D8900647F02120FA690647E1233647F03120FF0
:100D9900A69064801233647F04120FA690648112B6
:100DA90033647F05120FA69064821233647F0612A2
:100DB9000FA690647212042012336A7F07120FA6DD
:100DC90090647612042012336A7F08120FA6906489
:100DD9007F1233647F09120FA612339412337912EA
:100DE900336A7F0B120FA612337012336A7F0C120B
:100DF9000FA61233A99064BE120454000000007FAC
:100E09000E120FA612338812336A7F10120FA690A2
:100E190064831233647F11120FA6906467123373CF
:100E290012336A7F14120FA630010AC2011233610C
:100E39007F01120FA630020DC20290647D12336445
:100E49007F02120FA630040DC2049064801233642D
:100E59007F04120FA630050DC20590648112336418
:100E69007F05120FA630060DC20690648212336404
:100E79007F06120FA6300710C20790647212042071
:100E890012336A7F07120FA6300810C208906476E1
:100E990012042012336A7F08120FA630090DC20905
:100EA90090647F1233647F09120FA6300A18C20AB0
:100EB9009064841233647F12120FA69064851233F2
:100EC900647F13120FA6300C10C20C123394123324
:100ED9007912336A7F0B120FA6300D0DC20D123332
:100EE9007012336A7F0C120FA6300E16C20EE47B05
:100EF90064FAF9F890646712337912336A7F14122D
:100F09000FA6300F23C20F90651AE0701B78BD7CC5
:100F1900647D017B017A64796BFE7F0712013012CF
:100F290034B690651A7401F030100DC2101233886E
:100F390012336A7F10120FA630110DC2119064830B
:100F49001233647F11120FA6301219C21290645F16
:100F5900120454000000009064E1120454000000DF
:100F690000123A1C301319C213906463120454001E
:100F79000000009064E112045400000000123A1CC1
:100F8900301419C2149064671204540000000090D0
:0D0F990064E112045400000000123A1C2212
:100C78005463BF00010153000204730003075300CB
:100C880004091D00050CED5E63D301010203040590
:100C980002060708090A030B0C0D0E0F04101112A7
:100CA80013140515161718195363AC0A0000000031
:0E0CB800033241000000000001FF3709000078
:0F000F00EC75F006A424D3F582E43463F5832264
:1032CC00E4FD9064BFF0A374FFF0ED25E025E0244D
:1032DC00C1F582E43463F583E0FAA3E0D39FEA9E60
:1032EC00401CED25E025E024BFF582E43463F58332
:1032FC00E0FFA3E09064BFCFF0A3EFF080050DEDED
:0B330C00B405C79064BFE0FEA3E0FF23
:013317002293
:10384100E4FEFC12000FE0B5071112000FE5822D16
:10385100F582E43583F583E0FE80050CECB405E3E5
:02386100AF06B0
:013863002242
:10370900E49064BDF0A3F07F0212343412002790D4
:1037190064BDEEF0A3EFF09064BDE0FEA3E0FF12FC
:1037290032CC9064BDEEF0A3EFF09064BDE0A3E06D
:01373900FF90
:01373A00226C
:1023F5009063BDE070030224AEE0FFA3E0FD123858
:1024050041E49063BDF0A3F0EF1204EA2433012404
:102415003F04244B0624570924630B246F0E247BA9
:1024250010248713249315249F18000024AE90646C
:10243500BE120454000000CF806A9064BE1204549A
:10244500000100CF805E9064BE120454000000D2EB
:1024550080529064BE120454000100D280469064FC
:10246500BE120454000000D1803A9064BE12045498
:10247500000100D1802E9064BE1204540000007F3C
:1024850080229064BE1204540001007F801690647F
:10249500BE120454000000D0800A9064BE12045499
:0924A500000100D07F0D120FA60A
:0124AE00220B
:100CC60044643000000000C117C1184264340000BB
:100CD60060286436000000000000000000000000EC
:100CE60000000000000000000000000000000000FE
:100CF60000000000000000000000000041645E00EB
:080D060041642F0041642E003E
:1030CC00FEE434FFFDE434FFFCE4FAF9F812029B51
:1030DC00E4229064C3E0FEA3E0FF227A01F9F81227
:1030EC000326AD07C322FEE434FFFDE434FFFCE409
:1030FC002225E02436F582E43464F583229064BD05
:10310C00E090647FF022FDFC90643012043CC3021A
:0C311C0003E99064C3A3EF2467FFEE22D8
:042EE400AB07AA0688
:102EE800E49064C3F0A312045400000000AE02AFE3
:102EF8000390645EE0FD04F0ED1230FDEEF0A3EF08
:102F0800F090645EE0C394144002E4F0E49064C37B
:102F1800F09064C412043C9064C3E01230FDE0FEFB
:102F2800A3E0FFE4FCFD1202809064C41204489000
:102F380064C3E004F0E0B414D8E47B14FAF9F89020
:082F480064C4120420020326F8
:1039EB00E4FDED1230FDEEF0A3EFF00DEDB414F2AB
:0139FB0022A9
:0816AD009064C3EEF0A3EFF01E
:1016B500E4FDC3EF940BEE940E500A1230DE94F461
:1016C500EE940150057DFF02182AD3EF9400EE94A5
:1016D5000E4005E4FD02182AD3EF9466EE940650F9
:1016E500057D6402182AD3EF9400EE940E5024EF82
:1016F5009433EE940D401C1230DEEF24CDFFEE3412
:10170500F27B121230CC7BCDFA1230E974129DFDBA
:1017150002182A1230DED39433EE940D502FEF9435
:10172500B8EE940C40279064C3A3EF2448FFEE3431
:10173500F37B221230CC7B7BFA1230E974229DFDBB
:10174500C39412400302182A7D1202182A1230DEB1
:10175500D394B8EE940C5031EF9433EE940B4029AA
:101765009064C3A3EF24CDFFEE34F41230F27B3343
:101775001230D67B851230E774339DFDC394224029
:101785000302182A7D2202182A1230DED39433EE82
:10179500940B5028EF9499EE9409402012311E3491
:1017A500F61230F27B441230D67B9A1230E774443D
:1017B5009DFDC39433506E7D3302182A1230DED35B
:1017C5009499EE94095028EF9499EE9407402012CD
:1017D500311E34F81230F27B541230D6FB7A0212E5
:1017E50030E974549DFDC39444503A7D44803612CB
:1017F50030DED39499EE9407502BEF9466EE940661
:1018050040239064C3A3EF249AFFEE34F91230F21B
:101815007B641230D67B331230E774649DFDC3942C
:071825005450027D54AF0591
:01182C002299
:10307000E4FEEF70028052EFC39401400AEFD39454
:103080001150047E018042EFC39412400AEFD394A2
:103090002150047E028032EFC39422400AEFD39481
:1030A0003250047E038022EFC39433400AEFD3945E
:1030B0004350047E048012EFC39444400AEFD3943B
:0B30C0005350047E0580027E06AF0620
:0130CB0022E2
:091E5600E49064BDF0A3F0A3F0D8
:101E5F0090642EE070427FF47E011231124039906F
:101E6F00643012045400000000121F551239EB9019
:101E7F00652FE0FEA3E0FF9064BEEEF0A3EFF0123B
:101E8F001F6690642FEFF0123109E49064BEF0A347
:081E9F00F0D20990642E04F05A
:101EA700121F55122EE49064BEEEF0A3EFF0E47F0C
:0B1EB700E87E031231125003021F549A
:101EC200E49064C0F090643012045400000000906A
:101ED20064BEE0FEA3E0FF121F669064C0EFF090C4
:101EE200642FE0FE6F6004D2188007C21812310915
:0F1EF200D20930175DC2179064C0E0FF6E604EDA
:101F010090642FE0FED39F400BEED394004011E08C
:101F110014F0800CEEC39406500690642FE004F098
:0F1F2100E49064C1F09064C1E0FFC394FF501FCF
:101F3000123070A3EFF090642FE0B5070A9064C1EF
:071F4000E09064BDF0800891
:081F47009064C1E004F080D7B2
:051F4F00123109D20966
:101F5400227F0312343412225190652FEEF0A3EF46
:0E1F6400F0221216AD9064BDEFF01230702224
:100D0E004465130000000044650B000000004465BC
:070D1E000F00000000C19F5F
:10327D0090650F12042090650B12043C12032690EA
:10328D00650F12044890650F0204209064BFE09012
:10329D00647DF09064BDE0FFA3E090647ACFF0A36D
:1032AD00EFF0D210D202229064BDEEF0A3EFF090B9
:0F32BD0064BDA3E0FF1238E2A3EFF090650F228B
:10396A007C0A7D50120516E47B0AFAF9F81203263E
:09397A00E4FB7A10F9F8020326BF
:1038E200EFC3949640047E6480107E007C007D6469
:0C38F2001202037D96120215AE07AF060D
:0138FE0022A7
:10256700E49064BDF0A3F0A3F07F011234349065CA
:102577000F12043CC000C001C002C003122251E484
:10258700FCFDD003D002D001D00012028090650F6D
:1025970012044890650B120420EF2401FFE43EFE6D
:1025A700E43DFDE43CFC90650B120448301F2A1201
:1025B700327D12396A1232B41204540000000090BE
:1025C700650B1204540000000090651312045400B8
:1025D700000000123298C21F22E47FD07E07FDFC64
:1025E70090651312043CC31203E9402712327D128F
:1025F700396A1232B41204540000000090650B12BD
:1026070004540000000090651312045400000000F9
:03261700123298E4
:01261A00229D
:100D25004C649901010203040502060708090A53E8
:100D350064860A000000000364AF000000000002A2
:050D4500FF331800005F
:1038A500E4FFFDFCAB1BAA1AA919A818C30203E97A
:0F38B500EE75F006A42499F582E43464F58322BD
:103318009064BD120454000000009064C174FFF072
:10332800AF1BAE1AAD19AC189064BD1204487E02EA
:103338001238A570079064C104F0800D7E0412381D
:10334800A570069064C17402F09064BD1204540024
:083358000000009064C1E0FFD9
:01336000224A
:10379700E49064BDF0FE1238B5E0B507141238B5F1
:1037A700E5822DF582E43583F583E09064BDF080F2
:0B37B700050EEEB402E09064BDE0FFE0
:0137C20022E4
:10277200906497E0700302280DE0FFA3E0FD12379A
:1027820097E4906497F0A3F0EF1204EA27AA0127D6
:10279200B60327C20427CE0527DA0627E60827F262
:1027A2000927FE0A0000280D9064BE12045400009E
:1027B200004780529064BE120454000100478046D4
:1027C2009064BE12045400020047803A9064BE1224
:1027D200045400030047802E9064BE12045400008B
:1027E200004880229064BE12045400010048801602
:1027F2009064BE12045400020048800A9064BE1223
:0B2802000454000300487F0D120FA6D5
:01280D0022A8
:100D4A0041601801426019000041601B0041601CAB
:0E0D5A000041601D0041601E7F42601FFFFFD0
:1035EC00E4F561AE3EAD3DAC3C853F178E168D15B6
:1035FC008C14787EE254FCF2E24514F218E515F2D4
:10360C0018E516F218E517F2787FE254FBF2E25453
:0D361C00FB4404F2E24401F27F01022C1491
:1008CC009064BDEFF0E0FF24A7F582E43464F58377
:1008DC00E004F074A92FF582E43464F583E4F07439
:1008EC00A72FF582E43464F583E0C39563500302CB
:1008FC000B1D9064BDE0FB24A7F582E43464F58302
:10090C00E4F09038D59364016003020ACE7F01FEB7
:10091C00FDFC74AB2BF582E43464F583E0F9F8123A
:10092C00040DE51F4FF51FE51E4EF51EE51D4DF59B
:10093C001DE51C4CF51CAF1FAE1EAD1DFC78011245
:10094C0003FAEF5455FBEE5455FAED5455F9EC54AB
:10095C0055F8C3E51F9BF53BE51E9AF53AE51D9945
:10096C00F539E51C98F538AF3BAE3AAD39FC780259
:10097C001203FAEF5433FBEE5433FAED5433F9EC23
:10098C005433F8E53B5433FFE53A5433FEE5395420
:10099C0033FDE5385433FCEB2FF53BEA3EF53AE9F1
:1009AC003DF539E83CF538AF3BAE3AAD39FC78044F
:1009BC001203FAEF253BFFEE353AFEED3539FDEC2F
:1009CC003538FCEF540FF53BEE540FF53AED540F60
:1009DC00F539EC540FF538AF3BAE3AAD39FC78082D
:1009EC001203FAEF253BFFEE353AED3539FDEC35C8
:1009FC0038EFF53BE4F53AEDF539E4F538AE3AACC1
:100A0C003878101203FAEF253BFFEE353AFEEFF57E
:100A1C003BEEF53AE4F539F5389064BDE025E02479
:100A2C00B5F582E43464F583E0FEA3E0D39553EE90
:100A3C00955240249064BDE0FF25E024B5F582E496
:100A4C003464F583E0F552A3E0F55374AB2FF582D3
:100A5C00E43464F583E0F5649038D5E493FFE4FC6A
:100A6C00FDFEAB3BAA3AA939A838D31203E9405290
:100A7C00AF650565D3EF9403748094805003020B2B
:100A8C001DE4F565F51FF51EF51DF51C7F01FEFD3A
:100A9C00FCA964A80112040D8F1B8E1A8D198C18D9
:100AAC00E47F01FEFDFCA80112040D8F338E328D04
:100ABC00318C30E4F552F553756420122C98433781
:100ACC000222E4F5657F01FEFDFC9064BDE0FB2491
:100ADC00ABF582E43464F583E0F9F812040DE51B00
:100AEC004FF51BE51A4EF51AE5194DF519E5184C9D
:100AFC00F518E47F01FEFDFCA80312040DE5334F4D
:100B0C00F533E5324EF532E5314DF531E5304CF546
:020B1C00302285
:10058D00E4F5669038D9E493FFE566C39F40030216
:10059D0008CBE56625E02400F582E4346085828A87
:1005AD007F548F8B7E0E8E8C758903758889E566D9
:1005BD0025E02400F582E4346085828A8F8B758C6A
:1005CD0012758904758889E56625E02408F582E4AD
:1005DD003460F583E0FCA3E0C3950FEC950E502E2F
:1005ED00E56625E02414F582E43460F583E0FCA390
:1005FD00E0C39513EC95125015AF600560EF9402B2
:10060D0074809480400BE4F5605337FD8003E4F56E
:10061D0060E53730E125E56625E024B5F582E43463
:10062D0064F583E4F0A3F0E56625E024B9F582E4F2
:10063D003464F583E4F0A3F00206DBE56625E024DF
:10064D0008F582E4346085828A8E8B758C0A7589F3
:10065D00267588892088FDE5F130E00875F107E4FD
:10066D00F50AF50BAE0AE50B7802C333CE33CED8BF
:10067D00F9FFE56625E024B5F582E43464F583EEF3
:10068D00F0A3EFF0E56625E02414F582E4346085EF
:10069D00828A758B12758C0A7589277588892088D1
:1006AD00FDE5F130E00875F107E4F50AF50BAE0A4A
:1006BD00E50B7802C333CE33CED8F9FFE56625E0DE
:1006CD0024B9F582E43464F583EEF0A3EFF0E5662A
:1006DD0025E024ADF582E43464F583E0FEA3E078F3
:1006ED0002CEC313CE13D8F9F5518E50E56625E031
:1006FD0024B5F582E43464F583E0FEA3E0FF903881
:10070D00D1E493FC740193FDC3EF9DEE9C4017E57E
:10071D006625E024B9F582E43464F583E0FEA3E0B8
:10072D00C39DEE9C50028068E56625E024B5F582F8
:10073D00E43464F583E0FEA3E0C39551EE9550409B
:10074D001CE56625E024B9F582E43464F583E0FE0A
:10075D00A3E0C39551EE955040030207E774A5251C
:10076D0066F582E43464F583E004F074A52566F53E
:10077D0082E43464F583E0FF9038D6E493FEEFD342
:10078D009E406474A52566F582E43464F583E4F037
:10079D00E56625E02404F582E43460F583E0FEA3EC
:1007AD00E0FFE56625E02408F582E43460F583EE8C
:1007BD00F0A3EFF0E56625E02410F582E43460F552
:1007CD0083E0FEA3E0FFE56625E02414F582E43422
:1007DD0060F583EEF0A3EFF0800D74A52566F5822C
:1007ED00E43464F583E4F0E56625E02404F582E461
:1007FD00346085828AE56625E02400F582E4346064
:10080D0085828B758C0A7589207588CB2088FDE5CE
:10081D00F130E00875F107E4F50AF50BE56625E022
:10082D002404F582E4346085828A758B547F0E8FA3
:10083D008C7589237588897E0A8E8A8F8BE566254E
:10084D00E02404F582E4346085828CE4F5897588B2
:10085D0029E56625E02410F582E4346085828AE579
:10086D006625E02400F582E4346085828B8E8C75DC
:10087D0089207588CB2088FDE5F130E00875F107FA
:10088D00E4F50AF50BE56625E02410F582E4346005
:10089D0085828A758B547F0E8F8C75892475888916
:1008AD00758A0A8F8BE56625E02410F582E43460A5
:0F08BD0085828CE4F589758829056602059022ED
:1011AC00E4F5669038D9E493FFE566C39F400302EB
:1011BC001364E56625E024ADF582E43464F583E040
:1011CC00FEA3E07802CEC313CE13D8F9F5518E509E
:1011DC00E56625E024B5F582E43464F583E0FEA3EE
:1011EC00E0D39551EE9550402EE56625E024B9F5F7
:1011FC0082E43464F583E0FEA3E0D39551EE955080
:10120C00401574A92566F582E43464F583E4F0AFE7
:10121C00661208CC02135F9038D8E493FFC3E551F3
:10122C009FFFE5509400FED3EF9400EE9400400233
:10123C0080047E007F00E56625E024B5F582E43469
:10124C0064F583E0FCA3E0C39FEC9E4003021352C1
:10125C009038D8E493FFC3E5519FFFE5509400FE0E
:10126C00D3EF9400EE9400400280047E007F00E5F2
:10127C006625E024B9F582E43464F583E0FCA3E050
:10128C00C39FEC9E400302135274A72566F582E4BB
:10129C003464F583E4F074A92566F582E43464F5CE
:1012AC0083E004F074A92566F582E43464F583E0E8
:1012BC00C39563500302135F74A92566F582E43469
:1012CC0064F583E4F07F01FEFDFC74AB2566F582CA
:1012DC00E43464F583E0F9F812040D1203B8E51F49
:1012EC005FF51FE51E5EF51EE51D5DF51DE51C5C3D
:1012FC00F51CE47F01FEFDFCA966A80112040D1289
:10130C0003B8E5335FF533E5325EF532E5315DF573
:10131C0031E5305CF530E47F01FEFDFC74AB2566F5
:10132C00F582E43464F583E0F9F812040D1203B885
:10133C00E51B5FF51BE51A5EF51AE5195DF519E578
:10134C00185CF518800D74A92566F582E43464F5F3
:09135C0083E4F005660211AF22E2
:102C9800E4F5669038D9E493FFE566C39F506EE586
:102CA8006625E024B5F582E43464F583E4F0A3F006
:102CB800E56625E024B9F582E43464F583E4F0A3FD
:102CC800F0E56625E02404F582E43460F583E0FE4F
:102CD800A3E0FFE56625E02408F582E43460F58387
:102CE800EEF0A3EFF0E56625E02410F582E4346009
:102CF800F583E0FEA3E0FFE56625E02414F582E411
:0E2D08003460F583EEF0A3EFF00566808622BE
:10294300E4F5669038D9E493FFE566C39F5067903A
:102953006018E0FF7E00C39410748094805053EF9E
:102963009408748094804025E56625E02400F58270
:10297300E43460F583E0FEA3E0FFE56625E024048C
:10298300F582E43460F583EE8FF012026AE5662582
:10299300E02400F582E43460F583E0FEA3E0FFE584
:1029A3006625E02410F582E43460F583EE8FF0129F
:1029B300026A0566808D906018E0C3941074809459
:1029C3008040054337048006906018E004F07F01DF
:0329D300022C14BF
:102D1600E4FFFEFDFCAB1BAA1AA919A818C31203EF
:102D2600E9606390601AE004F07006906019E004B0
:102D3600F09038CDE493FE740193FF4E602ED3904D
:102D4600601AE09F906019E09E4021E4F0A3F0F540
:102D56001FF51EF51DF51CF533F532F531F530F589
:102D66001BF51AF519F518C21A022C989038CFE4FB
:102D760093FE740193FFD390601AE09F906019E070
:0D2D86009E400AD21A22E4906019F0A3F0DA
:012D9300221D
:051365009064CFEFF0E1
:10136A00A3E0FCA3E0FDA3E0FEA3E0F52C8E2B8D09
:10137A002A8C297884E2F50A08E2F50B758A087541
:10138A008B29758C2575881D2088FDE4FFFEFDFCE0
:10139A00AB28AA27A926A825D31203D34006AC2531
:1013AA00A8048013AF28AE27AD26AC251203C5AB1F
:1013BA0007AA06A905A80490601FE0FEA3E0FFE4BF
:1013CA00FCFDC31203D35041E4FFFEFDFCAB28AA87
:1013DA0027A926A8251203D34006AF28AE27800BDB
:1013EA00AF28AE27AD26AC251203C590601FEEF0DC
:1013FA00A3EFF09064CFE025E024B1F582E43464F1
:10140A00F583E0A3E090601EF09038CAE493FE747E
:10141A000193FFD3906020E09F90601FE09E501BD5
:10142A009064CFE025E024B1F582E43464F583E0EA
:10143A00A3E090601EF090601B8079E4FFFEFDFC43
:10144A00AB28AA27A926A825D31203D3403490642F
:10145A00CFE0FF25E024B1F582E43464F583E0FCB3
:10146A00A3E0D39400EC9400404DEF25E024B1F5BD
:10147A0082E43464F58374FFF5F012026A90601C0A
:10148A0080329064CFE0FF25E024B1F582E4346431
:10149A00F583E0FCA3E0C3947FEC94005019EF2598
:1014AA00E024B1F582E43464F583E475F0011202B4
:1014BA006A90601D7401F090601CE064017011A3D1
:1014CA00E06401700B90601CF0A3F090601B04F0C4
:1014DA0090601BE06401703590601EE0FF9064CF5D
:1014EA00E025E024B1F582E43464F583E4F0A3EF67
:1014FA00F074FF90601FF0A3F090601E747FF0E418
:0F150A0090601CF0A3F090601BF07F01227F0027
:0115190022AF
:102FB200E49064CEF09038C412042C780112040D0F
:102FC2009064D0120448AF61121365EF602205616C
:102FD200E53730E4095337EF9064CE7401F090384E
:102FE200D9E493FFE561C39F4006E4F561433710DE
:102FF200C39038C87401939562E49394004008909A
:1030020064CEE064017005D2190235ECE4FF122CA3
:0130120014A9
:01301300229A
:102C1400EF70607F01FEFDFC74AB2561F582E43446
:102C240064F583E0F9F812040D8F178E168D158C58
:102C340014787EE254FCF2E24514F218E515F21819
:102C4400E516F218E517F2E56125E024B1F582E412
:102C54003464F583E0A3E0547FFF7878E254804F36
:102C6400F2787FE254FBF2E254FB4404F2E24401C2
:102C7400F2801CE56125E024B1F582E43464F58337
:102C8400E0A3E0547FFF7878E254804FF2787FE24B
:042C94004402F222E2
:10280E00E49064BDF0A3F09064BDE0FEA3E0FFC3CE
:10281E009488EE94035031EF248DFFEE34058F82B1
:10282E00F583E493FF9064BEE02421FD9064BDE047
:10283E0034608D82F583EFF09064BEE004F070C7D3
:08284E009064BDE004F080BFBE
:102856009063A97401F0A37460F0A37421F0E4F509
:1028660061F537F536F535F534C219C21AF51FF597
:102876001EF51DF51CF533F532F531F530F51BF572
:102886001AF519F5189038D393FF9038D7E493FECC
:10289600A807088002C333D8FCF563756420E4FFFB
:0328A600022C14ED
:102D94007884E2F50A08E2F50BAE0A7803CEC31391
:102DA400CE13D8F97802C333CE33CED8F9FFE56118
:102DB40025E02400F582E43460F583EEF0A3EFF01F
:102DC40020190F9038CCE4937005D2190235EC0227
:102DD4002FB205619038D9E493FFE561C39F401F8A
:102DE400787FE254FBF2E254FB4404F2E24401F241
:102DF400E4F561E53720E203022943433701227FEA
:052E040001122C142254
:053AE6000562022D162F
:10388500E53730E01A9063A9A3E0FAA3E0F9120541
:10389500101211ACE4F5617F01122C145337FE228E
:1028C300022F50E493A3F8E493A34003F68001F2AC
:1028D30008DFF48029E493A3F85407240CC8C33316
:1028E300C4540F4420C8834004F456800146F6DFE5
:1028F300E4800B0102040810204080900B1EE47E4C
:10290300019360BCA3FF543F30E509541FFEE493D9
:10291300A360010ECF54C025E060A840B8E493A3A0
:10292300FAE493A3F8E493A3C8C582C8CAC583CACB
:10293300F0A3C8C582C8CAC583CADFE9DEE780BE83
:010D6800008A
:10006000E709F608DFFA8046E709F208DFFA803E82
:1000700088828C83E709F0A3DFFA8032E309F6086F
:10008000DFFA8078E309F208DFFA807088828C83D7
:10009000E309F0A3DFFA806489828A83E0A3F6088B
:1000A000DFFA805889828A83E0A3F208DFFA804C65
:1000B00080D280FA80C680D4806980F2803380103C
:1000C00080A680EA809A80A880DA80E280CA8033A5
:1000D00089828A83ECFAE493A3C8C582C8CCC5831D
:1000E000CCF0A3C8C582C8CCC583CCDFE9DEE780ED
:1000F0000D89828A83E493A3F608DFF9ECFAA9F06C
:10010000EDFB2289828A83ECFAE0A3C8C582C8CCC1
:10011000C583CCF0A3C8C582C8CCC583CCDFEADEDA
:10012000E880DB89828A83E493A3F208DFF980CC3C
:1001300088F0EF60010E4E60C388F0ED2402B40435
:100140000050B9F582EB2402B4040050AF232345DC
:0601500082239000B07351
:10015600BB010689828A83E0225002E722BBFE02A7
:09016600E32289828A83E49322DA
:10016F00BB010CE58229F582E5833AF583E0225045
:10017F0006E92582F8E622BBFE06E92582F8E2228F
:0D018F00E58229F582E5833AF583E49322A9
:10019C00BB010FF8E58229F582E5833AF583E02867
:1001AC00F0225009C58229F8E58226F622BBFE0909
:1001BC00C58229F8E22582F222F8EA2583F583E943
:0301CC0093282253
:1001CF00BB010689828A83F0225002F722BBFE010F
:0201DF00F32209
:1001E100F8BB010DE58229F582E5833AF583E8F054
:1001F100225006E92582C8F622BBFE05E92582C800
:02020100F222E7
:10020300EF8DF0A4A8F0CF8CF0A428CE8DF0A42E0F
:02021300FE22C9
:10021500BC000BBE0029EF8DF084FFADF022E4CCCD
:10022500F875F008EF2FFFEE33FEEC33FCEE9DEC96
:10023500984005FCEE9DFE0FD5F0E9E4CEFD22EDDC
:10024500F8F5F0EE8420D21CFEADF075F008EF2F26
:10025500FFED33FD4007985006D5F0F222C398FD17
:050265000FD5F0EA22B4
:10026A00C5F0F8A3E028F0C5F0F8E582158270021F
:06027A001583E038F022BC
:0D028000EF2BFFEE3AFEED39FDEC38FC22CD
:0E028D00C3EF9BFFEE9AFEED99FDEC98FC226C
:10029B00E88FF0A4CC8BF0A42CFCE98EF0A42CFC02
:1002AB008AF0EDA42CFCEA8EF0A4CDA8F08BF0A480
:1002BB002DCC3825F0FDE98FF0A42CCD35F0FCEBDF
:1002CB008EF0A4FEA9F0EB8FF0A4CFC5F02ECD39A4
:0F02DB00FEE43CFCEAA42DCE35F0FDE43CFC2211
:1002EA0075F008758200EF2FFFEE33FECD33CDCCCB
:1002FA0033CCC58233C5829BED9AEC99E58298404E
:10030A000CF582EE9BFEED9AFDEC99FC0FD5F0D62A
:10031A00E4CEFBE4CDFAE4CCF9A88222B800C1B954
:10032A000059BA002DEC8BF084CFCECDFCE5F0CB92
:10033A00F97818EF2FFFEE33FEED33FDEC33FCEBCB
:10034A0033FB10D703994004EB99FB0FD8E5E4F986
:10035A00FA227818EF2FFFEE33FEED33FDEC33FC73
:10036A00C933C910D7059BE99A4007EC9BFCE99A67
:10037A00F90FD8E0E4C9FAE4CCFB2275F010EF2FAC
:10038A00FFEE33FEED33FDCC33CCC833C810D707AC
:10039A009BEC9AE899400AED9BFDEC9AFCE899F8E7
:0E03AA000FD5F0DAE4CDFBE4CCFAE4C8F9227A
:0D03B800CFF4CFCEF4CECDF4CDCCF4CC22DA
:0E03C500C3E49FFFE49EFEE49DFDE49CFC2249
:1003D300EB9FF5F0EA9E42F0E99D42F0EC6480C8A1
:0603E30064809845F02241
:1003E900EB9FF5F0EA9E42F0E99D42F0E89C45F06A
:0103F90022E1
:1003FA00E8600FECC313FCED13FDEE13FEEF13FFE1
:03040A00D8F12204
:10040D00E8600FEFC333FFEE33FEED33FDEC33FC4D
:03041D00D8F122F1
:0C042000E0FCA3E0FDA3E0FEA3E0FF224F
:10042C00E493FC740193FD740293FE740393FF2216
:0C043C00E0F8A3E0F9A3E0FAA3E0FB2243
:0C044800ECF0A3EDF0A3EEF0A3EFF02227
:10045400A8828583F0D083D08212046B12046B12BD
:10046400046B12046BE473E493A3C583C5F0C583E2
:10047400C8C582C8F0A3C583C5F0C583C8C582C8F2
:010484002255
:0C048500A42582F582E5F03583F5832282
:09049100E0FBA3E0FAA3E0F9226C
:10049A00F8E0FBA3A3E0F925F0F0E58215827002EB
:0704AA001583E0FA38F0228F
:0904B100EBF0A3EAF0A3E9F0224C
:1004BA00BB010DE58229F582E5833AF583020491B1
:1004CA005007E92582F802056FBBFE07E92582F885
:1004DA00020578E58229F582E5833AF583020581EA
:1004EA00D083D082F8E4937012740193700DA3A3A1
:1004FA0093F8740193F5828883E4737402936860B5
:06050A00EFA3A3A380DFB4
:060510008A838982E47376
:10051600EC8EF0A4CCC5F0CCCDF8EFA4CEC5F02D72
:10052600FDE43CFCE8A42EC8C5F03DFDE43CFCEF30
:0D053600A4FFE5F028FEE43DFDE43CFC22BE
:10054300EF4E6012EF60010EEDBB010B89828A83CF
:10055300F0A3DFFCDEFA2289F05007F709DFFCA9DC
:0C056300F022BBFEFCF309DFFCA9F02233
:09056F00E6FB08E6FA08E6F922B1
:09057800E2FB08E2FA08E2F922B4
:0C058100E493FB740193FA740293F922D6
:00000001FF
