:0300000002245483
:10245400787FE4F6D8FD9060007F007E07E4F0A367
:0A246400DFFCDEFA7581660224A990
:0C000300000000000000000000000000F1
:0B316300EF1FAC0670011E4C70F6223E
:1030DB00AB07AA06EB1BAE0270011A4E600C7FAA5F
:0B30EB007E0512316375D9AA80EA222D
:10217800907120E04480F07F057E00123163E4FF17
:10218800FE1230DB75A75575AC5C9071327450F057
:102198009071307403F0907136742FF090715C7404
:1021A80003F090715BE054FCF07F18EF2466FDE4C7
:1021B80034718D82F583E4F00FEFB433EE90401163
:1021C800E4935407FF90711CE054F84FF0904017C7
:1021D800E493547FFF90711DE054804FF0904010BD
:1021E800E493FF5401C43333335480FE907123E0E9
:1021F800547F4EF0EFC313543F4440FFA3E0548094
:102208004FF0904012E493FF540FFE907146E05453
:10221800F04EF0EFC4540FFF90714FE054F04FF0C0
:10222800904013E493543FFF907140E054C04FF046
:10223800904014E493907126F0904015E4939071C7
:0B22480028F0904016E49390712AF0FB
:012253002268
:1030BD00000009C4006400C80101F4004B000A00BF
:0E30CD0000010F0405020009000A000A000AB3
:1030F600E2FE747F2FF582E43464F583E02224FC3B
:0831060025E0FDF87403082226
:101B2900E4FF1230F8C3940850581230F8C39404F3
:101B3900502878C2C0001230F61231068002C33331
:101B4900D8FCF45ED000F278C2C0001230F612312F
:101B5900068002C333D8FC021C5778C3C000123078
:101B6900F61231048002C333D8FCF45ED000F27857
:101B7900C3C0001230F61231048002C333D8FC020C
:101B89001C571230F8C3940840681230F8C39410F7
:101B990050601230F8C3940C502C78D2C000123027
:101BA900F624F81231068002C333D8FCF45ED00063
:101BB900F278D2C0001230F624F81231068002C33E
:101BC90033D8FC021C5778D3C0001230F624F41223
:101BD90031068002C333D8FCF45ED000F278D3C05A
:101BE900001230F624F41231068002C333D8FC0205
:101BF9001C571230F8C39414502B78E2C0001230ED
:101C0900F624F01231068002C333D8FCF45ED0000A
:101C1900F278E2C0001230F624F01231068002C3D5
:101C290033D8FC802978E3C0001230F624EC123155
:101C3900068002C333D8FCF45ED000F278E3C0001A
:101C49001230F624EC1231068002C333D8FC4ED090
:0B1C590000F20FEF64026003021B2B7F
:011C6400225D
:03005D00022CD59D
:102CD500C0E0C0F0C083C082C0D075D000C000C0C5
:102CE50001C002C003C004C005C006C0077881E268
:102CF50030E607E24440F2122ABFD007D006D005DD
:102D0500D004D003D002D001D000D0D0D082D0835F
:052D1500D0F0D0E03217
:102C3D00D2AF43AB0843B6C0907132E04440F0438D
:102C4D00AB087877743FF208744BF2787A7430F2EF
:102C5D00788914F27871744FF2187427F2787274BF
:102C6D00A8F2087410F208E4F208F208F2787E7403
:0F2C7D00D0F2087404F208741EF2087402F222F6
:10261800E4FBEB25E025E024D3F582E43430F583B0
:10262800740193FF747F2BF582E43464F583EFF033
:10263800EB25E025E024D5F582E43430F583E493F6
:10264800FE740193FFEB25E02481F582E43464F500
:1026580083EEF0A3EFF0EB25E02485F582E4346403
:10266800F583E4F0A37441F0E47F01FEFDFC747F80
:102678002B1230FBF9F812038BE53F4FFFE53E4E76
:10268800FEE53D4DFDE53C4C8F3F8E3E8D3DF53CD6
:102698000BEB6402600302261A121B291223B902EB
:0226A8002C3DC7
:05273C0042600C0000EA
:07318D00E475F0010201E806
:102D5F00E5B154CF42B153A8BFD2AF75D102789C21
:102D6F00E254E3F2E2441CF2E254FCF2E24401F2D8
:102D7F0008E2547FF2E24420F278A17401F2187451
:102D8F0076F2789CE2541FF2E244C0F243A840224C
:0300210002209723
:10209700C0E0C0F0C083C082C0D075D000C000C00F
:1020A70001C002C003C004C005C006C007789DE296
:1020B70020E70302215DE24480F2301E069063E3CD
:0320C700E004F042
:1020CA0090600C12318DC390600DE0946490600CA6
:0B20DA00E094004006E4F0A3F0D221E7
:1020E5009064BBE0FEA3E0FFE4FCFD7BFF7AFFF913
:1020F500F8D312035140069064BB12318D9064C031
:1021050012318DC39064C1E094D09064C0E094070F
:102115004008E4F0A3F09064BFF09064C312318DE1
:10212500C39064C4E094649064C3E094004008E400
:0D213500F0A3F09064C2F09064BD12318DF3
:1021420090600E12318DC390600FE094A090600EEB
:0B215200E0940F4006E4F0A3F0D2265A
:10215D00D007D006D005D004D003D002D001D000D6
:0B216D00D0D0D082D083D0F0D0E03280
:07274100C1244264C800003E
:102D1A00E5B254FC42B253A9FED2AF75D104907108
:102D2A0000E054E3F0E0F0E054FCF0E04401F090FD
:102D3A0071057409F0907104745FF0907101E054A8
:102D4A007FF0E04420F0907100E0541FF0E044C0AE
:052D5A00F043A9012275
:03002400022310A4
:10231000C0E0C0F0C083C082C0D075D000C000C093
:0D23200001C002C003C004C005C006C00714
:0B232D00907101E030E76AE04480F0AE
:102338009064C8E475F0011201E8C39064C9E094A0
:10234800149064C8E094004025E4F0A3F0906497EA
:1023580075F0011201E8C3906498E094E8906497DE
:0E236800E094034009202006E4F0A3F0D22008
:1023760030952320241C90649312039EEF2401FFC2
:10238600E43EFEE43DFDE43CFC9064931203C61279
:082396002E99D2248002C2241A
:10239E00D007D006D005D004D003D002D001D00093
:0B23AE00D0D0D082D083D0F0D0E0323D
:102BEA009063E612039E74DC2FF582E43463F58366
:102BFA0022906423E0FF24D9F582E43463F583222A
:102C0A007D00EF75F00FA424ACF9746335F0FA7BFC
:102C1A000122E5822EF582E43583F58322E4F090E1
:102C2A0063DFE014F090000F229063E5E4F0906314
:032C3A00E4F022A1
:0E004E0090644DEFF012313090644DE0FF22CF
:0A317900E49063E3F0C21DD21E22B1
:0A318300C21EE49063E3F0C21D22B7
:10303F0078C2E2543FF2E254FCF2E24440F2907163
:10304F0081E04404F0907175E04401F043AA20D26E
:0B305F00AF75D60175D59F75D2112208
:03004B00021C652F
:101C6500C0E0C0F0C083C082C0D075D000C000C045
:0D1C750001C002C003C004C005C006C007C6
:101C8200906454E4F0E5D420E503021D6AE5D7F040
:101C9200201F04E0B4A5099063DFE0C3940340036E
:101CA200021D67906454E0B4A508D21F122C3312AF
:101CB20031799063E5E0B40108906454E09063E404
:101CC200F0122BEAE06003021D6A906454E0FF9078
:101CD20063E61203BA9063AC75F00FEB120403EAE9
:101CE20075F00FA42583F583C083C0829063E5E07D
:101CF200FE04F0D082D083122C1CEFF09063E3E458
:101D0200F0A3E06063E0FFA3E06F705C9063E4E047
:101D1200FB9063E612039E74D92F122C02EBF0C2E1
:101D22001F122C33122BEA7401F09063DFE004F0EF
:101D32009063E612039EEF2401FFE43EFEE43DFDC4
:101D4200E43CFC9063E61203C6E47F03FEFDFC90D4
:101D520063E61203BAC3120367400A9063E61203F2
:081D6200D200000000123183E1
:101D6A00D007D006D005D004D003D002D001D000CD
:0B1D7A00D0D0D082D083D0F0D0E03277
:0D313000E5D430E4FB8FD7E5D430E4FB227A
:101D8500E4906423F0A3F0C2149063E3E0D3940AD3
:101D9500400F123183E49063E5F09063E4F0C21FD5
:101DA50022E4906423F0906423E0FFC3940340038E
:101DB500021E9674DC2F122BF3E07003021E8D9029
:101DC5006423E075F00FA424ADF582E43463F58354
:101DD500E0FE74D92F122C02E06E601A906423E0A5
:101DE50024DC122BF3122C27C083C082122C0AD0BC
:061DF50007D006020464A1
:101DFB00E4906425F0906424F0A3F0122BFBE01424
:101E0B00FE906425E0FDC39E5022EF75F00FA424D5
:101E1B00ACF582E43463F583E5822D122C1FE0FFD1
:101E2B00906424E02FF0A3E004F080CF906424E0D2
:101E3B00F0122BFBE0FEEF75F00FA424ABF582E460
:101E4B003463F583122C1CE0FF906424E06F600276
:021E5B00D2149F
:101E5D0030141DC214906423E0FF24DC122BF31206
:101E6D002C27C083C082122C0AD007D0061204641E
:101E7D00906423E024E0F582E43463F5837401F08B
:091E8D00906423E004F0021DAB97
:011E96002229
:102F5000A3E0FFE4FD122B96EF22E4F0A3F07D0145
:102F6000122B96EF22EF75F020A4FFE5F0F0A3EF0F
:102F7000F022ECF0A3EDF0A302042FCFF0A3EFF0CA
:052F80007FA07E00228D
:102B9600E4FEED6401701E43CC50E5CF30E2FB53FA
:102BA600CCBFE5CF54F86408600BE5CF54F8641049
:102BB60060037F00228FCDE5CF30E2FBE5CF54F8EE
:102BC60064186010E5CF54F864286008E5CF54F81F
:102BD600FFBF40047E018002E4FEEDB4020343CC55
:032BE60030AF0607
:012BE90022C9
:102F1400E4FE90643DF0EFB4010B43CC08E5CF3000
:102F2400E20343CC10E5CF30E2FBEF700353CCF760
:102F3400EFB4020343CC30E5CF54F8FFBF50028016
:0B2F440008E5CF54F8FFBF5800AFCDE8
:012F4F00225F
:0629C500906434122F7231
:1029CB0090643B122F5A7002FF22906434122F51E5
:1029DB007002FF22906434122F507002FF22E49099
:1029EB00643BF0A3F090643AE024FFFF906439E07D
:1029FB0034FFFEC390643CE09F90643BE09E50200C
:102A0B00906436E475F001120418120156122F521D
:102A1B007002FF2290643BE475F0011201E880C55F
:102A2B0090643612040F120156FF7D02122B96EFA3
:062A3B007002FF227F0182
:012A41002272
:0E24EE00906434122F72906432EEF0A3EFF07F
:1024FC0090643B122F5A7002FF22906434122F51B9
:10250C007002FF22906434122F507002FF229064EC
:10251C0032A3E04401FF122F5E7002FF22E49064AC
:10252C003BF0A3F090643AE024FEFF906439E03471
:10253C00FFFEC390643CE09F90643BE09E50117F93
:10254C000112257390643BE475F0011201E880D40C
:10255C00E4FF1225737F02122F1490643612040FBD
:06256C00EF12016F7F0178
:1025720022122F14906436E475F001120418EF123F
:03258200016F22C4
:062FB50090642B12042FB2
:102FBB00906430122F65906430E0FCA3E0FD9064C8
:102FCB002B12040F90642EE0FFA3E0906439122FB4
:072FDB007B1229C5EF60DF46
:012FE20022CC
:062FE30090642B12042F84
:102FE900906430122F65906430E0FCA3E0FD90649A
:102FF9002B12040F90642EE0FFA3E0906439122F86
:073009007B1224EEEF60DFF3
:01301000229D
:102E1D0078E2E254F3F2E24408F278E0E24402F29E
:102E2D0078EAE24402F290716AE04402F078E2E25C
:102E3D0054CFF2E24420F278E0E24404F278EAE280
:0E2E4D004404F2E04404F075CC0243CC802231
:1011A300616C6C206D656E75732061726520696E6C
:1011B30076616C69640A006F6E65206F66206D65E9
:1011C3006E75732069732076616C69640A006D65BE
:1011D3006E7573206172652076616C69640A0065BF
:1011E3006570726F6D5F6D656E755F707265762E7B
:1011F3006375725F77726974655F706167655F6954
:1012030064203D202562750A00656570726F6D5F0D
:101213006D656E755F707265762E69735F64617458
:10122300615F76616C6964203D2030782025780AFF
:1012330000656570726F6D5F6D656E755F6E657865
:10124300742E6375725F77726974655F7061676529
:101253005F6964203D202562750A00656570726FC1
:101263006D5F6D656E755F6E6578742E69735F640F
:101273006174615F76616C6964203D20307820255C
:10128300780A003D3D3D3D3D3D3D3D3D3D3D3D3DC0
:101293003D3D3D3D3D3D3D3D3D3D3D3D3D3D3D3D7B
:1012A3003D3D3D3D3D3D3D3D3D3D3D3D3D3D3D3D6B
:1012B3003D3D3D3D3D3D3D0A006375725F70616795
:1012C300655F69642025750A00656570726F6D5FDF
:1012D30073617665696E666F2E65726173655F63B0
:1012E3006E74203D20256C750A00656570726F6D04
:1012F3005F73617665696E666F2E746F616C5F6D87
:10130300696C65616765203D20256C750A0065651C
:1013130070726F6D5F73617665696E666F2E73753C
:1013230062746F74616C5F6D696C65616765203DA4
:1013330020256C750A00656570726F6D5F73617649
:1013430065696E666F2E737562746F74616C5F6D21
:10135300696C656167655F32203D20256C750A0005
:1026AA009063EAF0A374C5F078EC7C637A6379EA04
:1026BA007D017B017E007F0202013090642E7A63E5
:1026CA0079EAE47B01F0A37402F022E0FF7B019037
:1026DA00642EE4F0A37411F02290642E7A6379ECEC
:1026EA00E47B01F0A37402F07F012278127C647DFE
:1026FA00017B017A64790122E49063FFF0A3F07A06
:10270A006379FF90642E2212039E9064260203C608
:10271A009063ECE0FF9063EAE0221203C6906459EA
:10272A0002039E1203C690645D02039E9064260211
:02273A00039EFC
:0E3122001226C5E4FF122FB51226E3022FB5C8
:10310E0090642E1226C8E4FF122FE390642E12262E
:04311E00E6022FE3B3
:102A420012310E9063EBE064C560199063EDE064AF
:102A5200C5601174021226AA1231227BFF7A117903
:102A6200A3022ABB9063EBE0B4C5079063EDE0B428
:102A7200C5109063EBE064C560399063EDE064C516
:102A820070319063EBE0B4C5081226B21226E380DF
:102A9200179063EDE0B4C51378EA7C637A6379EC4E
:102AA2001226BA1226C5E4FF122FB57BFF7A1179DE
:0D2AB200BA80067BFF7A1179D11205282227
:101FA9001227021226CDE4FF122FE37A1179E212E9
:101FB900206E7A12790C12205B1227021226EB127C
:101FC9002FE37A12793412206E7A12795E12205B2D
:101FD90012207CF0A37402F0906423E0FEA3E0FFDA
:101FE900C39480EE940050587B017A6379EE1226EF
:101FF900D9122FE37BFF7A1279BC906423E0FFA307
:10200900E0906428CFF0A3EFF01205287A1279CC7A
:102019009063FA12204A7A1279ED9063EE12208ABF
:102029007A1379119063F212204A7A1379399063FD
:10203900F612208A12207C75F0011201E8021FE1D4
:10204900227BFF12039E9064281203C61205287B87
:10205900FF227BFF906400E0FF906428E4F0A3EF87
:10206900F0120528227BFF9063FFE0906428F012AC
:102079000528227BFF7A127986120528906423E4C9
:0E2089002212039E9064281203C6120528221C
:1016D100E4906425F012310E12271AB50702800C2E
:1016E10012271AD39F400280039063ECE090642597
:1016F100F0906425E020E009906423F004A3F080D9
:101701000D906425E0FE14906423F0A3EEF0906444
:10171100237A6479011226D5122FE39064247A6426
:1017210079121226D5122FE3906411E064C5602E60
:1017310090640D1203D2000000009064011203D2E4
:10174100000000009064051203D2000000009064C4
:10175100091203D20000000090641174C5F0906476
:1017610022E064C5600A1226F57E007F1112013065
:1017710090641212039E9064011203BAC3120367AC
:10178100906455502912039E90641212272490648C
:101791001612272D90641A1203C690641E12271187
:1017A10078017C647D017B017A647912801E1203C9
:1017B1009E90640112272490640512272D906409DC
:1017C1001203C690640D1227111226F57E007F11B7
:1017D100120130122736EF2401FFE43EFEE43DFD05
:1017E100E43CFC12271412273690640D1203C61232
:1017F100273690641E1203C6E47F64FEFDFC9064EC
:10180100261203BAC31203674020906424E00490B7
:101811006423F004A3F090640D1203D200000000D1
:1018210090641E1203D200000000906423E0FF12B6
:1018310026FB90642E1226DC122FB5906424E0FF63
:101841007B017A64791290642E1226DC122FB590F6
:1018510063EAE0FF906423E0FE6F6007EE1226AAC0
:031861001231221F
:011864002261
:102D9F00E49064C7F09064C5F0A3F09064C5E0FCC4
:102DAF00A3E0FD7B017A6479C7906439E4F0A30452
:102DBF00F07FA07E001229C5EF60E09064C5E47536
:0E2DCF00F0011201E8C39064C5E0941040CDFD
:012DDD0022D3
:0B316E007379732072657365740A00AA
:02274800C126A8
:1030950078E2E2543FF2E24440F2907191E0F0129E
:1030A500303F122D5F12314A122D1A122E1D122891
:0830B5004B7F017E000230DBBD
:102C8C0012217875D95590715EE054FEF075D9BB60
:102C9C00123095D2A37FE87E031230DBC2A37BFFF8
:102CAC007A31796E12052875D9AA12225412306A1B
:102CBC001219CE121D85121865120FB9302605C2D5
:092CCC0026121FA975D9AA80DEA9
:0D313D00656570726F6D20736176650A0024
:10000F00E0FF7B017A6379EE90642EE4F0A3741124
:02001F00F022CD
:10284B00122A429063EAE0906423F012000F122FD9
:10285B00E39063FEE0B4C5028021906423E020E0A6
:10286B000404F08006906423E014F09064231200BB
:10287B000F122FE39063FEE0B4C5249063EE1203B6
:10288B009E9064551203C69063F212039E90645996
:10289B001203C69063F612039E90645D0203C6900A
:1028AB0064551203D2000000009064591203D20049
:0D28BB0000000090645D1203D200000000D8
:0128C80022ED
:0C3157001216D17BFF7A31793D02052869
:102E5B00FEE02FFFEC3EFEA3E02FFFEC3EFE22FA3E
:102E6B0012039E7E00EB2FFFEE3AFE3395E0FDFC46
:102E7B00221203787E00906423E022FC90642802E7
:0E2E8B0003C690642802039E90642402039EF6
:050DB300906423EFF045
:100DB8009064281203D2000000007FA5123130127F
:100DC8002E8DEF24A5FFE43EFEE43DFDE43C122E0B
:100DD80086906423E0FF64016032EF6402602DEFC7
:100DE80064036028EF64046023EF6405601EEF6409
:100DF800066019EF64096014EF640A600FEF64116C
:100E0800600AEF64126005EF641370207F05120F0B
:100E180093120FA5C000122E93122E7F2405FDE415
:100E280033CD2FFFEE3D122E75020F5D906423E047
:100E3800FF6407600AEF64086005EF641070337F91
:100E480006123130906423E0FF120F7B120FA5C009
:100E580000C002C003122E937808122E7C2406FDCF
:100E6800E433CD2FFBEE3DA3122E6AD003D002024D
:100E78000F5D906423E0FF640B600FEF640C600A61
:100E8800EF64146005EF640D70467F07120F9378C6
:100E980010120378120F7B120FAFC000C002C003FC
:100EA800122E937810122E7C2407FDE433CD2FFBED
:100EB800EE3DFAA312039E78081203787E00EB2F0A
:100EC800FBEE3A906424122E6AD003D002020F5D22
:100ED800906423E0640E6003020F657F0B123130CB
:100EE8007F0E123130906461E0FF123130906461FE
:100EF800E0A3E0FF123130906463E0FF12313090DC
:100F08006464E0FF123130906465E0FF1231309084
:100F18006466E0FF123130906467E0FF120FAFC0E3
:100F280000C001C002C003906461E02419FFE433EB
:100F3800FEE0A3E07C002FFFEC3E906463122E5B82
:100F4800A3E02FFFEC3EA3122E5B3395E0FDFCD00F
:100F580003D002D001D0001201FE122E87122E8D6E
:100F6800E4FEFD122E86122E8D1231307F017E0096
:030F78000230DB69
:100F7B0012313090642412039E78081203781231D8
:100F8B003090642412039E22123130906423E0FFD0
:100F9B0012313090642412039E2212313090642857
:0E0FAB001203BA221231309064281203BA22C7
:10274A00476499000000000000004164A000C12114
:10275A00C12044649300000000426497000044646E
:10276A00A1000000004464A500000000426491003A
:01277A00005E
:10301100F583EFF090642DE004F0229064A10203A7
:10302100BAE4FAF9F80202A49DFEE09C90642BF048
:0E303100A3CEF022E0FCA3E0FDC39FEC9E22A4
:0D314A0078D3E254F3F278D0E24420F22270
:102E990012301C906497E0FEA3E0FFE4FCFD1201F0
:102EA900FE9064A11203C6E4906497F0A3F09064C5
:102EB900A512039E9064931203BA1201FE9064A5B1
:0E2EC9001203C69064931203D2000000002290
:10225400E4906423F0A3F09064251203D2000000FC
:1022640000E47FBC7E02FDFC12301CC312036750E5
:102274000620200302230FE47F6D7E05FDFC90649D
:10228400A51203BA1202197B04123022906425129B
:1022940003C6E4302008906423F0A3F080217F2457
:1022A400FEFDFC9064251203BA1202197B0A123057
:1022B4002212301C1202A4906423EEF0A3EFF090DB
:1022C40064B712039E9064251203BA1201FE90644F
:1022D400B71203C69064A51203D2000000009064F4
:1022E400A11203D200000000C220D3906424E09421
:1022F400E7906423E0940340077403F0A374E7F0C9
:0B230400906423E0FEA3E0FF121E9790
:01230F0022AB
:081E9700906429EEF0A3EFF0C6
:101E9F00E4A3F0A3F0C214A3F09064911230355074
:101EAF000FC390642AE0906429123029D21480471E
:101EBF00906491E0FEA3E0FF906429123035500F3B
:101ECF00C3906492E0906491123029C2148028E488
:101EDF0090642DF090642DE0FFC39407501690642A
:101EEF0029A3E0FE74992FF582E43464F583EE1292
:101EFF00301480E0021FA330143AE490642DF09068
:101F0F00642DE0FB2401FFE433FE90642BE0FCA37F
:101F1F00E0FD1201817C007D07120193906491A373
:101F2F00E02FFF74992BF582E43464123011E0B482
:101F3F0007CD8051E490642DF090642BE0FEA3E078
:101F4F00FBAA06E4F9F8A3E0FFC374069FFFE4942D
:101F5F0000FE3395E0FDFC120219E47B07123023DB
:101F6F00906491A3E0C39FFF90642DE0FDC37406BE
:101F7F009DFDE49400FC74992DF58274643C12303D
:101F8F0011E0B407B4906429E0FFA3E0906491CF0F
:091F9F00F0A3EFF0E49064A0F05F
:011FA8002216
:10306A00302127C2219064A0E0C39407501CE024B9
:10307A0099F582E43464F583E0FF90646CE4F0A38C
:0B308A00EFF09064A0E004F0D20822F8
:10277B004264BB00004464B7000000004264BD002B
:10278B00004464AB000000004464AF000000004450
:0D279B0064B300000000C1274264A90000E3
:102F850012039EEF2401FFE43EFEE43DFDE43CFC1C
:102F95002212039E12020BE47B64FAF9F8C30203C2
:102FA500677F7F7E967D987C001203BAC302036714
:1019CE00C39064BCE094309064BBE09475401BE41B
:1019DE00F0A3F0D390646DE0940090646CE09400FA
:1019EE004008302705123157C22790646CE0700210
:1019FE00A3E07015C39064BCE094E89064BBE094DF
:101A0E00034006302703121B1CE47FE87E03FDFC17
:101A1E009064B7122FAE5003021AAE7F187EC67DA9
:101A2E009A7C3B906455122FAE500C906455122F39
:101A3E00859064551203C6906459122FA6500C90CF
:101A4E006459122F859064591203C690645D122F4B
:101A5E00A6500C90645D122F8590645D1203C6D261
:101A6E00279064B712039EC3EF94E8FFEE9403FE33
:0E1A7E00ED9400FDEC9400FC9064B71203C6DA
:101A8C009064A9E475F0011201E8C39064AAE09493
:101A9C00649064A9E0648094804007E4F0A3F012A1
:021AAC001B1C01
:101AAE009064AB1203BA906455122F96500E906448
:101ABE005512039E9064AB1203C6D20C9064AF1203
:101ACE0003BA906459122F96500E90645912039EC9
:101ADE009064AF1203C6D20D9064B31203BA906431
:101AEE005D122F96500E90645D12039E9064B31299
:101AFE0003C6D20EC39064BEE094889064BDE09499
:0D1B0E0013400AE4F0A3F0D20CD20DD20E69
:0E1B1B0022123157C227E49064BBF0A3F022DF
:102DDE00906470E0FFE4FCFDFE9064240203C69054
:102DEE006459E47B64FAF9F812039E0202A490641B
:102DFE006CE0FEA3E0FFE4FCFD22E47BE87A03F93D
:0F2E0E00F890645522906423E0FF75F00FA42222
:10186500E4906423F0F0906423E0FFC39403400305
:101875000219CD74E02FF582E43463F583E070033B
:101885000219C4906423E0FB75F00FA424AEF58221
:10189500E43463F583E012043818BA8018BF8B1856
:1018A500C48C18CE8E18C994196598196999196D43
:1018B5009A0000196FD20002196FD20C02196FD26B
:1018C5000D02196FD20E02196FD20FEB75F00FA42E
:1018D50024AFF582E43463F583E0FFE4FCFDFE7894
:1018E5000812038BEB75F00FA424B0F582E4346382
:1018F500F583E07C002FFFEC3E906461F0A3EFF0F0
:10190500122E1324B1F582E43463F583E090646309
:10191500F0EF75F00FA424B2F582E43463F583E0AB
:10192500906464F0122E1324B3F582E43463F583D6
:10193500E0906465F0EF75F00FA424B4F582E4340B
:1019450063F583E0906466F0906423E075F00FA47E
:1019550024B5F582E43463F583E0906467F0800A8A
:10196500D2118006D2128002D2139063DFE0D394A5
:10197500004003E014F0906423E0FF24E0F582E4E6
:101985003463F583E4F074D92FF582E43463F58389
:10199500E4F074DC2FF582E43463F583E4F0FE7F34
:1019A5000FC006C007FD906423E075F00FA424ACBA
:1019B500F9746335F0FA7B01D007D0061204649000
:0819C5006423E004F002186B3A
:0119CD0022F7
:100FB900200003021064C2009064BFE060030210C5
:100FC9006404F0122DDE7F01120DB3906471122DAD
:100FD900E17F02120DB3906472122DE17F03120DAD
:100FE900B3906474122DE17F04120DB390647512ED
:100FF9002DE17F05120DB3906476122DE17F061263
:101009000DB390646812039E122DE77F07120DB38A
:10101900122DFC122DE77F08120DB3906473122D67
:10102900E17F09120DB3122E08122DF6122DE77F5A
:101039000B120DB3122DED122DE77F0C120DB3908B
:10104900646E122DFF122DE77F10120DB390645DAF
:10105900122DF0122DE77F14120DB330010AC201CF
:10106900122DDE7F01120DB330020DC202906471A0
:10107900122DE17F02120DB330040DC20490647485
:10108900122DE17F04120DB330050DC20590647570
:10109900122DE17F05120DB330060DC2069064765C
:1010A900122DE17F06120DB3300710C20790646854
:1010B90012039E122DE77F07120DB330080DC208E7
:1010C900122DFC122DE77F08120DB330090DC2094C
:1010D900906473122DE17F09120DB3300A18C20A08
:1010E900906477122DE17F12120DB3906478122D5E
:1010F900E17F13120DB3300C10C20C122E08122D01
:10110900F6122DE77F0B120DB3300D0DC20D122D06
:10111900ED122DE77F0C120DB3300E16C20EE47BD3
:1011290064FAF9F890645D122DF6122DE77F141216
:101139000DB3301010C21090646E122DFF122DE7FE
:101149007F10120DB3301119C2119064551203D2D8
:10115900000000009064B71203D2000000001231B1
:1011690057301219C2129064591203D200000000BC
:101179009064B71203D200000000123157301319DE
:10118900C21390645D1203D2000000009064B7128C
:0A11990003D20000000012315722BB
:1027A80041601801426019000041601B0041601C33
:0E27B8000041601D0041601E7F42601FFFFF58
:102ED700E4F561AE3EAD3DAC3C853F178E168D15D2
:102EE7008C14787EE254FCF2E24514F218E515F2F0
:102EF70018E516F218E517F2787FE254FBF2E25470
:0D2F0700FB4404F2E24401F27F010227C7FF
:100B61009064CCEFF0E0FF247BF582E43464F583FC
:100B7100E004F0747D2FF582E43464F583E4F074CD
:100B81007B2FF582E43464F583E0C395635003025F
:100B91000DB29064CCE0FB247BF582E43464F583F0
:100BA100E4F09030CE9364016003020D637F01FE97
:100BB100FDFC747F2BF582E43464F583E0F9F812CF
:100BC100038BE51F4FF51FE51E4EF51EE51D4DF587
:100BD1001DE51C4CF51CAF1FAE1EAD1DFC780112AE
:100BE1000378EF5455FBEE5455FAED5455F9EC5496
:100BF10055F8C3E51F9BF53BE51E9AF53AE51D99AE
:100C0100F539E51C98F538AF3BAE3AAD39FC7802C1
:100C1100120378EF5433FBEE5433FAED5433F9EC0D
:100C21005433F8E53B5433FFE53A5433FEE5395488
:100C310033FDE5385433FCEB2FF53BEA3EF53AE959
:100C41003DF539E83CF538AF3BAE3AAD39FC7804B7
:100C5100120378EF253BFFEE353AFEED3539FDEC19
:100C61003538FCEF540FF53BEE540FF53AED540FC8
:100C7100F539EC540FF538AF3BAE3AAD39FC780895
:100C8100120378EF253BFFEE353AED3539FDEC35B2
:100C910038EFF53BE4F53AEDF539E4F538AE3AAC29
:100CA100387810120378EF253BFFEE353AFEEFF569
:100CB1003BEEF53AE4F539F5389064CCE025E024D3
:100CC10089F582E43464F583E0FEA3E0D39553EE25
:100CD100955240249064CCE0FF25E02489F582E41C
:100CE1003464F583E0F552A3E0F553747F2FF58268
:100CF100E43464F583E0F5649030CEE493FFE4FCE2
:100D0100FDFEAB3BAA3AA939A838D312036740527A
:100D1100AF650565D3EF9403748094805003020D91
:100D2100B2E4F565F51FF51EF51DF51C7F01FEFD0D
:100D3100FCA964A80112038B8F1B8E1A8D198C18C4
:100D4100E47F01FEFDFCA80112038B8F338E328DEF
:100D5100318C30E4F552F5537564201228C94337BC
:100D61000222E4F5657F01FEFDFC9064CCE0FB24EA
:100D71007FF582E43464F583E0F9F812038BE51B17
:100D81004FF51BE51A4EF51AE5194DF519E5184C05
:100D9100F518E47F01FEFDFCA80312038BE5334F38
:100DA100F533E5324EF532E5314DF531E5304CF5AF
:020DB1003022EE
:10082200E4F5669030D2E493FFE566C39F4003028D
:100832000B60E56625E02400F582E4346085828A57
:100842007F548F8B7E0E8E8C758903758889E56641
:1008520025E02400F582E4346085828A8F8B758CD2
:1008620012758904758889E56625E02408F582E415
:100872003460F583E0FCA3E0C3950FEC950E502E97
:10088200E56625E02414F582E43460F583E0FCA3F8
:10089200E0C39513EC95125015AF600560EF94021A
:1008A20074809480400BE4F5605337FD8003E4F5D7
:1008B20060E53730E125E56625E02489F582E434F8
:1008C20064F583E4F0A3F0E56625E0248DF582E487
:1008D2003464F583E4F0A3F0020970E56625E024B0
:1008E20008F582E4346085828A8E8B758C0A75895C
:1008F200267588892088FDE5F130E00875F107E466
:10090200F50AF50BAE0AE50B7802C333CE33CED827
:10091200F9FFE56625E02489F582E43464F583EE87
:10092200F0A3EFF0E56625E02414F582E434608557
:10093200828A758B12758C0A758927758889208839
:10094200FDE5F130E00875F107E4F50AF50BAE0AB2
:10095200E50B7802C333CE33CED8F9FFE56625E046
:10096200248DF582E43464F583EEF0A3EFF0E566BE
:1009720025E02481F582E43464F583E0FEA3E07887
:1009820002CEC313CE13D8F9F5518E50E56625E099
:100992002489F582E43464F583E0FEA3E0FF90301D
:1009A200CAE493FC740193FDC3EF9DEE9C4017E5EE
:1009B2006625E0248DF582E43464F583E0FEA3E04D
:1009C200C39DEE9C50028068E56625E02489F5828D
:1009D200E43464F583E0FEA3E0C39551EE95504004
:1009E2001CE56625E0248DF582E43464F583E0FE9F
:1009F200A3E0C39551EE95504003020A7C74792519
:100A020066F582E43464F583E004F074792566F5D2
:100A120082E43464F583E0FF9030CFE493FEEFD3B9
:100A22009E406474792566F582E43464F583E4F0CB
:100A3200E56625E02404F582E43460F583E0FEA354
:100A4200E0FFE56625E02408F582E43460F583EEF4
:100A5200F0A3EFF0E56625E02410F582E43460F5BA
:100A620083E0FEA3E0FFE56625E02414F582E4348A
:100A720060F583EEF0A3EFF0800D74792566F582C0
:100A8200E43464F583E4F0E56625E02404F582E4C9
:100A9200346085828AE56625E02400F582E43460CC
:100AA20085828B758C0A7589207588CB2088FDE537
:100AB200F130E00875F107E4F50AF50BE56625E08B
:100AC2002404F582E4346085828A758B547F0E8F0C
:100AD2008C7589237588897E0A8E8A8F8BE56625B7
:100AE200E02404F582E4346085828CE4F58975881B
:100AF20029E56625E02410F582E4346085828AE5E2
:100B02006625E02400F582E4346085828B8E8C7544
:100B120089207588CB2088FDE5F130E00875F10762
:100B2200E4F50AF50BE56625E02410F582E434606D
:100B320085828A758B547F0E8F8C7589247588897E
:100B4200758A0A8F8BE56625E02410F582E434600D
:0F0B520085828CE4F589758829056602082522BD
:10136300E4F5669030D2E493FFE566C39F40030241
:10137300151BE56625E02481F582E43464F583E0FA
:10138300FEA3E07802CEC313CE13D8F9F5518E50E5
:10139300E56625E02489F582E43464F583E0FEA361
:1013A300E0D39551EE9550402EE56625E0248DF56A
:1013B30082E43464F583E0FEA3E0D39551EE9550C7
:1013C3004015747D2566F582E43464F583E4F0AF5B
:1013D30066120B610215169030D1E493FFC3E551F9
:1013E3009FFFE5509400FED3EF9400EE940040027B
:1013F30080047E007F00E56625E02489F582E434DD
:1014030064F583E0FCA3E0C39FEC9E40030215094F
:101413009030D1E493FFC3E5519FFFE5509400FE64
:10142300D3EF9400EE9400400280047E007F00E539
:101433006625E0248DF582E43464F583E0FCA3E0C3
:10144300C39FEC9E4003021509747B2566F582E475
:101453003464F583E4F0747D2566F582E43464F541
:1014630083E004F0747D2566F582E43464F583E05B
:10147300C395635003021516747D2566F582E43423
:1014830064F583E4F07F01FEFDFC747F2566F5823D
:10149300E43464F583E0F9F812038B120336E51F95
:1014A3005FF51FE51E5EF51EE51D5DF51DE51C5C84
:1014B300F51CE47F01FEFDFCA966A80112038B1253
:1014C3000336E5335FF533E5325EF532E5315DF53D
:1014D30031E5305CF530E47F01FEFDFC747F256669
:1014E300F582E43464F583E0F9F812038B120336D2
:1014F300E51B5FF51BE51A5EF51AE5195DF519E5C0
:10150300185CF518800D747D2566F582E43464F566
:0915130083E4F005660213662270
:1028C900E4F5669030D2E493FFE566C39F506EE568
:1028D9006625E02489F582E43464F583E4F0A3F005
:1028E900E56625E0248DF582E43464F583E4F0A3FC
:1028F900F0E56625E02404F582E43460F583E0FE22
:10290900A3E0FFE56625E02408F582E43460F58359
:10291900EEF0A3EFF0E56625E02410F582E43460DB
:10292900F583E0FEA3E0FFE56625E02414F582E4E3
:0E2939003460F583EEF0A3EFF0056680862291
:10258500E4F5669030D2E493FFE566C39F5067900B
:102595006018E0FF7E00C39410748094805053EF60
:1025A5009408748094804025E56625E02400F58232
:1025B500E43460F583E0FEA3E0FFE56625E024044E
:1025C500F582E43460F583EE8FF01201E8E56625C7
:1025D500E02400F582E43460F583E0FEA3E0FFE546
:1025E5006625E02410F582E43460F583EE8FF01261
:1025F50001E80566808D906018E0C394107480949E
:102605008040054337048006906018E004F07F01A0
:032615000227C7D2
:10294700E4FFFEFDFCAB1BAA1AA919A818C31203C2
:1029570067606390601AE004F07006906019E00405
:10296700F09030C6E493FE740193FF4E602ED3902F
:10297700601AE09F906019E09E4021E4F0A3F0F513
:102987001FF51EF51DF51CF533F532F531F530F55C
:102997001BF51AF519F518C2230228C99030C8E4A7
:1029A70093FE740193FFD390601AE09F906019E043
:0D29B7009E400AD22322E4906019F0A3F0A4
:0129C40022F0
:05151C0090644FEFF0A8
:10152100A3E0FCA3E0FDA3E0FEA3E0F54C8E4B8D10
:101531004A8C497884E2F50A08E2F50B758A087548
:101541008B49758C4575881D2088FDE4FFFEFDFCE7
:10155100AB48AA47A946A845D31203514006AC455A
:10156100A8048013AF48AE47AD46AC45120343AB68
:1015710007AA06A905A80490601FE0FEA3E0FFE406
:10158100FCFDC31203515041E4FFFEFDFCAB48AA30
:1015910047A946A8451203514006AF48AE47800B04
:1015A100AF48AE47AD46AC4512034390601FEEF025
:1015B100A3EFF090644FE025E02485F582E43464E4
:1015C100F583E0A3E090601EF09030C3E493FE74D5
:1015D1000193FFD3906020E09F90601FE09E501B1D
:1015E10090644FE025E02485F582E43464F583E0DE
:1015F100A3E090601EF090601B8079E4FFFEFDFC8B
:10160100AB48AA47A946A845D31203514034906478
:101611004FE0FF25E02485F582E43464F583E0FCA6
:10162100A3E0D39400EC9400404DEF25E02485F530
:1016310082E43464F58374FFF5F01201E890601CD4
:10164100803290644FE0FF25E02485F582E4346424
:10165100F583E0FCA3E0C3947FEC94005019EF25DF
:10166100E02485F582E43464F583E475F001120128
:10167100E890601D7401F090601CE064017011A39A
:10168100E06401700B90601CF0A3F090601B04F00B
:1016910090601BE06401703590601EE0FF90644F24
:1016A100E025E02485F582E43464F583E4F0A3EFDA
:1016B100F074FF90601FF0A3F090601E747FF0E45F
:0F16C10090601CF0A3F090601BF07F01227F006F
:0116D00022F7
:102B3400E490644EF09030BD1203AA780112038B26
:102B44009064501203C6AF6112151CEF6022056138
:102B5400E53730E4095337EF90644E7401F0903058
:102B6400D2E493FFE561C39F4006E4F56143371067
:102B7400C39030C17401939562E49394004008902B
:102B8400644EE064017005D222022ED7E4FF1227BE
:012B9400C779
:012B9500221D
:1027C700EF70607F01FEFDFC747F2561F582E434C4
:1027D70064F583E0F9F812038B8F178E168D158C2D
:1027E70014787EE254FCF2E24514F218E515F2186B
:1027F700E516F218E517F2E56125E02485F582E490
:102807003464F583E0A3E0547FFF7878E254804F87
:10281700F2787FE254FBF2E254FB4404F2E2440113
:10282700F2801CE56125E02485F582E43464F583B4
:10283700E0A3E0547FFF7878E254804FF2787FE29C
:042847004402F22233
:1023B900E49064CAF0A3F09064CAE0FEA3E0FFC30E
:1023C9009488EE94035031EF2422FFEE34088F8273
:1023D900F583E493FF9064CBE02421FD9064CAE087
:1023E90034608D82F583EFF09064CBE004F070C720
:0823F9009064CAE004F080BF0B
:102401009063A97401F0A37460F0A37421F0E4F562
:1024110061F537F536F535F534C222C223F51FF5DE
:102421001EF51DF51CF533F532F531F530F51BF5CB
:102431001AF519F5189030CC93FF9030D0E493FE43
:10244100A807088002C333D8FCF563756420E4FF54
:032451000227C798
:102ABF007884E2F50A08E2F50BAE0A7803CEC31369
:102ACF00CE13D8F97802C333CE33CED8F9FFE561F0
:102ADF0025E02400F582E43460F583EEF0A3EFF0F7
:102AEF0020220F9030C5E4937005D222022ED70218
:102AFF002B3405619030D2E493FFE561C39F401FF3
:102B0F00787FE254FBF2E254FB4404F2E24401F218
:102B1F00E4F561E53720E203022585433701227F83
:052B2F00011227C7227E
:0531940005620229475D
:10002700E53730E01A9063A9A3E0FAA3E0F91204D8
:100037005E121363E4F5617F011227C75337FE226F
:10246E00022C8CE493A3F8E493A34003F68001F2CC
:10247E0008DFF48029E493A3F85407240CC8C3336F
:10248E00C4540F4420C8834004F456800146F6DF3E
:10249E00E4800B010204081020408090273CE47E6B
:1024AE00019360BCA3FF543F30E509541FFEE49333
:1024BE00A360010ECF54C025E060A840B8E493A3FA
:1024CE00FAE493A3F8E493A3C8C582C8CAC583CA25
:1024DE00F0A3C8C582C8CAC583CADFE9DEE780BEDD
:0127C6000012
:10006000E709F608DFFA8046E709F208DFFA803E82
:1000700088828C83E709F0A3DFFA8032E309F6086F
:10008000DFFA8078E309F208DFFA807088828C83D7
:10009000E309F0A3DFFA806489828A83E0A3F6088B
:1000A000DFFA805889828A83E0A3F208DFFA804C65
:1000B00080D280FA80C680D4806980F2803380103C
:1000C00080A680EA809A80A880DA80E280CA8033A5
:1000D00089828A83ECFAE493A3C8C582C8CCC5831D
:1000E000CCF0A3C8C582C8CCC583CCDFE9DEE780ED
:1000F0000D89828A83E493A3F608DFF9ECFAA9F06C
:10010000EDFB2289828A83ECFAE0A3C8C582C8CCC1
:10011000C583CCF0A3C8C582C8CCC583CCDFEADEDA
:10012000E880DB89828A83E493A3F208DFF980CC3C
:1001300088F0EF60010E4E60C388F0ED2402B40435
:100140000050B9F582EB2402B4040050AF232345DC
:0601500082239000B07351
:10015600BB010689828A83E0225002E722BBFE02A7
:09016600E32289828A83E49322DA
:10016F00BB010689828A83F0225002F722BBFE016F
:02017F00F32269
:10018100EF8DF0A4A8F0CF8CF0A428CE8DF0A42E92
:02019100FE224C
:10019300BC000BBE0029EF8DF084FFADF022E4CC50
:1001A300F875F008EF2FFFEE33FEEC33FCEE9DEC19
:1001B300984005FCEE9DFE0FD5F0E9E4CEFD22ED5F
:1001C300F8F5F0EE8420D21CFEADF075F008EF2FA9
:1001D300FFED33FD4007985006D5F0F222C398FD9A
:0501E3000FD5F0EA2237
:1001E800C5F0F8A3E028F0C5F0F8E58215827002A2
:0601F8001583E038F0223F
:0D01FE00EF2BFFEE3AFEED39FDEC38FC2250
:0E020B00C3EF9BFFEE9AFEED99FDEC98FC22EE
:10021900E88FF0A4CC8BF0A42CFCE98EF0A42CFC84
:100229008AF0EDA42CFCEA8EF0A4CDA8F08BF0A402
:100239002DCC3825F0FDE98FF0A42CCD35F0FCEB61
:100249008EF0A4FEA9F0EB8FF0A4CFC5F02ECD3926
:0F025900FEE43CFCEAA42DCE35F0FDE43CFC2293
:1002680075F008758200EF2FFFEE33FECD33CDCC4D
:1002780033CCC58233C5829BED9AEC99E5829840D0
:100288000CF582EE9BFEED9AFDEC99FC0FD5F0D6AD
:10029800E4CEFBE4CDFAE4CCF9A88222B800C1B9D7
:1002A8000059BA002DEC8BF084CFCECDFCE5F0CB15
:1002B800F97818EF2FFFEE33FEED33FDEC33FCEB4E
:1002C80033FB10D703994004EB99FB0FD8E5E4F909
:1002D800FA227818EF2FFFEE33FEED33FDEC33FCF6
:1002E800C933C910D7059BE99A4007EC9BFCE99AEA
:1002F800F90FD8E0E4C9FAE4CCFB2275F010EF2F2F
:10030800FFEE33FEED33FDCC33CCC833C810D7072E
:100318009BEC9AE899400AED9BFDEC9AFCE899F869
:0E0328000FD5F0DAE4CDFBE4CCFAE4C8F922FC
:0D033600CFF4CFCEF4CECDF4CDCCF4CC225C
:0E034300C3E49FFFE49EFEE49DFDE49CFC22CB
:10035100EB9FF5F0EA9E42F0E99D42F0EC6480C823
:0603610064809845F022C3
:10036700EB9FF5F0EA9E42F0E99D42F0E89C45F0EC
:010377002263
:10037800E8600FECC313FCED13FDEE13FEEF13FF63
:03038800D8F12287
:10038B00E8600FEFC333FFEE33FEED33FDEC33FCD0
:03039B00D8F12274
:0C039E00E0FCA3E0FDA3E0FEA3E0FF22D2
:1003AA00E493FC740193FD740293FE740393FF2299
:0C03BA00E0F8A3E0F9A3E0FAA3E0FB22C6
:0C03C600ECF0A3EDF0A3EEF0A3EFF022AA
:1003D200A8828583F0D083D0821203E91203E91246
:1003E20003E91203E9E473E493A3C583C5F0C5836B
:1003F200C8C582C8F0A3C583C5F0C583C8C582C875
:0104020022D7
:0C040300A42582F582E5F03583F5832204
:09040F00E0FBA3E0FAA3E0F922EE
:10041800F8E0FBA3A3E0F925F0F0E582158270026D
:070428001583E0FA38F02211
:09042F00EBF0A3EAF0A3E9F022CE
:10043800D083D082F8E4937012740193700DA3A353
:1004480093F8740193F5828883E473740293686067
:06045800EFA3A3A380DF67
:06045E008A838982E47329
:1004BD00E5402428F582E43464F583E0054022907C
:1004CD006425301B03906428E475F00112041802B2
:1004DD0001562014E97F2ED2148018EF540F24906A
:1004ED00D43440D4FF30180BEF24BFB41A0050039E
:1004FD002461FFE541600215410544E544700205A4
:10050D0043301B0E906425E475F001120418EF02C0
:10051D00016F02004E7403D21B8003E4C21BF54031
:10052D0090642512042FE4F541F543F544E541604F
:10053D00077F2012050080F57542FFC215C214C257
:10054D0016C217C219C21AC21C1204CCFF700D308C
:10055D001B057F00120511AF44AE4322B4255FC2C7
:10056D00D5C2181204CCFF24D0B40A00501A75F06D
:10057D000A784130D50508B6FF0106C6A426F62037
:10058D00D5047002D21780D924CFB41A00EF5004CD
:10059D00C2E5D218020712D21580C6D21480C0D27D
:1005AD001680BCD2D580BAD21980B47F2012050036
:1005BD002016077401B5410040F11204BDFF12056C
:1005CD000002053AD21CD21A80951204BDFB12040A
:1005DD00BDFA1204BDF94A4B700679E37A077BFF29
:1005ED0020162EE541602A7E008E8275830012044E
:1005FD009060060EEE654270F0C2D5EBC0E0EAC029
:10060D00E0E9C0E0EE120759D0E0F9D0E0FAD0E011
:10061D00FB120156FF60AAEBC0E0EAC0E0E9C0E0C2
:10062D00120500D0E02401F9D0E03400FAD0E0FB4F
:10063D00E5420460DCD542D980877BFF7A07795586
:10064D00D216809C791080027908C21AC21C8008CB
:10065D00D2D5790A8004790AC2D5E542047002F533
:10066D0042E4FAFDFEFF1204BDFC7B0820151312B7
:10067D0004BDFD7B1030140A1204BDFE1204BDFF33
:10068D007B20EC3382D592D55013C3E43014069FF2
:10069D00FFE49EFEE42015039DFDE49CFCE4CBF8F5
:1006AD00C215EC700CCFCECDCCE824F8F870F380E9
:1006BD0017C3EF33FFEE33FEED33FDEC33FCEB33BD
:1006CD00FB994002FB0FD8E9EB301505F8D0E0C4DB
:1006DD0048B215C0E00AEC4D4E4F78207B0070C239
:1006ED00EAB5420040BCC0E012075BD0F0D0E0207C
:1006FD001504C4C0E0C4B215C0F01204E9D0F0D5A1
:10070D00F0EB02053A12043805D75306515805A8E7
:10071D004C05A44206554F065D44065D4905BD4393
:08072D00066355064746064726
:100735004506474708035005AC2D05B02E05D32BBC
:1007450005B42305D12007EC2A056C48000005CB2C
:100755003F3F3F00790AA2D5201714301909B91077
:10076500020404B9080104A2D5201A02500104208C
:1007750016689216B541005034C0E07F2030171935
:100785007F30A216721A7219500F1207B2C216C222
:100795001AC219C21C7F30800F301903E9C0E0125C
:1007A5000500301903D0E0F9D0E0B541CC30191778
:1007B5007F30B9100C1205007F583018077F7880FC
:1007C50003B908031205003016057F2D0205007FC9
:1007D50020201CF87F2B201AF322921680CF286E3A
:1007E500756C6C2900D2151204BD3015F8C2157848
:1007F5004130D50108F602056C2D504349581204C5
:10080500BD2403B405004001E49007FE931204F1F2
:0D081500743A1204F1D21775410402065125
:10046400EF4E6012EF60010EEDBB010B89828A83AF
:10047400F0A3DFFCDEFA2289F05007F709DFFCA9BC
:0C048400F022BBFEFCF309DFFCA9F02213
:10049000BB010CE58229F582E5833AF583E0225021
:1004A00006E92582F8E622BBFE06E92582F8E2226B
:0D04B000E58229F582E5833AF583E4932285
:00000001FF
